{
  "contractName": "PoseidonNFT",
  "abi": [
    {
      "inputs": [],
      "stateMutability": "nonpayable",
      "type": "constructor"
    },
    {
      "anonymous": false,
      "inputs": [
        {
          "indexed": true,
          "internalType": "address",
          "name": "owner",
          "type": "address"
        },
        {
          "indexed": true,
          "internalType": "address",
          "name": "approved",
          "type": "address"
        },
        {
          "indexed": true,
          "internalType": "uint256",
          "name": "tokenId",
          "type": "uint256"
        }
      ],
      "name": "Approval",
      "type": "event"
    },
    {
      "anonymous": false,
      "inputs": [
        {
          "indexed": true,
          "internalType": "address",
          "name": "owner",
          "type": "address"
        },
        {
          "indexed": true,
          "internalType": "address",
          "name": "operator",
          "type": "address"
        },
        {
          "indexed": false,
          "internalType": "bool",
          "name": "approved",
          "type": "bool"
        }
      ],
      "name": "ApprovalForAll",
      "type": "event"
    },
    {
      "anonymous": false,
      "inputs": [
        {
          "indexed": true,
          "internalType": "address",
          "name": "previousOwner",
          "type": "address"
        },
        {
          "indexed": true,
          "internalType": "address",
          "name": "newOwner",
          "type": "address"
        }
      ],
      "name": "OwnershipTransferred",
      "type": "event"
    },
    {
      "anonymous": false,
      "inputs": [
        {
          "indexed": true,
          "internalType": "address",
          "name": "from",
          "type": "address"
        },
        {
          "indexed": true,
          "internalType": "address",
          "name": "to",
          "type": "address"
        },
        {
          "indexed": true,
          "internalType": "uint256",
          "name": "tokenId",
          "type": "uint256"
        }
      ],
      "name": "Transfer",
      "type": "event"
    },
    {
      "inputs": [
        {
          "internalType": "address",
          "name": "to",
          "type": "address"
        },
        {
          "internalType": "uint256",
          "name": "tokenId",
          "type": "uint256"
        }
      ],
      "name": "approve",
      "outputs": [],
      "stateMutability": "nonpayable",
      "type": "function"
    },
    {
      "inputs": [
        {
          "internalType": "address",
          "name": "owner",
          "type": "address"
        }
      ],
      "name": "balanceOf",
      "outputs": [
        {
          "internalType": "uint256",
          "name": "",
          "type": "uint256"
        }
      ],
      "stateMutability": "view",
      "type": "function",
      "constant": true
    },
    {
      "inputs": [
        {
          "internalType": "uint256",
          "name": "tokenId",
          "type": "uint256"
        }
      ],
      "name": "burn",
      "outputs": [],
      "stateMutability": "nonpayable",
      "type": "function"
    },
    {
      "inputs": [
        {
          "internalType": "uint256",
          "name": "tokenId",
          "type": "uint256"
        }
      ],
      "name": "getApproved",
      "outputs": [
        {
          "internalType": "address",
          "name": "",
          "type": "address"
        }
      ],
      "stateMutability": "view",
      "type": "function",
      "constant": true
    },
    {
      "inputs": [
        {
          "internalType": "address",
          "name": "owner",
          "type": "address"
        },
        {
          "internalType": "address",
          "name": "operator",
          "type": "address"
        }
      ],
      "name": "isApprovedForAll",
      "outputs": [
        {
          "internalType": "bool",
          "name": "",
          "type": "bool"
        }
      ],
      "stateMutability": "view",
      "type": "function",
      "constant": true
    },
    {
      "inputs": [],
      "name": "name",
      "outputs": [
        {
          "internalType": "string",
          "name": "",
          "type": "string"
        }
      ],
      "stateMutability": "view",
      "type": "function",
      "constant": true
    },
    {
      "inputs": [],
      "name": "owner",
      "outputs": [
        {
          "internalType": "address",
          "name": "",
          "type": "address"
        }
      ],
      "stateMutability": "view",
      "type": "function",
      "constant": true
    },
    {
      "inputs": [
        {
          "internalType": "uint256",
          "name": "tokenId",
          "type": "uint256"
        }
      ],
      "name": "ownerOf",
      "outputs": [
        {
          "internalType": "address",
          "name": "",
          "type": "address"
        }
      ],
      "stateMutability": "view",
      "type": "function",
      "constant": true
    },
    {
      "inputs": [],
      "name": "renounceOwnership",
      "outputs": [],
      "stateMutability": "nonpayable",
      "type": "function"
    },
    {
      "inputs": [
        {
          "internalType": "address",
          "name": "from",
          "type": "address"
        },
        {
          "internalType": "address",
          "name": "to",
          "type": "address"
        },
        {
          "internalType": "uint256",
          "name": "tokenId",
          "type": "uint256"
        }
      ],
      "name": "safeTransferFrom",
      "outputs": [],
      "stateMutability": "nonpayable",
      "type": "function"
    },
    {
      "inputs": [
        {
          "internalType": "address",
          "name": "from",
          "type": "address"
        },
        {
          "internalType": "address",
          "name": "to",
          "type": "address"
        },
        {
          "internalType": "uint256",
          "name": "tokenId",
          "type": "uint256"
        },
        {
          "internalType": "bytes",
          "name": "data",
          "type": "bytes"
        }
      ],
      "name": "safeTransferFrom",
      "outputs": [],
      "stateMutability": "nonpayable",
      "type": "function"
    },
    {
      "inputs": [
        {
          "internalType": "address",
          "name": "operator",
          "type": "address"
        },
        {
          "internalType": "bool",
          "name": "approved",
          "type": "bool"
        }
      ],
      "name": "setApprovalForAll",
      "outputs": [],
      "stateMutability": "nonpayable",
      "type": "function"
    },
    {
      "inputs": [
        {
          "internalType": "bytes4",
          "name": "interfaceId",
          "type": "bytes4"
        }
      ],
      "name": "supportsInterface",
      "outputs": [
        {
          "internalType": "bool",
          "name": "",
          "type": "bool"
        }
      ],
      "stateMutability": "view",
      "type": "function",
      "constant": true
    },
    {
      "inputs": [],
      "name": "symbol",
      "outputs": [
        {
          "internalType": "string",
          "name": "",
          "type": "string"
        }
      ],
      "stateMutability": "view",
      "type": "function",
      "constant": true
    },
    {
      "inputs": [
        {
          "internalType": "address",
          "name": "from",
          "type": "address"
        },
        {
          "internalType": "address",
          "name": "to",
          "type": "address"
        },
        {
          "internalType": "uint256",
          "name": "tokenId",
          "type": "uint256"
        }
      ],
      "name": "transferFrom",
      "outputs": [],
      "stateMutability": "nonpayable",
      "type": "function"
    },
    {
      "inputs": [
        {
          "internalType": "address",
          "name": "newOwner",
          "type": "address"
        }
      ],
      "name": "transferOwnership",
      "outputs": [],
      "stateMutability": "nonpayable",
      "type": "function"
    },
    {
      "inputs": [
        {
          "internalType": "address",
          "name": "to",
          "type": "address"
        },
        {
          "internalType": "string",
          "name": "uri",
          "type": "string"
        }
      ],
      "name": "mint",
      "outputs": [],
      "stateMutability": "nonpayable",
      "type": "function"
    },
    {
      "inputs": [
        {
          "internalType": "uint256",
          "name": "tokenId",
          "type": "uint256"
        }
      ],
      "name": "tokenURI",
      "outputs": [
        {
          "internalType": "string",
          "name": "",
          "type": "string"
        }
      ],
      "stateMutability": "view",
      "type": "function",
      "constant": true
    }
  ],
  "bytecode": "0x60806040523480156200001157600080fd5b506040518060400160405280600b81526020017f506f736569646f6e4e46540000000000000000000000000000000000000000008152506040518060400160405280600481526020017f504e46540000000000000000000000000000000000000000000000000000000081525081600090816200008f919062000412565b508060019081620000a1919062000412565b505050620000c4620000b8620000ca60201b60201c565b620000d260201b60201c565b620004f9565b600033905090565b6000600760009054906101000a900473ffffffffffffffffffffffffffffffffffffffff16905081600760006101000a81548173ffffffffffffffffffffffffffffffffffffffff021916908373ffffffffffffffffffffffffffffffffffffffff1602179055508173ffffffffffffffffffffffffffffffffffffffff168173ffffffffffffffffffffffffffffffffffffffff167f8be0079c531659141344cd1fd0a4f28419497f9722a3daafe3b4186f6b6457e060405160405180910390a35050565b600081519050919050565b7f4e487b7100000000000000000000000000000000000000000000000000000000600052604160045260246000fd5b7f4e487b7100000000000000000000000000000000000000000000000000000000600052602260045260246000fd5b600060028204905060018216806200021a57607f821691505b60208210810362000230576200022f620001d2565b5b50919050565b60008190508160005260206000209050919050565b60006020601f8301049050919050565b600082821b905092915050565b6000600883026200029a7fffffffffffffffffffffffffffffffffffffffffffffffffffffffffffffffff826200025b565b620002a686836200025b565b95508019841693508086168417925050509392505050565b6000819050919050565b6000819050919050565b6000620002f3620002ed620002e784620002be565b620002c8565b620002be565b9050919050565b6000819050919050565b6200030f83620002d2565b620003276200031e82620002fa565b84845462000268565b825550505050565b600090565b6200033e6200032f565b6200034b81848462000304565b505050565b5b8181101562000373576200036760008262000334565b60018101905062000351565b5050565b601f821115620003c2576200038c8162000236565b62000397846200024b565b81016020851015620003a7578190505b620003bf620003b6856200024b565b83018262000350565b50505b505050565b600082821c905092915050565b6000620003e760001984600802620003c7565b1980831691505092915050565b6000620004028383620003d4565b9150826002028217905092915050565b6200041d8262000198565b67ffffffffffffffff811115620004395762000438620001a3565b5b62000445825462000201565b6200045282828562000377565b600060209050601f8311600181146200048a576000841562000475578287015190505b620004818582620003f4565b865550620004f1565b601f1984166200049a8662000236565b60005b82811015620004c4578489015182556001820191506020850194506020810190506200049d565b86831015620004e45784890151620004e0601f891682620003d4565b8355505b6001600288020188555050505b505050505050565b61326c80620005096000396000f3fe608060405234801561001057600080fd5b50600436106101165760003560e01c8063715018a6116100a2578063b88d4fde11610071578063b88d4fde146102cb578063c87b56dd146102e7578063d0def52114610317578063e985e9c514610333578063f2fde38b1461036357610116565b8063715018a6146102695780638da5cb5b1461027357806395d89b4114610291578063a22cb465146102af57610116565b806323b872dd116100e957806323b872dd146101b557806342842e0e146101d157806342966c68146101ed5780636352211e1461020957806370a082311461023957610116565b806301ffc9a71461011b57806306fdde031461014b578063081812fc14610169578063095ea7b314610199575b600080fd5b61013560048036038101906101309190611fc6565b61037f565b604051610142919061200e565b60405180910390f35b610153610461565b60405161016091906120b9565b60405180910390f35b610183600480360381019061017e9190612111565b6104f3565b604051610190919061217f565b60405180910390f35b6101b360048036038101906101ae91906121c6565b610539565b005b6101cf60048036038101906101ca9190612206565b610650565b005b6101eb60048036038101906101e69190612206565b6106b0565b005b61020760048036038101906102029190612111565b6106d0565b005b610223600480360381019061021e9190612111565b61072c565b604051610230919061217f565b60405180910390f35b610253600480360381019061024e9190612259565b6107b2565b6040516102609190612295565b60405180910390f35b610271610869565b005b61027b61087d565b604051610288919061217f565b60405180910390f35b6102996108a7565b6040516102a691906120b9565b60405180910390f35b6102c960048036038101906102c491906122dc565b610939565b005b6102e560048036038101906102e09190612451565b61094f565b005b61030160048036038101906102fc9190612111565b6109b1565b60405161030e91906120b9565b60405180910390f35b610331600480360381019061032c9190612575565b6109c3565b005b61034d600480360381019061034891906125d1565b6109fc565b60405161035a919061200e565b60405180910390f35b61037d60048036038101906103789190612259565b610a90565b005b60007f80ac58cd000000000000000000000000000000000000000000000000000000007bffffffffffffffffffffffffffffffffffffffffffffffffffffffff1916827bffffffffffffffffffffffffffffffffffffffffffffffffffffffff1916148061044a57507f5b5e139f000000000000000000000000000000000000000000000000000000007bffffffffffffffffffffffffffffffffffffffffffffffffffffffff1916827bffffffffffffffffffffffffffffffffffffffffffffffffffffffff1916145b8061045a575061045982610b13565b5b9050919050565b60606000805461047090612640565b80601f016020809104026020016040519081016040528092919081815260200182805461049c90612640565b80156104e95780601f106104be576101008083540402835291602001916104e9565b820191906000526020600020905b8154815290600101906020018083116104cc57829003601f168201915b5050505050905090565b60006104fe82610b7d565b6004600083815260200190815260200160002060009054906101000a900473ffffffffffffffffffffffffffffffffffffffff169050919050565b60006105448261072c565b90508073ffffffffffffffffffffffffffffffffffffffff168373ffffffffffffffffffffffffffffffffffffffff16036105b4576040517f08c379a00000000000000000000000000000000000000000000000000000000081526004016105ab906126e3565b60405180910390fd5b8073ffffffffffffffffffffffffffffffffffffffff166105d3610bc8565b73ffffffffffffffffffffffffffffffffffffffff1614806106025750610601816105fc610bc8565b6109fc565b5b610641576040517f08c379a000000000000000000000000000000000000000000000000000000000815260040161063890612775565b60405180910390fd5b61064b8383610bd0565b505050565b61066161065b610bc8565b82610c89565b6106a0576040517f08c379a000000000000000000000000000000000000000000000000000000000815260040161069790612807565b60405180910390fd5b6106ab838383610d1e565b505050565b6106cb8383836040518060200160405280600081525061094f565b505050565b6106e16106db610bc8565b82610c89565b610720576040517f08c379a000000000000000000000000000000000000000000000000000000000815260040161071790612807565b60405180910390fd5b61072981611017565b50565b60008061073883611023565b9050600073ffffffffffffffffffffffffffffffffffffffff168173ffffffffffffffffffffffffffffffffffffffff16036107a9576040517f08c379a00000000000000000000000000000000000000000000000000000000081526004016107a090612873565b60405180910390fd5b80915050919050565b60008073ffffffffffffffffffffffffffffffffffffffff168273ffffffffffffffffffffffffffffffffffffffff1603610822576040517f08c379a000000000000000000000000000000000000000000000000000000000815260040161081990612905565b60405180910390fd5b600360008373ffffffffffffffffffffffffffffffffffffffff1673ffffffffffffffffffffffffffffffffffffffff168152602001908152602001600020549050919050565b610871611060565b61087b60006110de565b565b6000600760009054906101000a900473ffffffffffffffffffffffffffffffffffffffff16905090565b6060600180546108b690612640565b80601f01602080910402602001604051908101604052809291908181526020018280546108e290612640565b801561092f5780601f106109045761010080835404028352916020019161092f565b820191906000526020600020905b81548152906001019060200180831161091257829003601f168201915b5050505050905090565b61094b610944610bc8565b83836111a4565b5050565b61096061095a610bc8565b83610c89565b61099f576040517f08c379a000000000000000000000000000000000000000000000000000000000815260040161099690612807565b60405180910390fd5b6109ab84848484611310565b50505050565b60606109bc8261136c565b9050919050565b6109cb611060565b60006109d7600861147e565b90506109e3600861148c565b6109ed83826114a2565b6109f781836114c0565b505050565b6000600560008473ffffffffffffffffffffffffffffffffffffffff1673ffffffffffffffffffffffffffffffffffffffff16815260200190815260200160002060008373ffffffffffffffffffffffffffffffffffffffff1673ffffffffffffffffffffffffffffffffffffffff16815260200190815260200160002060009054906101000a900460ff16905092915050565b610a98611060565b600073ffffffffffffffffffffffffffffffffffffffff168173ffffffffffffffffffffffffffffffffffffffff1603610b07576040517f08c379a0000000000000000000000000000000000000000000000000000000008152600401610afe90612997565b60405180910390fd5b610b10816110de565b50565b60007f01ffc9a7000000000000000000000000000000000000000000000000000000007bffffffffffffffffffffffffffffffffffffffffffffffffffffffff1916827bffffffffffffffffffffffffffffffffffffffffffffffffffffffff1916149050919050565b610b868161152d565b610bc5576040517f08c379a0000000000000000000000000000000000000000000000000000000008152600401610bbc90612873565b60405180910390fd5b50565b600033905090565b816004600083815260200190815260200160002060006101000a81548173ffffffffffffffffffffffffffffffffffffffff021916908373ffffffffffffffffffffffffffffffffffffffff160217905550808273ffffffffffffffffffffffffffffffffffffffff16610c438361072c565b73ffffffffffffffffffffffffffffffffffffffff167f8c5be1e5ebec7d5bd14f71427d1e84f3dd0314c0f7b2291e5b200ac8c7c3b92560405160405180910390a45050565b600080610c958361072c565b90508073ffffffffffffffffffffffffffffffffffffffff168473ffffffffffffffffffffffffffffffffffffffff161480610cd75750610cd681856109fc565b5b80610d1557508373ffffffffffffffffffffffffffffffffffffffff16610cfd846104f3565b73ffffffffffffffffffffffffffffffffffffffff16145b91505092915050565b8273ffffffffffffffffffffffffffffffffffffffff16610d3e8261072c565b73ffffffffffffffffffffffffffffffffffffffff1614610d94576040517f08c379a0000000000000000000000000000000000000000000000000000000008152600401610d8b90612a29565b60405180910390fd5b600073ffffffffffffffffffffffffffffffffffffffff168273ffffffffffffffffffffffffffffffffffffffff1603610e03576040517f08c379a0000000000000000000000000000000000000000000000000000000008152600401610dfa90612abb565b60405180910390fd5b610e10838383600161156e565b8273ffffffffffffffffffffffffffffffffffffffff16610e308261072c565b73ffffffffffffffffffffffffffffffffffffffff1614610e86576040517f08c379a0000000000000000000000000000000000000000000000000000000008152600401610e7d90612a29565b60405180910390fd5b6004600082815260200190815260200160002060006101000a81549073ffffffffffffffffffffffffffffffffffffffff02191690556001600360008573ffffffffffffffffffffffffffffffffffffffff1673ffffffffffffffffffffffffffffffffffffffff168152602001908152602001600020600082825403925050819055506001600360008473ffffffffffffffffffffffffffffffffffffffff1673ffffffffffffffffffffffffffffffffffffffff16815260200190815260200160002060008282540192505081905550816002600083815260200190815260200160002060006101000a81548173ffffffffffffffffffffffffffffffffffffffff021916908373ffffffffffffffffffffffffffffffffffffffff160217905550808273ffffffffffffffffffffffffffffffffffffffff168473ffffffffffffffffffffffffffffffffffffffff167fddf252ad1be2c89b69c2b068fc378daa952ba7f163c4a11628f55a4df523b3ef60405160405180910390a46110128383836001611694565b505050565b6110208161169a565b50565b60006002600083815260200190815260200160002060009054906101000a900473ffffffffffffffffffffffffffffffffffffffff169050919050565b611068610bc8565b73ffffffffffffffffffffffffffffffffffffffff1661108661087d565b73ffffffffffffffffffffffffffffffffffffffff16146110dc576040517f08c379a00000000000000000000000000000000000000000000000000000000081526004016110d390612b27565b60405180910390fd5b565b6000600760009054906101000a900473ffffffffffffffffffffffffffffffffffffffff16905081600760006101000a81548173ffffffffffffffffffffffffffffffffffffffff021916908373ffffffffffffffffffffffffffffffffffffffff1602179055508173ffffffffffffffffffffffffffffffffffffffff168173ffffffffffffffffffffffffffffffffffffffff167f8be0079c531659141344cd1fd0a4f28419497f9722a3daafe3b4186f6b6457e060405160405180910390a35050565b8173ffffffffffffffffffffffffffffffffffffffff168373ffffffffffffffffffffffffffffffffffffffff1603611212576040517f08c379a000000000000000000000000000000000000000000000000000000000815260040161120990612b93565b60405180910390fd5b80600560008573ffffffffffffffffffffffffffffffffffffffff1673ffffffffffffffffffffffffffffffffffffffff16815260200190815260200160002060008473ffffffffffffffffffffffffffffffffffffffff1673ffffffffffffffffffffffffffffffffffffffff16815260200190815260200160002060006101000a81548160ff0219169083151502179055508173ffffffffffffffffffffffffffffffffffffffff168373ffffffffffffffffffffffffffffffffffffffff167f17307eab39ab6107e8899845ad3d59bd9653f200f220920489ca2b5937696c3183604051611303919061200e565b60405180910390a3505050565b61131b848484610d1e565b611327848484846116ed565b611366576040517f08c379a000000000000000000000000000000000000000000000000000000000815260040161135d90612c25565b60405180910390fd5b50505050565b606061137782610b7d565b600060066000848152602001908152602001600020805461139790612640565b80601f01602080910402602001604051908101604052809291908181526020018280546113c390612640565b80156114105780601f106113e557610100808354040283529160200191611410565b820191906000526020600020905b8154815290600101906020018083116113f357829003601f168201915b505050505090506000611421611874565b90506000815103611436578192505050611479565b60008251111561146b578082604051602001611453929190612c81565b60405160208183030381529060405292505050611479565b6114748461188b565b925050505b919050565b600081600001549050919050565b6001816000016000828254019250508190555050565b6114bc8282604051806020016040528060008152506118f3565b5050565b6114c98261152d565b611508576040517f08c379a00000000000000000000000000000000000000000000000000000000081526004016114ff90612d17565b60405180910390fd5b806006600084815260200190815260200160002090816115289190612ee3565b505050565b60008073ffffffffffffffffffffffffffffffffffffffff1661154f83611023565b73ffffffffffffffffffffffffffffffffffffffff1614159050919050565b600181111561168e57600073ffffffffffffffffffffffffffffffffffffffff168473ffffffffffffffffffffffffffffffffffffffff16146116025780600360008673ffffffffffffffffffffffffffffffffffffffff1673ffffffffffffffffffffffffffffffffffffffff16815260200190815260200160002060008282546115fa9190612fe4565b925050819055505b600073ffffffffffffffffffffffffffffffffffffffff168373ffffffffffffffffffffffffffffffffffffffff161461168d5780600360008573ffffffffffffffffffffffffffffffffffffffff1673ffffffffffffffffffffffffffffffffffffffff16815260200190815260200160002060008282546116859190613018565b925050819055505b5b50505050565b50505050565b6116a38161194e565b60006006600083815260200190815260200160002080546116c390612640565b9050146116ea576006600082815260200190815260200160002060006116e99190611efd565b5b50565b600061170e8473ffffffffffffffffffffffffffffffffffffffff16611a9c565b15611867578373ffffffffffffffffffffffffffffffffffffffff1663150b7a02611737610bc8565b8786866040518563ffffffff1660e01b815260040161175994939291906130a1565b6020604051808303816000875af192505050801561179557506040513d601f19601f820116820180604052508101906117929190613102565b60015b611817573d80600081146117c5576040519150601f19603f3d011682016040523d82523d6000602084013e6117ca565b606091505b50600081510361180f576040517f08c379a000000000000000000000000000000000000000000000000000000000815260040161180690612c25565b60405180910390fd5b805181602001fd5b63150b7a0260e01b7bffffffffffffffffffffffffffffffffffffffffffffffffffffffff1916817bffffffffffffffffffffffffffffffffffffffffffffffffffffffff19161491505061186c565b600190505b949350505050565b606060405180602001604052806000815250905090565b606061189682610b7d565b60006118a0611874565b905060008151116118c057604051806020016040528060008152506118eb565b806118ca84611abf565b6040516020016118db929190612c81565b6040516020818303038152906040525b915050919050565b6118fd8383611b8d565b61190a60008484846116ed565b611949576040517f08c379a000000000000000000000000000000000000000000000000000000000815260040161194090612c25565b60405180910390fd5b505050565b60006119598261072c565b905061196981600084600161156e565b6119728261072c565b90506004600083815260200190815260200160002060006101000a81549073ffffffffffffffffffffffffffffffffffffffff02191690556001600360008373ffffffffffffffffffffffffffffffffffffffff1673ffffffffffffffffffffffffffffffffffffffff168152602001908152602001600020600082825403925050819055506002600083815260200190815260200160002060006101000a81549073ffffffffffffffffffffffffffffffffffffffff021916905581600073ffffffffffffffffffffffffffffffffffffffff168273ffffffffffffffffffffffffffffffffffffffff167fddf252ad1be2c89b69c2b068fc378daa952ba7f163c4a11628f55a4df523b3ef60405160405180910390a4611a98816000846001611694565b5050565b6000808273ffffffffffffffffffffffffffffffffffffffff163b119050919050565b606060006001611ace84611daa565b01905060008167ffffffffffffffff811115611aed57611aec612326565b5b6040519080825280601f01601f191660200182016040528015611b1f5781602001600182028036833780820191505090505b509050600082602001820190505b600115611b82578080600190039150507f3031323334353637383961626364656600000000000000000000000000000000600a86061a8153600a8581611b7657611b7561312f565b5b04945060008503611b2d575b819350505050919050565b600073ffffffffffffffffffffffffffffffffffffffff168273ffffffffffffffffffffffffffffffffffffffff1603611bfc576040517f08c379a0000000000000000000000000000000000000000000000000000000008152600401611bf3906131aa565b60405180910390fd5b611c058161152d565b15611c45576040517f08c379a0000000000000000000000000000000000000000000000000000000008152600401611c3c90613216565b60405180910390fd5b611c5360008383600161156e565b611c5c8161152d565b15611c9c576040517f08c379a0000000000000000000000000000000000000000000000000000000008152600401611c9390613216565b60405180910390fd5b6001600360008473ffffffffffffffffffffffffffffffffffffffff1673ffffffffffffffffffffffffffffffffffffffff16815260200190815260200160002060008282540192505081905550816002600083815260200190815260200160002060006101000a81548173ffffffffffffffffffffffffffffffffffffffff021916908373ffffffffffffffffffffffffffffffffffffffff160217905550808273ffffffffffffffffffffffffffffffffffffffff16600073ffffffffffffffffffffffffffffffffffffffff167fddf252ad1be2c89b69c2b068fc378daa952ba7f163c4a11628f55a4df523b3ef60405160405180910390a4611da6600083836001611694565b5050565b600080600090507a184f03e93ff9f4daa797ed6e38ed64bf6a1f0100000000000000008310611e08577a184f03e93ff9f4daa797ed6e38ed64bf6a1f0100000000000000008381611dfe57611dfd61312f565b5b0492506040810190505b6d04ee2d6d415b85acef81000000008310611e45576d04ee2d6d415b85acef81000000008381611e3b57611e3a61312f565b5b0492506020810190505b662386f26fc100008310611e7457662386f26fc100008381611e6a57611e6961312f565b5b0492506010810190505b6305f5e1008310611e9d576305f5e1008381611e9357611e9261312f565b5b0492506008810190505b6127108310611ec2576127108381611eb857611eb761312f565b5b0492506004810190505b60648310611ee55760648381611edb57611eda61312f565b5b0492506002810190505b600a8310611ef4576001810190505b80915050919050565b508054611f0990612640565b6000825580601f10611f1b5750611f3a565b601f016020900490600052602060002090810190611f399190611f3d565b5b50565b5b80821115611f56576000816000905550600101611f3e565b5090565b6000604051905090565b600080fd5b600080fd5b60007fffffffff0000000000000000000000000000000000000000000000000000000082169050919050565b611fa381611f6e565b8114611fae57600080fd5b50565b600081359050611fc081611f9a565b92915050565b600060208284031215611fdc57611fdb611f64565b5b6000611fea84828501611fb1565b91505092915050565b60008115159050919050565b61200881611ff3565b82525050565b60006020820190506120236000830184611fff565b92915050565b600081519050919050565b600082825260208201905092915050565b60005b83811015612063578082015181840152602081019050612048565b60008484015250505050565b6000601f19601f8301169050919050565b600061208b82612029565b6120958185612034565b93506120a5818560208601612045565b6120ae8161206f565b840191505092915050565b600060208201905081810360008301526120d38184612080565b905092915050565b6000819050919050565b6120ee816120db565b81146120f957600080fd5b50565b60008135905061210b816120e5565b92915050565b60006020828403121561212757612126611f64565b5b6000612135848285016120fc565b91505092915050565b600073ffffffffffffffffffffffffffffffffffffffff82169050919050565b60006121698261213e565b9050919050565b6121798161215e565b82525050565b60006020820190506121946000830184612170565b92915050565b6121a38161215e565b81146121ae57600080fd5b50565b6000813590506121c08161219a565b92915050565b600080604083850312156121dd576121dc611f64565b5b60006121eb858286016121b1565b92505060206121fc858286016120fc565b9150509250929050565b60008060006060848603121561221f5761221e611f64565b5b600061222d868287016121b1565b935050602061223e868287016121b1565b925050604061224f868287016120fc565b9150509250925092565b60006020828403121561226f5761226e611f64565b5b600061227d848285016121b1565b91505092915050565b61228f816120db565b82525050565b60006020820190506122aa6000830184612286565b92915050565b6122b981611ff3565b81146122c457600080fd5b50565b6000813590506122d6816122b0565b92915050565b600080604083850312156122f3576122f2611f64565b5b6000612301858286016121b1565b9250506020612312858286016122c7565b9150509250929050565b600080fd5b600080fd5b7f4e487b7100000000000000000000000000000000000000000000000000000000600052604160045260246000fd5b61235e8261206f565b810181811067ffffffffffffffff8211171561237d5761237c612326565b5b80604052505050565b6000612390611f5a565b905061239c8282612355565b919050565b600067ffffffffffffffff8211156123bc576123bb612326565b5b6123c58261206f565b9050602081019050919050565b82818337600083830152505050565b60006123f46123ef846123a1565b612386565b9050828152602081018484840111156124105761240f612321565b5b61241b8482856123d2565b509392505050565b600082601f8301126124385761243761231c565b5b81356124488482602086016123e1565b91505092915050565b6000806000806080858703121561246b5761246a611f64565b5b6000612479878288016121b1565b945050602061248a878288016121b1565b935050604061249b878288016120fc565b925050606085013567ffffffffffffffff8111156124bc576124bb611f69565b5b6124c887828801612423565b91505092959194509250565b600067ffffffffffffffff8211156124ef576124ee612326565b5b6124f88261206f565b9050602081019050919050565b6000612518612513846124d4565b612386565b90508281526020810184848401111561253457612533612321565b5b61253f8482856123d2565b509392505050565b600082601f83011261255c5761255b61231c565b5b813561256c848260208601612505565b91505092915050565b6000806040838503121561258c5761258b611f64565b5b600061259a858286016121b1565b925050602083013567ffffffffffffffff8111156125bb576125ba611f69565b5b6125c785828601612547565b9150509250929050565b600080604083850312156125e8576125e7611f64565b5b60006125f6858286016121b1565b9250506020612607858286016121b1565b9150509250929050565b7f4e487b7100000000000000000000000000000000000000000000000000000000600052602260045260246000fd5b6000600282049050600182168061265857607f821691505b60208210810361266b5761266a612611565b5b50919050565b7f4552433732313a20617070726f76616c20746f2063757272656e74206f776e6560008201527f7200000000000000000000000000000000000000000000000000000000000000602082015250565b60006126cd602183612034565b91506126d882612671565b604082019050919050565b600060208201905081810360008301526126fc816126c0565b9050919050565b7f4552433732313a20617070726f76652063616c6c6572206973206e6f7420746f60008201527f6b656e206f776e6572206f7220617070726f76656420666f7220616c6c000000602082015250565b600061275f603d83612034565b915061276a82612703565b604082019050919050565b6000602082019050818103600083015261278e81612752565b9050919050565b7f4552433732313a2063616c6c6572206973206e6f7420746f6b656e206f776e6560008201527f72206f7220617070726f76656400000000000000000000000000000000000000602082015250565b60006127f1602d83612034565b91506127fc82612795565b604082019050919050565b60006020820190508181036000830152612820816127e4565b9050919050565b7f4552433732313a20696e76616c696420746f6b656e2049440000000000000000600082015250565b600061285d601883612034565b915061286882612827565b602082019050919050565b6000602082019050818103600083015261288c81612850565b9050919050565b7f4552433732313a2061646472657373207a65726f206973206e6f74206120766160008201527f6c6964206f776e65720000000000000000000000000000000000000000000000602082015250565b60006128ef602983612034565b91506128fa82612893565b604082019050919050565b6000602082019050818103600083015261291e816128e2565b9050919050565b7f4f776e61626c653a206e6577206f776e657220697320746865207a65726f206160008201527f6464726573730000000000000000000000000000000000000000000000000000602082015250565b6000612981602683612034565b915061298c82612925565b604082019050919050565b600060208201905081810360008301526129b081612974565b9050919050565b7f4552433732313a207472616e736665722066726f6d20696e636f72726563742060008201527f6f776e6572000000000000000000000000000000000000000000000000000000602082015250565b6000612a13602583612034565b9150612a1e826129b7565b604082019050919050565b60006020820190508181036000830152612a4281612a06565b9050919050565b7f4552433732313a207472616e7366657220746f20746865207a65726f2061646460008201527f7265737300000000000000000000000000000000000000000000000000000000602082015250565b6000612aa5602483612034565b9150612ab082612a49565b604082019050919050565b60006020820190508181036000830152612ad481612a98565b9050919050565b7f4f776e61626c653a2063616c6c6572206973206e6f7420746865206f776e6572600082015250565b6000612b11602083612034565b9150612b1c82612adb565b602082019050919050565b60006020820190508181036000830152612b4081612b04565b9050919050565b7f4552433732313a20617070726f766520746f2063616c6c657200000000000000600082015250565b6000612b7d601983612034565b9150612b8882612b47565b602082019050919050565b60006020820190508181036000830152612bac81612b70565b9050919050565b7f4552433732313a207472616e7366657220746f206e6f6e20455243373231526560008201527f63656976657220696d706c656d656e7465720000000000000000000000000000602082015250565b6000612c0f603283612034565b9150612c1a82612bb3565b604082019050919050565b60006020820190508181036000830152612c3e81612c02565b9050919050565b600081905092915050565b6000612c5b82612029565b612c658185612c45565b9350612c75818560208601612045565b80840191505092915050565b6000612c8d8285612c50565b9150612c998284612c50565b91508190509392505050565b7f45524337323155524953746f726167653a2055524920736574206f66206e6f6e60008201527f6578697374656e7420746f6b656e000000000000000000000000000000000000602082015250565b6000612d01602e83612034565b9150612d0c82612ca5565b604082019050919050565b60006020820190508181036000830152612d3081612cf4565b9050919050565b60008190508160005260206000209050919050565b60006020601f8301049050919050565b600082821b905092915050565b600060088302612d997fffffffffffffffffffffffffffffffffffffffffffffffffffffffffffffffff82612d5c565b612da38683612d5c565b95508019841693508086168417925050509392505050565b6000819050919050565b6000612de0612ddb612dd6846120db565b612dbb565b6120db565b9050919050565b6000819050919050565b612dfa83612dc5565b612e0e612e0682612de7565b848454612d69565b825550505050565b600090565b612e23612e16565b612e2e818484612df1565b505050565b5b81811015612e5257612e47600082612e1b565b600181019050612e34565b5050565b601f821115612e9757612e6881612d37565b612e7184612d4c565b81016020851015612e80578190505b612e94612e8c85612d4c565b830182612e33565b50505b505050565b600082821c905092915050565b6000612eba60001984600802612e9c565b1980831691505092915050565b6000612ed38383612ea9565b9150826002028217905092915050565b612eec82612029565b67ffffffffffffffff811115612f0557612f04612326565b5b612f0f8254612640565b612f1a828285612e56565b600060209050601f831160018114612f4d5760008415612f3b578287015190505b612f458582612ec7565b865550612fad565b601f198416612f5b86612d37565b60005b82811015612f8357848901518255600182019150602085019450602081019050612f5e565b86831015612fa05784890151612f9c601f891682612ea9565b8355505b6001600288020188555050505b505050505050565b7f4e487b7100000000000000000000000000000000000000000000000000000000600052601160045260246000fd5b6000612fef826120db565b9150612ffa836120db565b925082820390508181111561301257613011612fb5565b5b92915050565b6000613023826120db565b915061302e836120db565b925082820190508082111561304657613045612fb5565b5b92915050565b600081519050919050565b600082825260208201905092915050565b60006130738261304c565b61307d8185613057565b935061308d818560208601612045565b6130968161206f565b840191505092915050565b60006080820190506130b66000830187612170565b6130c36020830186612170565b6130d06040830185612286565b81810360608301526130e28184613068565b905095945050505050565b6000815190506130fc81611f9a565b92915050565b60006020828403121561311857613117611f64565b5b6000613126848285016130ed565b91505092915050565b7f4e487b7100000000000000000000000000000000000000000000000000000000600052601260045260246000fd5b7f4552433732313a206d696e7420746f20746865207a65726f2061646472657373600082015250565b6000613194602083612034565b915061319f8261315e565b602082019050919050565b600060208201905081810360008301526131c381613187565b9050919050565b7f4552433732313a20746f6b656e20616c7265616479206d696e74656400000000600082015250565b6000613200601c83612034565b915061320b826131ca565b602082019050919050565b6000602082019050818103600083015261322f816131f3565b905091905056fea26469706673582212209872d387dab18622f6dbdd803c939f04473e917af1c5eab7f4bfab0346c1283264736f6c63430008120033",
  "immutableReferences": {},
  "source": "// SPDX-License-Identifier: MIT\r\npragma solidity ^0.8.9;\r\n\r\nimport \"@openzeppelin/contracts/token/ERC721/ERC721.sol\";\r\nimport \"@openzeppelin/contracts/token/ERC721/extensions/ERC721URIStorage.sol\";\r\nimport \"@openzeppelin/contracts/token/ERC721/extensions/ERC721Burnable.sol\";\r\nimport \"@openzeppelin/contracts/access/Ownable.sol\";\r\nimport \"@openzeppelin/contracts/utils/Counters.sol\";\r\n\r\ncontract PoseidonNFT is ERC721, ERC721URIStorage, ERC721Burnable, Ownable {\r\n    using Counters for Counters.Counter;\r\n\r\n    Counters.Counter private _tokenIdCounter;\r\n\r\n    constructor() ERC721(\"PoseidonNFT\", \"PNFT\") {}\r\n\r\n    function mint(address to, string memory uri) public onlyOwner {\r\n        uint256 tokenId = _tokenIdCounter.current();\r\n        _tokenIdCounter.increment();\r\n        _safeMint(to, tokenId);\r\n        _setTokenURI(tokenId, uri);\r\n    }\r\n\r\n    // The following functions are overrides required by Solidity.\r\n\r\n    function _burn(uint256 tokenId) internal override(ERC721, ERC721URIStorage) {\r\n        super._burn(tokenId);\r\n    }\r\n\r\n    function tokenURI(uint256 tokenId)\r\n        public\r\n        view\r\n        override(ERC721, ERC721URIStorage)\r\n        returns (string memory)\r\n    {\r\n        return super.tokenURI(tokenId);\r\n    }\r\n}",
  "sourcePath": "C:\\Users\\muizy\\Desktop\\blockchain\\contracts\\PoseidonNFT.sol",
  "compiler": {
    "name": "solc",
    "version": "0.8.18+commit.87f61d96.Emscripten.clang"
  },
  "schemaVersion": "3.4.11",
  "updatedAt": "2023-03-06T15:12:12.259Z",
  "networkType": "ethereum",
  "devdoc": {
    "events": {
      "Approval(address,address,uint256)": {
        "details": "Emitted when `owner` enables `approved` to manage the `tokenId` token."
      },
      "ApprovalForAll(address,address,bool)": {
        "details": "Emitted when `owner` enables or disables (`approved`) `operator` to manage all of its assets."
      },
      "Transfer(address,address,uint256)": {
        "details": "Emitted when `tokenId` token is transferred from `from` to `to`."
      }
    },
    "kind": "dev",
    "methods": {
      "approve(address,uint256)": {
        "details": "See {IERC721-approve}."
      },
      "balanceOf(address)": {
        "details": "See {IERC721-balanceOf}."
      },
      "burn(uint256)": {
        "details": "Burns `tokenId`. See {ERC721-_burn}. Requirements: - The caller must own `tokenId` or be an approved operator."
      },
      "getApproved(uint256)": {
        "details": "See {IERC721-getApproved}."
      },
      "isApprovedForAll(address,address)": {
        "details": "See {IERC721-isApprovedForAll}."
      },
      "name()": {
        "details": "See {IERC721Metadata-name}."
      },
      "owner()": {
        "details": "Returns the address of the current owner."
      },
      "ownerOf(uint256)": {
        "details": "See {IERC721-ownerOf}."
      },
      "renounceOwnership()": {
        "details": "Leaves the contract without owner. It will not be possible to call `onlyOwner` functions anymore. Can only be called by the current owner. NOTE: Renouncing ownership will leave the contract without an owner, thereby removing any functionality that is only available to the owner."
      },
      "safeTransferFrom(address,address,uint256)": {
        "details": "See {IERC721-safeTransferFrom}."
      },
      "safeTransferFrom(address,address,uint256,bytes)": {
        "details": "See {IERC721-safeTransferFrom}."
      },
      "setApprovalForAll(address,bool)": {
        "details": "See {IERC721-setApprovalForAll}."
      },
      "supportsInterface(bytes4)": {
        "details": "See {IERC165-supportsInterface}."
      },
      "symbol()": {
        "details": "See {IERC721Metadata-symbol}."
      },
      "transferFrom(address,address,uint256)": {
        "details": "See {IERC721-transferFrom}."
      },
      "transferOwnership(address)": {
        "details": "Transfers ownership of the contract to a new account (`newOwner`). Can only be called by the current owner."
      }
    },
    "version": 1
  },
  "userdoc": {
    "kind": "user",
    "methods": {},
    "version": 1
  }
}