{
  "contractName": "GameItem",
  "abi": [
    {
      "inputs": [
        {
          "internalType": "address",
          "name": "_marketContract",
          "type": "address"
        }
      ],
      "stateMutability": "nonpayable",
      "type": "constructor"
    },
    {
      "anonymous": false,
      "inputs": [
        {
          "indexed": true,
          "internalType": "address",
          "name": "account",
          "type": "address"
        },
        {
          "indexed": true,
          "internalType": "address",
          "name": "operator",
          "type": "address"
        },
        {
          "indexed": false,
          "internalType": "bool",
          "name": "approved",
          "type": "bool"
        }
      ],
      "name": "ApprovalForAll",
      "type": "event"
    },
    {
      "anonymous": false,
      "inputs": [
        {
          "indexed": true,
          "internalType": "address",
          "name": "previousOwner",
          "type": "address"
        },
        {
          "indexed": true,
          "internalType": "address",
          "name": "newOwner",
          "type": "address"
        }
      ],
      "name": "OwnershipTransferred",
      "type": "event"
    },
    {
      "anonymous": false,
      "inputs": [
        {
          "indexed": true,
          "internalType": "address",
          "name": "operator",
          "type": "address"
        },
        {
          "indexed": true,
          "internalType": "address",
          "name": "from",
          "type": "address"
        },
        {
          "indexed": true,
          "internalType": "address",
          "name": "to",
          "type": "address"
        },
        {
          "indexed": false,
          "internalType": "uint256[]",
          "name": "ids",
          "type": "uint256[]"
        },
        {
          "indexed": false,
          "internalType": "uint256[]",
          "name": "values",
          "type": "uint256[]"
        }
      ],
      "name": "TransferBatch",
      "type": "event"
    },
    {
      "anonymous": false,
      "inputs": [
        {
          "indexed": true,
          "internalType": "address",
          "name": "operator",
          "type": "address"
        },
        {
          "indexed": true,
          "internalType": "address",
          "name": "from",
          "type": "address"
        },
        {
          "indexed": true,
          "internalType": "address",
          "name": "to",
          "type": "address"
        },
        {
          "indexed": false,
          "internalType": "uint256",
          "name": "id",
          "type": "uint256"
        },
        {
          "indexed": false,
          "internalType": "uint256",
          "name": "value",
          "type": "uint256"
        }
      ],
      "name": "TransferSingle",
      "type": "event"
    },
    {
      "anonymous": false,
      "inputs": [
        {
          "indexed": false,
          "internalType": "string",
          "name": "value",
          "type": "string"
        },
        {
          "indexed": true,
          "internalType": "uint256",
          "name": "id",
          "type": "uint256"
        }
      ],
      "name": "URI",
      "type": "event"
    },
    {
      "inputs": [],
      "name": "GOLD",
      "outputs": [
        {
          "internalType": "uint256",
          "name": "",
          "type": "uint256"
        }
      ],
      "stateMutability": "view",
      "type": "function"
    },
    {
      "inputs": [],
      "name": "METAL_FISHING_ROD",
      "outputs": [
        {
          "internalType": "uint256",
          "name": "",
          "type": "uint256"
        }
      ],
      "stateMutability": "view",
      "type": "function"
    },
    {
      "inputs": [
        {
          "internalType": "address",
          "name": "account",
          "type": "address"
        },
        {
          "internalType": "uint256",
          "name": "id",
          "type": "uint256"
        }
      ],
      "name": "balanceOf",
      "outputs": [
        {
          "internalType": "uint256",
          "name": "",
          "type": "uint256"
        }
      ],
      "stateMutability": "view",
      "type": "function"
    },
    {
      "inputs": [
        {
          "internalType": "address[]",
          "name": "accounts",
          "type": "address[]"
        },
        {
          "internalType": "uint256[]",
          "name": "ids",
          "type": "uint256[]"
        }
      ],
      "name": "balanceOfBatch",
      "outputs": [
        {
          "internalType": "uint256[]",
          "name": "",
          "type": "uint256[]"
        }
      ],
      "stateMutability": "view",
      "type": "function"
    },
    {
      "inputs": [
        {
          "internalType": "address",
          "name": "account",
          "type": "address"
        },
        {
          "internalType": "uint256",
          "name": "id",
          "type": "uint256"
        },
        {
          "internalType": "uint256",
          "name": "value",
          "type": "uint256"
        }
      ],
      "name": "burn",
      "outputs": [],
      "stateMutability": "nonpayable",
      "type": "function"
    },
    {
      "inputs": [
        {
          "internalType": "address",
          "name": "account",
          "type": "address"
        },
        {
          "internalType": "uint256[]",
          "name": "ids",
          "type": "uint256[]"
        },
        {
          "internalType": "uint256[]",
          "name": "values",
          "type": "uint256[]"
        }
      ],
      "name": "burnBatch",
      "outputs": [],
      "stateMutability": "nonpayable",
      "type": "function"
    },
    {
      "inputs": [
        {
          "internalType": "address",
          "name": "account",
          "type": "address"
        },
        {
          "internalType": "address",
          "name": "operator",
          "type": "address"
        }
      ],
      "name": "isApprovedForAll",
      "outputs": [
        {
          "internalType": "bool",
          "name": "",
          "type": "bool"
        }
      ],
      "stateMutability": "view",
      "type": "function"
    },
    {
      "inputs": [],
      "name": "owner",
      "outputs": [
        {
          "internalType": "address",
          "name": "",
          "type": "address"
        }
      ],
      "stateMutability": "view",
      "type": "function"
    },
    {
      "inputs": [],
      "name": "renounceOwnership",
      "outputs": [],
      "stateMutability": "nonpayable",
      "type": "function"
    },
    {
      "inputs": [
        {
          "internalType": "address",
          "name": "from",
          "type": "address"
        },
        {
          "internalType": "address",
          "name": "to",
          "type": "address"
        },
        {
          "internalType": "uint256[]",
          "name": "ids",
          "type": "uint256[]"
        },
        {
          "internalType": "uint256[]",
          "name": "amounts",
          "type": "uint256[]"
        },
        {
          "internalType": "bytes",
          "name": "data",
          "type": "bytes"
        }
      ],
      "name": "safeBatchTransferFrom",
      "outputs": [],
      "stateMutability": "nonpayable",
      "type": "function"
    },
    {
      "inputs": [
        {
          "internalType": "address",
          "name": "from",
          "type": "address"
        },
        {
          "internalType": "address",
          "name": "to",
          "type": "address"
        },
        {
          "internalType": "uint256",
          "name": "id",
          "type": "uint256"
        },
        {
          "internalType": "uint256",
          "name": "amount",
          "type": "uint256"
        },
        {
          "internalType": "bytes",
          "name": "data",
          "type": "bytes"
        }
      ],
      "name": "safeTransferFrom",
      "outputs": [],
      "stateMutability": "nonpayable",
      "type": "function"
    },
    {
      "inputs": [
        {
          "internalType": "address",
          "name": "operator",
          "type": "address"
        },
        {
          "internalType": "bool",
          "name": "approved",
          "type": "bool"
        }
      ],
      "name": "setApprovalForAll",
      "outputs": [],
      "stateMutability": "nonpayable",
      "type": "function"
    },
    {
      "inputs": [
        {
          "internalType": "bytes4",
          "name": "interfaceId",
          "type": "bytes4"
        }
      ],
      "name": "supportsInterface",
      "outputs": [
        {
          "internalType": "bool",
          "name": "",
          "type": "bool"
        }
      ],
      "stateMutability": "view",
      "type": "function"
    },
    {
      "inputs": [
        {
          "internalType": "address",
          "name": "newOwner",
          "type": "address"
        }
      ],
      "name": "transferOwnership",
      "outputs": [],
      "stateMutability": "nonpayable",
      "type": "function"
    },
    {
      "inputs": [
        {
          "internalType": "uint256",
          "name": "",
          "type": "uint256"
        }
      ],
      "name": "uri",
      "outputs": [
        {
          "internalType": "string",
          "name": "",
          "type": "string"
        }
      ],
      "stateMutability": "view",
      "type": "function"
    },
    {
      "inputs": [
        {
          "internalType": "address",
          "name": "to",
          "type": "address"
        },
        {
          "internalType": "uint256",
          "name": "_id",
          "type": "uint256"
        },
        {
          "internalType": "uint256",
          "name": "_amount",
          "type": "uint256"
        }
      ],
      "name": "awardItem",
      "outputs": [],
      "stateMutability": "nonpayable",
      "type": "function"
    },
    {
      "inputs": [
        {
          "internalType": "string",
          "name": "newuri",
          "type": "string"
        }
      ],
      "name": "setURI",
      "outputs": [],
      "stateMutability": "nonpayable",
      "type": "function"
    },
    {
      "inputs": [
        {
          "internalType": "address",
          "name": "account",
          "type": "address"
        },
        {
          "internalType": "uint256",
          "name": "id",
          "type": "uint256"
        },
        {
          "internalType": "uint256",
          "name": "amount",
          "type": "uint256"
        },
        {
          "internalType": "bytes",
          "name": "data",
          "type": "bytes"
        }
      ],
      "name": "mint",
      "outputs": [],
      "stateMutability": "nonpayable",
      "type": "function"
    },
    {
      "inputs": [
        {
          "internalType": "address",
          "name": "to",
          "type": "address"
        },
        {
          "internalType": "uint256[]",
          "name": "ids",
          "type": "uint256[]"
        },
        {
          "internalType": "uint256[]",
          "name": "amounts",
          "type": "uint256[]"
        },
        {
          "internalType": "bytes",
          "name": "data",
          "type": "bytes"
        }
      ],
      "name": "mintBatch",
      "outputs": [],
      "stateMutability": "nonpayable",
      "type": "function"
    }
  ],
  "bytecode": "0x60806040523480156200001157600080fd5b5060405162004c9238038062004c9283398181016040528101906200003791906200070a565b6040518060600160405280603a815260200162004c58603a913962000062816200011f60201b60201c565b5062000083620000776200013460201b60201c565b6200013c60201b60201c565b620000af336000670de0b6b3a7640000604051806020016040528060008152506200020260201b60201c565b620000d7336001633b9aca00604051806020016040528060008152506200020260201b60201c565b80600560006101000a81548173ffffffffffffffffffffffffffffffffffffffff021916908373ffffffffffffffffffffffffffffffffffffffff1602179055505062001053565b8060029081620001309190620009b6565b5050565b600033905090565b6000600360009054906101000a900473ffffffffffffffffffffffffffffffffffffffff16905081600360006101000a81548173ffffffffffffffffffffffffffffffffffffffff021916908373ffffffffffffffffffffffffffffffffffffffff1602179055508173ffffffffffffffffffffffffffffffffffffffff168173ffffffffffffffffffffffffffffffffffffffff167f8be0079c531659141344cd1fd0a4f28419497f9722a3daafe3b4186f6b6457e060405160405180910390a35050565b600073ffffffffffffffffffffffffffffffffffffffff168473ffffffffffffffffffffffffffffffffffffffff160362000274576040517f08c379a00000000000000000000000000000000000000000000000000000000081526004016200026b9062000b24565b60405180910390fd5b6000620002866200013460201b60201c565b905060006200029b85620003e960201b60201c565b90506000620002b085620003e960201b60201c565b9050620002c9836000898585896200046a60201b60201c565b8460008088815260200190815260200160002060008973ffffffffffffffffffffffffffffffffffffffff1673ffffffffffffffffffffffffffffffffffffffff16815260200190815260200160002060008282546200032a919062000b75565b925050819055508673ffffffffffffffffffffffffffffffffffffffff16600073ffffffffffffffffffffffffffffffffffffffff168473ffffffffffffffffffffffffffffffffffffffff167fc3d58168c5ae7397731d063d5bbf3d657854427343f4c083240f7aacaa2d0f628989604051620003aa92919062000bc1565b60405180910390a4620003c9836000898585896200047260201b60201c565b620003e0836000898989896200047a60201b60201c565b50505050505050565b60606000600167ffffffffffffffff8111156200040b576200040a62000747565b5b6040519080825280602002602001820160405280156200043a5781602001602082028036833780820191505090505b509050828160008151811062000455576200045462000bee565b5b60200260200101818152505080915050919050565b505050505050565b505050505050565b620004a68473ffffffffffffffffffffffffffffffffffffffff166200067360201b62000b4a1760201c565b156200066b578373ffffffffffffffffffffffffffffffffffffffff1663f23a6e6187878686866040518663ffffffff1660e01b8152600401620004ef95949392919062000cc8565b6020604051808303816000875af19250505080156200052e57506040513d601f19601f820116820180604052508101906200052b919062000d89565b60015b620005df576200053d62000dc8565b806308c379a003620005a057506200055462000e23565b80620005615750620005a2565b806040517f08c379a000000000000000000000000000000000000000000000000000000000815260040162000597919062000eff565b60405180910390fd5b505b6040517f08c379a0000000000000000000000000000000000000000000000000000000008152600401620005d69062000f99565b60405180910390fd5b63f23a6e6160e01b7bffffffffffffffffffffffffffffffffffffffffffffffffffffffff1916817bffffffffffffffffffffffffffffffffffffffffffffffffffffffff19161462000669576040517f08c379a0000000000000000000000000000000000000000000000000000000008152600401620006609062001031565b60405180910390fd5b505b505050505050565b6000808273ffffffffffffffffffffffffffffffffffffffff163b119050919050565b6000604051905090565b600080fd5b600073ffffffffffffffffffffffffffffffffffffffff82169050919050565b6000620006d282620006a5565b9050919050565b620006e481620006c5565b8114620006f057600080fd5b50565b6000815190506200070481620006d9565b92915050565b600060208284031215620007235762000722620006a0565b5b60006200073384828501620006f3565b91505092915050565b600081519050919050565b7f4e487b7100000000000000000000000000000000000000000000000000000000600052604160045260246000fd5b7f4e487b7100000000000000000000000000000000000000000000000000000000600052602260045260246000fd5b60006002820490506001821680620007be57607f821691505b602082108103620007d457620007d362000776565b5b50919050565b60008190508160005260206000209050919050565b60006020601f8301049050919050565b600082821b905092915050565b6000600883026200083e7fffffffffffffffffffffffffffffffffffffffffffffffffffffffffffffffff82620007ff565b6200084a8683620007ff565b95508019841693508086168417925050509392505050565b6000819050919050565b6000819050919050565b600062000897620008916200088b8462000862565b6200086c565b62000862565b9050919050565b6000819050919050565b620008b38362000876565b620008cb620008c2826200089e565b8484546200080c565b825550505050565b600090565b620008e2620008d3565b620008ef818484620008a8565b505050565b5b8181101562000917576200090b600082620008d8565b600181019050620008f5565b5050565b601f82111562000966576200093081620007da565b6200093b84620007ef565b810160208510156200094b578190505b620009636200095a85620007ef565b830182620008f4565b50505b505050565b600082821c905092915050565b60006200098b600019846008026200096b565b1980831691505092915050565b6000620009a6838362000978565b9150826002028217905092915050565b620009c1826200073c565b67ffffffffffffffff811115620009dd57620009dc62000747565b5b620009e98254620007a5565b620009f68282856200091b565b600060209050601f83116001811462000a2e576000841562000a19578287015190505b62000a25858262000998565b86555062000a95565b601f19841662000a3e86620007da565b60005b8281101562000a685784890151825560018201915060208501945060208101905062000a41565b8683101562000a88578489015162000a84601f89168262000978565b8355505b6001600288020188555050505b505050505050565b600082825260208201905092915050565b7f455243313135353a206d696e7420746f20746865207a65726f2061646472657360008201527f7300000000000000000000000000000000000000000000000000000000000000602082015250565b600062000b0c60218362000a9d565b915062000b198262000aae565b604082019050919050565b6000602082019050818103600083015262000b3f8162000afd565b9050919050565b7f4e487b7100000000000000000000000000000000000000000000000000000000600052601160045260246000fd5b600062000b828262000862565b915062000b8f8362000862565b925082820190508082111562000baa5762000ba962000b46565b5b92915050565b62000bbb8162000862565b82525050565b600060408201905062000bd8600083018562000bb0565b62000be7602083018462000bb0565b9392505050565b7f4e487b7100000000000000000000000000000000000000000000000000000000600052603260045260246000fd5b62000c2881620006c5565b82525050565b600081519050919050565b600082825260208201905092915050565b60005b8381101562000c6a57808201518184015260208101905062000c4d565b60008484015250505050565b6000601f19601f8301169050919050565b600062000c948262000c2e565b62000ca0818562000c39565b935062000cb281856020860162000c4a565b62000cbd8162000c76565b840191505092915050565b600060a08201905062000cdf600083018862000c1d565b62000cee602083018762000c1d565b62000cfd604083018662000bb0565b62000d0c606083018562000bb0565b818103608083015262000d20818462000c87565b90509695505050505050565b60007fffffffff0000000000000000000000000000000000000000000000000000000082169050919050565b62000d638162000d2c565b811462000d6f57600080fd5b50565b60008151905062000d838162000d58565b92915050565b60006020828403121562000da25762000da1620006a0565b5b600062000db28482850162000d72565b91505092915050565b60008160e01c9050919050565b600060033d111562000dea5760046000803e62000de760005162000dbb565b90505b90565b62000df88262000c76565b810181811067ffffffffffffffff8211171562000e1a5762000e1962000747565b5b80604052505050565b600060443d1062000ebb5762000e3862000696565b60043d036004823e80513d602482011167ffffffffffffffff8211171562000e6257505062000ebb565b808201805167ffffffffffffffff81111562000e82575050505062000ebb565b80602083010160043d03850181111562000ea157505050505062000ebb565b62000eb28260200185018662000ded565b82955050505050505b90565b600062000ecb826200073c565b62000ed7818562000a9d565b935062000ee981856020860162000c4a565b62000ef48162000c76565b840191505092915050565b6000602082019050818103600083015262000f1b818462000ebe565b905092915050565b7f455243313135353a207472616e7366657220746f206e6f6e2d4552433131353560008201527f526563656976657220696d706c656d656e746572000000000000000000000000602082015250565b600062000f8160348362000a9d565b915062000f8e8262000f23565b604082019050919050565b6000602082019050818103600083015262000fb48162000f72565b9050919050565b7f455243313135353a204552433131353552656365697665722072656a6563746560008201527f6420746f6b656e73000000000000000000000000000000000000000000000000602082015250565b60006200101960288362000a9d565b9150620010268262000fbb565b604082019050919050565b600060208201905081810360008301526200104c816200100a565b9050919050565b613bf580620010636000396000f3fe608060405234801561001057600080fd5b50600436106101205760003560e01c80634e1273f4116100ad578063a22cb46511610071578063a22cb465146102f1578063e985e9c51461030d578063f242432a1461033d578063f2fde38b14610359578063f5298aca1461037557610120565b80634e1273f4146102615780636b20c45414610291578063715018a6146102ad578063731133e9146102b75780638da5cb5b146102d357610120565b8063116fdd0c116100f4578063116fdd0c146101d15780631f7fdffa146101ef5780632eb2c2d61461020b5780633cf3ca70146102275780633e4bee381461024357610120565b8062fdd58e1461012557806301ffc9a71461015557806302fe5305146101855780630e89341c146101a1575b600080fd5b61013f600480360381019061013a919061222e565b610391565b60405161014c919061227d565b60405180910390f35b61016f600480360381019061016a91906122f0565b610459565b60405161017c9190612338565b60405180910390f35b61019f600480360381019061019a9190612499565b61053b565b005b6101bb60048036038101906101b691906124e2565b61054f565b6040516101c8919061258e565b60405180910390f35b6101d96105e3565b6040516101e6919061227d565b60405180910390f35b61020960048036038101906102049190612719565b6105e8565b005b610225600480360381019061022091906127d4565b610602565b005b610241600480360381019061023c91906128a3565b6106a3565b005b61024b6106cc565b604051610258919061227d565b60405180910390f35b61027b600480360381019061027691906129b9565b6106d1565b6040516102889190612aef565b60405180910390f35b6102ab60048036038101906102a69190612b11565b6107ea565b005b6102b5610887565b005b6102d160048036038101906102cc9190612b9c565b61089b565b005b6102db6108b5565b6040516102e89190612c2e565b60405180910390f35b61030b60048036038101906103069190612c75565b6108df565b005b61032760048036038101906103229190612cb5565b6108f5565b6040516103349190612338565b60405180910390f35b61035760048036038101906103529190612cf5565b610989565b005b610373600480360381019061036e9190612d8c565b610a2a565b005b61038f600480360381019061038a91906128a3565b610aad565b005b60008073ffffffffffffffffffffffffffffffffffffffff168373ffffffffffffffffffffffffffffffffffffffff1603610401576040517f08c379a00000000000000000000000000000000000000000000000000000000081526004016103f890612e2b565b60405180910390fd5b60008083815260200190815260200160002060008473ffffffffffffffffffffffffffffffffffffffff1673ffffffffffffffffffffffffffffffffffffffff16815260200190815260200160002054905092915050565b60007fd9b67a26000000000000000000000000000000000000000000000000000000007bffffffffffffffffffffffffffffffffffffffffffffffffffffffff1916827bffffffffffffffffffffffffffffffffffffffffffffffffffffffff1916148061052457507f0e89341c000000000000000000000000000000000000000000000000000000007bffffffffffffffffffffffffffffffffffffffffffffffffffffffff1916827bffffffffffffffffffffffffffffffffffffffffffffffffffffffff1916145b80610534575061053382610b6d565b5b9050919050565b610543610bd7565b61054c81610c55565b50565b60606002805461055e90612e7a565b80601f016020809104026020016040519081016040528092919081815260200182805461058a90612e7a565b80156105d75780601f106105ac576101008083540402835291602001916105d7565b820191906000526020600020905b8154815290600101906020018083116105ba57829003601f168201915b50505050509050919050565b600181565b6105f0610bd7565b6105fc84848484610c68565b50505050565b61060a610e94565b73ffffffffffffffffffffffffffffffffffffffff168573ffffffffffffffffffffffffffffffffffffffff161480610650575061064f8561064a610e94565b6108f5565b5b61068f576040517f08c379a000000000000000000000000000000000000000000000000000000000815260040161068690612f1d565b60405180910390fd5b61069c8585858585610e9c565b5050505050565b6106ab610bd7565b6106c733848484604051806020016040528060008152506111bd565b505050565b600081565b60608151835114610717576040517f08c379a000000000000000000000000000000000000000000000000000000000815260040161070e90612faf565b60405180910390fd5b6000835167ffffffffffffffff8111156107345761073361236e565b5b6040519080825280602002602001820160405280156107625781602001602082028036833780820191505090505b50905060005b84518110156107df576107af85828151811061078757610786612fcf565b5b60200260200101518583815181106107a2576107a1612fcf565b5b6020026020010151610391565b8282815181106107c2576107c1612fcf565b5b602002602001018181525050806107d89061302d565b9050610768565b508091505092915050565b6107f2610e94565b73ffffffffffffffffffffffffffffffffffffffff168373ffffffffffffffffffffffffffffffffffffffff161480610838575061083783610832610e94565b6108f5565b5b610877576040517f08c379a000000000000000000000000000000000000000000000000000000000815260040161086e90612f1d565b60405180910390fd5b610882838383611458565b505050565b61088f610bd7565b6108996000611726565b565b6108a3610bd7565b6108af848484846117ec565b50505050565b6000600360009054906101000a900473ffffffffffffffffffffffffffffffffffffffff16905090565b6108f16108ea610e94565b838361199c565b5050565b6000600160008473ffffffffffffffffffffffffffffffffffffffff1673ffffffffffffffffffffffffffffffffffffffff16815260200190815260200160002060008373ffffffffffffffffffffffffffffffffffffffff1673ffffffffffffffffffffffffffffffffffffffff16815260200190815260200160002060009054906101000a900460ff16905092915050565b610991610e94565b73ffffffffffffffffffffffffffffffffffffffff168573ffffffffffffffffffffffffffffffffffffffff1614806109d757506109d6856109d1610e94565b6108f5565b5b610a16576040517f08c379a0000000000000000000000000000000000000000000000000000000008152600401610a0d90612f1d565b60405180910390fd5b610a2385858585856111bd565b5050505050565b610a32610bd7565b600073ffffffffffffffffffffffffffffffffffffffff168173ffffffffffffffffffffffffffffffffffffffff1603610aa1576040517f08c379a0000000000000000000000000000000000000000000000000000000008152600401610a98906130e7565b60405180910390fd5b610aaa81611726565b50565b610ab5610e94565b73ffffffffffffffffffffffffffffffffffffffff168373ffffffffffffffffffffffffffffffffffffffff161480610afb5750610afa83610af5610e94565b6108f5565b5b610b3a576040517f08c379a0000000000000000000000000000000000000000000000000000000008152600401610b3190612f1d565b60405180910390fd5b610b45838383611b08565b505050565b6000808273ffffffffffffffffffffffffffffffffffffffff163b119050919050565b60007f01ffc9a7000000000000000000000000000000000000000000000000000000007bffffffffffffffffffffffffffffffffffffffffffffffffffffffff1916827bffffffffffffffffffffffffffffffffffffffffffffffffffffffff1916149050919050565b610bdf610e94565b73ffffffffffffffffffffffffffffffffffffffff16610bfd6108b5565b73ffffffffffffffffffffffffffffffffffffffff1614610c53576040517f08c379a0000000000000000000000000000000000000000000000000000000008152600401610c4a90613153565b60405180910390fd5b565b8060029081610c64919061331f565b5050565b600073ffffffffffffffffffffffffffffffffffffffff168473ffffffffffffffffffffffffffffffffffffffff1603610cd7576040517f08c379a0000000000000000000000000000000000000000000000000000000008152600401610cce90613463565b60405180910390fd5b8151835114610d1b576040517f08c379a0000000000000000000000000000000000000000000000000000000008152600401610d12906134f5565b60405180910390fd5b6000610d25610e94565b9050610d3681600087878787611d4e565b60005b8451811015610def57838181518110610d5557610d54612fcf565b5b6020026020010151600080878481518110610d7357610d72612fcf565b5b6020026020010151815260200190815260200160002060008873ffffffffffffffffffffffffffffffffffffffff1673ffffffffffffffffffffffffffffffffffffffff1681526020019081526020016000206000828254610dd59190613515565b925050819055508080610de79061302d565b915050610d39565b508473ffffffffffffffffffffffffffffffffffffffff16600073ffffffffffffffffffffffffffffffffffffffff168273ffffffffffffffffffffffffffffffffffffffff167f4a39dc06d4c0dbc64b70af90fd698a233a518aa5d07e595d983b8c0526c8f7fb8787604051610e67929190613549565b60405180910390a4610e7e81600087878787611d56565b610e8d81600087878787611d5e565b5050505050565b600033905090565b8151835114610ee0576040517f08c379a0000000000000000000000000000000000000000000000000000000008152600401610ed7906134f5565b60405180910390fd5b600073ffffffffffffffffffffffffffffffffffffffff168473ffffffffffffffffffffffffffffffffffffffff1603610f4f576040517f08c379a0000000000000000000000000000000000000000000000000000000008152600401610f46906135f2565b60405180910390fd5b6000610f59610e94565b9050610f69818787878787611d4e565b60005b845181101561111a576000858281518110610f8a57610f89612fcf565b5b602002602001015190506000858381518110610fa957610fa8612fcf565b5b60200260200101519050600080600084815260200190815260200160002060008b73ffffffffffffffffffffffffffffffffffffffff1673ffffffffffffffffffffffffffffffffffffffff1681526020019081526020016000205490508181101561104a576040517f08c379a000000000000000000000000000000000000000000000000000000000815260040161104190613684565b60405180910390fd5b81810360008085815260200190815260200160002060008c73ffffffffffffffffffffffffffffffffffffffff1673ffffffffffffffffffffffffffffffffffffffff168152602001908152602001600020819055508160008085815260200190815260200160002060008b73ffffffffffffffffffffffffffffffffffffffff1673ffffffffffffffffffffffffffffffffffffffff16815260200190815260200160002060008282546110ff9190613515565b92505081905550505050806111139061302d565b9050610f6c565b508473ffffffffffffffffffffffffffffffffffffffff168673ffffffffffffffffffffffffffffffffffffffff168273ffffffffffffffffffffffffffffffffffffffff167f4a39dc06d4c0dbc64b70af90fd698a233a518aa5d07e595d983b8c0526c8f7fb8787604051611191929190613549565b60405180910390a46111a7818787878787611d56565b6111b5818787878787611d5e565b505050505050565b600073ffffffffffffffffffffffffffffffffffffffff168473ffffffffffffffffffffffffffffffffffffffff160361122c576040517f08c379a0000000000000000000000000000000000000000000000000000000008152600401611223906135f2565b60405180910390fd5b6000611236610e94565b9050600061124385611f35565b9050600061125085611f35565b9050611260838989858589611d4e565b600080600088815260200190815260200160002060008a73ffffffffffffffffffffffffffffffffffffffff1673ffffffffffffffffffffffffffffffffffffffff168152602001908152602001600020549050858110156112f7576040517f08c379a00000000000000000000000000000000000000000000000000000000081526004016112ee90613684565b60405180910390fd5b85810360008089815260200190815260200160002060008b73ffffffffffffffffffffffffffffffffffffffff1673ffffffffffffffffffffffffffffffffffffffff168152602001908152602001600020819055508560008089815260200190815260200160002060008a73ffffffffffffffffffffffffffffffffffffffff1673ffffffffffffffffffffffffffffffffffffffff16815260200190815260200160002060008282546113ac9190613515565b925050819055508773ffffffffffffffffffffffffffffffffffffffff168973ffffffffffffffffffffffffffffffffffffffff168573ffffffffffffffffffffffffffffffffffffffff167fc3d58168c5ae7397731d063d5bbf3d657854427343f4c083240f7aacaa2d0f628a8a6040516114299291906136a4565b60405180910390a461143f848a8a86868a611d56565b61144d848a8a8a8a8a611faf565b505050505050505050565b600073ffffffffffffffffffffffffffffffffffffffff168373ffffffffffffffffffffffffffffffffffffffff16036114c7576040517f08c379a00000000000000000000000000000000000000000000000000000000081526004016114be9061373f565b60405180910390fd5b805182511461150b576040517f08c379a0000000000000000000000000000000000000000000000000000000008152600401611502906134f5565b60405180910390fd5b6000611515610e94565b905061153581856000868660405180602001604052806000815250611d4e565b60005b835181101561168257600084828151811061155657611555612fcf565b5b60200260200101519050600084838151811061157557611574612fcf565b5b60200260200101519050600080600084815260200190815260200160002060008973ffffffffffffffffffffffffffffffffffffffff1673ffffffffffffffffffffffffffffffffffffffff16815260200190815260200160002054905081811015611616576040517f08c379a000000000000000000000000000000000000000000000000000000000815260040161160d906137d1565b60405180910390fd5b81810360008085815260200190815260200160002060008a73ffffffffffffffffffffffffffffffffffffffff1673ffffffffffffffffffffffffffffffffffffffff16815260200190815260200160002081905550505050808061167a9061302d565b915050611538565b50600073ffffffffffffffffffffffffffffffffffffffff168473ffffffffffffffffffffffffffffffffffffffff168273ffffffffffffffffffffffffffffffffffffffff167f4a39dc06d4c0dbc64b70af90fd698a233a518aa5d07e595d983b8c0526c8f7fb86866040516116fa929190613549565b60405180910390a461172081856000868660405180602001604052806000815250611d56565b50505050565b6000600360009054906101000a900473ffffffffffffffffffffffffffffffffffffffff16905081600360006101000a81548173ffffffffffffffffffffffffffffffffffffffff021916908373ffffffffffffffffffffffffffffffffffffffff1602179055508173ffffffffffffffffffffffffffffffffffffffff168173ffffffffffffffffffffffffffffffffffffffff167f8be0079c531659141344cd1fd0a4f28419497f9722a3daafe3b4186f6b6457e060405160405180910390a35050565b600073ffffffffffffffffffffffffffffffffffffffff168473ffffffffffffffffffffffffffffffffffffffff160361185b576040517f08c379a000000000000000000000000000000000000000000000000000000000815260040161185290613463565b60405180910390fd5b6000611865610e94565b9050600061187285611f35565b9050600061187f85611f35565b905061189083600089858589611d4e565b8460008088815260200190815260200160002060008973ffffffffffffffffffffffffffffffffffffffff1673ffffffffffffffffffffffffffffffffffffffff16815260200190815260200160002060008282546118ef9190613515565b925050819055508673ffffffffffffffffffffffffffffffffffffffff16600073ffffffffffffffffffffffffffffffffffffffff168473ffffffffffffffffffffffffffffffffffffffff167fc3d58168c5ae7397731d063d5bbf3d657854427343f4c083240f7aacaa2d0f62898960405161196d9291906136a4565b60405180910390a461198483600089858589611d56565b61199383600089898989611faf565b50505050505050565b8173ffffffffffffffffffffffffffffffffffffffff168373ffffffffffffffffffffffffffffffffffffffff1603611a0a576040517f08c379a0000000000000000000000000000000000000000000000000000000008152600401611a0190613863565b60405180910390fd5b80600160008573ffffffffffffffffffffffffffffffffffffffff1673ffffffffffffffffffffffffffffffffffffffff16815260200190815260200160002060008473ffffffffffffffffffffffffffffffffffffffff1673ffffffffffffffffffffffffffffffffffffffff16815260200190815260200160002060006101000a81548160ff0219169083151502179055508173ffffffffffffffffffffffffffffffffffffffff168373ffffffffffffffffffffffffffffffffffffffff167f17307eab39ab6107e8899845ad3d59bd9653f200f220920489ca2b5937696c3183604051611afb9190612338565b60405180910390a3505050565b600073ffffffffffffffffffffffffffffffffffffffff168373ffffffffffffffffffffffffffffffffffffffff1603611b77576040517f08c379a0000000000000000000000000000000000000000000000000000000008152600401611b6e9061373f565b60405180910390fd5b6000611b81610e94565b90506000611b8e84611f35565b90506000611b9b84611f35565b9050611bbb83876000858560405180602001604052806000815250611d4e565b600080600087815260200190815260200160002060008873ffffffffffffffffffffffffffffffffffffffff1673ffffffffffffffffffffffffffffffffffffffff16815260200190815260200160002054905084811015611c52576040517f08c379a0000000000000000000000000000000000000000000000000000000008152600401611c49906137d1565b60405180910390fd5b84810360008088815260200190815260200160002060008973ffffffffffffffffffffffffffffffffffffffff1673ffffffffffffffffffffffffffffffffffffffff16815260200190815260200160002081905550600073ffffffffffffffffffffffffffffffffffffffff168773ffffffffffffffffffffffffffffffffffffffff168573ffffffffffffffffffffffffffffffffffffffff167fc3d58168c5ae7397731d063d5bbf3d657854427343f4c083240f7aacaa2d0f628989604051611d1f9291906136a4565b60405180910390a4611d4584886000868660405180602001604052806000815250611d56565b50505050505050565b505050505050565b505050505050565b611d7d8473ffffffffffffffffffffffffffffffffffffffff16610b4a565b15611f2d578373ffffffffffffffffffffffffffffffffffffffff1663bc197c8187878686866040518663ffffffff1660e01b8152600401611dc39594939291906138d8565b6020604051808303816000875af1925050508015611dff57506040513d601f19601f82011682018060405250810190611dfc9190613955565b60015b611ea457611e0b61398f565b806308c379a003611e675750611e1f6139b1565b80611e2a5750611e69565b806040517f08c379a0000000000000000000000000000000000000000000000000000000008152600401611e5e919061258e565b60405180910390fd5b505b6040517f08c379a0000000000000000000000000000000000000000000000000000000008152600401611e9b90613ab3565b60405180910390fd5b63bc197c8160e01b7bffffffffffffffffffffffffffffffffffffffffffffffffffffffff1916817bffffffffffffffffffffffffffffffffffffffffffffffffffffffff191614611f2b576040517f08c379a0000000000000000000000000000000000000000000000000000000008152600401611f2290613b45565b60405180910390fd5b505b505050505050565b60606000600167ffffffffffffffff811115611f5457611f5361236e565b5b604051908082528060200260200182016040528015611f825781602001602082028036833780820191505090505b5090508281600081518110611f9a57611f99612fcf565b5b60200260200101818152505080915050919050565b611fce8473ffffffffffffffffffffffffffffffffffffffff16610b4a565b1561217e578373ffffffffffffffffffffffffffffffffffffffff1663f23a6e6187878686866040518663ffffffff1660e01b8152600401612014959493929190613b65565b6020604051808303816000875af192505050801561205057506040513d601f19601f8201168201806040525081019061204d9190613955565b60015b6120f55761205c61398f565b806308c379a0036120b857506120706139b1565b8061207b57506120ba565b806040517f08c379a00000000000000000000000000000000000000000000000000000000081526004016120af919061258e565b60405180910390fd5b505b6040517f08c379a00000000000000000000000000000000000000000000000000000000081526004016120ec90613ab3565b60405180910390fd5b63f23a6e6160e01b7bffffffffffffffffffffffffffffffffffffffffffffffffffffffff1916817bffffffffffffffffffffffffffffffffffffffffffffffffffffffff19161461217c576040517f08c379a000000000000000000000000000000000000000000000000000000000815260040161217390613b45565b60405180910390fd5b505b505050505050565b6000604051905090565b600080fd5b600080fd5b600073ffffffffffffffffffffffffffffffffffffffff82169050919050565b60006121c58261219a565b9050919050565b6121d5816121ba565b81146121e057600080fd5b50565b6000813590506121f2816121cc565b92915050565b6000819050919050565b61220b816121f8565b811461221657600080fd5b50565b60008135905061222881612202565b92915050565b6000806040838503121561224557612244612190565b5b6000612253858286016121e3565b925050602061226485828601612219565b9150509250929050565b612277816121f8565b82525050565b6000602082019050612292600083018461226e565b92915050565b60007fffffffff0000000000000000000000000000000000000000000000000000000082169050919050565b6122cd81612298565b81146122d857600080fd5b50565b6000813590506122ea816122c4565b92915050565b60006020828403121561230657612305612190565b5b6000612314848285016122db565b91505092915050565b60008115159050919050565b6123328161231d565b82525050565b600060208201905061234d6000830184612329565b92915050565b600080fd5b600080fd5b6000601f19601f8301169050919050565b7f4e487b7100000000000000000000000000000000000000000000000000000000600052604160045260246000fd5b6123a68261235d565b810181811067ffffffffffffffff821117156123c5576123c461236e565b5b80604052505050565b60006123d8612186565b90506123e4828261239d565b919050565b600067ffffffffffffffff8211156124045761240361236e565b5b61240d8261235d565b9050602081019050919050565b82818337600083830152505050565b600061243c612437846123e9565b6123ce565b90508281526020810184848401111561245857612457612358565b5b61246384828561241a565b509392505050565b600082601f8301126124805761247f612353565b5b8135612490848260208601612429565b91505092915050565b6000602082840312156124af576124ae612190565b5b600082013567ffffffffffffffff8111156124cd576124cc612195565b5b6124d98482850161246b565b91505092915050565b6000602082840312156124f8576124f7612190565b5b600061250684828501612219565b91505092915050565b600081519050919050565b600082825260208201905092915050565b60005b8381101561254957808201518184015260208101905061252e565b60008484015250505050565b60006125608261250f565b61256a818561251a565b935061257a81856020860161252b565b6125838161235d565b840191505092915050565b600060208201905081810360008301526125a88184612555565b905092915050565b600067ffffffffffffffff8211156125cb576125ca61236e565b5b602082029050602081019050919050565b600080fd5b60006125f46125ef846125b0565b6123ce565b90508083825260208201905060208402830185811115612617576126166125dc565b5b835b81811015612640578061262c8882612219565b845260208401935050602081019050612619565b5050509392505050565b600082601f83011261265f5761265e612353565b5b813561266f8482602086016125e1565b91505092915050565b600067ffffffffffffffff8211156126935761269261236e565b5b61269c8261235d565b9050602081019050919050565b60006126bc6126b784612678565b6123ce565b9050828152602081018484840111156126d8576126d7612358565b5b6126e384828561241a565b509392505050565b600082601f830112612700576126ff612353565b5b81356127108482602086016126a9565b91505092915050565b6000806000806080858703121561273357612732612190565b5b6000612741878288016121e3565b945050602085013567ffffffffffffffff81111561276257612761612195565b5b61276e8782880161264a565b935050604085013567ffffffffffffffff81111561278f5761278e612195565b5b61279b8782880161264a565b925050606085013567ffffffffffffffff8111156127bc576127bb612195565b5b6127c8878288016126eb565b91505092959194509250565b600080600080600060a086880312156127f0576127ef612190565b5b60006127fe888289016121e3565b955050602061280f888289016121e3565b945050604086013567ffffffffffffffff8111156128305761282f612195565b5b61283c8882890161264a565b935050606086013567ffffffffffffffff81111561285d5761285c612195565b5b6128698882890161264a565b925050608086013567ffffffffffffffff81111561288a57612889612195565b5b612896888289016126eb565b9150509295509295909350565b6000806000606084860312156128bc576128bb612190565b5b60006128ca868287016121e3565b93505060206128db86828701612219565b92505060406128ec86828701612219565b9150509250925092565b600067ffffffffffffffff8211156129115761291061236e565b5b602082029050602081019050919050565b6000612935612930846128f6565b6123ce565b90508083825260208201905060208402830185811115612958576129576125dc565b5b835b81811015612981578061296d88826121e3565b84526020840193505060208101905061295a565b5050509392505050565b600082601f8301126129a05761299f612353565b5b81356129b0848260208601612922565b91505092915050565b600080604083850312156129d0576129cf612190565b5b600083013567ffffffffffffffff8111156129ee576129ed612195565b5b6129fa8582860161298b565b925050602083013567ffffffffffffffff811115612a1b57612a1a612195565b5b612a278582860161264a565b9150509250929050565b600081519050919050565b600082825260208201905092915050565b6000819050602082019050919050565b612a66816121f8565b82525050565b6000612a788383612a5d565b60208301905092915050565b6000602082019050919050565b6000612a9c82612a31565b612aa68185612a3c565b9350612ab183612a4d565b8060005b83811015612ae2578151612ac98882612a6c565b9750612ad483612a84565b925050600181019050612ab5565b5085935050505092915050565b60006020820190508181036000830152612b098184612a91565b905092915050565b600080600060608486031215612b2a57612b29612190565b5b6000612b38868287016121e3565b935050602084013567ffffffffffffffff811115612b5957612b58612195565b5b612b658682870161264a565b925050604084013567ffffffffffffffff811115612b8657612b85612195565b5b612b928682870161264a565b9150509250925092565b60008060008060808587031215612bb657612bb5612190565b5b6000612bc4878288016121e3565b9450506020612bd587828801612219565b9350506040612be687828801612219565b925050606085013567ffffffffffffffff811115612c0757612c06612195565b5b612c13878288016126eb565b91505092959194509250565b612c28816121ba565b82525050565b6000602082019050612c436000830184612c1f565b92915050565b612c528161231d565b8114612c5d57600080fd5b50565b600081359050612c6f81612c49565b92915050565b60008060408385031215612c8c57612c8b612190565b5b6000612c9a858286016121e3565b9250506020612cab85828601612c60565b9150509250929050565b60008060408385031215612ccc57612ccb612190565b5b6000612cda858286016121e3565b9250506020612ceb858286016121e3565b9150509250929050565b600080600080600060a08688031215612d1157612d10612190565b5b6000612d1f888289016121e3565b9550506020612d30888289016121e3565b9450506040612d4188828901612219565b9350506060612d5288828901612219565b925050608086013567ffffffffffffffff811115612d7357612d72612195565b5b612d7f888289016126eb565b9150509295509295909350565b600060208284031215612da257612da1612190565b5b6000612db0848285016121e3565b91505092915050565b7f455243313135353a2061646472657373207a65726f206973206e6f742061207660008201527f616c6964206f776e657200000000000000000000000000000000000000000000602082015250565b6000612e15602a8361251a565b9150612e2082612db9565b604082019050919050565b60006020820190508181036000830152612e4481612e08565b9050919050565b7f4e487b7100000000000000000000000000000000000000000000000000000000600052602260045260246000fd5b60006002820490506001821680612e9257607f821691505b602082108103612ea557612ea4612e4b565b5b50919050565b7f455243313135353a2063616c6c6572206973206e6f7420746f6b656e206f776e60008201527f6572206f7220617070726f766564000000000000000000000000000000000000602082015250565b6000612f07602e8361251a565b9150612f1282612eab565b604082019050919050565b60006020820190508181036000830152612f3681612efa565b9050919050565b7f455243313135353a206163636f756e747320616e6420696473206c656e67746860008201527f206d69736d617463680000000000000000000000000000000000000000000000602082015250565b6000612f9960298361251a565b9150612fa482612f3d565b604082019050919050565b60006020820190508181036000830152612fc881612f8c565b9050919050565b7f4e487b7100000000000000000000000000000000000000000000000000000000600052603260045260246000fd5b7f4e487b7100000000000000000000000000000000000000000000000000000000600052601160045260246000fd5b6000613038826121f8565b91507fffffffffffffffffffffffffffffffffffffffffffffffffffffffffffffffff820361306a57613069612ffe565b5b600182019050919050565b7f4f776e61626c653a206e6577206f776e657220697320746865207a65726f206160008201527f6464726573730000000000000000000000000000000000000000000000000000602082015250565b60006130d160268361251a565b91506130dc82613075565b604082019050919050565b60006020820190508181036000830152613100816130c4565b9050919050565b7f4f776e61626c653a2063616c6c6572206973206e6f7420746865206f776e6572600082015250565b600061313d60208361251a565b915061314882613107565b602082019050919050565b6000602082019050818103600083015261316c81613130565b9050919050565b60008190508160005260206000209050919050565b60006020601f8301049050919050565b600082821b905092915050565b6000600883026131d57fffffffffffffffffffffffffffffffffffffffffffffffffffffffffffffffff82613198565b6131df8683613198565b95508019841693508086168417925050509392505050565b6000819050919050565b600061321c613217613212846121f8565b6131f7565b6121f8565b9050919050565b6000819050919050565b61323683613201565b61324a61324282613223565b8484546131a5565b825550505050565b600090565b61325f613252565b61326a81848461322d565b505050565b5b8181101561328e57613283600082613257565b600181019050613270565b5050565b601f8211156132d3576132a481613173565b6132ad84613188565b810160208510156132bc578190505b6132d06132c885613188565b83018261326f565b50505b505050565b600082821c905092915050565b60006132f6600019846008026132d8565b1980831691505092915050565b600061330f83836132e5565b9150826002028217905092915050565b6133288261250f565b67ffffffffffffffff8111156133415761334061236e565b5b61334b8254612e7a565b613356828285613292565b600060209050601f8311600181146133895760008415613377578287015190505b6133818582613303565b8655506133e9565b601f19841661339786613173565b60005b828110156133bf5784890151825560018201915060208501945060208101905061339a565b868310156133dc57848901516133d8601f8916826132e5565b8355505b6001600288020188555050505b505050505050565b7f455243313135353a206d696e7420746f20746865207a65726f2061646472657360008201527f7300000000000000000000000000000000000000000000000000000000000000602082015250565b600061344d60218361251a565b9150613458826133f1565b604082019050919050565b6000602082019050818103600083015261347c81613440565b9050919050565b7f455243313135353a2069647320616e6420616d6f756e7473206c656e6774682060008201527f6d69736d61746368000000000000000000000000000000000000000000000000602082015250565b60006134df60288361251a565b91506134ea82613483565b604082019050919050565b6000602082019050818103600083015261350e816134d2565b9050919050565b6000613520826121f8565b915061352b836121f8565b925082820190508082111561354357613542612ffe565b5b92915050565b600060408201905081810360008301526135638185612a91565b905081810360208301526135778184612a91565b90509392505050565b7f455243313135353a207472616e7366657220746f20746865207a65726f20616460008201527f6472657373000000000000000000000000000000000000000000000000000000602082015250565b60006135dc60258361251a565b91506135e782613580565b604082019050919050565b6000602082019050818103600083015261360b816135cf565b9050919050565b7f455243313135353a20696e73756666696369656e742062616c616e636520666f60008201527f72207472616e7366657200000000000000000000000000000000000000000000602082015250565b600061366e602a8361251a565b915061367982613612565b604082019050919050565b6000602082019050818103600083015261369d81613661565b9050919050565b60006040820190506136b9600083018561226e565b6136c6602083018461226e565b9392505050565b7f455243313135353a206275726e2066726f6d20746865207a65726f206164647260008201527f6573730000000000000000000000000000000000000000000000000000000000602082015250565b600061372960238361251a565b9150613734826136cd565b604082019050919050565b600060208201905081810360008301526137588161371c565b9050919050565b7f455243313135353a206275726e20616d6f756e7420657863656564732062616c60008201527f616e636500000000000000000000000000000000000000000000000000000000602082015250565b60006137bb60248361251a565b91506137c68261375f565b604082019050919050565b600060208201905081810360008301526137ea816137ae565b9050919050565b7f455243313135353a2073657474696e6720617070726f76616c2073746174757360008201527f20666f722073656c660000000000000000000000000000000000000000000000602082015250565b600061384d60298361251a565b9150613858826137f1565b604082019050919050565b6000602082019050818103600083015261387c81613840565b9050919050565b600081519050919050565b600082825260208201905092915050565b60006138aa82613883565b6138b4818561388e565b93506138c481856020860161252b565b6138cd8161235d565b840191505092915050565b600060a0820190506138ed6000830188612c1f565b6138fa6020830187612c1f565b818103604083015261390c8186612a91565b905081810360608301526139208185612a91565b90508181036080830152613934818461389f565b90509695505050505050565b60008151905061394f816122c4565b92915050565b60006020828403121561396b5761396a612190565b5b600061397984828501613940565b91505092915050565b60008160e01c9050919050565b600060033d11156139ae5760046000803e6139ab600051613982565b90505b90565b600060443d10613a3e576139c3612186565b60043d036004823e80513d602482011167ffffffffffffffff821117156139eb575050613a3e565b808201805167ffffffffffffffff811115613a095750505050613a3e565b80602083010160043d038501811115613a26575050505050613a3e565b613a358260200185018661239d565b82955050505050505b90565b7f455243313135353a207472616e7366657220746f206e6f6e2d4552433131353560008201527f526563656976657220696d706c656d656e746572000000000000000000000000602082015250565b6000613a9d60348361251a565b9150613aa882613a41565b604082019050919050565b60006020820190508181036000830152613acc81613a90565b9050919050565b7f455243313135353a204552433131353552656365697665722072656a6563746560008201527f6420746f6b656e73000000000000000000000000000000000000000000000000602082015250565b6000613b2f60288361251a565b9150613b3a82613ad3565b604082019050919050565b60006020820190508181036000830152613b5e81613b22565b9050919050565b600060a082019050613b7a6000830188612c1f565b613b876020830187612c1f565b613b94604083018661226e565b613ba1606083018561226e565b8181036080830152613bb3818461389f565b9050969550505050505056fea2646970667358221220f8276f4e7310d7b0cc6f17efacc5f4e849f1aaa32c893749bab7b861ea62600c64736f6c63430008120033687474703a2f2f3139332e3231392e39312e3130333a363137322f6170692f76312f67616d656974656d732f534654732f7b69647d2e6a736f6e",
  "immutableReferences": {},
  "source": "// SPDX-License-Identifier: MIT\r\npragma solidity ^0.8.9;\r\n\r\nimport \"@openzeppelin/contracts/token/ERC1155/ERC1155.sol\";\r\nimport \"@openzeppelin/contracts/access/Ownable.sol\";\r\nimport \"@openzeppelin/contracts/token/ERC1155/extensions/ERC1155Burnable.sol\";\r\nimport \"@openzeppelin/contracts/utils/Counters.sol\";\r\n\r\ncontract GameItem is ERC1155, Ownable, ERC1155Burnable {\r\n    using Counters for Counters.Counter;\r\n    Counters.Counter private _tokenIdCounter;\r\n    address marketContract;\r\n\r\n    uint256 public constant GOLD = 0;\r\n    uint256 public constant METAL_FISHING_ROD = 1;\r\n    \r\n    constructor(address _marketContract) ERC1155(\"http://193.219.91.103:6172/api/v1/gameitems/SFTs/{id}.json\") {\r\n        _mint(msg.sender, GOLD, 10**18, \"\");\r\n        _mint(msg.sender, METAL_FISHING_ROD, 10**9, \"\");\r\n        marketContract = _marketContract;\r\n    }\r\n\r\n    function awardItem(address to, uint256 _id, uint256 _amount) public onlyOwner {\r\n        _safeTransferFrom(msg.sender, to, _id, _amount, \"\");\r\n    }\r\n\r\n    function setURI(string memory newuri) public onlyOwner {\r\n        _setURI(newuri);\r\n    }\r\n\r\n    function mint(address account, uint256 id, uint256 amount, bytes memory data)\r\n        public\r\n        onlyOwner\r\n    {\r\n        _mint(account, id, amount, data);\r\n    }\r\n\r\n    function mintBatch(address to, uint256[] memory ids, uint256[] memory amounts, bytes memory data)\r\n        public\r\n        onlyOwner\r\n    {\r\n        _mintBatch(to, ids, amounts, data);\r\n    }\r\n}",
  "sourcePath": "C:\\Users\\muizy\\Desktop\\blockchain\\contracts\\GameItem.sol",
  "compiler": {
    "name": "solc",
    "version": "0.8.18+commit.87f61d96.Emscripten.clang"
  },
  "schemaVersion": "3.4.11",
  "updatedAt": "2023-04-01T00:37:17.327Z",
  "networkType": "ethereum",
  "devdoc": {
    "events": {
      "ApprovalForAll(address,address,bool)": {
        "details": "Emitted when `account` grants or revokes permission to `operator` to transfer their tokens, according to `approved`."
      },
      "TransferBatch(address,address,address,uint256[],uint256[])": {
        "details": "Equivalent to multiple {TransferSingle} events, where `operator`, `from` and `to` are the same for all transfers."
      },
      "TransferSingle(address,address,address,uint256,uint256)": {
        "details": "Emitted when `value` tokens of token type `id` are transferred from `from` to `to` by `operator`."
      },
      "URI(string,uint256)": {
        "details": "Emitted when the URI for token type `id` changes to `value`, if it is a non-programmatic URI. If an {URI} event was emitted for `id`, the standard https://eips.ethereum.org/EIPS/eip-1155#metadata-extensions[guarantees] that `value` will equal the value returned by {IERC1155MetadataURI-uri}."
      }
    },
    "kind": "dev",
    "methods": {
      "balanceOf(address,uint256)": {
        "details": "See {IERC1155-balanceOf}. Requirements: - `account` cannot be the zero address."
      },
      "balanceOfBatch(address[],uint256[])": {
        "details": "See {IERC1155-balanceOfBatch}. Requirements: - `accounts` and `ids` must have the same length."
      },
      "isApprovedForAll(address,address)": {
        "details": "See {IERC1155-isApprovedForAll}."
      },
      "owner()": {
        "details": "Returns the address of the current owner."
      },
      "renounceOwnership()": {
        "details": "Leaves the contract without owner. It will not be possible to call `onlyOwner` functions anymore. Can only be called by the current owner. NOTE: Renouncing ownership will leave the contract without an owner, thereby removing any functionality that is only available to the owner."
      },
      "safeBatchTransferFrom(address,address,uint256[],uint256[],bytes)": {
        "details": "See {IERC1155-safeBatchTransferFrom}."
      },
      "safeTransferFrom(address,address,uint256,uint256,bytes)": {
        "details": "See {IERC1155-safeTransferFrom}."
      },
      "setApprovalForAll(address,bool)": {
        "details": "See {IERC1155-setApprovalForAll}."
      },
      "supportsInterface(bytes4)": {
        "details": "See {IERC165-supportsInterface}."
      },
      "transferOwnership(address)": {
        "details": "Transfers ownership of the contract to a new account (`newOwner`). Can only be called by the current owner."
      },
      "uri(uint256)": {
        "details": "See {IERC1155MetadataURI-uri}. This implementation returns the same URI for *all* token types. It relies on the token type ID substitution mechanism https://eips.ethereum.org/EIPS/eip-1155#metadata[defined in the EIP]. Clients calling this function must replace the `\\{id\\}` substring with the actual token type ID."
      }
    },
    "version": 1
  },
  "userdoc": {
    "kind": "user",
    "methods": {},
    "version": 1
  }
}