{
  "contractName": "GameItem",
  "abi": [
    {
      "inputs": [
        {
          "internalType": "address",
          "name": "_marketContract",
          "type": "address"
        }
      ],
      "stateMutability": "nonpayable",
      "type": "constructor"
    },
    {
      "anonymous": false,
      "inputs": [
        {
          "indexed": true,
          "internalType": "address",
          "name": "account",
          "type": "address"
        },
        {
          "indexed": true,
          "internalType": "address",
          "name": "operator",
          "type": "address"
        },
        {
          "indexed": false,
          "internalType": "bool",
          "name": "approved",
          "type": "bool"
        }
      ],
      "name": "ApprovalForAll",
      "type": "event"
    },
    {
      "anonymous": false,
      "inputs": [
        {
          "indexed": true,
          "internalType": "address",
          "name": "previousOwner",
          "type": "address"
        },
        {
          "indexed": true,
          "internalType": "address",
          "name": "newOwner",
          "type": "address"
        }
      ],
      "name": "OwnershipTransferred",
      "type": "event"
    },
    {
      "anonymous": false,
      "inputs": [
        {
          "indexed": true,
          "internalType": "address",
          "name": "operator",
          "type": "address"
        },
        {
          "indexed": true,
          "internalType": "address",
          "name": "from",
          "type": "address"
        },
        {
          "indexed": true,
          "internalType": "address",
          "name": "to",
          "type": "address"
        },
        {
          "indexed": false,
          "internalType": "uint256[]",
          "name": "ids",
          "type": "uint256[]"
        },
        {
          "indexed": false,
          "internalType": "uint256[]",
          "name": "values",
          "type": "uint256[]"
        }
      ],
      "name": "TransferBatch",
      "type": "event"
    },
    {
      "anonymous": false,
      "inputs": [
        {
          "indexed": true,
          "internalType": "address",
          "name": "operator",
          "type": "address"
        },
        {
          "indexed": true,
          "internalType": "address",
          "name": "from",
          "type": "address"
        },
        {
          "indexed": true,
          "internalType": "address",
          "name": "to",
          "type": "address"
        },
        {
          "indexed": false,
          "internalType": "uint256",
          "name": "id",
          "type": "uint256"
        },
        {
          "indexed": false,
          "internalType": "uint256",
          "name": "value",
          "type": "uint256"
        }
      ],
      "name": "TransferSingle",
      "type": "event"
    },
    {
      "anonymous": false,
      "inputs": [
        {
          "indexed": false,
          "internalType": "string",
          "name": "value",
          "type": "string"
        },
        {
          "indexed": true,
          "internalType": "uint256",
          "name": "id",
          "type": "uint256"
        }
      ],
      "name": "URI",
      "type": "event"
    },
    {
      "inputs": [],
      "name": "GOLD",
      "outputs": [
        {
          "internalType": "uint256",
          "name": "",
          "type": "uint256"
        }
      ],
      "stateMutability": "view",
      "type": "function"
    },
    {
      "inputs": [],
      "name": "METAL_FISHING_ROD",
      "outputs": [
        {
          "internalType": "uint256",
          "name": "",
          "type": "uint256"
        }
      ],
      "stateMutability": "view",
      "type": "function"
    },
    {
      "inputs": [],
      "name": "STARTER_FISHING_ROD",
      "outputs": [
        {
          "internalType": "uint256",
          "name": "",
          "type": "uint256"
        }
      ],
      "stateMutability": "view",
      "type": "function"
    },
    {
      "inputs": [
        {
          "internalType": "address",
          "name": "account",
          "type": "address"
        },
        {
          "internalType": "uint256",
          "name": "id",
          "type": "uint256"
        }
      ],
      "name": "balanceOf",
      "outputs": [
        {
          "internalType": "uint256",
          "name": "",
          "type": "uint256"
        }
      ],
      "stateMutability": "view",
      "type": "function"
    },
    {
      "inputs": [
        {
          "internalType": "address[]",
          "name": "accounts",
          "type": "address[]"
        },
        {
          "internalType": "uint256[]",
          "name": "ids",
          "type": "uint256[]"
        }
      ],
      "name": "balanceOfBatch",
      "outputs": [
        {
          "internalType": "uint256[]",
          "name": "",
          "type": "uint256[]"
        }
      ],
      "stateMutability": "view",
      "type": "function"
    },
    {
      "inputs": [
        {
          "internalType": "address",
          "name": "account",
          "type": "address"
        },
        {
          "internalType": "uint256",
          "name": "id",
          "type": "uint256"
        },
        {
          "internalType": "uint256",
          "name": "value",
          "type": "uint256"
        }
      ],
      "name": "burn",
      "outputs": [],
      "stateMutability": "nonpayable",
      "type": "function"
    },
    {
      "inputs": [
        {
          "internalType": "address",
          "name": "account",
          "type": "address"
        },
        {
          "internalType": "uint256[]",
          "name": "ids",
          "type": "uint256[]"
        },
        {
          "internalType": "uint256[]",
          "name": "values",
          "type": "uint256[]"
        }
      ],
      "name": "burnBatch",
      "outputs": [],
      "stateMutability": "nonpayable",
      "type": "function"
    },
    {
      "inputs": [
        {
          "internalType": "address",
          "name": "account",
          "type": "address"
        },
        {
          "internalType": "address",
          "name": "operator",
          "type": "address"
        }
      ],
      "name": "isApprovedForAll",
      "outputs": [
        {
          "internalType": "bool",
          "name": "",
          "type": "bool"
        }
      ],
      "stateMutability": "view",
      "type": "function"
    },
    {
      "inputs": [],
      "name": "owner",
      "outputs": [
        {
          "internalType": "address",
          "name": "",
          "type": "address"
        }
      ],
      "stateMutability": "view",
      "type": "function"
    },
    {
      "inputs": [],
      "name": "renounceOwnership",
      "outputs": [],
      "stateMutability": "nonpayable",
      "type": "function"
    },
    {
      "inputs": [
        {
          "internalType": "address",
          "name": "from",
          "type": "address"
        },
        {
          "internalType": "address",
          "name": "to",
          "type": "address"
        },
        {
          "internalType": "uint256[]",
          "name": "ids",
          "type": "uint256[]"
        },
        {
          "internalType": "uint256[]",
          "name": "amounts",
          "type": "uint256[]"
        },
        {
          "internalType": "bytes",
          "name": "data",
          "type": "bytes"
        }
      ],
      "name": "safeBatchTransferFrom",
      "outputs": [],
      "stateMutability": "nonpayable",
      "type": "function"
    },
    {
      "inputs": [
        {
          "internalType": "address",
          "name": "from",
          "type": "address"
        },
        {
          "internalType": "address",
          "name": "to",
          "type": "address"
        },
        {
          "internalType": "uint256",
          "name": "id",
          "type": "uint256"
        },
        {
          "internalType": "uint256",
          "name": "amount",
          "type": "uint256"
        },
        {
          "internalType": "bytes",
          "name": "data",
          "type": "bytes"
        }
      ],
      "name": "safeTransferFrom",
      "outputs": [],
      "stateMutability": "nonpayable",
      "type": "function"
    },
    {
      "inputs": [
        {
          "internalType": "address",
          "name": "operator",
          "type": "address"
        },
        {
          "internalType": "bool",
          "name": "approved",
          "type": "bool"
        }
      ],
      "name": "setApprovalForAll",
      "outputs": [],
      "stateMutability": "nonpayable",
      "type": "function"
    },
    {
      "inputs": [
        {
          "internalType": "bytes4",
          "name": "interfaceId",
          "type": "bytes4"
        }
      ],
      "name": "supportsInterface",
      "outputs": [
        {
          "internalType": "bool",
          "name": "",
          "type": "bool"
        }
      ],
      "stateMutability": "view",
      "type": "function"
    },
    {
      "inputs": [
        {
          "internalType": "address",
          "name": "newOwner",
          "type": "address"
        }
      ],
      "name": "transferOwnership",
      "outputs": [],
      "stateMutability": "nonpayable",
      "type": "function"
    },
    {
      "inputs": [
        {
          "internalType": "uint256",
          "name": "",
          "type": "uint256"
        }
      ],
      "name": "uri",
      "outputs": [
        {
          "internalType": "string",
          "name": "",
          "type": "string"
        }
      ],
      "stateMutability": "view",
      "type": "function"
    },
    {
      "inputs": [
        {
          "internalType": "address",
          "name": "to",
          "type": "address"
        },
        {
          "internalType": "uint256",
          "name": "_id",
          "type": "uint256"
        },
        {
          "internalType": "uint256",
          "name": "_amount",
          "type": "uint256"
        }
      ],
      "name": "awardItem",
      "outputs": [],
      "stateMutability": "nonpayable",
      "type": "function"
    },
    {
      "inputs": [
        {
          "internalType": "string",
          "name": "newuri",
          "type": "string"
        }
      ],
      "name": "setURI",
      "outputs": [],
      "stateMutability": "nonpayable",
      "type": "function"
    },
    {
      "inputs": [
        {
          "internalType": "address",
          "name": "account",
          "type": "address"
        },
        {
          "internalType": "uint256",
          "name": "id",
          "type": "uint256"
        },
        {
          "internalType": "uint256",
          "name": "amount",
          "type": "uint256"
        },
        {
          "internalType": "bytes",
          "name": "data",
          "type": "bytes"
        }
      ],
      "name": "mint",
      "outputs": [],
      "stateMutability": "nonpayable",
      "type": "function"
    },
    {
      "inputs": [
        {
          "internalType": "address",
          "name": "to",
          "type": "address"
        },
        {
          "internalType": "uint256[]",
          "name": "ids",
          "type": "uint256[]"
        },
        {
          "internalType": "uint256[]",
          "name": "amounts",
          "type": "uint256[]"
        },
        {
          "internalType": "bytes",
          "name": "data",
          "type": "bytes"
        }
      ],
      "name": "mintBatch",
      "outputs": [],
      "stateMutability": "nonpayable",
      "type": "function"
    }
  ],
  "bytecode": "0x60806040523480156200001157600080fd5b5060405162004ce838038062004ce8833981810160405281019062000037919062000732565b6040518060600160405280603a815260200162004cae603a913962000062816200014760201b60201c565b5062000083620000776200015c60201b60201c565b6200016460201b60201c565b620000af336000670de0b6b3a7640000604051806020016040528060008152506200022a60201b60201c565b620000d7336001633b9aca00604051806020016040528060008152506200022a60201b60201c565b620000ff336002633b9aca00604051806020016040528060008152506200022a60201b60201c565b80600560006101000a81548173ffffffffffffffffffffffffffffffffffffffff021916908373ffffffffffffffffffffffffffffffffffffffff160217905550506200107b565b8060029081620001589190620009de565b5050565b600033905090565b6000600360009054906101000a900473ffffffffffffffffffffffffffffffffffffffff16905081600360006101000a81548173ffffffffffffffffffffffffffffffffffffffff021916908373ffffffffffffffffffffffffffffffffffffffff1602179055508173ffffffffffffffffffffffffffffffffffffffff168173ffffffffffffffffffffffffffffffffffffffff167f8be0079c531659141344cd1fd0a4f28419497f9722a3daafe3b4186f6b6457e060405160405180910390a35050565b600073ffffffffffffffffffffffffffffffffffffffff168473ffffffffffffffffffffffffffffffffffffffff16036200029c576040517f08c379a0000000000000000000000000000000000000000000000000000000008152600401620002939062000b4c565b60405180910390fd5b6000620002ae6200015c60201b60201c565b90506000620002c3856200041160201b60201c565b90506000620002d8856200041160201b60201c565b9050620002f1836000898585896200049260201b60201c565b8460008088815260200190815260200160002060008973ffffffffffffffffffffffffffffffffffffffff1673ffffffffffffffffffffffffffffffffffffffff168152602001908152602001600020600082825462000352919062000b9d565b925050819055508673ffffffffffffffffffffffffffffffffffffffff16600073ffffffffffffffffffffffffffffffffffffffff168473ffffffffffffffffffffffffffffffffffffffff167fc3d58168c5ae7397731d063d5bbf3d657854427343f4c083240f7aacaa2d0f628989604051620003d292919062000be9565b60405180910390a4620003f1836000898585896200049a60201b60201c565b6200040883600089898989620004a260201b60201c565b50505050505050565b60606000600167ffffffffffffffff8111156200043357620004326200076f565b5b604051908082528060200260200182016040528015620004625781602001602082028036833780820191505090505b50905082816000815181106200047d576200047c62000c16565b5b60200260200101818152505080915050919050565b505050505050565b505050505050565b620004ce8473ffffffffffffffffffffffffffffffffffffffff166200069b60201b62000b781760201c565b1562000693578373ffffffffffffffffffffffffffffffffffffffff1663f23a6e6187878686866040518663ffffffff1660e01b81526004016200051795949392919062000cf0565b6020604051808303816000875af19250505080156200055657506040513d601f19601f8201168201806040525081019062000553919062000db1565b60015b62000607576200056562000df0565b806308c379a003620005c857506200057c62000e4b565b80620005895750620005ca565b806040517f08c379a0000000000000000000000000000000000000000000000000000000008152600401620005bf919062000f27565b60405180910390fd5b505b6040517f08c379a0000000000000000000000000000000000000000000000000000000008152600401620005fe9062000fc1565b60405180910390fd5b63f23a6e6160e01b7bffffffffffffffffffffffffffffffffffffffffffffffffffffffff1916817bffffffffffffffffffffffffffffffffffffffffffffffffffffffff19161462000691576040517f08c379a0000000000000000000000000000000000000000000000000000000008152600401620006889062001059565b60405180910390fd5b505b505050505050565b6000808273ffffffffffffffffffffffffffffffffffffffff163b119050919050565b6000604051905090565b600080fd5b600073ffffffffffffffffffffffffffffffffffffffff82169050919050565b6000620006fa82620006cd565b9050919050565b6200070c81620006ed565b81146200071857600080fd5b50565b6000815190506200072c8162000701565b92915050565b6000602082840312156200074b576200074a620006c8565b5b60006200075b848285016200071b565b91505092915050565b600081519050919050565b7f4e487b7100000000000000000000000000000000000000000000000000000000600052604160045260246000fd5b7f4e487b7100000000000000000000000000000000000000000000000000000000600052602260045260246000fd5b60006002820490506001821680620007e657607f821691505b602082108103620007fc57620007fb6200079e565b5b50919050565b60008190508160005260206000209050919050565b60006020601f8301049050919050565b600082821b905092915050565b600060088302620008667fffffffffffffffffffffffffffffffffffffffffffffffffffffffffffffffff8262000827565b62000872868362000827565b95508019841693508086168417925050509392505050565b6000819050919050565b6000819050919050565b6000620008bf620008b9620008b3846200088a565b62000894565b6200088a565b9050919050565b6000819050919050565b620008db836200089e565b620008f3620008ea82620008c6565b84845462000834565b825550505050565b600090565b6200090a620008fb565b62000917818484620008d0565b505050565b5b818110156200093f576200093360008262000900565b6001810190506200091d565b5050565b601f8211156200098e57620009588162000802565b620009638462000817565b8101602085101562000973578190505b6200098b620009828562000817565b8301826200091c565b50505b505050565b600082821c905092915050565b6000620009b36000198460080262000993565b1980831691505092915050565b6000620009ce8383620009a0565b9150826002028217905092915050565b620009e98262000764565b67ffffffffffffffff81111562000a055762000a046200076f565b5b62000a118254620007cd565b62000a1e82828562000943565b600060209050601f83116001811462000a56576000841562000a41578287015190505b62000a4d8582620009c0565b86555062000abd565b601f19841662000a668662000802565b60005b8281101562000a905784890151825560018201915060208501945060208101905062000a69565b8683101562000ab0578489015162000aac601f891682620009a0565b8355505b6001600288020188555050505b505050505050565b600082825260208201905092915050565b7f455243313135353a206d696e7420746f20746865207a65726f2061646472657360008201527f7300000000000000000000000000000000000000000000000000000000000000602082015250565b600062000b3460218362000ac5565b915062000b418262000ad6565b604082019050919050565b6000602082019050818103600083015262000b678162000b25565b9050919050565b7f4e487b7100000000000000000000000000000000000000000000000000000000600052601160045260246000fd5b600062000baa826200088a565b915062000bb7836200088a565b925082820190508082111562000bd25762000bd162000b6e565b5b92915050565b62000be3816200088a565b82525050565b600060408201905062000c00600083018562000bd8565b62000c0f602083018462000bd8565b9392505050565b7f4e487b7100000000000000000000000000000000000000000000000000000000600052603260045260246000fd5b62000c5081620006ed565b82525050565b600081519050919050565b600082825260208201905092915050565b60005b8381101562000c9257808201518184015260208101905062000c75565b60008484015250505050565b6000601f19601f8301169050919050565b600062000cbc8262000c56565b62000cc8818562000c61565b935062000cda81856020860162000c72565b62000ce58162000c9e565b840191505092915050565b600060a08201905062000d07600083018862000c45565b62000d16602083018762000c45565b62000d25604083018662000bd8565b62000d34606083018562000bd8565b818103608083015262000d48818462000caf565b90509695505050505050565b60007fffffffff0000000000000000000000000000000000000000000000000000000082169050919050565b62000d8b8162000d54565b811462000d9757600080fd5b50565b60008151905062000dab8162000d80565b92915050565b60006020828403121562000dca5762000dc9620006c8565b5b600062000dda8482850162000d9a565b91505092915050565b60008160e01c9050919050565b600060033d111562000e125760046000803e62000e0f60005162000de3565b90505b90565b62000e208262000c9e565b810181811067ffffffffffffffff8211171562000e425762000e416200076f565b5b80604052505050565b600060443d1062000ee35762000e60620006be565b60043d036004823e80513d602482011167ffffffffffffffff8211171562000e8a57505062000ee3565b808201805167ffffffffffffffff81111562000eaa575050505062000ee3565b80602083010160043d03850181111562000ec957505050505062000ee3565b62000eda8260200185018662000e15565b82955050505050505b90565b600062000ef38262000764565b62000eff818562000ac5565b935062000f1181856020860162000c72565b62000f1c8162000c9e565b840191505092915050565b6000602082019050818103600083015262000f43818462000ee6565b905092915050565b7f455243313135353a207472616e7366657220746f206e6f6e2d4552433131353560008201527f526563656976657220696d706c656d656e746572000000000000000000000000602082015250565b600062000fa960348362000ac5565b915062000fb68262000f4b565b604082019050919050565b6000602082019050818103600083015262000fdc8162000f9a565b9050919050565b7f455243313135353a204552433131353552656365697665722072656a6563746560008201527f6420746f6b656e73000000000000000000000000000000000000000000000000602082015250565b60006200104160288362000ac5565b91506200104e8262000fe3565b604082019050919050565b60006020820190508181036000830152620010748162001032565b9050919050565b613c23806200108b6000396000f3fe608060405234801561001057600080fd5b506004361061012b5760003560e01c80634e1273f4116100ad578063a22cb46511610071578063a22cb4651461031a578063e985e9c514610336578063f242432a14610366578063f2fde38b14610382578063f5298aca1461039e5761012b565b80634e1273f41461028a5780636b20c454146102ba578063715018a6146102d6578063731133e9146102e05780638da5cb5b146102fc5761012b565b8063116fdd0c116100f4578063116fdd0c146101fa5780631f7fdffa146102185780632eb2c2d6146102345780633cf3ca70146102505780633e4bee381461026c5761012b565b8062fdd58e1461013057806301ffc9a71461016057806302fe5305146101905780630c7377a7146101ac5780630e89341c146101ca575b600080fd5b61014a6004803603810190610145919061225c565b6103ba565b60405161015791906122ab565b60405180910390f35b61017a6004803603810190610175919061231e565b610482565b6040516101879190612366565b60405180910390f35b6101aa60048036038101906101a591906124c7565b610564565b005b6101b4610578565b6040516101c191906122ab565b60405180910390f35b6101e460048036038101906101df9190612510565b61057d565b6040516101f191906125bc565b60405180910390f35b610202610611565b60405161020f91906122ab565b60405180910390f35b610232600480360381019061022d9190612747565b610616565b005b61024e60048036038101906102499190612802565b610630565b005b61026a600480360381019061026591906128d1565b6106d1565b005b6102746106fa565b60405161028191906122ab565b60405180910390f35b6102a4600480360381019061029f91906129e7565b6106ff565b6040516102b19190612b1d565b60405180910390f35b6102d460048036038101906102cf9190612b3f565b610818565b005b6102de6108b5565b005b6102fa60048036038101906102f59190612bca565b6108c9565b005b6103046108e3565b6040516103119190612c5c565b60405180910390f35b610334600480360381019061032f9190612ca3565b61090d565b005b610350600480360381019061034b9190612ce3565b610923565b60405161035d9190612366565b60405180910390f35b610380600480360381019061037b9190612d23565b6109b7565b005b61039c60048036038101906103979190612dba565b610a58565b005b6103b860048036038101906103b391906128d1565b610adb565b005b60008073ffffffffffffffffffffffffffffffffffffffff168373ffffffffffffffffffffffffffffffffffffffff160361042a576040517f08c379a000000000000000000000000000000000000000000000000000000000815260040161042190612e59565b60405180910390fd5b60008083815260200190815260200160002060008473ffffffffffffffffffffffffffffffffffffffff1673ffffffffffffffffffffffffffffffffffffffff16815260200190815260200160002054905092915050565b60007fd9b67a26000000000000000000000000000000000000000000000000000000007bffffffffffffffffffffffffffffffffffffffffffffffffffffffff1916827bffffffffffffffffffffffffffffffffffffffffffffffffffffffff1916148061054d57507f0e89341c000000000000000000000000000000000000000000000000000000007bffffffffffffffffffffffffffffffffffffffffffffffffffffffff1916827bffffffffffffffffffffffffffffffffffffffffffffffffffffffff1916145b8061055d575061055c82610b9b565b5b9050919050565b61056c610c05565b61057581610c83565b50565b600181565b60606002805461058c90612ea8565b80601f01602080910402602001604051908101604052809291908181526020018280546105b890612ea8565b80156106055780601f106105da57610100808354040283529160200191610605565b820191906000526020600020905b8154815290600101906020018083116105e857829003601f168201915b50505050509050919050565b600281565b61061e610c05565b61062a84848484610c96565b50505050565b610638610ec2565b73ffffffffffffffffffffffffffffffffffffffff168573ffffffffffffffffffffffffffffffffffffffff16148061067e575061067d85610678610ec2565b610923565b5b6106bd576040517f08c379a00000000000000000000000000000000000000000000000000000000081526004016106b490612f4b565b60405180910390fd5b6106ca8585858585610eca565b5050505050565b6106d9610c05565b6106f533848484604051806020016040528060008152506111eb565b505050565b600081565b60608151835114610745576040517f08c379a000000000000000000000000000000000000000000000000000000000815260040161073c90612fdd565b60405180910390fd5b6000835167ffffffffffffffff8111156107625761076161239c565b5b6040519080825280602002602001820160405280156107905781602001602082028036833780820191505090505b50905060005b845181101561080d576107dd8582815181106107b5576107b4612ffd565b5b60200260200101518583815181106107d0576107cf612ffd565b5b60200260200101516103ba565b8282815181106107f0576107ef612ffd565b5b602002602001018181525050806108069061305b565b9050610796565b508091505092915050565b610820610ec2565b73ffffffffffffffffffffffffffffffffffffffff168373ffffffffffffffffffffffffffffffffffffffff161480610866575061086583610860610ec2565b610923565b5b6108a5576040517f08c379a000000000000000000000000000000000000000000000000000000000815260040161089c90612f4b565b60405180910390fd5b6108b0838383611486565b505050565b6108bd610c05565b6108c76000611754565b565b6108d1610c05565b6108dd8484848461181a565b50505050565b6000600360009054906101000a900473ffffffffffffffffffffffffffffffffffffffff16905090565b61091f610918610ec2565b83836119ca565b5050565b6000600160008473ffffffffffffffffffffffffffffffffffffffff1673ffffffffffffffffffffffffffffffffffffffff16815260200190815260200160002060008373ffffffffffffffffffffffffffffffffffffffff1673ffffffffffffffffffffffffffffffffffffffff16815260200190815260200160002060009054906101000a900460ff16905092915050565b6109bf610ec2565b73ffffffffffffffffffffffffffffffffffffffff168573ffffffffffffffffffffffffffffffffffffffff161480610a055750610a04856109ff610ec2565b610923565b5b610a44576040517f08c379a0000000000000000000000000000000000000000000000000000000008152600401610a3b90612f4b565b60405180910390fd5b610a5185858585856111eb565b5050505050565b610a60610c05565b600073ffffffffffffffffffffffffffffffffffffffff168173ffffffffffffffffffffffffffffffffffffffff1603610acf576040517f08c379a0000000000000000000000000000000000000000000000000000000008152600401610ac690613115565b60405180910390fd5b610ad881611754565b50565b610ae3610ec2565b73ffffffffffffffffffffffffffffffffffffffff168373ffffffffffffffffffffffffffffffffffffffff161480610b295750610b2883610b23610ec2565b610923565b5b610b68576040517f08c379a0000000000000000000000000000000000000000000000000000000008152600401610b5f90612f4b565b60405180910390fd5b610b73838383611b36565b505050565b6000808273ffffffffffffffffffffffffffffffffffffffff163b119050919050565b60007f01ffc9a7000000000000000000000000000000000000000000000000000000007bffffffffffffffffffffffffffffffffffffffffffffffffffffffff1916827bffffffffffffffffffffffffffffffffffffffffffffffffffffffff1916149050919050565b610c0d610ec2565b73ffffffffffffffffffffffffffffffffffffffff16610c2b6108e3565b73ffffffffffffffffffffffffffffffffffffffff1614610c81576040517f08c379a0000000000000000000000000000000000000000000000000000000008152600401610c7890613181565b60405180910390fd5b565b8060029081610c92919061334d565b5050565b600073ffffffffffffffffffffffffffffffffffffffff168473ffffffffffffffffffffffffffffffffffffffff1603610d05576040517f08c379a0000000000000000000000000000000000000000000000000000000008152600401610cfc90613491565b60405180910390fd5b8151835114610d49576040517f08c379a0000000000000000000000000000000000000000000000000000000008152600401610d4090613523565b60405180910390fd5b6000610d53610ec2565b9050610d6481600087878787611d7c565b60005b8451811015610e1d57838181518110610d8357610d82612ffd565b5b6020026020010151600080878481518110610da157610da0612ffd565b5b6020026020010151815260200190815260200160002060008873ffffffffffffffffffffffffffffffffffffffff1673ffffffffffffffffffffffffffffffffffffffff1681526020019081526020016000206000828254610e039190613543565b925050819055508080610e159061305b565b915050610d67565b508473ffffffffffffffffffffffffffffffffffffffff16600073ffffffffffffffffffffffffffffffffffffffff168273ffffffffffffffffffffffffffffffffffffffff167f4a39dc06d4c0dbc64b70af90fd698a233a518aa5d07e595d983b8c0526c8f7fb8787604051610e95929190613577565b60405180910390a4610eac81600087878787611d84565b610ebb81600087878787611d8c565b5050505050565b600033905090565b8151835114610f0e576040517f08c379a0000000000000000000000000000000000000000000000000000000008152600401610f0590613523565b60405180910390fd5b600073ffffffffffffffffffffffffffffffffffffffff168473ffffffffffffffffffffffffffffffffffffffff1603610f7d576040517f08c379a0000000000000000000000000000000000000000000000000000000008152600401610f7490613620565b60405180910390fd5b6000610f87610ec2565b9050610f97818787878787611d7c565b60005b8451811015611148576000858281518110610fb857610fb7612ffd565b5b602002602001015190506000858381518110610fd757610fd6612ffd565b5b60200260200101519050600080600084815260200190815260200160002060008b73ffffffffffffffffffffffffffffffffffffffff1673ffffffffffffffffffffffffffffffffffffffff16815260200190815260200160002054905081811015611078576040517f08c379a000000000000000000000000000000000000000000000000000000000815260040161106f906136b2565b60405180910390fd5b81810360008085815260200190815260200160002060008c73ffffffffffffffffffffffffffffffffffffffff1673ffffffffffffffffffffffffffffffffffffffff168152602001908152602001600020819055508160008085815260200190815260200160002060008b73ffffffffffffffffffffffffffffffffffffffff1673ffffffffffffffffffffffffffffffffffffffff168152602001908152602001600020600082825461112d9190613543565b92505081905550505050806111419061305b565b9050610f9a565b508473ffffffffffffffffffffffffffffffffffffffff168673ffffffffffffffffffffffffffffffffffffffff168273ffffffffffffffffffffffffffffffffffffffff167f4a39dc06d4c0dbc64b70af90fd698a233a518aa5d07e595d983b8c0526c8f7fb87876040516111bf929190613577565b60405180910390a46111d5818787878787611d84565b6111e3818787878787611d8c565b505050505050565b600073ffffffffffffffffffffffffffffffffffffffff168473ffffffffffffffffffffffffffffffffffffffff160361125a576040517f08c379a000000000000000000000000000000000000000000000000000000000815260040161125190613620565b60405180910390fd5b6000611264610ec2565b9050600061127185611f63565b9050600061127e85611f63565b905061128e838989858589611d7c565b600080600088815260200190815260200160002060008a73ffffffffffffffffffffffffffffffffffffffff1673ffffffffffffffffffffffffffffffffffffffff16815260200190815260200160002054905085811015611325576040517f08c379a000000000000000000000000000000000000000000000000000000000815260040161131c906136b2565b60405180910390fd5b85810360008089815260200190815260200160002060008b73ffffffffffffffffffffffffffffffffffffffff1673ffffffffffffffffffffffffffffffffffffffff168152602001908152602001600020819055508560008089815260200190815260200160002060008a73ffffffffffffffffffffffffffffffffffffffff1673ffffffffffffffffffffffffffffffffffffffff16815260200190815260200160002060008282546113da9190613543565b925050819055508773ffffffffffffffffffffffffffffffffffffffff168973ffffffffffffffffffffffffffffffffffffffff168573ffffffffffffffffffffffffffffffffffffffff167fc3d58168c5ae7397731d063d5bbf3d657854427343f4c083240f7aacaa2d0f628a8a6040516114579291906136d2565b60405180910390a461146d848a8a86868a611d84565b61147b848a8a8a8a8a611fdd565b505050505050505050565b600073ffffffffffffffffffffffffffffffffffffffff168373ffffffffffffffffffffffffffffffffffffffff16036114f5576040517f08c379a00000000000000000000000000000000000000000000000000000000081526004016114ec9061376d565b60405180910390fd5b8051825114611539576040517f08c379a000000000000000000000000000000000000000000000000000000000815260040161153090613523565b60405180910390fd5b6000611543610ec2565b905061156381856000868660405180602001604052806000815250611d7c565b60005b83518110156116b057600084828151811061158457611583612ffd565b5b6020026020010151905060008483815181106115a3576115a2612ffd565b5b60200260200101519050600080600084815260200190815260200160002060008973ffffffffffffffffffffffffffffffffffffffff1673ffffffffffffffffffffffffffffffffffffffff16815260200190815260200160002054905081811015611644576040517f08c379a000000000000000000000000000000000000000000000000000000000815260040161163b906137ff565b60405180910390fd5b81810360008085815260200190815260200160002060008a73ffffffffffffffffffffffffffffffffffffffff1673ffffffffffffffffffffffffffffffffffffffff1681526020019081526020016000208190555050505080806116a89061305b565b915050611566565b50600073ffffffffffffffffffffffffffffffffffffffff168473ffffffffffffffffffffffffffffffffffffffff168273ffffffffffffffffffffffffffffffffffffffff167f4a39dc06d4c0dbc64b70af90fd698a233a518aa5d07e595d983b8c0526c8f7fb8686604051611728929190613577565b60405180910390a461174e81856000868660405180602001604052806000815250611d84565b50505050565b6000600360009054906101000a900473ffffffffffffffffffffffffffffffffffffffff16905081600360006101000a81548173ffffffffffffffffffffffffffffffffffffffff021916908373ffffffffffffffffffffffffffffffffffffffff1602179055508173ffffffffffffffffffffffffffffffffffffffff168173ffffffffffffffffffffffffffffffffffffffff167f8be0079c531659141344cd1fd0a4f28419497f9722a3daafe3b4186f6b6457e060405160405180910390a35050565b600073ffffffffffffffffffffffffffffffffffffffff168473ffffffffffffffffffffffffffffffffffffffff1603611889576040517f08c379a000000000000000000000000000000000000000000000000000000000815260040161188090613491565b60405180910390fd5b6000611893610ec2565b905060006118a085611f63565b905060006118ad85611f63565b90506118be83600089858589611d7c565b8460008088815260200190815260200160002060008973ffffffffffffffffffffffffffffffffffffffff1673ffffffffffffffffffffffffffffffffffffffff168152602001908152602001600020600082825461191d9190613543565b925050819055508673ffffffffffffffffffffffffffffffffffffffff16600073ffffffffffffffffffffffffffffffffffffffff168473ffffffffffffffffffffffffffffffffffffffff167fc3d58168c5ae7397731d063d5bbf3d657854427343f4c083240f7aacaa2d0f62898960405161199b9291906136d2565b60405180910390a46119b283600089858589611d84565b6119c183600089898989611fdd565b50505050505050565b8173ffffffffffffffffffffffffffffffffffffffff168373ffffffffffffffffffffffffffffffffffffffff1603611a38576040517f08c379a0000000000000000000000000000000000000000000000000000000008152600401611a2f90613891565b60405180910390fd5b80600160008573ffffffffffffffffffffffffffffffffffffffff1673ffffffffffffffffffffffffffffffffffffffff16815260200190815260200160002060008473ffffffffffffffffffffffffffffffffffffffff1673ffffffffffffffffffffffffffffffffffffffff16815260200190815260200160002060006101000a81548160ff0219169083151502179055508173ffffffffffffffffffffffffffffffffffffffff168373ffffffffffffffffffffffffffffffffffffffff167f17307eab39ab6107e8899845ad3d59bd9653f200f220920489ca2b5937696c3183604051611b299190612366565b60405180910390a3505050565b600073ffffffffffffffffffffffffffffffffffffffff168373ffffffffffffffffffffffffffffffffffffffff1603611ba5576040517f08c379a0000000000000000000000000000000000000000000000000000000008152600401611b9c9061376d565b60405180910390fd5b6000611baf610ec2565b90506000611bbc84611f63565b90506000611bc984611f63565b9050611be983876000858560405180602001604052806000815250611d7c565b600080600087815260200190815260200160002060008873ffffffffffffffffffffffffffffffffffffffff1673ffffffffffffffffffffffffffffffffffffffff16815260200190815260200160002054905084811015611c80576040517f08c379a0000000000000000000000000000000000000000000000000000000008152600401611c77906137ff565b60405180910390fd5b84810360008088815260200190815260200160002060008973ffffffffffffffffffffffffffffffffffffffff1673ffffffffffffffffffffffffffffffffffffffff16815260200190815260200160002081905550600073ffffffffffffffffffffffffffffffffffffffff168773ffffffffffffffffffffffffffffffffffffffff168573ffffffffffffffffffffffffffffffffffffffff167fc3d58168c5ae7397731d063d5bbf3d657854427343f4c083240f7aacaa2d0f628989604051611d4d9291906136d2565b60405180910390a4611d7384886000868660405180602001604052806000815250611d84565b50505050505050565b505050505050565b505050505050565b611dab8473ffffffffffffffffffffffffffffffffffffffff16610b78565b15611f5b578373ffffffffffffffffffffffffffffffffffffffff1663bc197c8187878686866040518663ffffffff1660e01b8152600401611df1959493929190613906565b6020604051808303816000875af1925050508015611e2d57506040513d601f19601f82011682018060405250810190611e2a9190613983565b60015b611ed257611e396139bd565b806308c379a003611e955750611e4d6139df565b80611e585750611e97565b806040517f08c379a0000000000000000000000000000000000000000000000000000000008152600401611e8c91906125bc565b60405180910390fd5b505b6040517f08c379a0000000000000000000000000000000000000000000000000000000008152600401611ec990613ae1565b60405180910390fd5b63bc197c8160e01b7bffffffffffffffffffffffffffffffffffffffffffffffffffffffff1916817bffffffffffffffffffffffffffffffffffffffffffffffffffffffff191614611f59576040517f08c379a0000000000000000000000000000000000000000000000000000000008152600401611f5090613b73565b60405180910390fd5b505b505050505050565b60606000600167ffffffffffffffff811115611f8257611f8161239c565b5b604051908082528060200260200182016040528015611fb05781602001602082028036833780820191505090505b5090508281600081518110611fc857611fc7612ffd565b5b60200260200101818152505080915050919050565b611ffc8473ffffffffffffffffffffffffffffffffffffffff16610b78565b156121ac578373ffffffffffffffffffffffffffffffffffffffff1663f23a6e6187878686866040518663ffffffff1660e01b8152600401612042959493929190613b93565b6020604051808303816000875af192505050801561207e57506040513d601f19601f8201168201806040525081019061207b9190613983565b60015b6121235761208a6139bd565b806308c379a0036120e6575061209e6139df565b806120a957506120e8565b806040517f08c379a00000000000000000000000000000000000000000000000000000000081526004016120dd91906125bc565b60405180910390fd5b505b6040517f08c379a000000000000000000000000000000000000000000000000000000000815260040161211a90613ae1565b60405180910390fd5b63f23a6e6160e01b7bffffffffffffffffffffffffffffffffffffffffffffffffffffffff1916817bffffffffffffffffffffffffffffffffffffffffffffffffffffffff1916146121aa576040517f08c379a00000000000000000000000000000000000000000000000000000000081526004016121a190613b73565b60405180910390fd5b505b505050505050565b6000604051905090565b600080fd5b600080fd5b600073ffffffffffffffffffffffffffffffffffffffff82169050919050565b60006121f3826121c8565b9050919050565b612203816121e8565b811461220e57600080fd5b50565b600081359050612220816121fa565b92915050565b6000819050919050565b61223981612226565b811461224457600080fd5b50565b60008135905061225681612230565b92915050565b60008060408385031215612273576122726121be565b5b600061228185828601612211565b925050602061229285828601612247565b9150509250929050565b6122a581612226565b82525050565b60006020820190506122c0600083018461229c565b92915050565b60007fffffffff0000000000000000000000000000000000000000000000000000000082169050919050565b6122fb816122c6565b811461230657600080fd5b50565b600081359050612318816122f2565b92915050565b600060208284031215612334576123336121be565b5b600061234284828501612309565b91505092915050565b60008115159050919050565b6123608161234b565b82525050565b600060208201905061237b6000830184612357565b92915050565b600080fd5b600080fd5b6000601f19601f8301169050919050565b7f4e487b7100000000000000000000000000000000000000000000000000000000600052604160045260246000fd5b6123d48261238b565b810181811067ffffffffffffffff821117156123f3576123f261239c565b5b80604052505050565b60006124066121b4565b905061241282826123cb565b919050565b600067ffffffffffffffff8211156124325761243161239c565b5b61243b8261238b565b9050602081019050919050565b82818337600083830152505050565b600061246a61246584612417565b6123fc565b90508281526020810184848401111561248657612485612386565b5b612491848285612448565b509392505050565b600082601f8301126124ae576124ad612381565b5b81356124be848260208601612457565b91505092915050565b6000602082840312156124dd576124dc6121be565b5b600082013567ffffffffffffffff8111156124fb576124fa6121c3565b5b61250784828501612499565b91505092915050565b600060208284031215612526576125256121be565b5b600061253484828501612247565b91505092915050565b600081519050919050565b600082825260208201905092915050565b60005b8381101561257757808201518184015260208101905061255c565b60008484015250505050565b600061258e8261253d565b6125988185612548565b93506125a8818560208601612559565b6125b18161238b565b840191505092915050565b600060208201905081810360008301526125d68184612583565b905092915050565b600067ffffffffffffffff8211156125f9576125f861239c565b5b602082029050602081019050919050565b600080fd5b600061262261261d846125de565b6123fc565b905080838252602082019050602084028301858111156126455761264461260a565b5b835b8181101561266e578061265a8882612247565b845260208401935050602081019050612647565b5050509392505050565b600082601f83011261268d5761268c612381565b5b813561269d84826020860161260f565b91505092915050565b600067ffffffffffffffff8211156126c1576126c061239c565b5b6126ca8261238b565b9050602081019050919050565b60006126ea6126e5846126a6565b6123fc565b90508281526020810184848401111561270657612705612386565b5b612711848285612448565b509392505050565b600082601f83011261272e5761272d612381565b5b813561273e8482602086016126d7565b91505092915050565b60008060008060808587031215612761576127606121be565b5b600061276f87828801612211565b945050602085013567ffffffffffffffff8111156127905761278f6121c3565b5b61279c87828801612678565b935050604085013567ffffffffffffffff8111156127bd576127bc6121c3565b5b6127c987828801612678565b925050606085013567ffffffffffffffff8111156127ea576127e96121c3565b5b6127f687828801612719565b91505092959194509250565b600080600080600060a0868803121561281e5761281d6121be565b5b600061282c88828901612211565b955050602061283d88828901612211565b945050604086013567ffffffffffffffff81111561285e5761285d6121c3565b5b61286a88828901612678565b935050606086013567ffffffffffffffff81111561288b5761288a6121c3565b5b61289788828901612678565b925050608086013567ffffffffffffffff8111156128b8576128b76121c3565b5b6128c488828901612719565b9150509295509295909350565b6000806000606084860312156128ea576128e96121be565b5b60006128f886828701612211565b935050602061290986828701612247565b925050604061291a86828701612247565b9150509250925092565b600067ffffffffffffffff82111561293f5761293e61239c565b5b602082029050602081019050919050565b600061296361295e84612924565b6123fc565b905080838252602082019050602084028301858111156129865761298561260a565b5b835b818110156129af578061299b8882612211565b845260208401935050602081019050612988565b5050509392505050565b600082601f8301126129ce576129cd612381565b5b81356129de848260208601612950565b91505092915050565b600080604083850312156129fe576129fd6121be565b5b600083013567ffffffffffffffff811115612a1c57612a1b6121c3565b5b612a28858286016129b9565b925050602083013567ffffffffffffffff811115612a4957612a486121c3565b5b612a5585828601612678565b9150509250929050565b600081519050919050565b600082825260208201905092915050565b6000819050602082019050919050565b612a9481612226565b82525050565b6000612aa68383612a8b565b60208301905092915050565b6000602082019050919050565b6000612aca82612a5f565b612ad48185612a6a565b9350612adf83612a7b565b8060005b83811015612b10578151612af78882612a9a565b9750612b0283612ab2565b925050600181019050612ae3565b5085935050505092915050565b60006020820190508181036000830152612b378184612abf565b905092915050565b600080600060608486031215612b5857612b576121be565b5b6000612b6686828701612211565b935050602084013567ffffffffffffffff811115612b8757612b866121c3565b5b612b9386828701612678565b925050604084013567ffffffffffffffff811115612bb457612bb36121c3565b5b612bc086828701612678565b9150509250925092565b60008060008060808587031215612be457612be36121be565b5b6000612bf287828801612211565b9450506020612c0387828801612247565b9350506040612c1487828801612247565b925050606085013567ffffffffffffffff811115612c3557612c346121c3565b5b612c4187828801612719565b91505092959194509250565b612c56816121e8565b82525050565b6000602082019050612c716000830184612c4d565b92915050565b612c808161234b565b8114612c8b57600080fd5b50565b600081359050612c9d81612c77565b92915050565b60008060408385031215612cba57612cb96121be565b5b6000612cc885828601612211565b9250506020612cd985828601612c8e565b9150509250929050565b60008060408385031215612cfa57612cf96121be565b5b6000612d0885828601612211565b9250506020612d1985828601612211565b9150509250929050565b600080600080600060a08688031215612d3f57612d3e6121be565b5b6000612d4d88828901612211565b9550506020612d5e88828901612211565b9450506040612d6f88828901612247565b9350506060612d8088828901612247565b925050608086013567ffffffffffffffff811115612da157612da06121c3565b5b612dad88828901612719565b9150509295509295909350565b600060208284031215612dd057612dcf6121be565b5b6000612dde84828501612211565b91505092915050565b7f455243313135353a2061646472657373207a65726f206973206e6f742061207660008201527f616c6964206f776e657200000000000000000000000000000000000000000000602082015250565b6000612e43602a83612548565b9150612e4e82612de7565b604082019050919050565b60006020820190508181036000830152612e7281612e36565b9050919050565b7f4e487b7100000000000000000000000000000000000000000000000000000000600052602260045260246000fd5b60006002820490506001821680612ec057607f821691505b602082108103612ed357612ed2612e79565b5b50919050565b7f455243313135353a2063616c6c6572206973206e6f7420746f6b656e206f776e60008201527f6572206f7220617070726f766564000000000000000000000000000000000000602082015250565b6000612f35602e83612548565b9150612f4082612ed9565b604082019050919050565b60006020820190508181036000830152612f6481612f28565b9050919050565b7f455243313135353a206163636f756e747320616e6420696473206c656e67746860008201527f206d69736d617463680000000000000000000000000000000000000000000000602082015250565b6000612fc7602983612548565b9150612fd282612f6b565b604082019050919050565b60006020820190508181036000830152612ff681612fba565b9050919050565b7f4e487b7100000000000000000000000000000000000000000000000000000000600052603260045260246000fd5b7f4e487b7100000000000000000000000000000000000000000000000000000000600052601160045260246000fd5b600061306682612226565b91507fffffffffffffffffffffffffffffffffffffffffffffffffffffffffffffffff82036130985761309761302c565b5b600182019050919050565b7f4f776e61626c653a206e6577206f776e657220697320746865207a65726f206160008201527f6464726573730000000000000000000000000000000000000000000000000000602082015250565b60006130ff602683612548565b915061310a826130a3565b604082019050919050565b6000602082019050818103600083015261312e816130f2565b9050919050565b7f4f776e61626c653a2063616c6c6572206973206e6f7420746865206f776e6572600082015250565b600061316b602083612548565b915061317682613135565b602082019050919050565b6000602082019050818103600083015261319a8161315e565b9050919050565b60008190508160005260206000209050919050565b60006020601f8301049050919050565b600082821b905092915050565b6000600883026132037fffffffffffffffffffffffffffffffffffffffffffffffffffffffffffffffff826131c6565b61320d86836131c6565b95508019841693508086168417925050509392505050565b6000819050919050565b600061324a61324561324084612226565b613225565b612226565b9050919050565b6000819050919050565b6132648361322f565b61327861327082613251565b8484546131d3565b825550505050565b600090565b61328d613280565b61329881848461325b565b505050565b5b818110156132bc576132b1600082613285565b60018101905061329e565b5050565b601f821115613301576132d2816131a1565b6132db846131b6565b810160208510156132ea578190505b6132fe6132f6856131b6565b83018261329d565b50505b505050565b600082821c905092915050565b600061332460001984600802613306565b1980831691505092915050565b600061333d8383613313565b9150826002028217905092915050565b6133568261253d565b67ffffffffffffffff81111561336f5761336e61239c565b5b6133798254612ea8565b6133848282856132c0565b600060209050601f8311600181146133b757600084156133a5578287015190505b6133af8582613331565b865550613417565b601f1984166133c5866131a1565b60005b828110156133ed578489015182556001820191506020850194506020810190506133c8565b8683101561340a5784890151613406601f891682613313565b8355505b6001600288020188555050505b505050505050565b7f455243313135353a206d696e7420746f20746865207a65726f2061646472657360008201527f7300000000000000000000000000000000000000000000000000000000000000602082015250565b600061347b602183612548565b91506134868261341f565b604082019050919050565b600060208201905081810360008301526134aa8161346e565b9050919050565b7f455243313135353a2069647320616e6420616d6f756e7473206c656e6774682060008201527f6d69736d61746368000000000000000000000000000000000000000000000000602082015250565b600061350d602883612548565b9150613518826134b1565b604082019050919050565b6000602082019050818103600083015261353c81613500565b9050919050565b600061354e82612226565b915061355983612226565b92508282019050808211156135715761357061302c565b5b92915050565b600060408201905081810360008301526135918185612abf565b905081810360208301526135a58184612abf565b90509392505050565b7f455243313135353a207472616e7366657220746f20746865207a65726f20616460008201527f6472657373000000000000000000000000000000000000000000000000000000602082015250565b600061360a602583612548565b9150613615826135ae565b604082019050919050565b60006020820190508181036000830152613639816135fd565b9050919050565b7f455243313135353a20696e73756666696369656e742062616c616e636520666f60008201527f72207472616e7366657200000000000000000000000000000000000000000000602082015250565b600061369c602a83612548565b91506136a782613640565b604082019050919050565b600060208201905081810360008301526136cb8161368f565b9050919050565b60006040820190506136e7600083018561229c565b6136f4602083018461229c565b9392505050565b7f455243313135353a206275726e2066726f6d20746865207a65726f206164647260008201527f6573730000000000000000000000000000000000000000000000000000000000602082015250565b6000613757602383612548565b9150613762826136fb565b604082019050919050565b600060208201905081810360008301526137868161374a565b9050919050565b7f455243313135353a206275726e20616d6f756e7420657863656564732062616c60008201527f616e636500000000000000000000000000000000000000000000000000000000602082015250565b60006137e9602483612548565b91506137f48261378d565b604082019050919050565b60006020820190508181036000830152613818816137dc565b9050919050565b7f455243313135353a2073657474696e6720617070726f76616c2073746174757360008201527f20666f722073656c660000000000000000000000000000000000000000000000602082015250565b600061387b602983612548565b91506138868261381f565b604082019050919050565b600060208201905081810360008301526138aa8161386e565b9050919050565b600081519050919050565b600082825260208201905092915050565b60006138d8826138b1565b6138e281856138bc565b93506138f2818560208601612559565b6138fb8161238b565b840191505092915050565b600060a08201905061391b6000830188612c4d565b6139286020830187612c4d565b818103604083015261393a8186612abf565b9050818103606083015261394e8185612abf565b9050818103608083015261396281846138cd565b90509695505050505050565b60008151905061397d816122f2565b92915050565b600060208284031215613999576139986121be565b5b60006139a78482850161396e565b91505092915050565b60008160e01c9050919050565b600060033d11156139dc5760046000803e6139d96000516139b0565b90505b90565b600060443d10613a6c576139f16121b4565b60043d036004823e80513d602482011167ffffffffffffffff82111715613a19575050613a6c565b808201805167ffffffffffffffff811115613a375750505050613a6c565b80602083010160043d038501811115613a54575050505050613a6c565b613a63826020018501866123cb565b82955050505050505b90565b7f455243313135353a207472616e7366657220746f206e6f6e2d4552433131353560008201527f526563656976657220696d706c656d656e746572000000000000000000000000602082015250565b6000613acb603483612548565b9150613ad682613a6f565b604082019050919050565b60006020820190508181036000830152613afa81613abe565b9050919050565b7f455243313135353a204552433131353552656365697665722072656a6563746560008201527f6420746f6b656e73000000000000000000000000000000000000000000000000602082015250565b6000613b5d602883612548565b9150613b6882613b01565b604082019050919050565b60006020820190508181036000830152613b8c81613b50565b9050919050565b600060a082019050613ba86000830188612c4d565b613bb56020830187612c4d565b613bc2604083018661229c565b613bcf606083018561229c565b8181036080830152613be181846138cd565b9050969550505050505056fea2646970667358221220e09cd5645467821fc1f4401f6454e26213582e9781d36680e1e82204b1645fd964736f6c63430008120033687474703a2f2f3139332e3231392e39312e3130333a363137322f6170692f76312f67616d656974656d732f534654732f7b69647d2e6a736f6e",
  "immutableReferences": {},
  "source": "// SPDX-License-Identifier: MIT\r\npragma solidity ^0.8.9;\r\n\r\nimport \"@openzeppelin/contracts/token/ERC1155/ERC1155.sol\";\r\nimport \"@openzeppelin/contracts/access/Ownable.sol\";\r\nimport \"@openzeppelin/contracts/token/ERC1155/extensions/ERC1155Burnable.sol\";\r\nimport \"@openzeppelin/contracts/utils/Counters.sol\";\r\n\r\ncontract GameItem is ERC1155, Ownable, ERC1155Burnable {\r\n    using Counters for Counters.Counter;\r\n    Counters.Counter private _tokenIdCounter;\r\n    address marketContract;\r\n\r\n    uint256 public constant GOLD = 0;\r\n    uint256 public constant STARTER_FISHING_ROD = 1;\r\n    uint256 public constant METAL_FISHING_ROD = 2;\r\n    \r\n    constructor(address _marketContract) ERC1155(\"http://193.219.91.103:6172/api/v1/gameitems/SFTs/{id}.json\") {\r\n        _mint(msg.sender, GOLD, 10**18, \"\");\r\n        _mint(msg.sender, STARTER_FISHING_ROD, 10**9, \"\");\r\n        _mint(msg.sender, METAL_FISHING_ROD, 10**9, \"\");\r\n        marketContract = _marketContract;\r\n    }\r\n\r\n    function awardItem(address to, uint256 _id, uint256 _amount) public onlyOwner {\r\n        _safeTransferFrom(msg.sender, to, _id, _amount, \"\");\r\n    }\r\n\r\n    function setURI(string memory newuri) public onlyOwner {\r\n        _setURI(newuri);\r\n    }\r\n\r\n    function mint(address account, uint256 id, uint256 amount, bytes memory data)\r\n        public\r\n        onlyOwner\r\n    {\r\n        _mint(account, id, amount, data);\r\n    }\r\n\r\n    function mintBatch(address to, uint256[] memory ids, uint256[] memory amounts, bytes memory data)\r\n        public\r\n        onlyOwner\r\n    {\r\n        _mintBatch(to, ids, amounts, data);\r\n    }\r\n}",
  "sourcePath": "C:\\Users\\muizy\\Documents\\GitHub\\blockchaingame\\blockchain\\contracts\\GameItem.sol",
  "compiler": {
    "name": "solc",
    "version": "0.8.18+commit.87f61d96.Emscripten.clang"
  },
  "schemaVersion": "3.4.11",
  "updatedAt": "2023-06-03T15:13:33.412Z",
  "devdoc": {
    "events": {
      "ApprovalForAll(address,address,bool)": {
        "details": "Emitted when `account` grants or revokes permission to `operator` to transfer their tokens, according to `approved`."
      },
      "TransferBatch(address,address,address,uint256[],uint256[])": {
        "details": "Equivalent to multiple {TransferSingle} events, where `operator`, `from` and `to` are the same for all transfers."
      },
      "TransferSingle(address,address,address,uint256,uint256)": {
        "details": "Emitted when `value` tokens of token type `id` are transferred from `from` to `to` by `operator`."
      },
      "URI(string,uint256)": {
        "details": "Emitted when the URI for token type `id` changes to `value`, if it is a non-programmatic URI. If an {URI} event was emitted for `id`, the standard https://eips.ethereum.org/EIPS/eip-1155#metadata-extensions[guarantees] that `value` will equal the value returned by {IERC1155MetadataURI-uri}."
      }
    },
    "kind": "dev",
    "methods": {
      "balanceOf(address,uint256)": {
        "details": "See {IERC1155-balanceOf}. Requirements: - `account` cannot be the zero address."
      },
      "balanceOfBatch(address[],uint256[])": {
        "details": "See {IERC1155-balanceOfBatch}. Requirements: - `accounts` and `ids` must have the same length."
      },
      "isApprovedForAll(address,address)": {
        "details": "See {IERC1155-isApprovedForAll}."
      },
      "owner()": {
        "details": "Returns the address of the current owner."
      },
      "renounceOwnership()": {
        "details": "Leaves the contract without owner. It will not be possible to call `onlyOwner` functions anymore. Can only be called by the current owner. NOTE: Renouncing ownership will leave the contract without an owner, thereby removing any functionality that is only available to the owner."
      },
      "safeBatchTransferFrom(address,address,uint256[],uint256[],bytes)": {
        "details": "See {IERC1155-safeBatchTransferFrom}."
      },
      "safeTransferFrom(address,address,uint256,uint256,bytes)": {
        "details": "See {IERC1155-safeTransferFrom}."
      },
      "setApprovalForAll(address,bool)": {
        "details": "See {IERC1155-setApprovalForAll}."
      },
      "supportsInterface(bytes4)": {
        "details": "See {IERC165-supportsInterface}."
      },
      "transferOwnership(address)": {
        "details": "Transfers ownership of the contract to a new account (`newOwner`). Can only be called by the current owner."
      },
      "uri(uint256)": {
        "details": "See {IERC1155MetadataURI-uri}. This implementation returns the same URI for *all* token types. It relies on the token type ID substitution mechanism https://eips.ethereum.org/EIPS/eip-1155#metadata[defined in the EIP]. Clients calling this function must replace the `\\{id\\}` substring with the actual token type ID."
      }
    },
    "version": 1
  },
  "userdoc": {
    "kind": "user",
    "methods": {},
    "version": 1
  }
}