{
  "contractName": "PoseidonMarket",
  "abi": [
    {
      "inputs": [],
      "stateMutability": "nonpayable",
      "type": "constructor"
    },
    {
      "anonymous": false,
      "inputs": [
        {
          "indexed": true,
          "internalType": "address",
          "name": "account",
          "type": "address"
        },
        {
          "indexed": true,
          "internalType": "address",
          "name": "operator",
          "type": "address"
        },
        {
          "indexed": false,
          "internalType": "bool",
          "name": "approved",
          "type": "bool"
        }
      ],
      "name": "ApprovalForAll",
      "type": "event"
    },
    {
      "anonymous": false,
      "inputs": [
        {
          "indexed": false,
          "internalType": "uint256",
          "name": "listingId",
          "type": "uint256"
        }
      ],
      "name": "ListingCancelled",
      "type": "event"
    },
    {
      "anonymous": false,
      "inputs": [
        {
          "indexed": false,
          "internalType": "uint256",
          "name": "listingId",
          "type": "uint256"
        },
        {
          "indexed": false,
          "internalType": "address",
          "name": "seller",
          "type": "address"
        },
        {
          "indexed": false,
          "internalType": "address",
          "name": "tokenContract",
          "type": "address"
        },
        {
          "indexed": false,
          "internalType": "uint256",
          "name": "tokenId",
          "type": "uint256"
        },
        {
          "indexed": false,
          "internalType": "uint256",
          "name": "quantity",
          "type": "uint256"
        },
        {
          "indexed": false,
          "internalType": "uint256",
          "name": "price",
          "type": "uint256"
        }
      ],
      "name": "ListingCreated",
      "type": "event"
    },
    {
      "anonymous": false,
      "inputs": [
        {
          "indexed": false,
          "internalType": "uint256",
          "name": "listingId",
          "type": "uint256"
        },
        {
          "indexed": false,
          "internalType": "address",
          "name": "buyer",
          "type": "address"
        }
      ],
      "name": "ListingSold",
      "type": "event"
    },
    {
      "anonymous": false,
      "inputs": [
        {
          "indexed": false,
          "internalType": "uint256",
          "name": "listingId",
          "type": "uint256"
        },
        {
          "indexed": false,
          "internalType": "uint256",
          "name": "quantity",
          "type": "uint256"
        },
        {
          "indexed": false,
          "internalType": "uint256",
          "name": "price",
          "type": "uint256"
        }
      ],
      "name": "ListingUpdated",
      "type": "event"
    },
    {
      "anonymous": false,
      "inputs": [
        {
          "indexed": true,
          "internalType": "address",
          "name": "previousOwner",
          "type": "address"
        },
        {
          "indexed": true,
          "internalType": "address",
          "name": "newOwner",
          "type": "address"
        }
      ],
      "name": "OwnershipTransferred",
      "type": "event"
    },
    {
      "anonymous": false,
      "inputs": [
        {
          "indexed": true,
          "internalType": "address",
          "name": "operator",
          "type": "address"
        },
        {
          "indexed": true,
          "internalType": "address",
          "name": "from",
          "type": "address"
        },
        {
          "indexed": true,
          "internalType": "address",
          "name": "to",
          "type": "address"
        },
        {
          "indexed": false,
          "internalType": "uint256[]",
          "name": "ids",
          "type": "uint256[]"
        },
        {
          "indexed": false,
          "internalType": "uint256[]",
          "name": "values",
          "type": "uint256[]"
        }
      ],
      "name": "TransferBatch",
      "type": "event"
    },
    {
      "anonymous": false,
      "inputs": [
        {
          "indexed": true,
          "internalType": "address",
          "name": "operator",
          "type": "address"
        },
        {
          "indexed": true,
          "internalType": "address",
          "name": "from",
          "type": "address"
        },
        {
          "indexed": true,
          "internalType": "address",
          "name": "to",
          "type": "address"
        },
        {
          "indexed": false,
          "internalType": "uint256",
          "name": "id",
          "type": "uint256"
        },
        {
          "indexed": false,
          "internalType": "uint256",
          "name": "value",
          "type": "uint256"
        }
      ],
      "name": "TransferSingle",
      "type": "event"
    },
    {
      "anonymous": false,
      "inputs": [
        {
          "indexed": false,
          "internalType": "string",
          "name": "value",
          "type": "string"
        },
        {
          "indexed": true,
          "internalType": "uint256",
          "name": "id",
          "type": "uint256"
        }
      ],
      "name": "URI",
      "type": "event"
    },
    {
      "anonymous": false,
      "inputs": [
        {
          "indexed": false,
          "internalType": "uint256",
          "name": "amount",
          "type": "uint256"
        },
        {
          "indexed": false,
          "internalType": "uint256",
          "name": "timestamp",
          "type": "uint256"
        }
      ],
      "name": "Withdraw",
      "type": "event"
    },
    {
      "inputs": [
        {
          "internalType": "address",
          "name": "account",
          "type": "address"
        },
        {
          "internalType": "uint256",
          "name": "id",
          "type": "uint256"
        }
      ],
      "name": "balanceOf",
      "outputs": [
        {
          "internalType": "uint256",
          "name": "",
          "type": "uint256"
        }
      ],
      "stateMutability": "view",
      "type": "function"
    },
    {
      "inputs": [
        {
          "internalType": "address[]",
          "name": "accounts",
          "type": "address[]"
        },
        {
          "internalType": "uint256[]",
          "name": "ids",
          "type": "uint256[]"
        }
      ],
      "name": "balanceOfBatch",
      "outputs": [
        {
          "internalType": "uint256[]",
          "name": "",
          "type": "uint256[]"
        }
      ],
      "stateMutability": "view",
      "type": "function"
    },
    {
      "inputs": [
        {
          "internalType": "address",
          "name": "",
          "type": "address"
        }
      ],
      "name": "earnings",
      "outputs": [
        {
          "internalType": "uint256",
          "name": "",
          "type": "uint256"
        }
      ],
      "stateMutability": "view",
      "type": "function"
    },
    {
      "inputs": [
        {
          "internalType": "address",
          "name": "account",
          "type": "address"
        },
        {
          "internalType": "address",
          "name": "operator",
          "type": "address"
        }
      ],
      "name": "isApprovedForAll",
      "outputs": [
        {
          "internalType": "bool",
          "name": "",
          "type": "bool"
        }
      ],
      "stateMutability": "view",
      "type": "function"
    },
    {
      "inputs": [
        {
          "internalType": "uint256",
          "name": "",
          "type": "uint256"
        }
      ],
      "name": "listings",
      "outputs": [
        {
          "internalType": "uint256",
          "name": "listingId",
          "type": "uint256"
        },
        {
          "internalType": "address",
          "name": "seller",
          "type": "address"
        },
        {
          "internalType": "address",
          "name": "tokenContract",
          "type": "address"
        },
        {
          "internalType": "uint256",
          "name": "tokenId",
          "type": "uint256"
        },
        {
          "internalType": "uint256",
          "name": "quantity",
          "type": "uint256"
        },
        {
          "internalType": "uint256",
          "name": "price",
          "type": "uint256"
        }
      ],
      "stateMutability": "view",
      "type": "function"
    },
    {
      "inputs": [],
      "name": "owner",
      "outputs": [
        {
          "internalType": "address",
          "name": "",
          "type": "address"
        }
      ],
      "stateMutability": "view",
      "type": "function"
    },
    {
      "inputs": [],
      "name": "renounceOwnership",
      "outputs": [],
      "stateMutability": "nonpayable",
      "type": "function"
    },
    {
      "inputs": [
        {
          "internalType": "address",
          "name": "from",
          "type": "address"
        },
        {
          "internalType": "address",
          "name": "to",
          "type": "address"
        },
        {
          "internalType": "uint256[]",
          "name": "ids",
          "type": "uint256[]"
        },
        {
          "internalType": "uint256[]",
          "name": "amounts",
          "type": "uint256[]"
        },
        {
          "internalType": "bytes",
          "name": "data",
          "type": "bytes"
        }
      ],
      "name": "safeBatchTransferFrom",
      "outputs": [],
      "stateMutability": "nonpayable",
      "type": "function"
    },
    {
      "inputs": [
        {
          "internalType": "address",
          "name": "from",
          "type": "address"
        },
        {
          "internalType": "address",
          "name": "to",
          "type": "address"
        },
        {
          "internalType": "uint256",
          "name": "id",
          "type": "uint256"
        },
        {
          "internalType": "uint256",
          "name": "amount",
          "type": "uint256"
        },
        {
          "internalType": "bytes",
          "name": "data",
          "type": "bytes"
        }
      ],
      "name": "safeTransferFrom",
      "outputs": [],
      "stateMutability": "nonpayable",
      "type": "function"
    },
    {
      "inputs": [
        {
          "internalType": "address",
          "name": "operator",
          "type": "address"
        },
        {
          "internalType": "bool",
          "name": "approved",
          "type": "bool"
        }
      ],
      "name": "setApprovalForAll",
      "outputs": [],
      "stateMutability": "nonpayable",
      "type": "function"
    },
    {
      "inputs": [
        {
          "internalType": "bytes4",
          "name": "interfaceId",
          "type": "bytes4"
        }
      ],
      "name": "supportsInterface",
      "outputs": [
        {
          "internalType": "bool",
          "name": "",
          "type": "bool"
        }
      ],
      "stateMutability": "view",
      "type": "function"
    },
    {
      "inputs": [
        {
          "internalType": "address",
          "name": "newOwner",
          "type": "address"
        }
      ],
      "name": "transferOwnership",
      "outputs": [],
      "stateMutability": "nonpayable",
      "type": "function"
    },
    {
      "inputs": [
        {
          "internalType": "uint256",
          "name": "",
          "type": "uint256"
        }
      ],
      "name": "uri",
      "outputs": [
        {
          "internalType": "string",
          "name": "",
          "type": "string"
        }
      ],
      "stateMutability": "view",
      "type": "function"
    },
    {
      "inputs": [
        {
          "internalType": "address",
          "name": "",
          "type": "address"
        },
        {
          "internalType": "address",
          "name": "",
          "type": "address"
        },
        {
          "internalType": "uint256",
          "name": "",
          "type": "uint256"
        },
        {
          "internalType": "bytes",
          "name": "",
          "type": "bytes"
        }
      ],
      "name": "onERC721Received",
      "outputs": [
        {
          "internalType": "bytes4",
          "name": "",
          "type": "bytes4"
        }
      ],
      "stateMutability": "pure",
      "type": "function"
    },
    {
      "inputs": [
        {
          "internalType": "address",
          "name": "_wallet",
          "type": "address"
        },
        {
          "internalType": "address",
          "name": "_tokenContract",
          "type": "address"
        },
        {
          "internalType": "uint256",
          "name": "_tokenId",
          "type": "uint256"
        },
        {
          "internalType": "uint256",
          "name": "_quantity",
          "type": "uint256"
        },
        {
          "internalType": "uint256",
          "name": "_price",
          "type": "uint256"
        }
      ],
      "name": "createListing",
      "outputs": [],
      "stateMutability": "nonpayable",
      "type": "function"
    },
    {
      "inputs": [
        {
          "internalType": "address",
          "name": "_wallet",
          "type": "address"
        },
        {
          "internalType": "uint256",
          "name": "listingId",
          "type": "uint256"
        },
        {
          "internalType": "uint256",
          "name": "quantity",
          "type": "uint256"
        },
        {
          "internalType": "uint256",
          "name": "price",
          "type": "uint256"
        }
      ],
      "name": "updateListing",
      "outputs": [],
      "stateMutability": "nonpayable",
      "type": "function"
    },
    {
      "inputs": [
        {
          "internalType": "address",
          "name": "_wallet",
          "type": "address"
        },
        {
          "internalType": "uint256",
          "name": "listingId",
          "type": "uint256"
        }
      ],
      "name": "cancelListing",
      "outputs": [],
      "stateMutability": "nonpayable",
      "type": "function"
    },
    {
      "inputs": [
        {
          "internalType": "address",
          "name": "_wallet",
          "type": "address"
        },
        {
          "internalType": "uint256",
          "name": "listingId",
          "type": "uint256"
        },
        {
          "internalType": "uint256",
          "name": "quantity",
          "type": "uint256"
        }
      ],
      "name": "buy",
      "outputs": [],
      "stateMutability": "nonpayable",
      "type": "function"
    },
    {
      "inputs": [],
      "name": "get721Listings",
      "outputs": [
        {
          "components": [
            {
              "internalType": "uint256",
              "name": "listingId",
              "type": "uint256"
            },
            {
              "internalType": "address",
              "name": "seller",
              "type": "address"
            },
            {
              "internalType": "address",
              "name": "tokenContract",
              "type": "address"
            },
            {
              "internalType": "uint256",
              "name": "tokenId",
              "type": "uint256"
            },
            {
              "internalType": "uint256",
              "name": "quantity",
              "type": "uint256"
            },
            {
              "internalType": "uint256",
              "name": "price",
              "type": "uint256"
            }
          ],
          "internalType": "struct PoseidonMarket.Listing[]",
          "name": "",
          "type": "tuple[]"
        }
      ],
      "stateMutability": "view",
      "type": "function"
    },
    {
      "inputs": [],
      "name": "get1155Listings",
      "outputs": [
        {
          "components": [
            {
              "internalType": "uint256",
              "name": "listingId",
              "type": "uint256"
            },
            {
              "internalType": "address",
              "name": "seller",
              "type": "address"
            },
            {
              "internalType": "address",
              "name": "tokenContract",
              "type": "address"
            },
            {
              "internalType": "uint256",
              "name": "tokenId",
              "type": "uint256"
            },
            {
              "internalType": "uint256",
              "name": "quantity",
              "type": "uint256"
            },
            {
              "internalType": "uint256",
              "name": "price",
              "type": "uint256"
            }
          ],
          "internalType": "struct PoseidonMarket.Listing[]",
          "name": "",
          "type": "tuple[]"
        }
      ],
      "stateMutability": "view",
      "type": "function"
    },
    {
      "inputs": [
        {
          "internalType": "address",
          "name": "_wallet",
          "type": "address"
        }
      ],
      "name": "getEarnings",
      "outputs": [
        {
          "internalType": "uint256",
          "name": "",
          "type": "uint256"
        }
      ],
      "stateMutability": "view",
      "type": "function"
    },
    {
      "inputs": [
        {
          "internalType": "address",
          "name": "_wallet",
          "type": "address"
        }
      ],
      "name": "withdraw",
      "outputs": [],
      "stateMutability": "nonpayable",
      "type": "function"
    },
    {
      "inputs": [
        {
          "internalType": "address",
          "name": "_tokenContract",
          "type": "address"
        }
      ],
      "name": "setCurrency",
      "outputs": [],
      "stateMutability": "nonpayable",
      "type": "function"
    },
    {
      "inputs": [],
      "name": "getCollectedFees",
      "outputs": [
        {
          "internalType": "uint256",
          "name": "",
          "type": "uint256"
        }
      ],
      "stateMutability": "view",
      "type": "function"
    }
  ],
  "bytecode": "0x60806040523480156200001157600080fd5b506040518060200160405280600081525062000033816200006260201b60201c565b5062000054620000486200007760201b60201c565b6200007f60201b60201c565b6001600481905550620004a6565b8060029081620000739190620003bf565b5050565b600033905090565b6000600360009054906101000a900473ffffffffffffffffffffffffffffffffffffffff16905081600360006101000a81548173ffffffffffffffffffffffffffffffffffffffff021916908373ffffffffffffffffffffffffffffffffffffffff1602179055508173ffffffffffffffffffffffffffffffffffffffff168173ffffffffffffffffffffffffffffffffffffffff167f8be0079c531659141344cd1fd0a4f28419497f9722a3daafe3b4186f6b6457e060405160405180910390a35050565b600081519050919050565b7f4e487b7100000000000000000000000000000000000000000000000000000000600052604160045260246000fd5b7f4e487b7100000000000000000000000000000000000000000000000000000000600052602260045260246000fd5b60006002820490506001821680620001c757607f821691505b602082108103620001dd57620001dc6200017f565b5b50919050565b60008190508160005260206000209050919050565b60006020601f8301049050919050565b600082821b905092915050565b600060088302620002477fffffffffffffffffffffffffffffffffffffffffffffffffffffffffffffffff8262000208565b62000253868362000208565b95508019841693508086168417925050509392505050565b6000819050919050565b6000819050919050565b6000620002a06200029a62000294846200026b565b62000275565b6200026b565b9050919050565b6000819050919050565b620002bc836200027f565b620002d4620002cb82620002a7565b84845462000215565b825550505050565b600090565b620002eb620002dc565b620002f8818484620002b1565b505050565b5b81811015620003205762000314600082620002e1565b600181019050620002fe565b5050565b601f8211156200036f576200033981620001e3565b6200034484620001f8565b8101602085101562000354578190505b6200036c6200036385620001f8565b830182620002fd565b50505b505050565b600082821c905092915050565b6000620003946000198460080262000374565b1980831691505092915050565b6000620003af838362000381565b9150826002028217905092915050565b620003ca8262000145565b67ffffffffffffffff811115620003e657620003e562000150565b5b620003f28254620001ae565b620003ff82828562000324565b600060209050601f83116001811462000437576000841562000422578287015190505b6200042e8582620003a1565b8655506200049e565b601f1984166200044786620001e3565b60005b8281101562000471578489015182556001820191506020850194506020810190506200044a565b868310156200049157848901516200048d601f89168262000381565b8355505b6001600288020188555050505b505050505050565b61577b80620004b66000396000f3fe608060405234801561001057600080fd5b50600436106101575760003560e01c8063a22cb465116100c3578063d99647571161007c578063d9964757146103d4578063de74e57b146103f0578063e985e9c514610425578063ebc9537614610455578063f242432a14610473578063f2fde38b1461048f57610157565b8063a22cb46514610328578063a59ac6dd14610344578063b2ddee0614610360578063bfb1e2041461037c578063c88118e71461039a578063d54a8d18146103b657610157565b80632f84c391116101155780632f84c391146102685780634e1273f41461028457806351cff8d9146102b4578063543fd313146102d0578063715018a6146103005780638da5cb5b1461030a57610157565b8062fdd58e1461015c57806301ffc9a71461018c5780630e89341c146101bc578063131b9c04146101ec578063150b7a021461021c5780632eb2c2d61461024c575b600080fd5b61017660048036038101906101719190613727565b6104ab565b6040516101839190613776565b60405180910390f35b6101a660048036038101906101a191906137e9565b610573565b6040516101b39190613831565b60405180910390f35b6101d660048036038101906101d1919061384c565b610655565b6040516101e39190613909565b60405180910390f35b6102066004803603810190610201919061392b565b6106e9565b6040516102139190613776565b60405180910390f35b610236600480360381019061023191906139bd565b610732565b6040516102439190613a54565b60405180910390f35b61026660048036038101906102619190613c62565b610747565b005b610282600480360381019061027d919061392b565b6107e8565b005b61029e60048036038101906102999190613df4565b61082c565b6040516102ab9190613f2a565b60405180910390f35b6102ce60048036038101906102c9919061392b565b610945565b005b6102ea60048036038101906102e5919061392b565b610b56565b6040516102f79190613776565b60405180910390f35b610308610b6e565b005b610312610b82565b60405161031f9190613f5b565b60405180910390f35b610342600480360381019061033d9190613fa2565b610bac565b005b61035e60048036038101906103599190613fe2565b610bc2565b005b61037a60048036038101906103759190613727565b6112d1565b005b61038461179b565b604051610391919061416e565b60405180910390f35b6103b460048036038101906103af9190614190565b611a0c565b005b6103be611ed2565b6040516103cb9190613776565b60405180910390f35b6103ee60048036038101906103e9919061420b565b611f7a565b005b61040a6004803603810190610405919061384c565b61212b565b60405161041c96959493929190614272565b60405180910390f35b61043f600480360381019061043a91906142d3565b6121a7565b60405161044c9190613831565b60405180910390f35b61045d61223b565b60405161046a919061416e565b60405180910390f35b61048d60048036038101906104889190614313565b6124ac565b005b6104a960048036038101906104a4919061392b565b61254d565b005b60008073ffffffffffffffffffffffffffffffffffffffff168373ffffffffffffffffffffffffffffffffffffffff160361051b576040517f08c379a00000000000000000000000000000000000000000000000000000000081526004016105129061441c565b60405180910390fd5b60008083815260200190815260200160002060008473ffffffffffffffffffffffffffffffffffffffff1673ffffffffffffffffffffffffffffffffffffffff16815260200190815260200160002054905092915050565b60007fd9b67a26000000000000000000000000000000000000000000000000000000007bffffffffffffffffffffffffffffffffffffffffffffffffffffffff1916827bffffffffffffffffffffffffffffffffffffffffffffffffffffffff1916148061063e57507f0e89341c000000000000000000000000000000000000000000000000000000007bffffffffffffffffffffffffffffffffffffffffffffffffffffffff1916827bffffffffffffffffffffffffffffffffffffffffffffffffffffffff1916145b8061064e575061064d826125d0565b5b9050919050565b6060600280546106649061446b565b80601f01602080910402602001604051908101604052809291908181526020018280546106909061446b565b80156106dd5780601f106106b2576101008083540402835291602001916106dd565b820191906000526020600020905b8154815290600101906020018083116106c057829003601f168201915b50505050509050919050565b6000600660008373ffffffffffffffffffffffffffffffffffffffff1673ffffffffffffffffffffffffffffffffffffffff168152602001908152602001600020549050919050565b600063150b7a0260e01b905095945050505050565b61074f61263a565b73ffffffffffffffffffffffffffffffffffffffff168573ffffffffffffffffffffffffffffffffffffffff16148061079557506107948561078f61263a565b6121a7565b5b6107d4576040517f08c379a00000000000000000000000000000000000000000000000000000000081526004016107cb9061450e565b60405180910390fd5b6107e18585858585612642565b5050505050565b80600760006101000a81548173ffffffffffffffffffffffffffffffffffffffff021916908373ffffffffffffffffffffffffffffffffffffffff16021790555050565b60608151835114610872576040517f08c379a0000000000000000000000000000000000000000000000000000000008152600401610869906145a0565b60405180910390fd5b6000835167ffffffffffffffff81111561088f5761088e613a6f565b5b6040519080825280602002602001820160405280156108bd5781602001602082028036833780820191505090505b50905060005b845181101561093a5761090a8582815181106108e2576108e16145c0565b5b60200260200101518583815181106108fd576108fc6145c0565b5b60200260200101516104ab565b82828151811061091d5761091c6145c0565b5b602002602001018181525050806109339061461e565b90506108c3565b508091505092915050565b61094d612963565b6000600660008373ffffffffffffffffffffffffffffffffffffffff1673ffffffffffffffffffffffffffffffffffffffff16815260200190815260200160002054036109cf576040517f08c379a00000000000000000000000000000000000000000000000000000000081526004016109c6906146b2565b60405180910390fd5b6000600660008373ffffffffffffffffffffffffffffffffffffffff1673ffffffffffffffffffffffffffffffffffffffff168152602001908152602001600020549050600760009054906101000a900473ffffffffffffffffffffffffffffffffffffffff1673ffffffffffffffffffffffffffffffffffffffff1663a9059cbb836061606485610a619190614701565b610a6b9190614732565b6040518363ffffffff1660e01b8152600401610a88929190614774565b6020604051808303816000875af1158015610aa7573d6000803e3d6000fd5b505050506040513d601f19601f82011682018060405250810190610acb91906147b2565b506000600660008473ffffffffffffffffffffffffffffffffffffffff1673ffffffffffffffffffffffffffffffffffffffff168152602001908152602001600020819055507f56ca301a9219608c91e7bcee90e083c19671d2cdcc96752c7af291cee5f9c8c88142604051610b429291906147df565b60405180910390a150610b536129b2565b50565b60066020528060005260406000206000915090505481565b610b766129bc565b610b806000612a3a565b565b6000600360009054906101000a900473ffffffffffffffffffffffffffffffffffffffff16905090565b610bbe610bb761263a565b8383612b00565b5050565b610bca612963565b6000600560008481526020019081526020016000206040518060c0016040529081600082015481526020016001820160009054906101000a900473ffffffffffffffffffffffffffffffffffffffff1673ffffffffffffffffffffffffffffffffffffffff1673ffffffffffffffffffffffffffffffffffffffff1681526020016002820160009054906101000a900473ffffffffffffffffffffffffffffffffffffffff1673ffffffffffffffffffffffffffffffffffffffff1673ffffffffffffffffffffffffffffffffffffffff16815260200160038201548152602001600482015481526020016005820154815250509050600073ffffffffffffffffffffffffffffffffffffffff16816020015173ffffffffffffffffffffffffffffffffffffffff1603610d33576040517f08c379a0000000000000000000000000000000000000000000000000000000008152600401610d2a90614854565b60405180910390fd5b600082118015610d47575080608001518211155b610d86576040517f08c379a0000000000000000000000000000000000000000000000000000000008152600401610d7d906148c0565b60405180910390fd5b6102d1610d968260400151612c6c565b03610e9f57610dab3085836080015184612e00565b8373ffffffffffffffffffffffffffffffffffffffff16816040015173ffffffffffffffffffffffffffffffffffffffff16636352211e83606001516040518263ffffffff1660e01b8152600401610e039190613776565b602060405180830381865afa158015610e20573d6000803e3d6000fd5b505050506040513d601f19601f82011682018060405250810190610e4491906148f5565b73ffffffffffffffffffffffffffffffffffffffff1614610e9a576040517f08c379a0000000000000000000000000000000000000000000000000000000008152600401610e919061496e565b60405180910390fd5b610f75565b610eaf3085836080015184612e00565b81816040015173ffffffffffffffffffffffffffffffffffffffff1662fdd58e8684606001516040518363ffffffff1660e01b8152600401610ef2929190614774565b602060405180830381865afa158015610f0f573d6000803e3d6000fd5b505050506040513d601f19601f82011682018060405250810190610f3391906149a3565b1015610f74576040517f08c379a0000000000000000000000000000000000000000000000000000000008152600401610f6b90614a42565b60405180910390fd5b5b600760009054906101000a900473ffffffffffffffffffffffffffffffffffffffff1673ffffffffffffffffffffffffffffffffffffffff1663a1513e4c8530670de0b6b3a76400008560a00151610fcd9190614732565b6040518463ffffffff1660e01b8152600401610feb93929190614a62565b6020604051808303816000875af115801561100a573d6000803e3d6000fd5b505050506040513d601f19601f8201168201806040525081019061102e91906147b2565b50600760009054906101000a900473ffffffffffffffffffffffffffffffffffffffff1673ffffffffffffffffffffffffffffffffffffffff166323b872dd8530670de0b6b3a76400008560a001516110879190614732565b6040518463ffffffff1660e01b81526004016110a593929190614a62565b6020604051808303816000875af11580156110c4573d6000803e3d6000fd5b505050506040513d601f19601f820116820180604052508101906110e891906147b2565b50670de0b6b3a76400008160a001516111019190614732565b60066000836020015173ffffffffffffffffffffffffffffffffffffffff1673ffffffffffffffffffffffffffffffffffffffff16815260200190815260200160002060008282546111539190614a99565b9250508190555080608001518210156111ed578160056000858152602001908152602001600020600401600082825461118c9190614acd565b925050819055507ff7adc9a0380a940c6058d78194df6a9b9fa5bb431bbad15194913bb611f3f4f78360056000868152602001908152602001600020600401548360a001516040516111e093929190614b01565b60405180910390a16112c3565b600560008481526020019081526020016000206000808201600090556001820160006101000a81549073ffffffffffffffffffffffffffffffffffffffff02191690556002820160006101000a81549073ffffffffffffffffffffffffffffffffffffffff021916905560038201600090556004820160009055600582016000905550506008600081548092919061128490614b38565b91905055507f8f9d273ad6b9ef6936db5cd20a141ecb032af10f2a5fec60c106343670b2c87783856040516112ba929190614b61565b60405180910390a15b506112cc6129b2565b505050565b6112d9612963565b6000600560008381526020019081526020016000206040518060c0016040529081600082015481526020016001820160009054906101000a900473ffffffffffffffffffffffffffffffffffffffff1673ffffffffffffffffffffffffffffffffffffffff1673ffffffffffffffffffffffffffffffffffffffff1681526020016002820160009054906101000a900473ffffffffffffffffffffffffffffffffffffffff1673ffffffffffffffffffffffffffffffffffffffff1673ffffffffffffffffffffffffffffffffffffffff168152602001600382015481526020016004820154815260200160058201548152505090508273ffffffffffffffffffffffffffffffffffffffff16816020015173ffffffffffffffffffffffffffffffffffffffff1614611441576040517f08c379a000000000000000000000000000000000000000000000000000000000815260040161143890614bfc565b60405180910390fd5b6102d16114518260400151612c6c565b036115e1576114663084836080015184612e00565b806040015173ffffffffffffffffffffffffffffffffffffffff16634ed8676f3083606001516040518363ffffffff1660e01b81526004016114a9929190614774565b6020604051808303816000875af11580156114c8573d6000803e3d6000fd5b505050506040513d601f19601f820116820180604052508101906114ec91906147b2565b508273ffffffffffffffffffffffffffffffffffffffff16816040015173ffffffffffffffffffffffffffffffffffffffff16636352211e83606001516040518263ffffffff1660e01b81526004016115459190613776565b602060405180830381865afa158015611562573d6000803e3d6000fd5b505050506040513d601f19601f8201168201806040525081019061158691906148f5565b73ffffffffffffffffffffffffffffffffffffffff16146115dc576040517f08c379a00000000000000000000000000000000000000000000000000000000081526004016115d390614c68565b60405180910390fd5b6116bb565b6115f13084836080015184612e00565b8060800151816040015173ffffffffffffffffffffffffffffffffffffffff1662fdd58e8584606001516040518363ffffffff1660e01b8152600401611638929190614774565b602060405180830381865afa158015611655573d6000803e3d6000fd5b505050506040513d601f19601f8201168201806040525081019061167991906149a3565b10156116ba576040517f08c379a00000000000000000000000000000000000000000000000000000000081526004016116b190614cd4565b60405180910390fd5b5b600560008381526020019081526020016000206000808201600090556001820160006101000a81549073ffffffffffffffffffffffffffffffffffffffff02191690556002820160006101000a81549073ffffffffffffffffffffffffffffffffffffffff021916905560038201600090556004820160009055600582016000905550506008600081548092919061175290614b38565b91905055507f411aee90354c51b1b04cd563fcab2617142a9d50da19232d888547c8a1b7fd8a826040516117869190613776565b60405180910390a1506117976129b2565b5050565b6060600060085467ffffffffffffffff8111156117bb576117ba613a6f565b5b6040519080825280602002602001820160405280156117f457816020015b6117e161361d565b8152602001906001900390816117d95790505b5090506000805b600854811015611952576000600560008381526020019081526020016000206040518060c0016040529081600082015481526020016001820160009054906101000a900473ffffffffffffffffffffffffffffffffffffffff1673ffffffffffffffffffffffffffffffffffffffff1673ffffffffffffffffffffffffffffffffffffffff1681526020016002820160009054906101000a900473ffffffffffffffffffffffffffffffffffffffff1673ffffffffffffffffffffffffffffffffffffffff1673ffffffffffffffffffffffffffffffffffffffff168152602001600382015481526020016004820154815260200160058201548152505090506102d161190b8260400151612c6c565b0361193e5780848481518110611924576119236145c0565b5b6020026020010181905250828061193a9061461e565b9350505b50808061194a9061461e565b9150506117fb565b5060008167ffffffffffffffff81111561196f5761196e613a6f565b5b6040519080825280602002602001820160405280156119a857816020015b61199561361d565b81526020019060019003908161198d5790505b50905060005b82811015611a02578381815181106119c9576119c86145c0565b5b60200260200101518282815181106119e4576119e36145c0565b5b602002602001018190525080806119fa9061461e565b9150506119ae565b5080935050505090565b611a14612963565b60006008549050600160086000828254611a2e9190614a99565b9250508190555060008311611a78576040517f08c379a0000000000000000000000000000000000000000000000000000000008152600401611a6f90614d40565b60405180910390fd5b60008211611abb576040517f08c379a0000000000000000000000000000000000000000000000000000000008152600401611ab290614dac565b60405180910390fd5b6102d1611ac786612c6c565b03611c27578473ffffffffffffffffffffffffffffffffffffffff166342842e0e8730876040518463ffffffff1660e01b8152600401611b0993929190614a62565b600060405180830381600087803b158015611b2357600080fd5b505af1158015611b37573d6000803e3d6000fd5b505050503073ffffffffffffffffffffffffffffffffffffffff168573ffffffffffffffffffffffffffffffffffffffff16636352211e866040518263ffffffff1660e01b8152600401611b8b9190613776565b602060405180830381865afa158015611ba8573d6000803e3d6000fd5b505050506040513d601f19601f82011682018060405250810190611bcc91906148f5565b73ffffffffffffffffffffffffffffffffffffffff1614611c22576040517f08c379a0000000000000000000000000000000000000000000000000000000008152600401611c1990614e18565b60405180910390fd5b611d56565b8473ffffffffffffffffffffffffffffffffffffffff1663f242432a873087876040518563ffffffff1660e01b8152600401611c669493929190614e6f565b600060405180830381600087803b158015611c8057600080fd5b505af1158015611c94573d6000803e3d6000fd5b50505050828573ffffffffffffffffffffffffffffffffffffffff1662fdd58e30876040518363ffffffff1660e01b8152600401611cd3929190614774565b602060405180830381865afa158015611cf0573d6000803e3d6000fd5b505050506040513d601f19601f82011682018060405250810190611d1491906149a3565b1015611d55576040517f08c379a0000000000000000000000000000000000000000000000000000000008152600401611d4c90614f13565b60405180910390fd5b5b60006040518060c001604052808381526020018873ffffffffffffffffffffffffffffffffffffffff1681526020018773ffffffffffffffffffffffffffffffffffffffff16815260200186815260200185815260200184815250905080600560008481526020019081526020016000206000820151816000015560208201518160010160006101000a81548173ffffffffffffffffffffffffffffffffffffffff021916908373ffffffffffffffffffffffffffffffffffffffff16021790555060408201518160020160006101000a81548173ffffffffffffffffffffffffffffffffffffffff021916908373ffffffffffffffffffffffffffffffffffffffff160217905550606082015181600301556080820151816004015560a082015181600501559050507fceefd288ffab0a6f307ce9214d4c1fc1acd67f807eaaf54806e3a1158128db14828888888888604051611eb996959493929190614272565b60405180910390a15050611ecb6129b2565b5050505050565b600080600760009054906101000a900473ffffffffffffffffffffffffffffffffffffffff1673ffffffffffffffffffffffffffffffffffffffff166370a08231306040518263ffffffff1660e01b8152600401611f309190613f5b565b602060405180830381865afa158015611f4d573d6000803e3d6000fd5b505050506040513d601f19601f82011682018060405250810190611f7191906149a3565b90508091505090565b611f82612963565b60008211611fc5576040517f08c379a0000000000000000000000000000000000000000000000000000000008152600401611fbc90614d40565b60405180910390fd5b60008111612008576040517f08c379a0000000000000000000000000000000000000000000000000000000008152600401611fff90614dac565b60405180910390fd5b8373ffffffffffffffffffffffffffffffffffffffff166005600085815260200190815260200160002060010160009054906101000a900473ffffffffffffffffffffffffffffffffffffffff1673ffffffffffffffffffffffffffffffffffffffff16146120ac576040517f08c379a00000000000000000000000000000000000000000000000000000000081526004016120a390614fa5565b60405180910390fd5b8160056000858152602001908152602001600020600401819055508060056000858152602001908152602001600020600501819055507ff7adc9a0380a940c6058d78194df6a9b9fa5bb431bbad15194913bb611f3f4f783838360405161211593929190614b01565b60405180910390a16121256129b2565b50505050565b60056020528060005260406000206000915090508060000154908060010160009054906101000a900473ffffffffffffffffffffffffffffffffffffffff16908060020160009054906101000a900473ffffffffffffffffffffffffffffffffffffffff16908060030154908060040154908060050154905086565b6000600160008473ffffffffffffffffffffffffffffffffffffffff1673ffffffffffffffffffffffffffffffffffffffff16815260200190815260200160002060008373ffffffffffffffffffffffffffffffffffffffff1673ffffffffffffffffffffffffffffffffffffffff16815260200190815260200160002060009054906101000a900460ff16905092915050565b6060600060085467ffffffffffffffff81111561225b5761225a613a6f565b5b60405190808252806020026020018201604052801561229457816020015b61228161361d565b8152602001906001900390816122795790505b5090506000805b6008548110156123f2576000600560008381526020019081526020016000206040518060c0016040529081600082015481526020016001820160009054906101000a900473ffffffffffffffffffffffffffffffffffffffff1673ffffffffffffffffffffffffffffffffffffffff1673ffffffffffffffffffffffffffffffffffffffff1681526020016002820160009054906101000a900473ffffffffffffffffffffffffffffffffffffffff1673ffffffffffffffffffffffffffffffffffffffff1673ffffffffffffffffffffffffffffffffffffffff168152602001600382015481526020016004820154815260200160058201548152505090506104836123ab8260400151612c6c565b036123de57808484815181106123c4576123c36145c0565b5b602002602001018190525082806123da9061461e565b9350505b5080806123ea9061461e565b91505061229b565b5060008167ffffffffffffffff81111561240f5761240e613a6f565b5b60405190808252806020026020018201604052801561244857816020015b61243561361d565b81526020019060019003908161242d5790505b50905060005b828110156124a257838181518110612469576124686145c0565b5b6020026020010151828281518110612484576124836145c0565b5b6020026020010181905250808061249a9061461e565b91505061244e565b5080935050505090565b6124b461263a565b73ffffffffffffffffffffffffffffffffffffffff168573ffffffffffffffffffffffffffffffffffffffff1614806124fa57506124f9856124f461263a565b6121a7565b5b612539576040517f08c379a00000000000000000000000000000000000000000000000000000000081526004016125309061450e565b60405180910390fd5b6125468585858585612f27565b5050505050565b6125556129bc565b600073ffffffffffffffffffffffffffffffffffffffff168173ffffffffffffffffffffffffffffffffffffffff16036125c4576040517f08c379a00000000000000000000000000000000000000000000000000000000081526004016125bb90615037565b60405180910390fd5b6125cd81612a3a565b50565b60007f01ffc9a7000000000000000000000000000000000000000000000000000000007bffffffffffffffffffffffffffffffffffffffffffffffffffffffff1916827bffffffffffffffffffffffffffffffffffffffffffffffffffffffff1916149050919050565b600033905090565b8151835114612686576040517f08c379a000000000000000000000000000000000000000000000000000000000815260040161267d906150c9565b60405180910390fd5b600073ffffffffffffffffffffffffffffffffffffffff168473ffffffffffffffffffffffffffffffffffffffff16036126f5576040517f08c379a00000000000000000000000000000000000000000000000000000000081526004016126ec9061515b565b60405180910390fd5b60006126ff61263a565b905061270f8187878787876131c2565b60005b84518110156128c05760008582815181106127305761272f6145c0565b5b60200260200101519050600085838151811061274f5761274e6145c0565b5b60200260200101519050600080600084815260200190815260200160002060008b73ffffffffffffffffffffffffffffffffffffffff1673ffffffffffffffffffffffffffffffffffffffff168152602001908152602001600020549050818110156127f0576040517f08c379a00000000000000000000000000000000000000000000000000000000081526004016127e7906151ed565b60405180910390fd5b81810360008085815260200190815260200160002060008c73ffffffffffffffffffffffffffffffffffffffff1673ffffffffffffffffffffffffffffffffffffffff168152602001908152602001600020819055508160008085815260200190815260200160002060008b73ffffffffffffffffffffffffffffffffffffffff1673ffffffffffffffffffffffffffffffffffffffff16815260200190815260200160002060008282546128a59190614a99565b92505081905550505050806128b99061461e565b9050612712565b508473ffffffffffffffffffffffffffffffffffffffff168673ffffffffffffffffffffffffffffffffffffffff168273ffffffffffffffffffffffffffffffffffffffff167f4a39dc06d4c0dbc64b70af90fd698a233a518aa5d07e595d983b8c0526c8f7fb878760405161293792919061520d565b60405180910390a461294d8187878787876131ca565b61295b8187878787876131d2565b505050505050565b6002600454036129a8576040517f08c379a000000000000000000000000000000000000000000000000000000000815260040161299f90615290565b60405180910390fd5b6002600481905550565b6001600481905550565b6129c461263a565b73ffffffffffffffffffffffffffffffffffffffff166129e2610b82565b73ffffffffffffffffffffffffffffffffffffffff1614612a38576040517f08c379a0000000000000000000000000000000000000000000000000000000008152600401612a2f906152fc565b60405180910390fd5b565b6000600360009054906101000a900473ffffffffffffffffffffffffffffffffffffffff16905081600360006101000a81548173ffffffffffffffffffffffffffffffffffffffff021916908373ffffffffffffffffffffffffffffffffffffffff1602179055508173ffffffffffffffffffffffffffffffffffffffff168173ffffffffffffffffffffffffffffffffffffffff167f8be0079c531659141344cd1fd0a4f28419497f9722a3daafe3b4186f6b6457e060405160405180910390a35050565b8173ffffffffffffffffffffffffffffffffffffffff168373ffffffffffffffffffffffffffffffffffffffff1603612b6e576040517f08c379a0000000000000000000000000000000000000000000000000000000008152600401612b659061538e565b60405180910390fd5b80600160008573ffffffffffffffffffffffffffffffffffffffff1673ffffffffffffffffffffffffffffffffffffffff16815260200190815260200160002060008473ffffffffffffffffffffffffffffffffffffffff1673ffffffffffffffffffffffffffffffffffffffff16815260200190815260200160002060006101000a81548160ff0219169083151502179055508173ffffffffffffffffffffffffffffffffffffffff168373ffffffffffffffffffffffffffffffffffffffff167f17307eab39ab6107e8899845ad3d59bd9653f200f220920489ca2b5937696c3183604051612c5f9190613831565b60405180910390a3505050565b60008173ffffffffffffffffffffffffffffffffffffffff166301ffc9a77fd9b67a26000000000000000000000000000000000000000000000000000000006040518263ffffffff1660e01b8152600401612cc79190613a54565b602060405180830381865afa158015612ce4573d6000803e3d6000fd5b505050506040513d601f19601f82011682018060405250810190612d0891906147b2565b15612d17576104839050612dfb565b8173ffffffffffffffffffffffffffffffffffffffff166301ffc9a77f80ac58cd000000000000000000000000000000000000000000000000000000006040518263ffffffff1660e01b8152600401612d709190613a54565b602060405180830381865afa158015612d8d573d6000803e3d6000fd5b505050506040513d601f19601f82011682018060405250810190612db191906147b2565b15612dc0576102d19050612dfb565b6040517f08c379a0000000000000000000000000000000000000000000000000000000008152600401612df2906153fa565b60405180910390fd5b919050565b610483612e108260400151612c6c565b03612e9357806040015173ffffffffffffffffffffffffffffffffffffffff1663f242432a85858460600151866040518563ffffffff1660e01b8152600401612e5c9493929190614e6f565b600060405180830381600087803b158015612e7657600080fd5b505af1158015612e8a573d6000803e3d6000fd5b50505050612f21565b6102d1612ea38260400151612c6c565b03612f2057806040015173ffffffffffffffffffffffffffffffffffffffff166342842e0e858584606001516040518463ffffffff1660e01b8152600401612eed93929190614a62565b600060405180830381600087803b158015612f0757600080fd5b505af1158015612f1b573d6000803e3d6000fd5b505050505b5b50505050565b600073ffffffffffffffffffffffffffffffffffffffff168473ffffffffffffffffffffffffffffffffffffffff1603612f96576040517f08c379a0000000000000000000000000000000000000000000000000000000008152600401612f8d9061515b565b60405180910390fd5b6000612fa061263a565b90506000612fad856133a9565b90506000612fba856133a9565b9050612fca8389898585896131c2565b600080600088815260200190815260200160002060008a73ffffffffffffffffffffffffffffffffffffffff1673ffffffffffffffffffffffffffffffffffffffff16815260200190815260200160002054905085811015613061576040517f08c379a0000000000000000000000000000000000000000000000000000000008152600401613058906151ed565b60405180910390fd5b85810360008089815260200190815260200160002060008b73ffffffffffffffffffffffffffffffffffffffff1673ffffffffffffffffffffffffffffffffffffffff168152602001908152602001600020819055508560008089815260200190815260200160002060008a73ffffffffffffffffffffffffffffffffffffffff1673ffffffffffffffffffffffffffffffffffffffff16815260200190815260200160002060008282546131169190614a99565b925050819055508773ffffffffffffffffffffffffffffffffffffffff168973ffffffffffffffffffffffffffffffffffffffff168573ffffffffffffffffffffffffffffffffffffffff167fc3d58168c5ae7397731d063d5bbf3d657854427343f4c083240f7aacaa2d0f628a8a6040516131939291906147df565b60405180910390a46131a9848a8a86868a6131ca565b6131b7848a8a8a8a8a613423565b505050505050505050565b505050505050565b505050505050565b6131f18473ffffffffffffffffffffffffffffffffffffffff166135fa565b156133a1578373ffffffffffffffffffffffffffffffffffffffff1663bc197c8187878686866040518663ffffffff1660e01b815260040161323795949392919061545e565b6020604051808303816000875af192505050801561327357506040513d601f19601f8201168201806040525081019061327091906154db565b60015b6133185761327f615515565b806308c379a0036132db5750613293615537565b8061329e57506132dd565b806040517f08c379a00000000000000000000000000000000000000000000000000000000081526004016132d29190613909565b60405180910390fd5b505b6040517f08c379a000000000000000000000000000000000000000000000000000000000815260040161330f90615639565b60405180910390fd5b63bc197c8160e01b7bffffffffffffffffffffffffffffffffffffffffffffffffffffffff1916817bffffffffffffffffffffffffffffffffffffffffffffffffffffffff19161461339f576040517f08c379a0000000000000000000000000000000000000000000000000000000008152600401613396906156cb565b60405180910390fd5b505b505050505050565b60606000600167ffffffffffffffff8111156133c8576133c7613a6f565b5b6040519080825280602002602001820160405280156133f65781602001602082028036833780820191505090505b509050828160008151811061340e5761340d6145c0565b5b60200260200101818152505080915050919050565b6134428473ffffffffffffffffffffffffffffffffffffffff166135fa565b156135f2578373ffffffffffffffffffffffffffffffffffffffff1663f23a6e6187878686866040518663ffffffff1660e01b81526004016134889594939291906156eb565b6020604051808303816000875af19250505080156134c457506040513d601f19601f820116820180604052508101906134c191906154db565b60015b613569576134d0615515565b806308c379a00361352c57506134e4615537565b806134ef575061352e565b806040517f08c379a00000000000000000000000000000000000000000000000000000000081526004016135239190613909565b60405180910390fd5b505b6040517f08c379a000000000000000000000000000000000000000000000000000000000815260040161356090615639565b60405180910390fd5b63f23a6e6160e01b7bffffffffffffffffffffffffffffffffffffffffffffffffffffffff1916817bffffffffffffffffffffffffffffffffffffffffffffffffffffffff1916146135f0576040517f08c379a00000000000000000000000000000000000000000000000000000000081526004016135e7906156cb565b60405180910390fd5b505b505050505050565b6000808273ffffffffffffffffffffffffffffffffffffffff163b119050919050565b6040518060c0016040528060008152602001600073ffffffffffffffffffffffffffffffffffffffff168152602001600073ffffffffffffffffffffffffffffffffffffffff1681526020016000815260200160008152602001600081525090565b6000604051905090565b600080fd5b600080fd5b600073ffffffffffffffffffffffffffffffffffffffff82169050919050565b60006136be82613693565b9050919050565b6136ce816136b3565b81146136d957600080fd5b50565b6000813590506136eb816136c5565b92915050565b6000819050919050565b613704816136f1565b811461370f57600080fd5b50565b600081359050613721816136fb565b92915050565b6000806040838503121561373e5761373d613689565b5b600061374c858286016136dc565b925050602061375d85828601613712565b9150509250929050565b613770816136f1565b82525050565b600060208201905061378b6000830184613767565b92915050565b60007fffffffff0000000000000000000000000000000000000000000000000000000082169050919050565b6137c681613791565b81146137d157600080fd5b50565b6000813590506137e3816137bd565b92915050565b6000602082840312156137ff576137fe613689565b5b600061380d848285016137d4565b91505092915050565b60008115159050919050565b61382b81613816565b82525050565b60006020820190506138466000830184613822565b92915050565b60006020828403121561386257613861613689565b5b600061387084828501613712565b91505092915050565b600081519050919050565b600082825260208201905092915050565b60005b838110156138b3578082015181840152602081019050613898565b60008484015250505050565b6000601f19601f8301169050919050565b60006138db82613879565b6138e58185613884565b93506138f5818560208601613895565b6138fe816138bf565b840191505092915050565b6000602082019050818103600083015261392381846138d0565b905092915050565b60006020828403121561394157613940613689565b5b600061394f848285016136dc565b91505092915050565b600080fd5b600080fd5b600080fd5b60008083601f84011261397d5761397c613958565b5b8235905067ffffffffffffffff81111561399a5761399961395d565b5b6020830191508360018202830111156139b6576139b5613962565b5b9250929050565b6000806000806000608086880312156139d9576139d8613689565b5b60006139e7888289016136dc565b95505060206139f8888289016136dc565b9450506040613a0988828901613712565b935050606086013567ffffffffffffffff811115613a2a57613a2961368e565b5b613a3688828901613967565b92509250509295509295909350565b613a4e81613791565b82525050565b6000602082019050613a696000830184613a45565b92915050565b7f4e487b7100000000000000000000000000000000000000000000000000000000600052604160045260246000fd5b613aa7826138bf565b810181811067ffffffffffffffff82111715613ac657613ac5613a6f565b5b80604052505050565b6000613ad961367f565b9050613ae58282613a9e565b919050565b600067ffffffffffffffff821115613b0557613b04613a6f565b5b602082029050602081019050919050565b6000613b29613b2484613aea565b613acf565b90508083825260208201905060208402830185811115613b4c57613b4b613962565b5b835b81811015613b755780613b618882613712565b845260208401935050602081019050613b4e565b5050509392505050565b600082601f830112613b9457613b93613958565b5b8135613ba4848260208601613b16565b91505092915050565b600080fd5b600067ffffffffffffffff821115613bcd57613bcc613a6f565b5b613bd6826138bf565b9050602081019050919050565b82818337600083830152505050565b6000613c05613c0084613bb2565b613acf565b905082815260208101848484011115613c2157613c20613bad565b5b613c2c848285613be3565b509392505050565b600082601f830112613c4957613c48613958565b5b8135613c59848260208601613bf2565b91505092915050565b600080600080600060a08688031215613c7e57613c7d613689565b5b6000613c8c888289016136dc565b9550506020613c9d888289016136dc565b945050604086013567ffffffffffffffff811115613cbe57613cbd61368e565b5b613cca88828901613b7f565b935050606086013567ffffffffffffffff811115613ceb57613cea61368e565b5b613cf788828901613b7f565b925050608086013567ffffffffffffffff811115613d1857613d1761368e565b5b613d2488828901613c34565b9150509295509295909350565b600067ffffffffffffffff821115613d4c57613d4b613a6f565b5b602082029050602081019050919050565b6000613d70613d6b84613d31565b613acf565b90508083825260208201905060208402830185811115613d9357613d92613962565b5b835b81811015613dbc5780613da888826136dc565b845260208401935050602081019050613d95565b5050509392505050565b600082601f830112613ddb57613dda613958565b5b8135613deb848260208601613d5d565b91505092915050565b60008060408385031215613e0b57613e0a613689565b5b600083013567ffffffffffffffff811115613e2957613e2861368e565b5b613e3585828601613dc6565b925050602083013567ffffffffffffffff811115613e5657613e5561368e565b5b613e6285828601613b7f565b9150509250929050565b600081519050919050565b600082825260208201905092915050565b6000819050602082019050919050565b613ea1816136f1565b82525050565b6000613eb38383613e98565b60208301905092915050565b6000602082019050919050565b6000613ed782613e6c565b613ee18185613e77565b9350613eec83613e88565b8060005b83811015613f1d578151613f048882613ea7565b9750613f0f83613ebf565b925050600181019050613ef0565b5085935050505092915050565b60006020820190508181036000830152613f448184613ecc565b905092915050565b613f55816136b3565b82525050565b6000602082019050613f706000830184613f4c565b92915050565b613f7f81613816565b8114613f8a57600080fd5b50565b600081359050613f9c81613f76565b92915050565b60008060408385031215613fb957613fb8613689565b5b6000613fc7858286016136dc565b9250506020613fd885828601613f8d565b9150509250929050565b600080600060608486031215613ffb57613ffa613689565b5b6000614009868287016136dc565b935050602061401a86828701613712565b925050604061402b86828701613712565b9150509250925092565b600081519050919050565b600082825260208201905092915050565b6000819050602082019050919050565b61406a816136b3565b82525050565b60c0820160008201516140866000850182613e98565b5060208201516140996020850182614061565b5060408201516140ac6040850182614061565b5060608201516140bf6060850182613e98565b5060808201516140d26080850182613e98565b5060a08201516140e560a0850182613e98565b50505050565b60006140f78383614070565b60c08301905092915050565b6000602082019050919050565b600061411b82614035565b6141258185614040565b935061413083614051565b8060005b8381101561416157815161414888826140eb565b975061415383614103565b925050600181019050614134565b5085935050505092915050565b600060208201905081810360008301526141888184614110565b905092915050565b600080600080600060a086880312156141ac576141ab613689565b5b60006141ba888289016136dc565b95505060206141cb888289016136dc565b94505060406141dc88828901613712565b93505060606141ed88828901613712565b92505060806141fe88828901613712565b9150509295509295909350565b6000806000806080858703121561422557614224613689565b5b6000614233878288016136dc565b945050602061424487828801613712565b935050604061425587828801613712565b925050606061426687828801613712565b91505092959194509250565b600060c0820190506142876000830189613767565b6142946020830188613f4c565b6142a16040830187613f4c565b6142ae6060830186613767565b6142bb6080830185613767565b6142c860a0830184613767565b979650505050505050565b600080604083850312156142ea576142e9613689565b5b60006142f8858286016136dc565b9250506020614309858286016136dc565b9150509250929050565b600080600080600060a0868803121561432f5761432e613689565b5b600061433d888289016136dc565b955050602061434e888289016136dc565b945050604061435f88828901613712565b935050606061437088828901613712565b925050608086013567ffffffffffffffff8111156143915761439061368e565b5b61439d88828901613c34565b9150509295509295909350565b7f455243313135353a2061646472657373207a65726f206973206e6f742061207660008201527f616c6964206f776e657200000000000000000000000000000000000000000000602082015250565b6000614406602a83613884565b9150614411826143aa565b604082019050919050565b60006020820190508181036000830152614435816143f9565b9050919050565b7f4e487b7100000000000000000000000000000000000000000000000000000000600052602260045260246000fd5b6000600282049050600182168061448357607f821691505b6020821081036144965761449561443c565b5b50919050565b7f455243313135353a2063616c6c6572206973206e6f7420746f6b656e206f776e60008201527f6572206f7220617070726f766564000000000000000000000000000000000000602082015250565b60006144f8602e83613884565b91506145038261449c565b604082019050919050565b60006020820190508181036000830152614527816144eb565b9050919050565b7f455243313135353a206163636f756e747320616e6420696473206c656e67746860008201527f206d69736d617463680000000000000000000000000000000000000000000000602082015250565b600061458a602983613884565b91506145958261452e565b604082019050919050565b600060208201905081810360008301526145b98161457d565b9050919050565b7f4e487b7100000000000000000000000000000000000000000000000000000000600052603260045260246000fd5b7f4e487b7100000000000000000000000000000000000000000000000000000000600052601160045260246000fd5b6000614629826136f1565b91507fffffffffffffffffffffffffffffffffffffffffffffffffffffffffffffffff820361465b5761465a6145ef565b5b600182019050919050565b7f4e6f7468696e6720746f20776974686472617700000000000000000000000000600082015250565b600061469c601383613884565b91506146a782614666565b602082019050919050565b600060208201905081810360008301526146cb8161468f565b9050919050565b7f4e487b7100000000000000000000000000000000000000000000000000000000600052601260045260246000fd5b600061470c826136f1565b9150614717836136f1565b925082614727576147266146d2565b5b828204905092915050565b600061473d826136f1565b9150614748836136f1565b9250828202614756816136f1565b9150828204841483151761476d5761476c6145ef565b5b5092915050565b60006040820190506147896000830185613f4c565b6147966020830184613767565b9392505050565b6000815190506147ac81613f76565b92915050565b6000602082840312156147c8576147c7613689565b5b60006147d68482850161479d565b91505092915050565b60006040820190506147f46000830185613767565b6148016020830184613767565b9392505050565b7f53616c6520646f6573206e6f7420657869737400000000000000000000000000600082015250565b600061483e601383613884565b915061484982614808565b602082019050919050565b6000602082019050818103600083015261486d81614831565b9050919050565b7f496e76616c6964207175616e7469747900000000000000000000000000000000600082015250565b60006148aa601083613884565b91506148b582614874565b602082019050919050565b600060208201905081810360008301526148d98161489d565b9050919050565b6000815190506148ef816136c5565b92915050565b60006020828403121561490b5761490a613689565b5b6000614919848285016148e0565b91505092915050565b7f4661696c656420746f207472616e736665722045524337323120746f6b656e00600082015250565b6000614958601f83613884565b915061496382614922565b602082019050919050565b600060208201905081810360008301526149878161494b565b9050919050565b60008151905061499d816136fb565b92915050565b6000602082840312156149b9576149b8613689565b5b60006149c78482850161498e565b91505092915050565b7f4661696c656420746f207472616e73666572204552433131353520746f6b656e60008201527f7300000000000000000000000000000000000000000000000000000000000000602082015250565b6000614a2c602183613884565b9150614a37826149d0565b604082019050919050565b60006020820190508181036000830152614a5b81614a1f565b9050919050565b6000606082019050614a776000830186613f4c565b614a846020830185613f4c565b614a916040830184613767565b949350505050565b6000614aa4826136f1565b9150614aaf836136f1565b9250828201905080821115614ac757614ac66145ef565b5b92915050565b6000614ad8826136f1565b9150614ae3836136f1565b9250828203905081811115614afb57614afa6145ef565b5b92915050565b6000606082019050614b166000830186613767565b614b236020830185613767565b614b306040830184613767565b949350505050565b6000614b43826136f1565b915060008203614b5657614b556145ef565b5b600182039050919050565b6000604082019050614b766000830185613767565b614b836020830184613f4c565b9392505050565b7f4f6e6c79207468652073656c6c65722063616e2063616e63656c20746865207360008201527f616c650000000000000000000000000000000000000000000000000000000000602082015250565b6000614be6602383613884565b9150614bf182614b8a565b604082019050919050565b60006020820190508181036000830152614c1581614bd9565b9050919050565b7f4661696c656420746f2072657475726e2045524337323120746f6b656e000000600082015250565b6000614c52601d83613884565b9150614c5d82614c1c565b602082019050919050565b60006020820190508181036000830152614c8181614c45565b9050919050565b7f4661696c656420746f2072657475726e204552433131353520746f6b656e7300600082015250565b6000614cbe601f83613884565b9150614cc982614c88565b602082019050919050565b60006020820190508181036000830152614ced81614cb1565b9050919050565b7f5175616e74697479206d7573742062652067726561746572207468616e203000600082015250565b6000614d2a601f83613884565b9150614d3582614cf4565b602082019050919050565b60006020820190508181036000830152614d5981614d1d565b9050919050565b7f5072696365206d7573742062652067726561746572207468616e203000000000600082015250565b6000614d96601c83613884565b9150614da182614d60565b602082019050919050565b60006020820190508181036000830152614dc581614d89565b9050919050565b7f4661696c656420746f20726563656976652045524337323120746f6b656e0000600082015250565b6000614e02601e83613884565b9150614e0d82614dcc565b602082019050919050565b60006020820190508181036000830152614e3181614df5565b9050919050565b600082825260208201905092915050565b50565b6000614e59600083614e38565b9150614e6482614e49565b600082019050919050565b600060a082019050614e846000830187613f4c565b614e916020830186613f4c565b614e9e6040830185613767565b614eab6060830184613767565b8181036080830152614ebc81614e4c565b905095945050505050565b7f4661696c656420746f2072656365697665204552433131353520746f6b656e73600082015250565b6000614efd602083613884565b9150614f0882614ec7565b602082019050919050565b60006020820190508181036000830152614f2c81614ef0565b9050919050565b7f4f6e6c79207468652073656c6c65722063616e2075706461746520746865207360008201527f616c650000000000000000000000000000000000000000000000000000000000602082015250565b6000614f8f602383613884565b9150614f9a82614f33565b604082019050919050565b60006020820190508181036000830152614fbe81614f82565b9050919050565b7f4f776e61626c653a206e6577206f776e657220697320746865207a65726f206160008201527f6464726573730000000000000000000000000000000000000000000000000000602082015250565b6000615021602683613884565b915061502c82614fc5565b604082019050919050565b6000602082019050818103600083015261505081615014565b9050919050565b7f455243313135353a2069647320616e6420616d6f756e7473206c656e6774682060008201527f6d69736d61746368000000000000000000000000000000000000000000000000602082015250565b60006150b3602883613884565b91506150be82615057565b604082019050919050565b600060208201905081810360008301526150e2816150a6565b9050919050565b7f455243313135353a207472616e7366657220746f20746865207a65726f20616460008201527f6472657373000000000000000000000000000000000000000000000000000000602082015250565b6000615145602583613884565b9150615150826150e9565b604082019050919050565b6000602082019050818103600083015261517481615138565b9050919050565b7f455243313135353a20696e73756666696369656e742062616c616e636520666f60008201527f72207472616e7366657200000000000000000000000000000000000000000000602082015250565b60006151d7602a83613884565b91506151e28261517b565b604082019050919050565b60006020820190508181036000830152615206816151ca565b9050919050565b600060408201905081810360008301526152278185613ecc565b9050818103602083015261523b8184613ecc565b90509392505050565b7f5265656e7472616e637947756172643a207265656e7472616e742063616c6c00600082015250565b600061527a601f83613884565b915061528582615244565b602082019050919050565b600060208201905081810360008301526152a98161526d565b9050919050565b7f4f776e61626c653a2063616c6c6572206973206e6f7420746865206f776e6572600082015250565b60006152e6602083613884565b91506152f1826152b0565b602082019050919050565b60006020820190508181036000830152615315816152d9565b9050919050565b7f455243313135353a2073657474696e6720617070726f76616c2073746174757360008201527f20666f722073656c660000000000000000000000000000000000000000000000602082015250565b6000615378602983613884565b91506153838261531c565b604082019050919050565b600060208201905081810360008301526153a78161536b565b9050919050565b7f746f6b656e206d7573742062652045524331313535206f72204552433732312e600082015250565b60006153e4602083613884565b91506153ef826153ae565b602082019050919050565b60006020820190508181036000830152615413816153d7565b9050919050565b600081519050919050565b60006154308261541a565b61543a8185614e38565b935061544a818560208601613895565b615453816138bf565b840191505092915050565b600060a0820190506154736000830188613f4c565b6154806020830187613f4c565b81810360408301526154928186613ecc565b905081810360608301526154a68185613ecc565b905081810360808301526154ba8184615425565b90509695505050505050565b6000815190506154d5816137bd565b92915050565b6000602082840312156154f1576154f0613689565b5b60006154ff848285016154c6565b91505092915050565b60008160e01c9050919050565b600060033d11156155345760046000803e615531600051615508565b90505b90565b600060443d106155c45761554961367f565b60043d036004823e80513d602482011167ffffffffffffffff821117156155715750506155c4565b808201805167ffffffffffffffff81111561558f57505050506155c4565b80602083010160043d0385018111156155ac5750505050506155c4565b6155bb82602001850186613a9e565b82955050505050505b90565b7f455243313135353a207472616e7366657220746f206e6f6e2d4552433131353560008201527f526563656976657220696d706c656d656e746572000000000000000000000000602082015250565b6000615623603483613884565b915061562e826155c7565b604082019050919050565b6000602082019050818103600083015261565281615616565b9050919050565b7f455243313135353a204552433131353552656365697665722072656a6563746560008201527f6420746f6b656e73000000000000000000000000000000000000000000000000602082015250565b60006156b5602883613884565b91506156c082615659565b604082019050919050565b600060208201905081810360008301526156e4816156a8565b9050919050565b600060a0820190506157006000830188613f4c565b61570d6020830187613f4c565b61571a6040830186613767565b6157276060830185613767565b81810360808301526157398184615425565b9050969550505050505056fea2646970667358221220c2fc65d9e369177d81b997755a18d8e831e64a568e706fe16c83030d6e37867b64736f6c63430008120033",
  "immutableReferences": {},
  "source": "// SPDX-License-Identifier: MIT\r\npragma solidity ^0.8.9;\r\n\r\nimport \"@openzeppelin/contracts/token/ERC1155/ERC1155.sol\";\r\nimport \"@openzeppelin/contracts/token/ERC721/IERC721.sol\";\r\nimport \"@openzeppelin/contracts/token/ERC20/IERC20.sol\";\r\n\r\nimport \"@openzeppelin/contracts/token/ERC721/IERC721Receiver.sol\";\r\nimport \"@openzeppelin/contracts/token/ERC1155/IERC1155Receiver.sol\";\r\n\r\nimport \"@openzeppelin/contracts/access/Ownable.sol\";\r\nimport \"@openzeppelin/contracts/security/ReentrancyGuard.sol\";\r\nimport \"./IPSD.sol\";\r\nimport \"./IPNFT.sol\";\r\n\r\ncontract PoseidonMarket is ERC1155, Ownable, IERC721Receiver, ReentrancyGuard {\r\n    \r\n    function onERC721Received(\r\n        address,\r\n        address,\r\n        uint256,\r\n        bytes calldata\r\n    ) public pure override returns (bytes4) {\r\n        return this.onERC721Received.selector;\r\n    }\r\n\r\n    struct Listing {\r\n        uint256 listingId;\r\n        address seller;\r\n        address tokenContract;\r\n        uint256 tokenId;\r\n        uint256 quantity;\r\n        uint256 price;\r\n    }\r\n\r\n    mapping(uint256 => Listing) public listings;\r\n    mapping(address => uint256) public earnings;\r\n\r\n    address coinContract;\r\n    uint256 totalListings;\r\n\r\n    event ListingCreated(\r\n        uint256 listingId,\r\n        address seller,\r\n        address tokenContract,\r\n        uint256 tokenId,\r\n        uint256 quantity,\r\n        uint256 price\r\n    );\r\n    event ListingUpdated(uint256 listingId, uint256 quantity, uint256 price);\r\n    event ListingCancelled(uint256 listingId);\r\n    event ListingSold(uint256 listingId, address buyer);\r\n    event Withdraw(uint256 amount, uint256 timestamp);\r\n\r\n    constructor() ERC1155(\"\") {}\r\n\r\n    function createListing(\r\n        address _wallet,\r\n        address _tokenContract,\r\n        uint256 _tokenId,\r\n        uint256 _quantity,\r\n        uint256 _price\r\n    ) public nonReentrant {\r\n        uint256 listingId = totalListings;\r\n        totalListings += 1;\r\n\r\n        require(_quantity > 0, \"Quantity must be greater than 0\");\r\n        require(_price > 0, \"Price must be greater than 0\");\r\n\r\n        if (getTokenType(_tokenContract) == 721) {\r\n            IERC721(_tokenContract).safeTransferFrom(\r\n                _wallet,\r\n                address(this),\r\n                _tokenId\r\n            );\r\n            require(\r\n                IERC721(_tokenContract).ownerOf(_tokenId) == address(this),\r\n                \"Failed to receive ERC721 token\"\r\n            );\r\n        } else {\r\n            ERC1155(_tokenContract).safeTransferFrom(\r\n                _wallet,\r\n                address(this),\r\n                _tokenId,\r\n                _quantity,\r\n                \"\"\r\n            );\r\n            require(\r\n                ERC1155(_tokenContract).balanceOf(address(this), _tokenId) >=\r\n                    _quantity,\r\n                \"Failed to receive ERC1155 tokens\"\r\n            );\r\n        }\r\n\r\n        Listing memory newListing = Listing(\r\n            listingId,\r\n            _wallet,\r\n            _tokenContract,\r\n            _tokenId,\r\n            _quantity,\r\n            _price\r\n        );\r\n        listings[listingId] = newListing;\r\n\r\n        emit ListingCreated(\r\n            listingId,\r\n            _wallet,\r\n            _tokenContract,\r\n            _tokenId,\r\n            _quantity,\r\n            _price\r\n        );\r\n    }\r\n\r\n    function updateListing(\r\n        address _wallet,\r\n        uint256 listingId,\r\n        uint256 quantity,\r\n        uint256 price\r\n    ) public nonReentrant {\r\n        require(quantity > 0, \"Quantity must be greater than 0\");\r\n        require(price > 0, \"Price must be greater than 0\");\r\n        require(\r\n            listings[listingId].seller == _wallet,\r\n            \"Only the seller can update the sale\"\r\n        );\r\n\r\n        listings[listingId].quantity = quantity;\r\n        listings[listingId].price = price;\r\n\r\n        emit ListingUpdated(listingId, quantity, price);\r\n    }\r\n\r\n    function cancelListing(address _wallet, uint256 listingId) public nonReentrant {\r\n        Listing memory targetListing = listings[listingId];\r\n        require(\r\n            targetListing.seller == _wallet,\r\n            \"Only the seller can cancel the sale\"\r\n        );\r\n\r\n        if (getTokenType(targetListing.tokenContract) == 721) {\r\n            transferListingTokens(\r\n                address(this),\r\n                _wallet,\r\n                targetListing.quantity,\r\n                targetListing\r\n            );\r\n            IPNFT(targetListing.tokenContract).approveMarket(address(this), targetListing.tokenId);\r\n            require(\r\n                IERC721(targetListing.tokenContract).ownerOf(\r\n                    targetListing.tokenId\r\n                ) == _wallet,\r\n                \"Failed to return ERC721 token\"\r\n            );\r\n        } else {\r\n            transferListingTokens(\r\n                address(this),\r\n                _wallet,\r\n                targetListing.quantity,\r\n                targetListing\r\n            );\r\n            require(\r\n                ERC1155(targetListing.tokenContract).balanceOf(\r\n                    _wallet,\r\n                    targetListing.tokenId\r\n                ) >= targetListing.quantity,\r\n                \"Failed to return ERC1155 tokens\"\r\n            );\r\n        }\r\n        delete listings[listingId];\r\n        totalListings--;\r\n        emit ListingCancelled(listingId);\r\n    }\r\n\r\n    function buy(address _wallet, uint256 listingId, uint256 quantity) public nonReentrant {\r\n        Listing memory targetListing = listings[listingId];\r\n\r\n        require(targetListing.seller != address(0), \"Sale does not exist\");\r\n        require(\r\n            quantity > 0 && quantity <= targetListing.quantity,\r\n            \"Invalid quantity\"\r\n        );\r\n\r\n        if (getTokenType(targetListing.tokenContract) == 721) {\r\n            transferListingTokens(\r\n                address(this),\r\n                _wallet,\r\n                targetListing.quantity,\r\n                targetListing\r\n            );\r\n            require(\r\n                IERC721(targetListing.tokenContract).ownerOf(\r\n                    targetListing.tokenId\r\n                ) == _wallet,\r\n                \"Failed to transfer ERC721 token\"\r\n            );\r\n        } else {\r\n            transferListingTokens(\r\n                address(this),\r\n                _wallet,\r\n                targetListing.quantity,\r\n                targetListing\r\n            );\r\n            require(\r\n                ERC1155(targetListing.tokenContract).balanceOf(\r\n                    _wallet,\r\n                    targetListing.tokenId\r\n                ) >= quantity,\r\n                \"Failed to transfer ERC1155 tokens\"\r\n            );\r\n        }\r\n\r\n        IPSD(coinContract).approveMarket(_wallet, address(this), targetListing.price * 10 ** 18);\r\n        IERC20(coinContract).transferFrom(\r\n            _wallet,\r\n            address(this),\r\n            targetListing.price * 10 ** 18\r\n        );\r\n        earnings[targetListing.seller] += targetListing.price * 10 ** 18;\r\n\r\n        if (quantity < targetListing.quantity) {\r\n            listings[listingId].quantity -= quantity;\r\n            emit ListingUpdated(\r\n                listingId,\r\n                listings[listingId].quantity,\r\n                targetListing.price\r\n            );\r\n        } else {\r\n            delete listings[listingId];\r\n            totalListings--;\r\n            emit ListingSold(listingId, _wallet);\r\n        }\r\n    }\r\n\r\n    function get721Listings() public view returns (Listing[] memory) {\r\n        Listing[] memory _listings = new Listing[](totalListings);\r\n        uint256 count = 0;\r\n\r\n        for (uint256 i = 0; i < totalListings; i++) {\r\n            Listing memory listing = listings[i];\r\n            if (getTokenType(listing.tokenContract) == 721) {\r\n                _listings[count] = listing;\r\n                count++;\r\n            }\r\n        }\r\n\r\n        Listing[] memory result = new Listing[](count);\r\n        for (uint256 i = 0; i < count; i++) {\r\n            result[i] = _listings[i];\r\n        }\r\n\r\n        return result;\r\n    }\r\n\r\n        function get1155Listings() public view returns (Listing[] memory) {\r\n        Listing[] memory _listings = new Listing[](totalListings);\r\n        uint256 count = 0;\r\n\r\n        for (uint256 i = 0; i < totalListings; i++) {\r\n            Listing memory listing = listings[i];\r\n            if (getTokenType(listing.tokenContract) == 1155) {\r\n                _listings[count] = listing;\r\n                count++;\r\n            }\r\n        }\r\n\r\n        Listing[] memory result = new Listing[](count);\r\n        for (uint256 i = 0; i < count; i++) {\r\n            result[i] = _listings[i];\r\n        }\r\n\r\n        return result;\r\n    }\r\n\r\n    function transferListingTokens(\r\n        address _from,\r\n        address _to,\r\n        uint256 _quantity,\r\n        Listing memory _listing\r\n    ) internal {\r\n        if (getTokenType(_listing.tokenContract) == 1155) {\r\n            IERC1155(_listing.tokenContract).safeTransferFrom(\r\n                _from,\r\n                _to,\r\n                _listing.tokenId,\r\n                _quantity,\r\n                \"\"\r\n            );\r\n        } else if (getTokenType(_listing.tokenContract) == 721) {\r\n            IERC721(_listing.tokenContract).safeTransferFrom(\r\n                _from,\r\n                _to,\r\n                _listing.tokenId\r\n            );\r\n        }\r\n    }\r\n\r\n    function getEarnings(address _wallet) public view returns (uint256) {\r\n        return earnings[_wallet];\r\n    }\r\n\r\n    function withdraw(address _wallet) public nonReentrant {\r\n        require(earnings[_wallet] != 0, \"Nothing to withdraw\");\r\n        uint256 amount = earnings[_wallet];\r\n        IERC20(coinContract).transfer(_wallet, (amount / 100) * 97);\r\n        earnings[_wallet] = 0;\r\n        emit Withdraw(amount, block.timestamp);\r\n    }\r\n\r\n    function getTokenType(\r\n        address _tokenContract\r\n    ) internal view returns (uint256) {\r\n        if (\r\n            IERC165(_tokenContract).supportsInterface(\r\n                type(IERC1155).interfaceId\r\n            )\r\n        ) {\r\n            return 1155;\r\n        } else if (\r\n            IERC165(_tokenContract).supportsInterface(type(IERC721).interfaceId)\r\n        ) {\r\n            return 721;\r\n        } else {\r\n            revert(\"token must be ERC1155 or ERC721.\");\r\n        }\r\n    }\r\n\r\n    function setCurrency(address _tokenContract) public {\r\n        coinContract = _tokenContract;\r\n    }\r\n\r\n    function getCollectedFees() public view returns (uint256) {\r\n        uint256 result = IERC20(coinContract).balanceOf(address(this));\r\n        return result;\r\n    }\r\n}\r\n",
  "sourcePath": "C:\\Users\\muizy\\Documents\\GitHub\\blockchaingame\\blockchain\\contracts\\PoseidonMarket.sol",
  "compiler": {
    "name": "solc",
    "version": "0.8.18+commit.87f61d96.Emscripten.clang"
  },
  "schemaVersion": "3.4.11",
  "updatedAt": "2023-06-03T15:13:33.431Z",
  "devdoc": {
    "events": {
      "ApprovalForAll(address,address,bool)": {
        "details": "Emitted when `account` grants or revokes permission to `operator` to transfer their tokens, according to `approved`."
      },
      "TransferBatch(address,address,address,uint256[],uint256[])": {
        "details": "Equivalent to multiple {TransferSingle} events, where `operator`, `from` and `to` are the same for all transfers."
      },
      "TransferSingle(address,address,address,uint256,uint256)": {
        "details": "Emitted when `value` tokens of token type `id` are transferred from `from` to `to` by `operator`."
      },
      "URI(string,uint256)": {
        "details": "Emitted when the URI for token type `id` changes to `value`, if it is a non-programmatic URI. If an {URI} event was emitted for `id`, the standard https://eips.ethereum.org/EIPS/eip-1155#metadata-extensions[guarantees] that `value` will equal the value returned by {IERC1155MetadataURI-uri}."
      }
    },
    "kind": "dev",
    "methods": {
      "balanceOf(address,uint256)": {
        "details": "See {IERC1155-balanceOf}. Requirements: - `account` cannot be the zero address."
      },
      "balanceOfBatch(address[],uint256[])": {
        "details": "See {IERC1155-balanceOfBatch}. Requirements: - `accounts` and `ids` must have the same length."
      },
      "isApprovedForAll(address,address)": {
        "details": "See {IERC1155-isApprovedForAll}."
      },
      "owner()": {
        "details": "Returns the address of the current owner."
      },
      "renounceOwnership()": {
        "details": "Leaves the contract without owner. It will not be possible to call `onlyOwner` functions anymore. Can only be called by the current owner. NOTE: Renouncing ownership will leave the contract without an owner, thereby removing any functionality that is only available to the owner."
      },
      "safeBatchTransferFrom(address,address,uint256[],uint256[],bytes)": {
        "details": "See {IERC1155-safeBatchTransferFrom}."
      },
      "safeTransferFrom(address,address,uint256,uint256,bytes)": {
        "details": "See {IERC1155-safeTransferFrom}."
      },
      "setApprovalForAll(address,bool)": {
        "details": "See {IERC1155-setApprovalForAll}."
      },
      "supportsInterface(bytes4)": {
        "details": "See {IERC165-supportsInterface}."
      },
      "transferOwnership(address)": {
        "details": "Transfers ownership of the contract to a new account (`newOwner`). Can only be called by the current owner."
      },
      "uri(uint256)": {
        "details": "See {IERC1155MetadataURI-uri}. This implementation returns the same URI for *all* token types. It relies on the token type ID substitution mechanism https://eips.ethereum.org/EIPS/eip-1155#metadata[defined in the EIP]. Clients calling this function must replace the `\\{id\\}` substring with the actual token type ID."
      }
    },
    "version": 1
  },
  "userdoc": {
    "kind": "user",
    "methods": {},
    "version": 1
  }
}