{
  "contractName": "PoseidonNFT",
  "abi": [
    {
      "inputs": [
        {
          "internalType": "address",
          "name": "_marketContract",
          "type": "address"
        }
      ],
      "stateMutability": "nonpayable",
      "type": "constructor"
    },
    {
      "anonymous": false,
      "inputs": [
        {
          "indexed": true,
          "internalType": "address",
          "name": "owner",
          "type": "address"
        },
        {
          "indexed": true,
          "internalType": "address",
          "name": "approved",
          "type": "address"
        },
        {
          "indexed": true,
          "internalType": "uint256",
          "name": "tokenId",
          "type": "uint256"
        }
      ],
      "name": "Approval",
      "type": "event"
    },
    {
      "anonymous": false,
      "inputs": [
        {
          "indexed": true,
          "internalType": "address",
          "name": "owner",
          "type": "address"
        },
        {
          "indexed": true,
          "internalType": "address",
          "name": "operator",
          "type": "address"
        },
        {
          "indexed": false,
          "internalType": "bool",
          "name": "approved",
          "type": "bool"
        }
      ],
      "name": "ApprovalForAll",
      "type": "event"
    },
    {
      "anonymous": false,
      "inputs": [
        {
          "indexed": false,
          "internalType": "uint256",
          "name": "",
          "type": "uint256"
        }
      ],
      "name": "NFTMinted",
      "type": "event"
    },
    {
      "anonymous": false,
      "inputs": [
        {
          "indexed": true,
          "internalType": "address",
          "name": "previousOwner",
          "type": "address"
        },
        {
          "indexed": true,
          "internalType": "address",
          "name": "newOwner",
          "type": "address"
        }
      ],
      "name": "OwnershipTransferred",
      "type": "event"
    },
    {
      "anonymous": false,
      "inputs": [
        {
          "indexed": true,
          "internalType": "address",
          "name": "from",
          "type": "address"
        },
        {
          "indexed": true,
          "internalType": "address",
          "name": "to",
          "type": "address"
        },
        {
          "indexed": true,
          "internalType": "uint256",
          "name": "tokenId",
          "type": "uint256"
        }
      ],
      "name": "Transfer",
      "type": "event"
    },
    {
      "inputs": [
        {
          "internalType": "address",
          "name": "to",
          "type": "address"
        },
        {
          "internalType": "uint256",
          "name": "tokenId",
          "type": "uint256"
        }
      ],
      "name": "approve",
      "outputs": [],
      "stateMutability": "nonpayable",
      "type": "function"
    },
    {
      "inputs": [
        {
          "internalType": "address",
          "name": "owner",
          "type": "address"
        }
      ],
      "name": "balanceOf",
      "outputs": [
        {
          "internalType": "uint256",
          "name": "",
          "type": "uint256"
        }
      ],
      "stateMutability": "view",
      "type": "function"
    },
    {
      "inputs": [
        {
          "internalType": "uint256",
          "name": "tokenId",
          "type": "uint256"
        }
      ],
      "name": "burn",
      "outputs": [],
      "stateMutability": "nonpayable",
      "type": "function"
    },
    {
      "inputs": [
        {
          "internalType": "uint256",
          "name": "tokenId",
          "type": "uint256"
        }
      ],
      "name": "getApproved",
      "outputs": [
        {
          "internalType": "address",
          "name": "",
          "type": "address"
        }
      ],
      "stateMutability": "view",
      "type": "function"
    },
    {
      "inputs": [
        {
          "internalType": "address",
          "name": "owner",
          "type": "address"
        },
        {
          "internalType": "address",
          "name": "operator",
          "type": "address"
        }
      ],
      "name": "isApprovedForAll",
      "outputs": [
        {
          "internalType": "bool",
          "name": "",
          "type": "bool"
        }
      ],
      "stateMutability": "view",
      "type": "function"
    },
    {
      "inputs": [],
      "name": "name",
      "outputs": [
        {
          "internalType": "string",
          "name": "",
          "type": "string"
        }
      ],
      "stateMutability": "view",
      "type": "function"
    },
    {
      "inputs": [],
      "name": "owner",
      "outputs": [
        {
          "internalType": "address",
          "name": "",
          "type": "address"
        }
      ],
      "stateMutability": "view",
      "type": "function"
    },
    {
      "inputs": [
        {
          "internalType": "uint256",
          "name": "tokenId",
          "type": "uint256"
        }
      ],
      "name": "ownerOf",
      "outputs": [
        {
          "internalType": "address",
          "name": "",
          "type": "address"
        }
      ],
      "stateMutability": "view",
      "type": "function"
    },
    {
      "inputs": [],
      "name": "renounceOwnership",
      "outputs": [],
      "stateMutability": "nonpayable",
      "type": "function"
    },
    {
      "inputs": [
        {
          "internalType": "address",
          "name": "from",
          "type": "address"
        },
        {
          "internalType": "address",
          "name": "to",
          "type": "address"
        },
        {
          "internalType": "uint256",
          "name": "tokenId",
          "type": "uint256"
        }
      ],
      "name": "safeTransferFrom",
      "outputs": [],
      "stateMutability": "nonpayable",
      "type": "function"
    },
    {
      "inputs": [
        {
          "internalType": "address",
          "name": "from",
          "type": "address"
        },
        {
          "internalType": "address",
          "name": "to",
          "type": "address"
        },
        {
          "internalType": "uint256",
          "name": "tokenId",
          "type": "uint256"
        },
        {
          "internalType": "bytes",
          "name": "data",
          "type": "bytes"
        }
      ],
      "name": "safeTransferFrom",
      "outputs": [],
      "stateMutability": "nonpayable",
      "type": "function"
    },
    {
      "inputs": [
        {
          "internalType": "address",
          "name": "operator",
          "type": "address"
        },
        {
          "internalType": "bool",
          "name": "approved",
          "type": "bool"
        }
      ],
      "name": "setApprovalForAll",
      "outputs": [],
      "stateMutability": "nonpayable",
      "type": "function"
    },
    {
      "inputs": [],
      "name": "symbol",
      "outputs": [
        {
          "internalType": "string",
          "name": "",
          "type": "string"
        }
      ],
      "stateMutability": "view",
      "type": "function"
    },
    {
      "inputs": [
        {
          "internalType": "address",
          "name": "",
          "type": "address"
        },
        {
          "internalType": "uint256",
          "name": "",
          "type": "uint256"
        }
      ],
      "name": "tokenAddress",
      "outputs": [
        {
          "internalType": "uint256",
          "name": "tokenId",
          "type": "uint256"
        },
        {
          "internalType": "string",
          "name": "tokenName",
          "type": "string"
        },
        {
          "internalType": "address",
          "name": "owner",
          "type": "address"
        },
        {
          "internalType": "uint256",
          "name": "durability",
          "type": "uint256"
        }
      ],
      "stateMutability": "view",
      "type": "function"
    },
    {
      "inputs": [
        {
          "internalType": "uint256",
          "name": "index",
          "type": "uint256"
        }
      ],
      "name": "tokenByIndex",
      "outputs": [
        {
          "internalType": "uint256",
          "name": "",
          "type": "uint256"
        }
      ],
      "stateMutability": "view",
      "type": "function"
    },
    {
      "inputs": [
        {
          "internalType": "string",
          "name": "",
          "type": "string"
        }
      ],
      "name": "tokenExists",
      "outputs": [
        {
          "internalType": "bool",
          "name": "",
          "type": "bool"
        }
      ],
      "stateMutability": "view",
      "type": "function"
    },
    {
      "inputs": [
        {
          "internalType": "address",
          "name": "owner",
          "type": "address"
        },
        {
          "internalType": "uint256",
          "name": "index",
          "type": "uint256"
        }
      ],
      "name": "tokenOfOwnerByIndex",
      "outputs": [
        {
          "internalType": "uint256",
          "name": "",
          "type": "uint256"
        }
      ],
      "stateMutability": "view",
      "type": "function"
    },
    {
      "inputs": [],
      "name": "totalSupply",
      "outputs": [
        {
          "internalType": "uint256",
          "name": "",
          "type": "uint256"
        }
      ],
      "stateMutability": "view",
      "type": "function"
    },
    {
      "inputs": [
        {
          "internalType": "address",
          "name": "from",
          "type": "address"
        },
        {
          "internalType": "address",
          "name": "to",
          "type": "address"
        },
        {
          "internalType": "uint256",
          "name": "tokenId",
          "type": "uint256"
        }
      ],
      "name": "transferFrom",
      "outputs": [],
      "stateMutability": "nonpayable",
      "type": "function"
    },
    {
      "inputs": [
        {
          "internalType": "address",
          "name": "newOwner",
          "type": "address"
        }
      ],
      "name": "transferOwnership",
      "outputs": [],
      "stateMutability": "nonpayable",
      "type": "function"
    },
    {
      "inputs": [
        {
          "internalType": "address",
          "name": "_to",
          "type": "address"
        },
        {
          "internalType": "string",
          "name": "_uri",
          "type": "string"
        },
        {
          "internalType": "string",
          "name": "_tokenName",
          "type": "string"
        },
        {
          "internalType": "uint256",
          "name": "_durability",
          "type": "uint256"
        }
      ],
      "name": "mint",
      "outputs": [],
      "stateMutability": "nonpayable",
      "type": "function"
    },
    {
      "inputs": [
        {
          "internalType": "address",
          "name": "_owner",
          "type": "address"
        }
      ],
      "name": "getTokenIds",
      "outputs": [
        {
          "internalType": "uint256[]",
          "name": "",
          "type": "uint256[]"
        }
      ],
      "stateMutability": "view",
      "type": "function"
    },
    {
      "inputs": [
        {
          "internalType": "uint256",
          "name": "tokenId",
          "type": "uint256"
        }
      ],
      "name": "getDurability",
      "outputs": [
        {
          "internalType": "uint256",
          "name": "",
          "type": "uint256"
        }
      ],
      "stateMutability": "view",
      "type": "function"
    },
    {
      "inputs": [
        {
          "internalType": "uint256",
          "name": "tokenId",
          "type": "uint256"
        },
        {
          "internalType": "uint256",
          "name": "_durability",
          "type": "uint256"
        }
      ],
      "name": "updateDurability",
      "outputs": [],
      "stateMutability": "nonpayable",
      "type": "function"
    },
    {
      "inputs": [
        {
          "internalType": "uint256",
          "name": "tokenId",
          "type": "uint256"
        }
      ],
      "name": "tokenURI",
      "outputs": [
        {
          "internalType": "string",
          "name": "",
          "type": "string"
        }
      ],
      "stateMutability": "view",
      "type": "function"
    },
    {
      "inputs": [
        {
          "internalType": "bytes4",
          "name": "interfaceId",
          "type": "bytes4"
        }
      ],
      "name": "supportsInterface",
      "outputs": [
        {
          "internalType": "bool",
          "name": "",
          "type": "bool"
        }
      ],
      "stateMutability": "view",
      "type": "function"
    }
  ],
  "bytecode": "0x60806040523480156200001157600080fd5b506040516200506738038062005067833981810160405281019062000037919062000269565b6040518060400160405280600b81526020017f506f736569646f6e4e46540000000000000000000000000000000000000000008152506040518060400160405280600481526020017f504e4654000000000000000000000000000000000000000000000000000000008152508160009081620000b4919062000515565b508060019081620000c6919062000515565b505050620000e9620000dd6200013160201b60201c565b6200013960201b60201c565b80600d60006101000a81548173ffffffffffffffffffffffffffffffffffffffff021916908373ffffffffffffffffffffffffffffffffffffffff16021790555050620005fc565b600033905090565b6000600760009054906101000a900473ffffffffffffffffffffffffffffffffffffffff16905081600760006101000a81548173ffffffffffffffffffffffffffffffffffffffff021916908373ffffffffffffffffffffffffffffffffffffffff1602179055508173ffffffffffffffffffffffffffffffffffffffff168173ffffffffffffffffffffffffffffffffffffffff167f8be0079c531659141344cd1fd0a4f28419497f9722a3daafe3b4186f6b6457e060405160405180910390a35050565b600080fd5b600073ffffffffffffffffffffffffffffffffffffffff82169050919050565b6000620002318262000204565b9050919050565b620002438162000224565b81146200024f57600080fd5b50565b600081519050620002638162000238565b92915050565b600060208284031215620002825762000281620001ff565b5b6000620002928482850162000252565b91505092915050565b600081519050919050565b7f4e487b7100000000000000000000000000000000000000000000000000000000600052604160045260246000fd5b7f4e487b7100000000000000000000000000000000000000000000000000000000600052602260045260246000fd5b600060028204905060018216806200031d57607f821691505b602082108103620003335762000332620002d5565b5b50919050565b60008190508160005260206000209050919050565b60006020601f8301049050919050565b600082821b905092915050565b6000600883026200039d7fffffffffffffffffffffffffffffffffffffffffffffffffffffffffffffffff826200035e565b620003a986836200035e565b95508019841693508086168417925050509392505050565b6000819050919050565b6000819050919050565b6000620003f6620003f0620003ea84620003c1565b620003cb565b620003c1565b9050919050565b6000819050919050565b6200041283620003d5565b6200042a6200042182620003fd565b8484546200036b565b825550505050565b600090565b6200044162000432565b6200044e81848462000407565b505050565b5b8181101562000476576200046a60008262000437565b60018101905062000454565b5050565b601f821115620004c5576200048f8162000339565b6200049a846200034e565b81016020851015620004aa578190505b620004c2620004b9856200034e565b83018262000453565b50505b505050565b600082821c905092915050565b6000620004ea60001984600802620004ca565b1980831691505092915050565b6000620005058383620004d7565b9150826002028217905092915050565b62000520826200029b565b67ffffffffffffffff8111156200053c576200053b620002a6565b5b62000548825462000304565b620005558282856200047a565b600060209050601f8311600181146200058d576000841562000578578287015190505b620005848582620004f7565b865550620005f4565b601f1984166200059d8662000339565b60005b82811015620005c757848901518255600182019150602085019450602081019050620005a0565b86831015620005e75784890151620005e3601f891682620004d7565b8355505b6001600288020188555050505b505050505050565b614a5b806200060c6000396000f3fe608060405234801561001057600080fd5b506004361061018e5760003560e01c806370a08231116100de578063b88d4fde11610097578063e985e9c511610071578063e985e9c5146104b9578063e985ed21146104e9578063f2fde38b1461051c578063fea609d2146105385761018e565b8063b88d4fde1461043d578063c87b56dd14610459578063d004b036146104895761018e565b806370a082311461038f578063715018a6146103bf578063853d42ad146103c95780638da5cb5b146103e557806395d89b4114610403578063a22cb465146104215761018e565b80632f745c591161014b5780634f6ccce7116101255780634f6ccce7146102cf578063509d2927146102ff5780636059eae11461032f5780636352211e1461035f5761018e565b80632f745c591461026757806342842e0e1461029757806342966c68146102b35761018e565b806301ffc9a71461019357806306fdde03146101c3578063081812fc146101e1578063095ea7b31461021157806318160ddd1461022d57806323b872dd1461024b575b600080fd5b6101ad60048036038101906101a891906130e8565b610554565b6040516101ba9190613130565b60405180910390f35b6101cb610566565b6040516101d891906131db565b60405180910390f35b6101fb60048036038101906101f69190613233565b6105f8565b60405161020891906132a1565b60405180910390f35b61022b600480360381019061022691906132e8565b61063e565b005b610235610755565b6040516102429190613337565b60405180910390f35b61026560048036038101906102609190613352565b610762565b005b610281600480360381019061027c91906132e8565b6107c2565b60405161028e9190613337565b60405180910390f35b6102b160048036038101906102ac9190613352565b610867565b005b6102cd60048036038101906102c89190613233565b610887565b005b6102e960048036038101906102e49190613233565b6108e3565b6040516102f69190613337565b60405180910390f35b61031960048036038101906103149190613233565b610954565b6040516103269190613337565b60405180910390f35b610349600480360381019061034491906134da565b610be8565b6040516103569190613130565b60405180910390f35b61037960048036038101906103749190613233565b610c1e565b60405161038691906132a1565b60405180910390f35b6103a960048036038101906103a49190613523565b610ca4565b6040516103b69190613337565b60405180910390f35b6103c7610d5b565b005b6103e360048036038101906103de91906135b0565b610d6f565b005b6103ed610f9d565b6040516103fa91906132a1565b60405180910390f35b61040b610fc7565b60405161041891906131db565b60405180910390f35b61043b60048036038101906104369190613680565b611059565b005b61045760048036038101906104529190613761565b61106f565b005b610473600480360381019061046e9190613233565b6110d1565b60405161048091906131db565b60405180910390f35b6104a3600480360381019061049e9190613523565b6110e3565b6040516104b091906138a2565b60405180910390f35b6104d360048036038101906104ce91906138c4565b611193565b6040516104e09190613130565b60405180910390f35b61050360048036038101906104fe91906132e8565b611227565b6040516105139493929190613904565b60405180910390f35b61053660048036038101906105319190613523565b61131c565b005b610552600480360381019061054d9190613950565b61139f565b005b600061055f82611663565b9050919050565b606060008054610575906139bf565b80601f01602080910402602001604051908101604052809291908181526020018280546105a1906139bf565b80156105ee5780601f106105c3576101008083540402835291602001916105ee565b820191906000526020600020905b8154815290600101906020018083116105d157829003601f168201915b5050505050905090565b6000610603826116dd565b6004600083815260200190815260200160002060009054906101000a900473ffffffffffffffffffffffffffffffffffffffff169050919050565b600061064982610c1e565b90508073ffffffffffffffffffffffffffffffffffffffff168373ffffffffffffffffffffffffffffffffffffffff16036106b9576040517f08c379a00000000000000000000000000000000000000000000000000000000081526004016106b090613a62565b60405180910390fd5b8073ffffffffffffffffffffffffffffffffffffffff166106d8611728565b73ffffffffffffffffffffffffffffffffffffffff161480610707575061070681610701611728565b611193565b5b610746576040517f08c379a000000000000000000000000000000000000000000000000000000000815260040161073d90613af4565b60405180910390fd5b6107508383611730565b505050565b6000600a80549050905090565b61077361076d611728565b826117e9565b6107b2576040517f08c379a00000000000000000000000000000000000000000000000000000000081526004016107a990613b86565b60405180910390fd5b6107bd83838361187e565b505050565b60006107cd83610ca4565b821061080e576040517f08c379a000000000000000000000000000000000000000000000000000000000815260040161080590613c18565b60405180910390fd5b600860008473ffffffffffffffffffffffffffffffffffffffff1673ffffffffffffffffffffffffffffffffffffffff168152602001908152602001600020600083815260200190815260200160002054905092915050565b6108828383836040518060200160405280600081525061106f565b505050565b610898610892611728565b826117e9565b6108d7576040517f08c379a00000000000000000000000000000000000000000000000000000000081526004016108ce90613b86565b60405180910390fd5b6108e081611b77565b50565b60006108ed610755565b821061092e576040517f08c379a000000000000000000000000000000000000000000000000000000000815260040161092590613caa565b60405180910390fd5b600a828154811061094257610941613cca565b5b90600052602060002001549050919050565b600061095f82611b83565b61099e576040517f08c379a000000000000000000000000000000000000000000000000000000000815260040161099590613d45565b60405180910390fd5b6000600e60006109ad85610c1e565b73ffffffffffffffffffffffffffffffffffffffff1673ffffffffffffffffffffffffffffffffffffffff168152602001908152602001600020805480602002602001604051908101604052809291908181526020016000905b82821015610b35578382906000526020600020906004020160405180608001604052908160008201548152602001600182018054610a44906139bf565b80601f0160208091040260200160405190810160405280929190818152602001828054610a70906139bf565b8015610abd5780601f10610a9257610100808354040283529160200191610abd565b820191906000526020600020905b815481529060010190602001808311610aa057829003601f168201915b505050505081526020016002820160009054906101000a900473ffffffffffffffffffffffffffffffffffffffff1673ffffffffffffffffffffffffffffffffffffffff1673ffffffffffffffffffffffffffffffffffffffff16815260200160038201548152505081526020019060010190610a07565b50505050905060005b8151811015610ba75783828281518110610b5b57610b5a613cca565b5b60200260200101516000015103610b9457818181518110610b7f57610b7e613cca565b5b60200260200101516060015192505050610be3565b8080610b9f90613d94565b915050610b3e565b506040517f08c379a0000000000000000000000000000000000000000000000000000000008152600401610bda90613e28565b60405180910390fd5b919050565b600f818051602081018201805184825260208301602085012081835280955050505050506000915054906101000a900460ff1681565b600080610c2a83611bc4565b9050600073ffffffffffffffffffffffffffffffffffffffff168173ffffffffffffffffffffffffffffffffffffffff1603610c9b576040517f08c379a0000000000000000000000000000000000000000000000000000000008152600401610c9290613e94565b60405180910390fd5b80915050919050565b60008073ffffffffffffffffffffffffffffffffffffffff168273ffffffffffffffffffffffffffffffffffffffff1603610d14576040517f08c379a0000000000000000000000000000000000000000000000000000000008152600401610d0b90613f26565b60405180910390fd5b600360008373ffffffffffffffffffffffffffffffffffffffff1673ffffffffffffffffffffffffffffffffffffffff168152602001908152602001600020549050919050565b610d63611c01565b610d6d6000611c7f565b565b610d77611c01565b610d81600c611d45565b6000610d8d600c611d5b565b9050610d998682611d69565b610da38186611d87565b610dcf600d60009054906101000a900473ffffffffffffffffffffffffffffffffffffffff1682611730565b600e60008773ffffffffffffffffffffffffffffffffffffffff1673ffffffffffffffffffffffffffffffffffffffff168152602001908152602001600020604051806080016040528083815260200186868080601f016020809104026020016040519081016040528093929190818152602001838380828437600081840152601f19601f8201169050808301925050505050505081526020018873ffffffffffffffffffffffffffffffffffffffff168152602001848152509080600181540180825580915050600190039060005260206000209060040201600090919091909150600082015181600001556020820151816001019081610ed191906140f2565b5060408201518160020160006101000a81548173ffffffffffffffffffffffffffffffffffffffff021916908373ffffffffffffffffffffffffffffffffffffffff1602179055506060820151816003015550506001600f8585604051610f399291906141f4565b908152602001604051809103902060006101000a81548160ff0219169083151502179055507fd9dc24857f317ed9abbbb42e920ede0104231eb1d3d70236a74887ffaf15986881604051610f8d9190613337565b60405180910390a1505050505050565b6000600760009054906101000a900473ffffffffffffffffffffffffffffffffffffffff16905090565b606060018054610fd6906139bf565b80601f0160208091040260200160405190810160405280929190818152602001828054611002906139bf565b801561104f5780601f106110245761010080835404028352916020019161104f565b820191906000526020600020905b81548152906001019060200180831161103257829003601f168201915b5050505050905090565b61106b611064611728565b8383611df4565b5050565b61108061107a611728565b836117e9565b6110bf576040517f08c379a00000000000000000000000000000000000000000000000000000000081526004016110b690613b86565b60405180910390fd5b6110cb84848484611f60565b50505050565b60606110dc82611fbc565b9050919050565b606060006110f083610ca4565b67ffffffffffffffff811115611109576111086133af565b5b6040519080825280602002602001820160405280156111375781602001602082028036833780820191505090505b50905060005b61114684610ca4565b8110156111895761115784826107c2565b82828151811061116a57611169613cca565b5b602002602001018181525050808061118190613d94565b91505061113d565b5080915050919050565b6000600560008473ffffffffffffffffffffffffffffffffffffffff1673ffffffffffffffffffffffffffffffffffffffff16815260200190815260200160002060008373ffffffffffffffffffffffffffffffffffffffff1673ffffffffffffffffffffffffffffffffffffffff16815260200190815260200160002060009054906101000a900460ff16905092915050565b600e602052816000526040600020818154811061124357600080fd5b90600052602060002090600402016000915091505080600001549080600101805461126d906139bf565b80601f0160208091040260200160405190810160405280929190818152602001828054611299906139bf565b80156112e65780601f106112bb576101008083540402835291602001916112e6565b820191906000526020600020905b8154815290600101906020018083116112c957829003601f168201915b5050505050908060020160009054906101000a900473ffffffffffffffffffffffffffffffffffffffff16908060030154905084565b611324611c01565b600073ffffffffffffffffffffffffffffffffffffffff168173ffffffffffffffffffffffffffffffffffffffff1603611393576040517f08c379a000000000000000000000000000000000000000000000000000000000815260040161138a9061427f565b60405180910390fd5b61139c81611c7f565b50565b6113a882611b83565b6113e7576040517f08c379a00000000000000000000000000000000000000000000000000000000081526004016113de90613d45565b60405180910390fd5b6000600e60006113f685610c1e565b73ffffffffffffffffffffffffffffffffffffffff1673ffffffffffffffffffffffffffffffffffffffff168152602001908152602001600020905060005b818054905081101561165d578382828154811061145557611454613cca565b5b9060005260206000209060040201600001540361164a57828282815481106114805761147f613cca565b5b90600052602060002090600402016003018190555060008282815481106114aa576114a9613cca565b5b90600052602060002090600402016003015403611649576114ee8282815481106114d7576114d6613cca565b5b906000526020600020906004020160000154611b77565b8160018380549050611500919061429f565b8154811061151157611510613cca565b5b906000526020600020906004020182828154811061153257611531613cca565b5b9060005260206000209060040201600082015481600001556001820181600101908161155e91906142e9565b506002820160009054906101000a900473ffffffffffffffffffffffffffffffffffffffff168160020160006101000a81548173ffffffffffffffffffffffffffffffffffffffff021916908373ffffffffffffffffffffffffffffffffffffffff16021790555060038201548160030155905050818054806115e4576115e36143d1565b5b6001900381819060005260206000209060040201600080820160009055600182016000611611919061301f565b6002820160006101000a81549073ffffffffffffffffffffffffffffffffffffffff021916905560038201600090555050905561165d565b5b808061165590613d94565b915050611435565b50505050565b60007f780e9d63000000000000000000000000000000000000000000000000000000007bffffffffffffffffffffffffffffffffffffffffffffffffffffffff1916827bffffffffffffffffffffffffffffffffffffffffffffffffffffffff191614806116d657506116d5826120ce565b5b9050919050565b6116e681611b83565b611725576040517f08c379a000000000000000000000000000000000000000000000000000000000815260040161171c90613e94565b60405180910390fd5b50565b600033905090565b816004600083815260200190815260200160002060006101000a81548173ffffffffffffffffffffffffffffffffffffffff021916908373ffffffffffffffffffffffffffffffffffffffff160217905550808273ffffffffffffffffffffffffffffffffffffffff166117a383610c1e565b73ffffffffffffffffffffffffffffffffffffffff167f8c5be1e5ebec7d5bd14f71427d1e84f3dd0314c0f7b2291e5b200ac8c7c3b92560405160405180910390a45050565b6000806117f583610c1e565b90508073ffffffffffffffffffffffffffffffffffffffff168473ffffffffffffffffffffffffffffffffffffffff16148061183757506118368185611193565b5b8061187557508373ffffffffffffffffffffffffffffffffffffffff1661185d846105f8565b73ffffffffffffffffffffffffffffffffffffffff16145b91505092915050565b8273ffffffffffffffffffffffffffffffffffffffff1661189e82610c1e565b73ffffffffffffffffffffffffffffffffffffffff16146118f4576040517f08c379a00000000000000000000000000000000000000000000000000000000081526004016118eb90614472565b60405180910390fd5b600073ffffffffffffffffffffffffffffffffffffffff168273ffffffffffffffffffffffffffffffffffffffff1603611963576040517f08c379a000000000000000000000000000000000000000000000000000000000815260040161195a90614504565b60405180910390fd5b61197083838360016121b0565b8273ffffffffffffffffffffffffffffffffffffffff1661199082610c1e565b73ffffffffffffffffffffffffffffffffffffffff16146119e6576040517f08c379a00000000000000000000000000000000000000000000000000000000081526004016119dd90614472565b60405180910390fd5b6004600082815260200190815260200160002060006101000a81549073ffffffffffffffffffffffffffffffffffffffff02191690556001600360008573ffffffffffffffffffffffffffffffffffffffff1673ffffffffffffffffffffffffffffffffffffffff168152602001908152602001600020600082825403925050819055506001600360008473ffffffffffffffffffffffffffffffffffffffff1673ffffffffffffffffffffffffffffffffffffffff16815260200190815260200160002060008282540192505081905550816002600083815260200190815260200160002060006101000a81548173ffffffffffffffffffffffffffffffffffffffff021916908373ffffffffffffffffffffffffffffffffffffffff160217905550808273ffffffffffffffffffffffffffffffffffffffff168473ffffffffffffffffffffffffffffffffffffffff167fddf252ad1be2c89b69c2b068fc378daa952ba7f163c4a11628f55a4df523b3ef60405160405180910390a4611b7283838360016121c2565b505050565b611b80816121c8565b50565b60008073ffffffffffffffffffffffffffffffffffffffff16611ba583611bc4565b73ffffffffffffffffffffffffffffffffffffffff1614159050919050565b60006002600083815260200190815260200160002060009054906101000a900473ffffffffffffffffffffffffffffffffffffffff169050919050565b611c09611728565b73ffffffffffffffffffffffffffffffffffffffff16611c27610f9d565b73ffffffffffffffffffffffffffffffffffffffff1614611c7d576040517f08c379a0000000000000000000000000000000000000000000000000000000008152600401611c7490614570565b60405180910390fd5b565b6000600760009054906101000a900473ffffffffffffffffffffffffffffffffffffffff16905081600760006101000a81548173ffffffffffffffffffffffffffffffffffffffff021916908373ffffffffffffffffffffffffffffffffffffffff1602179055508173ffffffffffffffffffffffffffffffffffffffff168173ffffffffffffffffffffffffffffffffffffffff167f8be0079c531659141344cd1fd0a4f28419497f9722a3daafe3b4186f6b6457e060405160405180910390a35050565b6001816000016000828254019250508190555050565b600081600001549050919050565b611d8382826040518060200160405280600081525061221b565b5050565b611d9082611b83565b611dcf576040517f08c379a0000000000000000000000000000000000000000000000000000000008152600401611dc690614602565b60405180910390fd5b80600660008481526020019081526020016000209081611def91906140f2565b505050565b8173ffffffffffffffffffffffffffffffffffffffff168373ffffffffffffffffffffffffffffffffffffffff1603611e62576040517f08c379a0000000000000000000000000000000000000000000000000000000008152600401611e599061466e565b60405180910390fd5b80600560008573ffffffffffffffffffffffffffffffffffffffff1673ffffffffffffffffffffffffffffffffffffffff16815260200190815260200160002060008473ffffffffffffffffffffffffffffffffffffffff1673ffffffffffffffffffffffffffffffffffffffff16815260200190815260200160002060006101000a81548160ff0219169083151502179055508173ffffffffffffffffffffffffffffffffffffffff168373ffffffffffffffffffffffffffffffffffffffff167f17307eab39ab6107e8899845ad3d59bd9653f200f220920489ca2b5937696c3183604051611f539190613130565b60405180910390a3505050565b611f6b84848461187e565b611f7784848484612276565b611fb6576040517f08c379a0000000000000000000000000000000000000000000000000000000008152600401611fad90614700565b60405180910390fd5b50505050565b6060611fc7826116dd565b6000600660008481526020019081526020016000208054611fe7906139bf565b80601f0160208091040260200160405190810160405280929190818152602001828054612013906139bf565b80156120605780601f1061203557610100808354040283529160200191612060565b820191906000526020600020905b81548152906001019060200180831161204357829003601f168201915b5050505050905060006120716123fd565b905060008151036120865781925050506120c9565b6000825111156120bb5780826040516020016120a3929190614751565b604051602081830303815290604052925050506120c9565b6120c484612414565b925050505b919050565b60007f80ac58cd000000000000000000000000000000000000000000000000000000007bffffffffffffffffffffffffffffffffffffffffffffffffffffffff1916827bffffffffffffffffffffffffffffffffffffffffffffffffffffffff1916148061219957507f5b5e139f000000000000000000000000000000000000000000000000000000007bffffffffffffffffffffffffffffffffffffffffffffffffffffffff1916827bffffffffffffffffffffffffffffffffffffffffffffffffffffffff1916145b806121a957506121a88261247c565b5b9050919050565b6121bc848484846124e6565b50505050565b50505050565b6121d181612644565b60006006600083815260200190815260200160002080546121f1906139bf565b90501461221857600660008281526020019081526020016000206000612217919061301f565b5b50565b6122258383612792565b6122326000848484612276565b612271576040517f08c379a000000000000000000000000000000000000000000000000000000000815260040161226890614700565b60405180910390fd5b505050565b60006122978473ffffffffffffffffffffffffffffffffffffffff166129af565b156123f0578373ffffffffffffffffffffffffffffffffffffffff1663150b7a026122c0611728565b8786866040518563ffffffff1660e01b81526004016122e294939291906147ca565b6020604051808303816000875af192505050801561231e57506040513d601f19601f8201168201806040525081019061231b919061482b565b60015b6123a0573d806000811461234e576040519150601f19603f3d011682016040523d82523d6000602084013e612353565b606091505b506000815103612398576040517f08c379a000000000000000000000000000000000000000000000000000000000815260040161238f90614700565b60405180910390fd5b805181602001fd5b63150b7a0260e01b7bffffffffffffffffffffffffffffffffffffffffffffffffffffffff1916817bffffffffffffffffffffffffffffffffffffffffffffffffffffffff1916149150506123f5565b600190505b949350505050565b606060405180602001604052806000815250905090565b606061241f826116dd565b60006124296123fd565b905060008151116124495760405180602001604052806000815250612474565b80612453846129d2565b604051602001612464929190614751565b6040516020818303038152906040525b915050919050565b60007f01ffc9a7000000000000000000000000000000000000000000000000000000007bffffffffffffffffffffffffffffffffffffffffffffffffffffffff1916827bffffffffffffffffffffffffffffffffffffffffffffffffffffffff1916149050919050565b6124f284848484612aa0565b6001811115612536576040517f08c379a000000000000000000000000000000000000000000000000000000000815260040161252d906148ca565b60405180910390fd5b6000829050600073ffffffffffffffffffffffffffffffffffffffff168573ffffffffffffffffffffffffffffffffffffffff160361257d5761257881612bc6565b6125bc565b8373ffffffffffffffffffffffffffffffffffffffff168573ffffffffffffffffffffffffffffffffffffffff16146125bb576125ba8582612c0f565b5b5b600073ffffffffffffffffffffffffffffffffffffffff168473ffffffffffffffffffffffffffffffffffffffff16036125fe576125f981612d7c565b61263d565b8473ffffffffffffffffffffffffffffffffffffffff168473ffffffffffffffffffffffffffffffffffffffff161461263c5761263b8482612e4d565b5b5b5050505050565b600061264f82610c1e565b905061265f8160008460016121b0565b61266882610c1e565b90506004600083815260200190815260200160002060006101000a81549073ffffffffffffffffffffffffffffffffffffffff02191690556001600360008373ffffffffffffffffffffffffffffffffffffffff1673ffffffffffffffffffffffffffffffffffffffff168152602001908152602001600020600082825403925050819055506002600083815260200190815260200160002060006101000a81549073ffffffffffffffffffffffffffffffffffffffff021916905581600073ffffffffffffffffffffffffffffffffffffffff168273ffffffffffffffffffffffffffffffffffffffff167fddf252ad1be2c89b69c2b068fc378daa952ba7f163c4a11628f55a4df523b3ef60405160405180910390a461278e8160008460016121c2565b5050565b600073ffffffffffffffffffffffffffffffffffffffff168273ffffffffffffffffffffffffffffffffffffffff1603612801576040517f08c379a00000000000000000000000000000000000000000000000000000000081526004016127f890614936565b60405180910390fd5b61280a81611b83565b1561284a576040517f08c379a0000000000000000000000000000000000000000000000000000000008152600401612841906149a2565b60405180910390fd5b6128586000838360016121b0565b61286181611b83565b156128a1576040517f08c379a0000000000000000000000000000000000000000000000000000000008152600401612898906149a2565b60405180910390fd5b6001600360008473ffffffffffffffffffffffffffffffffffffffff1673ffffffffffffffffffffffffffffffffffffffff16815260200190815260200160002060008282540192505081905550816002600083815260200190815260200160002060006101000a81548173ffffffffffffffffffffffffffffffffffffffff021916908373ffffffffffffffffffffffffffffffffffffffff160217905550808273ffffffffffffffffffffffffffffffffffffffff16600073ffffffffffffffffffffffffffffffffffffffff167fddf252ad1be2c89b69c2b068fc378daa952ba7f163c4a11628f55a4df523b3ef60405160405180910390a46129ab6000838360016121c2565b5050565b6000808273ffffffffffffffffffffffffffffffffffffffff163b119050919050565b6060600060016129e184612ecc565b01905060008167ffffffffffffffff811115612a00576129ff6133af565b5b6040519080825280601f01601f191660200182016040528015612a325781602001600182028036833780820191505090505b509050600082602001820190505b600115612a95578080600190039150507f3031323334353637383961626364656600000000000000000000000000000000600a86061a8153600a8581612a8957612a886149c2565b5b04945060008503612a40575b819350505050919050565b6001811115612bc057600073ffffffffffffffffffffffffffffffffffffffff168473ffffffffffffffffffffffffffffffffffffffff1614612b345780600360008673ffffffffffffffffffffffffffffffffffffffff1673ffffffffffffffffffffffffffffffffffffffff1681526020019081526020016000206000828254612b2c919061429f565b925050819055505b600073ffffffffffffffffffffffffffffffffffffffff168373ffffffffffffffffffffffffffffffffffffffff1614612bbf5780600360008573ffffffffffffffffffffffffffffffffffffffff1673ffffffffffffffffffffffffffffffffffffffff1681526020019081526020016000206000828254612bb791906149f1565b925050819055505b5b50505050565b600a80549050600b600083815260200190815260200160002081905550600a81908060018154018082558091505060019003906000526020600020016000909190919091505550565b60006001612c1c84610ca4565b612c26919061429f565b9050600060096000848152602001908152602001600020549050818114612d0b576000600860008673ffffffffffffffffffffffffffffffffffffffff1673ffffffffffffffffffffffffffffffffffffffff168152602001908152602001600020600084815260200190815260200160002054905080600860008773ffffffffffffffffffffffffffffffffffffffff1673ffffffffffffffffffffffffffffffffffffffff168152602001908152602001600020600084815260200190815260200160002081905550816009600083815260200190815260200160002081905550505b6009600084815260200190815260200160002060009055600860008573ffffffffffffffffffffffffffffffffffffffff1673ffffffffffffffffffffffffffffffffffffffff16815260200190815260200160002060008381526020019081526020016000206000905550505050565b60006001600a80549050612d90919061429f565b90506000600b60008481526020019081526020016000205490506000600a8381548110612dc057612dbf613cca565b5b9060005260206000200154905080600a8381548110612de257612de1613cca565b5b906000526020600020018190555081600b600083815260200190815260200160002081905550600b600085815260200190815260200160002060009055600a805480612e3157612e306143d1565b5b6001900381819060005260206000200160009055905550505050565b6000612e5883610ca4565b905081600860008573ffffffffffffffffffffffffffffffffffffffff1673ffffffffffffffffffffffffffffffffffffffff168152602001908152602001600020600083815260200190815260200160002081905550806009600084815260200190815260200160002081905550505050565b600080600090507a184f03e93ff9f4daa797ed6e38ed64bf6a1f0100000000000000008310612f2a577a184f03e93ff9f4daa797ed6e38ed64bf6a1f0100000000000000008381612f2057612f1f6149c2565b5b0492506040810190505b6d04ee2d6d415b85acef81000000008310612f67576d04ee2d6d415b85acef81000000008381612f5d57612f5c6149c2565b5b0492506020810190505b662386f26fc100008310612f9657662386f26fc100008381612f8c57612f8b6149c2565b5b0492506010810190505b6305f5e1008310612fbf576305f5e1008381612fb557612fb46149c2565b5b0492506008810190505b6127108310612fe4576127108381612fda57612fd96149c2565b5b0492506004810190505b606483106130075760648381612ffd57612ffc6149c2565b5b0492506002810190505b600a8310613016576001810190505b80915050919050565b50805461302b906139bf565b6000825580601f1061303d575061305c565b601f01602090049060005260206000209081019061305b919061305f565b5b50565b5b80821115613078576000816000905550600101613060565b5090565b6000604051905090565b600080fd5b600080fd5b60007fffffffff0000000000000000000000000000000000000000000000000000000082169050919050565b6130c581613090565b81146130d057600080fd5b50565b6000813590506130e2816130bc565b92915050565b6000602082840312156130fe576130fd613086565b5b600061310c848285016130d3565b91505092915050565b60008115159050919050565b61312a81613115565b82525050565b60006020820190506131456000830184613121565b92915050565b600081519050919050565b600082825260208201905092915050565b60005b8381101561318557808201518184015260208101905061316a565b60008484015250505050565b6000601f19601f8301169050919050565b60006131ad8261314b565b6131b78185613156565b93506131c7818560208601613167565b6131d081613191565b840191505092915050565b600060208201905081810360008301526131f581846131a2565b905092915050565b6000819050919050565b613210816131fd565b811461321b57600080fd5b50565b60008135905061322d81613207565b92915050565b60006020828403121561324957613248613086565b5b60006132578482850161321e565b91505092915050565b600073ffffffffffffffffffffffffffffffffffffffff82169050919050565b600061328b82613260565b9050919050565b61329b81613280565b82525050565b60006020820190506132b66000830184613292565b92915050565b6132c581613280565b81146132d057600080fd5b50565b6000813590506132e2816132bc565b92915050565b600080604083850312156132ff576132fe613086565b5b600061330d858286016132d3565b925050602061331e8582860161321e565b9150509250929050565b613331816131fd565b82525050565b600060208201905061334c6000830184613328565b92915050565b60008060006060848603121561336b5761336a613086565b5b6000613379868287016132d3565b935050602061338a868287016132d3565b925050604061339b8682870161321e565b9150509250925092565b600080fd5b600080fd5b7f4e487b7100000000000000000000000000000000000000000000000000000000600052604160045260246000fd5b6133e782613191565b810181811067ffffffffffffffff82111715613406576134056133af565b5b80604052505050565b600061341961307c565b905061342582826133de565b919050565b600067ffffffffffffffff821115613445576134446133af565b5b61344e82613191565b9050602081019050919050565b82818337600083830152505050565b600061347d6134788461342a565b61340f565b905082815260208101848484011115613499576134986133aa565b5b6134a484828561345b565b509392505050565b600082601f8301126134c1576134c06133a5565b5b81356134d184826020860161346a565b91505092915050565b6000602082840312156134f0576134ef613086565b5b600082013567ffffffffffffffff81111561350e5761350d61308b565b5b61351a848285016134ac565b91505092915050565b60006020828403121561353957613538613086565b5b6000613547848285016132d3565b91505092915050565b600080fd5b600080fd5b60008083601f8401126135705761356f6133a5565b5b8235905067ffffffffffffffff81111561358d5761358c613550565b5b6020830191508360018202830111156135a9576135a8613555565b5b9250929050565b6000806000806000608086880312156135cc576135cb613086565b5b60006135da888289016132d3565b955050602086013567ffffffffffffffff8111156135fb576135fa61308b565b5b613607888289016134ac565b945050604086013567ffffffffffffffff8111156136285761362761308b565b5b6136348882890161355a565b935093505060606136478882890161321e565b9150509295509295909350565b61365d81613115565b811461366857600080fd5b50565b60008135905061367a81613654565b92915050565b6000806040838503121561369757613696613086565b5b60006136a5858286016132d3565b92505060206136b68582860161366b565b9150509250929050565b600067ffffffffffffffff8211156136db576136da6133af565b5b6136e482613191565b9050602081019050919050565b60006137046136ff846136c0565b61340f565b9050828152602081018484840111156137205761371f6133aa565b5b61372b84828561345b565b509392505050565b600082601f830112613748576137476133a5565b5b81356137588482602086016136f1565b91505092915050565b6000806000806080858703121561377b5761377a613086565b5b6000613789878288016132d3565b945050602061379a878288016132d3565b93505060406137ab8782880161321e565b925050606085013567ffffffffffffffff8111156137cc576137cb61308b565b5b6137d887828801613733565b91505092959194509250565b600081519050919050565b600082825260208201905092915050565b6000819050602082019050919050565b613819816131fd565b82525050565b600061382b8383613810565b60208301905092915050565b6000602082019050919050565b600061384f826137e4565b61385981856137ef565b935061386483613800565b8060005b8381101561389557815161387c888261381f565b975061388783613837565b925050600181019050613868565b5085935050505092915050565b600060208201905081810360008301526138bc8184613844565b905092915050565b600080604083850312156138db576138da613086565b5b60006138e9858286016132d3565b92505060206138fa858286016132d3565b9150509250929050565b60006080820190506139196000830187613328565b818103602083015261392b81866131a2565b905061393a6040830185613292565b6139476060830184613328565b95945050505050565b6000806040838503121561396757613966613086565b5b60006139758582860161321e565b92505060206139868582860161321e565b9150509250929050565b7f4e487b7100000000000000000000000000000000000000000000000000000000600052602260045260246000fd5b600060028204905060018216806139d757607f821691505b6020821081036139ea576139e9613990565b5b50919050565b7f4552433732313a20617070726f76616c20746f2063757272656e74206f776e6560008201527f7200000000000000000000000000000000000000000000000000000000000000602082015250565b6000613a4c602183613156565b9150613a57826139f0565b604082019050919050565b60006020820190508181036000830152613a7b81613a3f565b9050919050565b7f4552433732313a20617070726f76652063616c6c6572206973206e6f7420746f60008201527f6b656e206f776e6572206f7220617070726f76656420666f7220616c6c000000602082015250565b6000613ade603d83613156565b9150613ae982613a82565b604082019050919050565b60006020820190508181036000830152613b0d81613ad1565b9050919050565b7f4552433732313a2063616c6c6572206973206e6f7420746f6b656e206f776e6560008201527f72206f7220617070726f76656400000000000000000000000000000000000000602082015250565b6000613b70602d83613156565b9150613b7b82613b14565b604082019050919050565b60006020820190508181036000830152613b9f81613b63565b9050919050565b7f455243373231456e756d657261626c653a206f776e657220696e646578206f7560008201527f74206f6620626f756e6473000000000000000000000000000000000000000000602082015250565b6000613c02602b83613156565b9150613c0d82613ba6565b604082019050919050565b60006020820190508181036000830152613c3181613bf5565b9050919050565b7f455243373231456e756d657261626c653a20676c6f62616c20696e646578206f60008201527f7574206f6620626f756e64730000000000000000000000000000000000000000602082015250565b6000613c94602c83613156565b9150613c9f82613c38565b604082019050919050565b60006020820190508181036000830152613cc381613c87565b9050919050565b7f4e487b7100000000000000000000000000000000000000000000000000000000600052603260045260246000fd5b7f546f6b656e20646f6573206e6f74206578697374000000000000000000000000600082015250565b6000613d2f601483613156565b9150613d3a82613cf9565b602082019050919050565b60006020820190508181036000830152613d5e81613d22565b9050919050565b7f4e487b7100000000000000000000000000000000000000000000000000000000600052601160045260246000fd5b6000613d9f826131fd565b91507fffffffffffffffffffffffffffffffffffffffffffffffffffffffffffffffff8203613dd157613dd0613d65565b5b600182019050919050565b7f546f6b656e206e6f7420666f756e640000000000000000000000000000000000600082015250565b6000613e12600f83613156565b9150613e1d82613ddc565b602082019050919050565b60006020820190508181036000830152613e4181613e05565b9050919050565b7f4552433732313a20696e76616c696420746f6b656e2049440000000000000000600082015250565b6000613e7e601883613156565b9150613e8982613e48565b602082019050919050565b60006020820190508181036000830152613ead81613e71565b9050919050565b7f4552433732313a2061646472657373207a65726f206973206e6f74206120766160008201527f6c6964206f776e65720000000000000000000000000000000000000000000000602082015250565b6000613f10602983613156565b9150613f1b82613eb4565b604082019050919050565b60006020820190508181036000830152613f3f81613f03565b9050919050565b60008190508160005260206000209050919050565b60006020601f8301049050919050565b600082821b905092915050565b600060088302613fa87fffffffffffffffffffffffffffffffffffffffffffffffffffffffffffffffff82613f6b565b613fb28683613f6b565b95508019841693508086168417925050509392505050565b6000819050919050565b6000613fef613fea613fe5846131fd565b613fca565b6131fd565b9050919050565b6000819050919050565b61400983613fd4565b61401d61401582613ff6565b848454613f78565b825550505050565b600090565b614032614025565b61403d818484614000565b505050565b5b818110156140615761405660008261402a565b600181019050614043565b5050565b601f8211156140a65761407781613f46565b61408084613f5b565b8101602085101561408f578190505b6140a361409b85613f5b565b830182614042565b50505b505050565b600082821c905092915050565b60006140c9600019846008026140ab565b1980831691505092915050565b60006140e283836140b8565b9150826002028217905092915050565b6140fb8261314b565b67ffffffffffffffff811115614114576141136133af565b5b61411e82546139bf565b614129828285614065565b600060209050601f83116001811461415c576000841561414a578287015190505b61415485826140d6565b8655506141bc565b601f19841661416a86613f46565b60005b828110156141925784890151825560018201915060208501945060208101905061416d565b868310156141af57848901516141ab601f8916826140b8565b8355505b6001600288020188555050505b505050505050565b600081905092915050565b60006141db83856141c4565b93506141e883858461345b565b82840190509392505050565b60006142018284866141cf565b91508190509392505050565b7f4f776e61626c653a206e6577206f776e657220697320746865207a65726f206160008201527f6464726573730000000000000000000000000000000000000000000000000000602082015250565b6000614269602683613156565b91506142748261420d565b604082019050919050565b600060208201905081810360008301526142988161425c565b9050919050565b60006142aa826131fd565b91506142b5836131fd565b92508282039050818111156142cd576142cc613d65565b5b92915050565b6000815490506142e2816139bf565b9050919050565b8181036142f75750506143cf565b614300826142d3565b67ffffffffffffffff811115614319576143186133af565b5b61432382546139bf565b61432e828285614065565b6000601f83116001811461435d576000841561434b578287015490505b61435585826140d6565b8655506143c8565b601f19841661436b87613f46565b965061437686613f46565b60005b8281101561439e57848901548255600182019150600185019450602081019050614379565b868310156143bb57848901546143b7601f8916826140b8565b8355505b6001600288020188555050505b5050505050505b565b7f4e487b7100000000000000000000000000000000000000000000000000000000600052603160045260246000fd5b7f4552433732313a207472616e736665722066726f6d20696e636f72726563742060008201527f6f776e6572000000000000000000000000000000000000000000000000000000602082015250565b600061445c602583613156565b915061446782614400565b604082019050919050565b6000602082019050818103600083015261448b8161444f565b9050919050565b7f4552433732313a207472616e7366657220746f20746865207a65726f2061646460008201527f7265737300000000000000000000000000000000000000000000000000000000602082015250565b60006144ee602483613156565b91506144f982614492565b604082019050919050565b6000602082019050818103600083015261451d816144e1565b9050919050565b7f4f776e61626c653a2063616c6c6572206973206e6f7420746865206f776e6572600082015250565b600061455a602083613156565b915061456582614524565b602082019050919050565b600060208201905081810360008301526145898161454d565b9050919050565b7f45524337323155524953746f726167653a2055524920736574206f66206e6f6e60008201527f6578697374656e7420746f6b656e000000000000000000000000000000000000602082015250565b60006145ec602e83613156565b91506145f782614590565b604082019050919050565b6000602082019050818103600083015261461b816145df565b9050919050565b7f4552433732313a20617070726f766520746f2063616c6c657200000000000000600082015250565b6000614658601983613156565b915061466382614622565b602082019050919050565b600060208201905081810360008301526146878161464b565b9050919050565b7f4552433732313a207472616e7366657220746f206e6f6e20455243373231526560008201527f63656976657220696d706c656d656e7465720000000000000000000000000000602082015250565b60006146ea603283613156565b91506146f58261468e565b604082019050919050565b60006020820190508181036000830152614719816146dd565b9050919050565b600061472b8261314b565b61473581856141c4565b9350614745818560208601613167565b80840191505092915050565b600061475d8285614720565b91506147698284614720565b91508190509392505050565b600081519050919050565b600082825260208201905092915050565b600061479c82614775565b6147a68185614780565b93506147b6818560208601613167565b6147bf81613191565b840191505092915050565b60006080820190506147df6000830187613292565b6147ec6020830186613292565b6147f96040830185613328565b818103606083015261480b8184614791565b905095945050505050565b600081519050614825816130bc565b92915050565b60006020828403121561484157614840613086565b5b600061484f84828501614816565b91505092915050565b7f455243373231456e756d657261626c653a20636f6e736563757469766520747260008201527f616e7366657273206e6f7420737570706f727465640000000000000000000000602082015250565b60006148b4603583613156565b91506148bf82614858565b604082019050919050565b600060208201905081810360008301526148e3816148a7565b9050919050565b7f4552433732313a206d696e7420746f20746865207a65726f2061646472657373600082015250565b6000614920602083613156565b915061492b826148ea565b602082019050919050565b6000602082019050818103600083015261494f81614913565b9050919050565b7f4552433732313a20746f6b656e20616c7265616479206d696e74656400000000600082015250565b600061498c601c83613156565b915061499782614956565b602082019050919050565b600060208201905081810360008301526149bb8161497f565b9050919050565b7f4e487b7100000000000000000000000000000000000000000000000000000000600052601260045260246000fd5b60006149fc826131fd565b9150614a07836131fd565b9250828201905080821115614a1f57614a1e613d65565b5b9291505056fea2646970667358221220fbd1a30940de88553ba702a0980981beb69a3489b520e8770d30fc369388a30b64736f6c63430008120033",
  "immutableReferences": {},
  "source": "// SPDX-License-Identifier: MIT\r\npragma solidity ^0.8.9;\r\n\r\nimport \"@openzeppelin/contracts/token/ERC721/ERC721.sol\";\r\nimport \"@openzeppelin/contracts/token/ERC721/extensions/ERC721URIStorage.sol\";\r\nimport \"@openzeppelin/contracts/token/ERC721/extensions/ERC721Burnable.sol\";\r\nimport \"@openzeppelin/contracts/access/Ownable.sol\";\r\nimport \"@openzeppelin/contracts/utils/Counters.sol\";\r\nimport \"@openzeppelin/contracts/token/ERC721/extensions/ERC721Enumerable.sol\";\r\n\r\ncontract PoseidonNFT is ERC721, ERC721URIStorage, ERC721Burnable, Ownable, ERC721Enumerable {\r\n    using Counters for Counters.Counter;\r\n    Counters.Counter private _tokenIdCounter;\r\n    address marketContract;\r\n    event NFTMinted(uint256);\r\n\r\n    struct NFT {\r\n        uint tokenId;\r\n        string tokenName;\r\n        address owner;\r\n        uint256 durability;\r\n    }\r\n\r\n    mapping(address => NFT[]) public tokenAddress;\r\n    mapping(string => bool) public tokenExists;\r\n\r\n    constructor(address _marketContract) ERC721(\"PoseidonNFT\", \"PNFT\") {\r\n        marketContract = _marketContract;\r\n    }\r\n\r\n    function mint(\r\n        address _to,\r\n        string memory _uri,\r\n        string calldata _tokenName,\r\n        uint256 _durability\r\n    ) public onlyOwner {\r\n        //require(!tokenExists[_tokenName], \"Token already exists!\");\r\n        _tokenIdCounter.increment();\r\n        uint256 tokenId = _tokenIdCounter.current();\r\n\r\n        _safeMint(_to, tokenId);\r\n        _setTokenURI(tokenId, _uri);\r\n        _approve(marketContract, tokenId);\r\n\r\n        tokenAddress[_to].push(NFT(tokenId, _tokenName, _to, _durability));\r\n        tokenExists[_tokenName] = true;\r\n        emit NFTMinted(tokenId);\r\n    }\r\n\r\n    function getTokenIds(address _owner) public view returns (uint[] memory) {\r\n        uint[] memory _tokensOfOwner = new uint[](ERC721.balanceOf(_owner));\r\n\r\n        for (uint i = 0; i < ERC721.balanceOf(_owner); i++){\r\n            _tokensOfOwner[i] = ERC721Enumerable.tokenOfOwnerByIndex(_owner, i);\r\n        }\r\n        return (_tokensOfOwner);\r\n    }\r\n\r\n    function getDurability(uint256 tokenId) public view returns (uint256) {\r\n        require(_exists(tokenId), \"Token does not exist\");\r\n        NFT[] memory tokens = tokenAddress[ownerOf(tokenId)];\r\n        for (uint i = 0; i < tokens.length; i++) {\r\n            if (tokens[i].tokenId == tokenId) {\r\n                return tokens[i].durability;\r\n            }\r\n        }\r\n        revert(\"Token not found\");\r\n    }\r\n\r\n    function updateDurability(uint256 tokenId, uint256 _durability) public {\r\n        require(_exists(tokenId), \"Token does not exist\");\r\n        NFT[] storage tokens = tokenAddress[ownerOf(tokenId)];\r\n        for (uint i = 0; i < tokens.length; i++) {\r\n            if (tokens[i].tokenId == tokenId) {\r\n                tokens[i].durability = _durability;\r\n                if (tokens[i].durability == 0) {\r\n                    _burn(tokens[i].tokenId);\r\n                    tokens[i] = tokens[tokens.length - 1];\r\n                    tokens.pop();\r\n                    break;\r\n                }\r\n            }\r\n        }\r\n    }\r\n\r\n    // The following functions are overrides required by Solidity.\r\n\r\n    function _burn(\r\n        uint256 tokenId\r\n    ) internal override(ERC721, ERC721URIStorage) {\r\n        super._burn(tokenId);\r\n    }\r\n\r\n    function tokenURI(\r\n        uint256 tokenId\r\n    ) public view override(ERC721, ERC721URIStorage) returns (string memory) {\r\n        return super.tokenURI(tokenId);\r\n    }\r\n\r\n    function _beforeTokenTransfer(address from, address to, uint256 tokenId, uint256 batchSize)\r\n        internal\r\n        override(ERC721, ERC721Enumerable)\r\n    {\r\n        super._beforeTokenTransfer(from, to, tokenId, batchSize);\r\n    }\r\n\r\n    function supportsInterface(bytes4 interfaceId)\r\n        public\r\n        view\r\n        override(ERC721, ERC721Enumerable)\r\n        returns (bool)\r\n    {\r\n        return super.supportsInterface(interfaceId);\r\n    }\r\n}\r\n",
  "sourcePath": "C:\\Users\\muizy\\Desktop\\blockchain\\contracts\\PoseidonNFT.sol",
  "compiler": {
    "name": "solc",
    "version": "0.8.18+commit.87f61d96.Emscripten.clang"
  },
  "schemaVersion": "3.4.11",
  "updatedAt": "2023-05-24T12:12:50.220Z",
  "devdoc": {
    "events": {
      "Approval(address,address,uint256)": {
        "details": "Emitted when `owner` enables `approved` to manage the `tokenId` token."
      },
      "ApprovalForAll(address,address,bool)": {
        "details": "Emitted when `owner` enables or disables (`approved`) `operator` to manage all of its assets."
      },
      "Transfer(address,address,uint256)": {
        "details": "Emitted when `tokenId` token is transferred from `from` to `to`."
      }
    },
    "kind": "dev",
    "methods": {
      "approve(address,uint256)": {
        "details": "See {IERC721-approve}."
      },
      "balanceOf(address)": {
        "details": "See {IERC721-balanceOf}."
      },
      "burn(uint256)": {
        "details": "Burns `tokenId`. See {ERC721-_burn}. Requirements: - The caller must own `tokenId` or be an approved operator."
      },
      "getApproved(uint256)": {
        "details": "See {IERC721-getApproved}."
      },
      "isApprovedForAll(address,address)": {
        "details": "See {IERC721-isApprovedForAll}."
      },
      "name()": {
        "details": "See {IERC721Metadata-name}."
      },
      "owner()": {
        "details": "Returns the address of the current owner."
      },
      "ownerOf(uint256)": {
        "details": "See {IERC721-ownerOf}."
      },
      "renounceOwnership()": {
        "details": "Leaves the contract without owner. It will not be possible to call `onlyOwner` functions anymore. Can only be called by the current owner. NOTE: Renouncing ownership will leave the contract without an owner, thereby removing any functionality that is only available to the owner."
      },
      "safeTransferFrom(address,address,uint256)": {
        "details": "See {IERC721-safeTransferFrom}."
      },
      "safeTransferFrom(address,address,uint256,bytes)": {
        "details": "See {IERC721-safeTransferFrom}."
      },
      "setApprovalForAll(address,bool)": {
        "details": "See {IERC721-setApprovalForAll}."
      },
      "symbol()": {
        "details": "See {IERC721Metadata-symbol}."
      },
      "tokenByIndex(uint256)": {
        "details": "See {IERC721Enumerable-tokenByIndex}."
      },
      "tokenOfOwnerByIndex(address,uint256)": {
        "details": "See {IERC721Enumerable-tokenOfOwnerByIndex}."
      },
      "totalSupply()": {
        "details": "See {IERC721Enumerable-totalSupply}."
      },
      "transferFrom(address,address,uint256)": {
        "details": "See {IERC721-transferFrom}."
      },
      "transferOwnership(address)": {
        "details": "Transfers ownership of the contract to a new account (`newOwner`). Can only be called by the current owner."
      }
    },
    "version": 1
  },
  "userdoc": {
    "kind": "user",
    "methods": {},
    "version": 1
  }
}