{
  "contractName": "PoseidonToken",
  "abi": [
    {
      "inputs": [
        {
          "internalType": "address",
          "name": "_market",
          "type": "address"
        }
      ],
      "stateMutability": "nonpayable",
      "type": "constructor"
    },
    {
      "anonymous": false,
      "inputs": [
        {
          "indexed": true,
          "internalType": "address",
          "name": "owner",
          "type": "address"
        },
        {
          "indexed": true,
          "internalType": "address",
          "name": "spender",
          "type": "address"
        },
        {
          "indexed": false,
          "internalType": "uint256",
          "name": "value",
          "type": "uint256"
        }
      ],
      "name": "Approval",
      "type": "event"
    },
    {
      "anonymous": false,
      "inputs": [
        {
          "indexed": true,
          "internalType": "bytes32",
          "name": "role",
          "type": "bytes32"
        },
        {
          "indexed": true,
          "internalType": "bytes32",
          "name": "previousAdminRole",
          "type": "bytes32"
        },
        {
          "indexed": true,
          "internalType": "bytes32",
          "name": "newAdminRole",
          "type": "bytes32"
        }
      ],
      "name": "RoleAdminChanged",
      "type": "event"
    },
    {
      "anonymous": false,
      "inputs": [
        {
          "indexed": true,
          "internalType": "bytes32",
          "name": "role",
          "type": "bytes32"
        },
        {
          "indexed": true,
          "internalType": "address",
          "name": "account",
          "type": "address"
        },
        {
          "indexed": true,
          "internalType": "address",
          "name": "sender",
          "type": "address"
        }
      ],
      "name": "RoleGranted",
      "type": "event"
    },
    {
      "anonymous": false,
      "inputs": [
        {
          "indexed": true,
          "internalType": "bytes32",
          "name": "role",
          "type": "bytes32"
        },
        {
          "indexed": true,
          "internalType": "address",
          "name": "account",
          "type": "address"
        },
        {
          "indexed": true,
          "internalType": "address",
          "name": "sender",
          "type": "address"
        }
      ],
      "name": "RoleRevoked",
      "type": "event"
    },
    {
      "anonymous": false,
      "inputs": [
        {
          "indexed": true,
          "internalType": "address",
          "name": "from",
          "type": "address"
        },
        {
          "indexed": true,
          "internalType": "address",
          "name": "to",
          "type": "address"
        },
        {
          "indexed": false,
          "internalType": "uint256",
          "name": "value",
          "type": "uint256"
        }
      ],
      "name": "Transfer",
      "type": "event"
    },
    {
      "inputs": [],
      "name": "BURNER_ROLE",
      "outputs": [
        {
          "internalType": "bytes32",
          "name": "",
          "type": "bytes32"
        }
      ],
      "stateMutability": "view",
      "type": "function"
    },
    {
      "inputs": [],
      "name": "DEFAULT_ADMIN_ROLE",
      "outputs": [
        {
          "internalType": "bytes32",
          "name": "",
          "type": "bytes32"
        }
      ],
      "stateMutability": "view",
      "type": "function"
    },
    {
      "inputs": [],
      "name": "MARKET_ROLE",
      "outputs": [
        {
          "internalType": "bytes32",
          "name": "",
          "type": "bytes32"
        }
      ],
      "stateMutability": "view",
      "type": "function"
    },
    {
      "inputs": [],
      "name": "MINTER_ROLE",
      "outputs": [
        {
          "internalType": "bytes32",
          "name": "",
          "type": "bytes32"
        }
      ],
      "stateMutability": "view",
      "type": "function"
    },
    {
      "inputs": [
        {
          "internalType": "address",
          "name": "owner",
          "type": "address"
        },
        {
          "internalType": "address",
          "name": "spender",
          "type": "address"
        }
      ],
      "name": "allowance",
      "outputs": [
        {
          "internalType": "uint256",
          "name": "",
          "type": "uint256"
        }
      ],
      "stateMutability": "view",
      "type": "function"
    },
    {
      "inputs": [
        {
          "internalType": "address",
          "name": "spender",
          "type": "address"
        },
        {
          "internalType": "uint256",
          "name": "amount",
          "type": "uint256"
        }
      ],
      "name": "approve",
      "outputs": [
        {
          "internalType": "bool",
          "name": "",
          "type": "bool"
        }
      ],
      "stateMutability": "nonpayable",
      "type": "function"
    },
    {
      "inputs": [
        {
          "internalType": "address",
          "name": "account",
          "type": "address"
        }
      ],
      "name": "balanceOf",
      "outputs": [
        {
          "internalType": "uint256",
          "name": "",
          "type": "uint256"
        }
      ],
      "stateMutability": "view",
      "type": "function"
    },
    {
      "inputs": [
        {
          "internalType": "uint256",
          "name": "amount",
          "type": "uint256"
        }
      ],
      "name": "burn",
      "outputs": [],
      "stateMutability": "nonpayable",
      "type": "function"
    },
    {
      "inputs": [
        {
          "internalType": "address",
          "name": "account",
          "type": "address"
        },
        {
          "internalType": "uint256",
          "name": "amount",
          "type": "uint256"
        }
      ],
      "name": "burnFrom",
      "outputs": [],
      "stateMutability": "nonpayable",
      "type": "function"
    },
    {
      "inputs": [],
      "name": "decimals",
      "outputs": [
        {
          "internalType": "uint8",
          "name": "",
          "type": "uint8"
        }
      ],
      "stateMutability": "view",
      "type": "function"
    },
    {
      "inputs": [
        {
          "internalType": "address",
          "name": "spender",
          "type": "address"
        },
        {
          "internalType": "uint256",
          "name": "subtractedValue",
          "type": "uint256"
        }
      ],
      "name": "decreaseAllowance",
      "outputs": [
        {
          "internalType": "bool",
          "name": "",
          "type": "bool"
        }
      ],
      "stateMutability": "nonpayable",
      "type": "function"
    },
    {
      "inputs": [
        {
          "internalType": "bytes32",
          "name": "role",
          "type": "bytes32"
        }
      ],
      "name": "getRoleAdmin",
      "outputs": [
        {
          "internalType": "bytes32",
          "name": "",
          "type": "bytes32"
        }
      ],
      "stateMutability": "view",
      "type": "function"
    },
    {
      "inputs": [
        {
          "internalType": "bytes32",
          "name": "role",
          "type": "bytes32"
        },
        {
          "internalType": "address",
          "name": "account",
          "type": "address"
        }
      ],
      "name": "grantRole",
      "outputs": [],
      "stateMutability": "nonpayable",
      "type": "function"
    },
    {
      "inputs": [
        {
          "internalType": "bytes32",
          "name": "role",
          "type": "bytes32"
        },
        {
          "internalType": "address",
          "name": "account",
          "type": "address"
        }
      ],
      "name": "hasRole",
      "outputs": [
        {
          "internalType": "bool",
          "name": "",
          "type": "bool"
        }
      ],
      "stateMutability": "view",
      "type": "function"
    },
    {
      "inputs": [
        {
          "internalType": "address",
          "name": "spender",
          "type": "address"
        },
        {
          "internalType": "uint256",
          "name": "addedValue",
          "type": "uint256"
        }
      ],
      "name": "increaseAllowance",
      "outputs": [
        {
          "internalType": "bool",
          "name": "",
          "type": "bool"
        }
      ],
      "stateMutability": "nonpayable",
      "type": "function"
    },
    {
      "inputs": [],
      "name": "name",
      "outputs": [
        {
          "internalType": "string",
          "name": "",
          "type": "string"
        }
      ],
      "stateMutability": "view",
      "type": "function"
    },
    {
      "inputs": [
        {
          "internalType": "bytes32",
          "name": "role",
          "type": "bytes32"
        },
        {
          "internalType": "address",
          "name": "account",
          "type": "address"
        }
      ],
      "name": "renounceRole",
      "outputs": [],
      "stateMutability": "nonpayable",
      "type": "function"
    },
    {
      "inputs": [
        {
          "internalType": "bytes32",
          "name": "role",
          "type": "bytes32"
        },
        {
          "internalType": "address",
          "name": "account",
          "type": "address"
        }
      ],
      "name": "revokeRole",
      "outputs": [],
      "stateMutability": "nonpayable",
      "type": "function"
    },
    {
      "inputs": [
        {
          "internalType": "bytes4",
          "name": "interfaceId",
          "type": "bytes4"
        }
      ],
      "name": "supportsInterface",
      "outputs": [
        {
          "internalType": "bool",
          "name": "",
          "type": "bool"
        }
      ],
      "stateMutability": "view",
      "type": "function"
    },
    {
      "inputs": [],
      "name": "symbol",
      "outputs": [
        {
          "internalType": "string",
          "name": "",
          "type": "string"
        }
      ],
      "stateMutability": "view",
      "type": "function"
    },
    {
      "inputs": [],
      "name": "totalSupply",
      "outputs": [
        {
          "internalType": "uint256",
          "name": "",
          "type": "uint256"
        }
      ],
      "stateMutability": "view",
      "type": "function"
    },
    {
      "inputs": [
        {
          "internalType": "address",
          "name": "to",
          "type": "address"
        },
        {
          "internalType": "uint256",
          "name": "amount",
          "type": "uint256"
        }
      ],
      "name": "transfer",
      "outputs": [
        {
          "internalType": "bool",
          "name": "",
          "type": "bool"
        }
      ],
      "stateMutability": "nonpayable",
      "type": "function"
    },
    {
      "inputs": [
        {
          "internalType": "address",
          "name": "from",
          "type": "address"
        },
        {
          "internalType": "address",
          "name": "to",
          "type": "address"
        },
        {
          "internalType": "uint256",
          "name": "amount",
          "type": "uint256"
        }
      ],
      "name": "transferFrom",
      "outputs": [
        {
          "internalType": "bool",
          "name": "",
          "type": "bool"
        }
      ],
      "stateMutability": "nonpayable",
      "type": "function"
    },
    {
      "inputs": [
        {
          "internalType": "address",
          "name": "_to",
          "type": "address"
        },
        {
          "internalType": "uint256",
          "name": "_amount",
          "type": "uint256"
        }
      ],
      "name": "mint",
      "outputs": [],
      "stateMutability": "nonpayable",
      "type": "function"
    },
    {
      "inputs": [
        {
          "internalType": "address",
          "name": "_owner",
          "type": "address"
        },
        {
          "internalType": "address",
          "name": "_spender",
          "type": "address"
        },
        {
          "internalType": "uint256",
          "name": "_amount",
          "type": "uint256"
        }
      ],
      "name": "approveMarket",
      "outputs": [
        {
          "internalType": "bool",
          "name": "",
          "type": "bool"
        }
      ],
      "stateMutability": "nonpayable",
      "type": "function"
    }
  ],
  "bytecode": "0x60806040523480156200001157600080fd5b50604051620031bf380380620031bf8339818101604052810190620000379190620004f8565b6040518060400160405280600d81526020017f506f736569646f6e546f6b656e000000000000000000000000000000000000008152506040518060400160405280600381526020017f50534400000000000000000000000000000000000000000000000000000000008152508160039081620000b49190620007a4565b508060049081620000c69190620007a4565b505050620000fb7f9f2df0fed2c77648de5860a4cc508cd0818c85b8b8a1ab4ceeef8d981c8956a633620001a960201b60201c565b6200012d7f3c11d16cbaffd01df69ce1c404f6340ee057498f5f00246190ea54220576a84833620001a960201b60201c565b6200015f7f395f08be531c0d7403cba7c5ffd2b57329184452bcebcd6a48299ebbbf39db6f82620001a960201b60201c565b620001a233620001746200029b60201b60201c565b600a62000182919062000a1b565b66038d7ea4c6800062000196919062000a6c565b620002a460201b60201c565b5062000ba3565b620001bb82826200041160201b60201c565b620002975760016005600084815260200190815260200160002060000160008373ffffffffffffffffffffffffffffffffffffffff1673ffffffffffffffffffffffffffffffffffffffff16815260200190815260200160002060006101000a81548160ff0219169083151502179055506200023c6200047c60201b60201c565b73ffffffffffffffffffffffffffffffffffffffff168173ffffffffffffffffffffffffffffffffffffffff16837f2f8788117e7eff1d82e926ec794901d17c78024a50270940304540a733656f0d60405160405180910390a45b5050565b60006012905090565b600073ffffffffffffffffffffffffffffffffffffffff168273ffffffffffffffffffffffffffffffffffffffff160362000316576040517f08c379a00000000000000000000000000000000000000000000000000000000081526004016200030d9062000b18565b60405180910390fd5b6200032a600083836200048460201b60201c565b80600260008282546200033e919062000b3a565b92505081905550806000808473ffffffffffffffffffffffffffffffffffffffff1673ffffffffffffffffffffffffffffffffffffffff168152602001908152602001600020600082825401925050819055508173ffffffffffffffffffffffffffffffffffffffff16600073ffffffffffffffffffffffffffffffffffffffff167fddf252ad1be2c89b69c2b068fc378daa952ba7f163c4a11628f55a4df523b3ef83604051620003f1919062000b86565b60405180910390a36200040d600083836200048960201b60201c565b5050565b60006005600084815260200190815260200160002060000160008373ffffffffffffffffffffffffffffffffffffffff1673ffffffffffffffffffffffffffffffffffffffff16815260200190815260200160002060009054906101000a900460ff16905092915050565b600033905090565b505050565b505050565b600080fd5b600073ffffffffffffffffffffffffffffffffffffffff82169050919050565b6000620004c08262000493565b9050919050565b620004d281620004b3565b8114620004de57600080fd5b50565b600081519050620004f281620004c7565b92915050565b6000602082840312156200051157620005106200048e565b5b60006200052184828501620004e1565b91505092915050565b600081519050919050565b7f4e487b7100000000000000000000000000000000000000000000000000000000600052604160045260246000fd5b7f4e487b7100000000000000000000000000000000000000000000000000000000600052602260045260246000fd5b60006002820490506001821680620005ac57607f821691505b602082108103620005c257620005c162000564565b5b50919050565b60008190508160005260206000209050919050565b60006020601f8301049050919050565b600082821b905092915050565b6000600883026200062c7fffffffffffffffffffffffffffffffffffffffffffffffffffffffffffffffff82620005ed565b620006388683620005ed565b95508019841693508086168417925050509392505050565b6000819050919050565b6000819050919050565b6000620006856200067f620006798462000650565b6200065a565b62000650565b9050919050565b6000819050919050565b620006a18362000664565b620006b9620006b0826200068c565b848454620005fa565b825550505050565b600090565b620006d0620006c1565b620006dd81848462000696565b505050565b5b818110156200070557620006f9600082620006c6565b600181019050620006e3565b5050565b601f82111562000754576200071e81620005c8565b6200072984620005dd565b8101602085101562000739578190505b620007516200074885620005dd565b830182620006e2565b50505b505050565b600082821c905092915050565b6000620007796000198460080262000759565b1980831691505092915050565b600062000794838362000766565b9150826002028217905092915050565b620007af826200052a565b67ffffffffffffffff811115620007cb57620007ca62000535565b5b620007d7825462000593565b620007e482828562000709565b600060209050601f8311600181146200081c576000841562000807578287015190505b62000813858262000786565b86555062000883565b601f1984166200082c86620005c8565b60005b8281101562000856578489015182556001820191506020850194506020810190506200082f565b8683101562000876578489015162000872601f89168262000766565b8355505b6001600288020188555050505b505050505050565b7f4e487b7100000000000000000000000000000000000000000000000000000000600052601160045260246000fd5b60008160011c9050919050565b6000808291508390505b60018511156200091957808604811115620008f157620008f06200088b565b5b6001851615620009015780820291505b80810290506200091185620008ba565b9450620008d1565b94509492505050565b60008262000934576001905062000a07565b8162000944576000905062000a07565b81600181146200095d576002811462000968576200099e565b600191505062000a07565b60ff8411156200097d576200097c6200088b565b5b8360020a9150848211156200099757620009966200088b565b5b5062000a07565b5060208310610133831016604e8410600b8410161715620009d85782820a905083811115620009d257620009d16200088b565b5b62000a07565b620009e78484846001620008c7565b9250905081840481111562000a015762000a006200088b565b5b81810290505b9392505050565b600060ff82169050919050565b600062000a288262000650565b915062000a358362000a0e565b925062000a647fffffffffffffffffffffffffffffffffffffffffffffffffffffffffffffffff848462000922565b905092915050565b600062000a798262000650565b915062000a868362000650565b925082820262000a968162000650565b9150828204841483151762000ab05762000aaf6200088b565b5b5092915050565b600082825260208201905092915050565b7f45524332303a206d696e7420746f20746865207a65726f206164647265737300600082015250565b600062000b00601f8362000ab7565b915062000b0d8262000ac8565b602082019050919050565b6000602082019050818103600083015262000b338162000af1565b9050919050565b600062000b478262000650565b915062000b548362000650565b925082820190508082111562000b6f5762000b6e6200088b565b5b92915050565b62000b808162000650565b82525050565b600060208201905062000b9d600083018462000b75565b92915050565b61260c8062000bb36000396000f3fe608060405234801561001057600080fd5b50600436106101735760003560e01c806340c10f19116100de578063a1513e4c11610097578063a9059cbb11610071578063a9059cbb14610486578063d5391393146104b6578063d547741f146104d4578063dd62ed3e146104f057610173565b8063a1513e4c14610408578063a217fddf14610438578063a457c2d71461045657610173565b806340c10f191461033657806342966c681461035257806370a082311461036e57806379cc67901461039e57806391d14854146103ba57806395d89b41146103ea57610173565b8063282c51f311610130578063282c51f3146102745780632f2ff15d14610292578063313ce567146102ae57806336568abe146102cc57806339509351146102e85780633e27ec9b1461031857610173565b806301ffc9a71461017857806306fdde03146101a8578063095ea7b3146101c657806318160ddd146101f657806323b872dd14610214578063248a9ca314610244575b600080fd5b610192600480360381019061018d91906118d2565b610520565b60405161019f919061191a565b60405180910390f35b6101b061059a565b6040516101bd91906119c5565b60405180910390f35b6101e060048036038101906101db9190611a7b565b61062c565b6040516101ed919061191a565b60405180910390f35b6101fe61064f565b60405161020b9190611aca565b60405180910390f35b61022e60048036038101906102299190611ae5565b610659565b60405161023b919061191a565b60405180910390f35b61025e60048036038101906102599190611b6e565b610688565b60405161026b9190611baa565b60405180910390f35b61027c6106a8565b6040516102899190611baa565b60405180910390f35b6102ac60048036038101906102a79190611bc5565b6106cc565b005b6102b66106ed565b6040516102c39190611c21565b60405180910390f35b6102e660048036038101906102e19190611bc5565b6106f6565b005b61030260048036038101906102fd9190611a7b565b610779565b60405161030f919061191a565b60405180910390f35b6103206107b0565b60405161032d9190611baa565b60405180910390f35b610350600480360381019061034b9190611a7b565b6107d4565b005b61036c60048036038101906103679190611c3c565b61080d565b005b61038860048036038101906103839190611c69565b610821565b6040516103959190611aca565b60405180910390f35b6103b860048036038101906103b39190611a7b565b610869565b005b6103d460048036038101906103cf9190611bc5565b610889565b6040516103e1919061191a565b60405180910390f35b6103f26108f4565b6040516103ff91906119c5565b60405180910390f35b610422600480360381019061041d9190611ae5565b610986565b60405161042f919061191a565b60405180910390f35b6104406109c9565b60405161044d9190611baa565b60405180910390f35b610470600480360381019061046b9190611a7b565b6109d0565b60405161047d919061191a565b60405180910390f35b6104a0600480360381019061049b9190611a7b565b610a47565b6040516104ad919061191a565b60405180910390f35b6104be610a6a565b6040516104cb9190611baa565b60405180910390f35b6104ee60048036038101906104e99190611bc5565b610a8e565b005b61050a60048036038101906105059190611c96565b610aaf565b6040516105179190611aca565b60405180910390f35b60007f7965db0b000000000000000000000000000000000000000000000000000000007bffffffffffffffffffffffffffffffffffffffffffffffffffffffff1916827bffffffffffffffffffffffffffffffffffffffffffffffffffffffff19161480610593575061059282610b36565b5b9050919050565b6060600380546105a990611d05565b80601f01602080910402602001604051908101604052809291908181526020018280546105d590611d05565b80156106225780601f106105f757610100808354040283529160200191610622565b820191906000526020600020905b81548152906001019060200180831161060557829003601f168201915b5050505050905090565b600080610637610ba0565b9050610644818585610ba8565b600191505092915050565b6000600254905090565b600080610664610ba0565b9050610671858285610d71565b61067c858585610dfd565b60019150509392505050565b600060056000838152602001908152602001600020600101549050919050565b7f3c11d16cbaffd01df69ce1c404f6340ee057498f5f00246190ea54220576a84881565b6106d582610688565b6106de81611073565b6106e88383611087565b505050565b60006012905090565b6106fe610ba0565b73ffffffffffffffffffffffffffffffffffffffff168173ffffffffffffffffffffffffffffffffffffffff161461076b576040517f08c379a000000000000000000000000000000000000000000000000000000000815260040161076290611da8565b60405180910390fd5b6107758282611168565b5050565b600080610784610ba0565b90506107a58185856107968589610aaf565b6107a09190611df7565b610ba8565b600191505092915050565b7f395f08be531c0d7403cba7c5ffd2b57329184452bcebcd6a48299ebbbf39db6f81565b7f9f2df0fed2c77648de5860a4cc508cd0818c85b8b8a1ab4ceeef8d981c8956a66107fe81611073565b610808838361124a565b505050565b61081e610818610ba0565b826113a0565b50565b60008060008373ffffffffffffffffffffffffffffffffffffffff1673ffffffffffffffffffffffffffffffffffffffff168152602001908152602001600020549050919050565b61087b82610875610ba0565b83610d71565b61088582826113a0565b5050565b60006005600084815260200190815260200160002060000160008373ffffffffffffffffffffffffffffffffffffffff1673ffffffffffffffffffffffffffffffffffffffff16815260200190815260200160002060009054906101000a900460ff16905092915050565b60606004805461090390611d05565b80601f016020809104026020016040519081016040528092919081815260200182805461092f90611d05565b801561097c5780601f106109515761010080835404028352916020019161097c565b820191906000526020600020905b81548152906001019060200180831161095f57829003601f168201915b5050505050905090565b60007f395f08be531c0d7403cba7c5ffd2b57329184452bcebcd6a48299ebbbf39db6f6109b281611073565b6109bd85858561156d565b60019150509392505050565b6000801b81565b6000806109db610ba0565b905060006109e98286610aaf565b905083811015610a2e576040517f08c379a0000000000000000000000000000000000000000000000000000000008152600401610a2590611e9d565b60405180910390fd5b610a3b8286868403610ba8565b60019250505092915050565b600080610a52610ba0565b9050610a5f818585610dfd565b600191505092915050565b7f9f2df0fed2c77648de5860a4cc508cd0818c85b8b8a1ab4ceeef8d981c8956a681565b610a9782610688565b610aa081611073565b610aaa8383611168565b505050565b6000600160008473ffffffffffffffffffffffffffffffffffffffff1673ffffffffffffffffffffffffffffffffffffffff16815260200190815260200160002060008373ffffffffffffffffffffffffffffffffffffffff1673ffffffffffffffffffffffffffffffffffffffff16815260200190815260200160002054905092915050565b60007f01ffc9a7000000000000000000000000000000000000000000000000000000007bffffffffffffffffffffffffffffffffffffffffffffffffffffffff1916827bffffffffffffffffffffffffffffffffffffffffffffffffffffffff1916149050919050565b600033905090565b600073ffffffffffffffffffffffffffffffffffffffff168373ffffffffffffffffffffffffffffffffffffffff1603610c17576040517f08c379a0000000000000000000000000000000000000000000000000000000008152600401610c0e90611f2f565b60405180910390fd5b600073ffffffffffffffffffffffffffffffffffffffff168273ffffffffffffffffffffffffffffffffffffffff1603610c86576040517f08c379a0000000000000000000000000000000000000000000000000000000008152600401610c7d90611fc1565b60405180910390fd5b80600160008573ffffffffffffffffffffffffffffffffffffffff1673ffffffffffffffffffffffffffffffffffffffff16815260200190815260200160002060008473ffffffffffffffffffffffffffffffffffffffff1673ffffffffffffffffffffffffffffffffffffffff168152602001908152602001600020819055508173ffffffffffffffffffffffffffffffffffffffff168373ffffffffffffffffffffffffffffffffffffffff167f8c5be1e5ebec7d5bd14f71427d1e84f3dd0314c0f7b2291e5b200ac8c7c3b92583604051610d649190611aca565b60405180910390a3505050565b6000610d7d8484610aaf565b90507fffffffffffffffffffffffffffffffffffffffffffffffffffffffffffffffff8114610df75781811015610de9576040517f08c379a0000000000000000000000000000000000000000000000000000000008152600401610de09061202d565b60405180910390fd5b610df68484848403610ba8565b5b50505050565b600073ffffffffffffffffffffffffffffffffffffffff168373ffffffffffffffffffffffffffffffffffffffff1603610e6c576040517f08c379a0000000000000000000000000000000000000000000000000000000008152600401610e63906120bf565b60405180910390fd5b600073ffffffffffffffffffffffffffffffffffffffff168273ffffffffffffffffffffffffffffffffffffffff1603610edb576040517f08c379a0000000000000000000000000000000000000000000000000000000008152600401610ed290612151565b60405180910390fd5b610ee683838361157d565b60008060008573ffffffffffffffffffffffffffffffffffffffff1673ffffffffffffffffffffffffffffffffffffffff16815260200190815260200160002054905081811015610f6c576040517f08c379a0000000000000000000000000000000000000000000000000000000008152600401610f63906121e3565b60405180910390fd5b8181036000808673ffffffffffffffffffffffffffffffffffffffff1673ffffffffffffffffffffffffffffffffffffffff16815260200190815260200160002081905550816000808573ffffffffffffffffffffffffffffffffffffffff1673ffffffffffffffffffffffffffffffffffffffff168152602001908152602001600020600082825401925050819055508273ffffffffffffffffffffffffffffffffffffffff168473ffffffffffffffffffffffffffffffffffffffff167fddf252ad1be2c89b69c2b068fc378daa952ba7f163c4a11628f55a4df523b3ef8460405161105a9190611aca565b60405180910390a361106d848484611582565b50505050565b6110848161107f610ba0565b611587565b50565b6110918282610889565b6111645760016005600084815260200190815260200160002060000160008373ffffffffffffffffffffffffffffffffffffffff1673ffffffffffffffffffffffffffffffffffffffff16815260200190815260200160002060006101000a81548160ff021916908315150217905550611109610ba0565b73ffffffffffffffffffffffffffffffffffffffff168173ffffffffffffffffffffffffffffffffffffffff16837f2f8788117e7eff1d82e926ec794901d17c78024a50270940304540a733656f0d60405160405180910390a45b5050565b6111728282610889565b156112465760006005600084815260200190815260200160002060000160008373ffffffffffffffffffffffffffffffffffffffff1673ffffffffffffffffffffffffffffffffffffffff16815260200190815260200160002060006101000a81548160ff0219169083151502179055506111eb610ba0565b73ffffffffffffffffffffffffffffffffffffffff168173ffffffffffffffffffffffffffffffffffffffff16837ff6391f5c32d9c69d2a47ea670b442974b53935d1edc7fd64eb21e047a839171b60405160405180910390a45b5050565b600073ffffffffffffffffffffffffffffffffffffffff168273ffffffffffffffffffffffffffffffffffffffff16036112b9576040517f08c379a00000000000000000000000000000000000000000000000000000000081526004016112b09061224f565b60405180910390fd5b6112c56000838361157d565b80600260008282546112d79190611df7565b92505081905550806000808473ffffffffffffffffffffffffffffffffffffffff1673ffffffffffffffffffffffffffffffffffffffff168152602001908152602001600020600082825401925050819055508173ffffffffffffffffffffffffffffffffffffffff16600073ffffffffffffffffffffffffffffffffffffffff167fddf252ad1be2c89b69c2b068fc378daa952ba7f163c4a11628f55a4df523b3ef836040516113889190611aca565b60405180910390a361139c60008383611582565b5050565b600073ffffffffffffffffffffffffffffffffffffffff168273ffffffffffffffffffffffffffffffffffffffff160361140f576040517f08c379a0000000000000000000000000000000000000000000000000000000008152600401611406906122e1565b60405180910390fd5b61141b8260008361157d565b60008060008473ffffffffffffffffffffffffffffffffffffffff1673ffffffffffffffffffffffffffffffffffffffff168152602001908152602001600020549050818110156114a1576040517f08c379a000000000000000000000000000000000000000000000000000000000815260040161149890612373565b60405180910390fd5b8181036000808573ffffffffffffffffffffffffffffffffffffffff1673ffffffffffffffffffffffffffffffffffffffff1681526020019081526020016000208190555081600260008282540392505081905550600073ffffffffffffffffffffffffffffffffffffffff168373ffffffffffffffffffffffffffffffffffffffff167fddf252ad1be2c89b69c2b068fc378daa952ba7f163c4a11628f55a4df523b3ef846040516115549190611aca565b60405180910390a361156883600084611582565b505050565b611578838383610ba8565b505050565b505050565b505050565b6115918282610889565b6116085761159e8161160c565b6115ac8360001c6020611639565b6040516020016115bd929190612467565b6040516020818303038152906040526040517f08c379a00000000000000000000000000000000000000000000000000000000081526004016115ff91906119c5565b60405180910390fd5b5050565b60606116328273ffffffffffffffffffffffffffffffffffffffff16601460ff16611639565b9050919050565b60606000600283600261164c91906124a1565b6116569190611df7565b67ffffffffffffffff81111561166f5761166e6124e3565b5b6040519080825280601f01601f1916602001820160405280156116a15781602001600182028036833780820191505090505b5090507f3000000000000000000000000000000000000000000000000000000000000000816000815181106116d9576116d8612512565b5b60200101907effffffffffffffffffffffffffffffffffffffffffffffffffffffffffffff1916908160001a9053507f78000000000000000000000000000000000000000000000000000000000000008160018151811061173d5761173c612512565b5b60200101907effffffffffffffffffffffffffffffffffffffffffffffffffffffffffffff1916908160001a9053506000600184600261177d91906124a1565b6117879190611df7565b90505b6001811115611827577f3031323334353637383961626364656600000000000000000000000000000000600f8616601081106117c9576117c8612512565b5b1a60f81b8282815181106117e0576117df612512565b5b60200101907effffffffffffffffffffffffffffffffffffffffffffffffffffffffffffff1916908160001a905350600485901c94508061182090612541565b905061178a565b506000841461186b576040517f08c379a0000000000000000000000000000000000000000000000000000000008152600401611862906125b6565b60405180910390fd5b8091505092915050565b600080fd5b60007fffffffff0000000000000000000000000000000000000000000000000000000082169050919050565b6118af8161187a565b81146118ba57600080fd5b50565b6000813590506118cc816118a6565b92915050565b6000602082840312156118e8576118e7611875565b5b60006118f6848285016118bd565b91505092915050565b60008115159050919050565b611914816118ff565b82525050565b600060208201905061192f600083018461190b565b92915050565b600081519050919050565b600082825260208201905092915050565b60005b8381101561196f578082015181840152602081019050611954565b60008484015250505050565b6000601f19601f8301169050919050565b600061199782611935565b6119a18185611940565b93506119b1818560208601611951565b6119ba8161197b565b840191505092915050565b600060208201905081810360008301526119df818461198c565b905092915050565b600073ffffffffffffffffffffffffffffffffffffffff82169050919050565b6000611a12826119e7565b9050919050565b611a2281611a07565b8114611a2d57600080fd5b50565b600081359050611a3f81611a19565b92915050565b6000819050919050565b611a5881611a45565b8114611a6357600080fd5b50565b600081359050611a7581611a4f565b92915050565b60008060408385031215611a9257611a91611875565b5b6000611aa085828601611a30565b9250506020611ab185828601611a66565b9150509250929050565b611ac481611a45565b82525050565b6000602082019050611adf6000830184611abb565b92915050565b600080600060608486031215611afe57611afd611875565b5b6000611b0c86828701611a30565b9350506020611b1d86828701611a30565b9250506040611b2e86828701611a66565b9150509250925092565b6000819050919050565b611b4b81611b38565b8114611b5657600080fd5b50565b600081359050611b6881611b42565b92915050565b600060208284031215611b8457611b83611875565b5b6000611b9284828501611b59565b91505092915050565b611ba481611b38565b82525050565b6000602082019050611bbf6000830184611b9b565b92915050565b60008060408385031215611bdc57611bdb611875565b5b6000611bea85828601611b59565b9250506020611bfb85828601611a30565b9150509250929050565b600060ff82169050919050565b611c1b81611c05565b82525050565b6000602082019050611c366000830184611c12565b92915050565b600060208284031215611c5257611c51611875565b5b6000611c6084828501611a66565b91505092915050565b600060208284031215611c7f57611c7e611875565b5b6000611c8d84828501611a30565b91505092915050565b60008060408385031215611cad57611cac611875565b5b6000611cbb85828601611a30565b9250506020611ccc85828601611a30565b9150509250929050565b7f4e487b7100000000000000000000000000000000000000000000000000000000600052602260045260246000fd5b60006002820490506001821680611d1d57607f821691505b602082108103611d3057611d2f611cd6565b5b50919050565b7f416363657373436f6e74726f6c3a2063616e206f6e6c792072656e6f756e636560008201527f20726f6c657320666f722073656c660000000000000000000000000000000000602082015250565b6000611d92602f83611940565b9150611d9d82611d36565b604082019050919050565b60006020820190508181036000830152611dc181611d85565b9050919050565b7f4e487b7100000000000000000000000000000000000000000000000000000000600052601160045260246000fd5b6000611e0282611a45565b9150611e0d83611a45565b9250828201905080821115611e2557611e24611dc8565b5b92915050565b7f45524332303a2064656372656173656420616c6c6f77616e63652062656c6f7760008201527f207a65726f000000000000000000000000000000000000000000000000000000602082015250565b6000611e87602583611940565b9150611e9282611e2b565b604082019050919050565b60006020820190508181036000830152611eb681611e7a565b9050919050565b7f45524332303a20617070726f76652066726f6d20746865207a65726f2061646460008201527f7265737300000000000000000000000000000000000000000000000000000000602082015250565b6000611f19602483611940565b9150611f2482611ebd565b604082019050919050565b60006020820190508181036000830152611f4881611f0c565b9050919050565b7f45524332303a20617070726f766520746f20746865207a65726f20616464726560008201527f7373000000000000000000000000000000000000000000000000000000000000602082015250565b6000611fab602283611940565b9150611fb682611f4f565b604082019050919050565b60006020820190508181036000830152611fda81611f9e565b9050919050565b7f45524332303a20696e73756666696369656e7420616c6c6f77616e6365000000600082015250565b6000612017601d83611940565b915061202282611fe1565b602082019050919050565b600060208201905081810360008301526120468161200a565b9050919050565b7f45524332303a207472616e736665722066726f6d20746865207a65726f20616460008201527f6472657373000000000000000000000000000000000000000000000000000000602082015250565b60006120a9602583611940565b91506120b48261204d565b604082019050919050565b600060208201905081810360008301526120d88161209c565b9050919050565b7f45524332303a207472616e7366657220746f20746865207a65726f206164647260008201527f6573730000000000000000000000000000000000000000000000000000000000602082015250565b600061213b602383611940565b9150612146826120df565b604082019050919050565b6000602082019050818103600083015261216a8161212e565b9050919050565b7f45524332303a207472616e7366657220616d6f756e742065786365656473206260008201527f616c616e63650000000000000000000000000000000000000000000000000000602082015250565b60006121cd602683611940565b91506121d882612171565b604082019050919050565b600060208201905081810360008301526121fc816121c0565b9050919050565b7f45524332303a206d696e7420746f20746865207a65726f206164647265737300600082015250565b6000612239601f83611940565b915061224482612203565b602082019050919050565b600060208201905081810360008301526122688161222c565b9050919050565b7f45524332303a206275726e2066726f6d20746865207a65726f2061646472657360008201527f7300000000000000000000000000000000000000000000000000000000000000602082015250565b60006122cb602183611940565b91506122d68261226f565b604082019050919050565b600060208201905081810360008301526122fa816122be565b9050919050565b7f45524332303a206275726e20616d6f756e7420657863656564732062616c616e60008201527f6365000000000000000000000000000000000000000000000000000000000000602082015250565b600061235d602283611940565b915061236882612301565b604082019050919050565b6000602082019050818103600083015261238c81612350565b9050919050565b600081905092915050565b7f416363657373436f6e74726f6c3a206163636f756e7420000000000000000000600082015250565b60006123d4601783612393565b91506123df8261239e565b601782019050919050565b60006123f582611935565b6123ff8185612393565b935061240f818560208601611951565b80840191505092915050565b7f206973206d697373696e6720726f6c6520000000000000000000000000000000600082015250565b6000612451601183612393565b915061245c8261241b565b601182019050919050565b6000612472826123c7565b915061247e82856123ea565b915061248982612444565b915061249582846123ea565b91508190509392505050565b60006124ac82611a45565b91506124b783611a45565b92508282026124c581611a45565b915082820484148315176124dc576124db611dc8565b5b5092915050565b7f4e487b7100000000000000000000000000000000000000000000000000000000600052604160045260246000fd5b7f4e487b7100000000000000000000000000000000000000000000000000000000600052603260045260246000fd5b600061254c82611a45565b91506000820361255f5761255e611dc8565b5b600182039050919050565b7f537472696e67733a20686578206c656e67746820696e73756666696369656e74600082015250565b60006125a0602083611940565b91506125ab8261256a565b602082019050919050565b600060208201905081810360008301526125cf81612593565b905091905056fea264697066735822122028ef51720590b91da63bab824cb182d056ec1f9198212e8bea4d6c76f64835bd64736f6c63430008120033",
  "immutableReferences": {},
  "source": "// SPDX-License-Identifier: MIT\r\npragma solidity ^0.8.9;\r\n\r\nimport \"@openzeppelin/contracts/token/ERC20/ERC20.sol\";\r\nimport \"@openzeppelin/contracts/token/ERC20/extensions/ERC20Burnable.sol\";\r\nimport \"@openzeppelin/contracts/access/AccessControl.sol\";\r\nimport \"./IPSD.sol\";\r\n\r\ncontract PoseidonToken is ERC20, ERC20Burnable, AccessControl, IPSD {\r\n    bytes32 public constant MINTER_ROLE = keccak256(\"MINTER_ROLE\");\r\n    bytes32 public constant BURNER_ROLE = keccak256(\"BURNER_ROLE\");\r\n    bytes32 public constant MARKET_ROLE = keccak256(\"MARKET_ROLE\");\r\n\r\n    address marketAddress;\r\n\r\n    constructor(address _market) ERC20(\"PoseidonToken\", \"PSD\") {\r\n        _grantRole(MINTER_ROLE, msg.sender);\r\n        _grantRole(BURNER_ROLE, msg.sender);\r\n        _grantRole(MARKET_ROLE, _market);\r\n        _mint(msg.sender, 1000000000000000 * 10 ** decimals());\r\n    }\r\n\r\n    function mint(address _to, uint256 _amount) public onlyRole(MINTER_ROLE) {\r\n        _mint(_to, _amount);\r\n    }\r\n\r\n    function approveMarket(\r\n        address _owner,\r\n        address _spender,\r\n        uint256 _amount\r\n    ) public virtual override onlyRole(MARKET_ROLE) returns (bool) {\r\n        _approveMarket(_owner, _spender, _amount);\r\n        return true;\r\n    }\r\n\r\n    function _approveMarket(\r\n        address _owner,\r\n        address _spender,\r\n        uint256 _amount\r\n    ) internal virtual {\r\n        _approve(_owner, _spender, _amount);\r\n    }\r\n}\r\n",
  "sourcePath": "C:\\Users\\muizy\\Documents\\GitHub\\blockchaingame\\blockchain\\contracts\\PoseidonToken.sol",
  "compiler": {
    "name": "solc",
    "version": "0.8.18+commit.87f61d96.Emscripten.clang"
  },
  "schemaVersion": "3.4.11",
  "updatedAt": "2023-06-03T15:13:33.464Z",
  "devdoc": {
    "events": {
      "Approval(address,address,uint256)": {
        "details": "Emitted when the allowance of a `spender` for an `owner` is set by a call to {approve}. `value` is the new allowance."
      },
      "RoleAdminChanged(bytes32,bytes32,bytes32)": {
        "details": "Emitted when `newAdminRole` is set as ``role``'s admin role, replacing `previousAdminRole` `DEFAULT_ADMIN_ROLE` is the starting admin for all roles, despite {RoleAdminChanged} not being emitted signaling this. _Available since v3.1._"
      },
      "RoleGranted(bytes32,address,address)": {
        "details": "Emitted when `account` is granted `role`. `sender` is the account that originated the contract call, an admin role bearer except when using {AccessControl-_setupRole}."
      },
      "RoleRevoked(bytes32,address,address)": {
        "details": "Emitted when `account` is revoked `role`. `sender` is the account that originated the contract call:   - if using `revokeRole`, it is the admin role bearer   - if using `renounceRole`, it is the role bearer (i.e. `account`)"
      },
      "Transfer(address,address,uint256)": {
        "details": "Emitted when `value` tokens are moved from one account (`from`) to another (`to`). Note that `value` may be zero."
      }
    },
    "kind": "dev",
    "methods": {
      "allowance(address,address)": {
        "details": "See {IERC20-allowance}."
      },
      "approve(address,uint256)": {
        "details": "See {IERC20-approve}. NOTE: If `amount` is the maximum `uint256`, the allowance is not updated on `transferFrom`. This is semantically equivalent to an infinite approval. Requirements: - `spender` cannot be the zero address."
      },
      "balanceOf(address)": {
        "details": "See {IERC20-balanceOf}."
      },
      "burn(uint256)": {
        "details": "Destroys `amount` tokens from the caller. See {ERC20-_burn}."
      },
      "burnFrom(address,uint256)": {
        "details": "Destroys `amount` tokens from `account`, deducting from the caller's allowance. See {ERC20-_burn} and {ERC20-allowance}. Requirements: - the caller must have allowance for ``accounts``'s tokens of at least `amount`."
      },
      "decimals()": {
        "details": "Returns the number of decimals used to get its user representation. For example, if `decimals` equals `2`, a balance of `505` tokens should be displayed to a user as `5.05` (`505 / 10 ** 2`). Tokens usually opt for a value of 18, imitating the relationship between Ether and Wei. This is the value {ERC20} uses, unless this function is overridden; NOTE: This information is only used for _display_ purposes: it in no way affects any of the arithmetic of the contract, including {IERC20-balanceOf} and {IERC20-transfer}."
      },
      "decreaseAllowance(address,uint256)": {
        "details": "Atomically decreases the allowance granted to `spender` by the caller. This is an alternative to {approve} that can be used as a mitigation for problems described in {IERC20-approve}. Emits an {Approval} event indicating the updated allowance. Requirements: - `spender` cannot be the zero address. - `spender` must have allowance for the caller of at least `subtractedValue`."
      },
      "getRoleAdmin(bytes32)": {
        "details": "Returns the admin role that controls `role`. See {grantRole} and {revokeRole}. To change a role's admin, use {_setRoleAdmin}."
      },
      "grantRole(bytes32,address)": {
        "details": "Grants `role` to `account`. If `account` had not been already granted `role`, emits a {RoleGranted} event. Requirements: - the caller must have ``role``'s admin role. May emit a {RoleGranted} event."
      },
      "hasRole(bytes32,address)": {
        "details": "Returns `true` if `account` has been granted `role`."
      },
      "increaseAllowance(address,uint256)": {
        "details": "Atomically increases the allowance granted to `spender` by the caller. This is an alternative to {approve} that can be used as a mitigation for problems described in {IERC20-approve}. Emits an {Approval} event indicating the updated allowance. Requirements: - `spender` cannot be the zero address."
      },
      "name()": {
        "details": "Returns the name of the token."
      },
      "renounceRole(bytes32,address)": {
        "details": "Revokes `role` from the calling account. Roles are often managed via {grantRole} and {revokeRole}: this function's purpose is to provide a mechanism for accounts to lose their privileges if they are compromised (such as when a trusted device is misplaced). If the calling account had been revoked `role`, emits a {RoleRevoked} event. Requirements: - the caller must be `account`. May emit a {RoleRevoked} event."
      },
      "revokeRole(bytes32,address)": {
        "details": "Revokes `role` from `account`. If `account` had been granted `role`, emits a {RoleRevoked} event. Requirements: - the caller must have ``role``'s admin role. May emit a {RoleRevoked} event."
      },
      "supportsInterface(bytes4)": {
        "details": "See {IERC165-supportsInterface}."
      },
      "symbol()": {
        "details": "Returns the symbol of the token, usually a shorter version of the name."
      },
      "totalSupply()": {
        "details": "See {IERC20-totalSupply}."
      },
      "transfer(address,uint256)": {
        "details": "See {IERC20-transfer}. Requirements: - `to` cannot be the zero address. - the caller must have a balance of at least `amount`."
      },
      "transferFrom(address,address,uint256)": {
        "details": "See {IERC20-transferFrom}. Emits an {Approval} event indicating the updated allowance. This is not required by the EIP. See the note at the beginning of {ERC20}. NOTE: Does not update the allowance if the current allowance is the maximum `uint256`. Requirements: - `from` and `to` cannot be the zero address. - `from` must have a balance of at least `amount`. - the caller must have allowance for ``from``'s tokens of at least `amount`."
      }
    },
    "version": 1
  },
  "userdoc": {
    "kind": "user",
    "methods": {},
    "version": 1
  }
}