{
  "contractName": "PoseidonNFT",
  "abi": [
    {
      "inputs": [
        {
          "internalType": "address",
          "name": "_marketContract",
          "type": "address"
        }
      ],
      "stateMutability": "nonpayable",
      "type": "constructor"
    },
    {
      "anonymous": false,
      "inputs": [
        {
          "indexed": true,
          "internalType": "address",
          "name": "owner",
          "type": "address"
        },
        {
          "indexed": true,
          "internalType": "address",
          "name": "approved",
          "type": "address"
        },
        {
          "indexed": true,
          "internalType": "uint256",
          "name": "tokenId",
          "type": "uint256"
        }
      ],
      "name": "Approval",
      "type": "event"
    },
    {
      "anonymous": false,
      "inputs": [
        {
          "indexed": true,
          "internalType": "address",
          "name": "owner",
          "type": "address"
        },
        {
          "indexed": true,
          "internalType": "address",
          "name": "operator",
          "type": "address"
        },
        {
          "indexed": false,
          "internalType": "bool",
          "name": "approved",
          "type": "bool"
        }
      ],
      "name": "ApprovalForAll",
      "type": "event"
    },
    {
      "anonymous": false,
      "inputs": [
        {
          "indexed": false,
          "internalType": "uint256",
          "name": "",
          "type": "uint256"
        }
      ],
      "name": "NFTMinted",
      "type": "event"
    },
    {
      "anonymous": false,
      "inputs": [
        {
          "indexed": true,
          "internalType": "address",
          "name": "previousOwner",
          "type": "address"
        },
        {
          "indexed": true,
          "internalType": "address",
          "name": "newOwner",
          "type": "address"
        }
      ],
      "name": "OwnershipTransferred",
      "type": "event"
    },
    {
      "anonymous": false,
      "inputs": [
        {
          "indexed": true,
          "internalType": "address",
          "name": "from",
          "type": "address"
        },
        {
          "indexed": true,
          "internalType": "address",
          "name": "to",
          "type": "address"
        },
        {
          "indexed": true,
          "internalType": "uint256",
          "name": "tokenId",
          "type": "uint256"
        }
      ],
      "name": "Transfer",
      "type": "event"
    },
    {
      "inputs": [
        {
          "internalType": "address",
          "name": "to",
          "type": "address"
        },
        {
          "internalType": "uint256",
          "name": "tokenId",
          "type": "uint256"
        }
      ],
      "name": "approve",
      "outputs": [],
      "stateMutability": "nonpayable",
      "type": "function"
    },
    {
      "inputs": [
        {
          "internalType": "address",
          "name": "owner",
          "type": "address"
        }
      ],
      "name": "balanceOf",
      "outputs": [
        {
          "internalType": "uint256",
          "name": "",
          "type": "uint256"
        }
      ],
      "stateMutability": "view",
      "type": "function",
      "constant": true
    },
    {
      "inputs": [
        {
          "internalType": "uint256",
          "name": "tokenId",
          "type": "uint256"
        }
      ],
      "name": "burn",
      "outputs": [],
      "stateMutability": "nonpayable",
      "type": "function"
    },
    {
      "inputs": [
        {
          "internalType": "uint256",
          "name": "tokenId",
          "type": "uint256"
        }
      ],
      "name": "getApproved",
      "outputs": [
        {
          "internalType": "address",
          "name": "",
          "type": "address"
        }
      ],
      "stateMutability": "view",
      "type": "function",
      "constant": true
    },
    {
      "inputs": [
        {
          "internalType": "address",
          "name": "owner",
          "type": "address"
        },
        {
          "internalType": "address",
          "name": "operator",
          "type": "address"
        }
      ],
      "name": "isApprovedForAll",
      "outputs": [
        {
          "internalType": "bool",
          "name": "",
          "type": "bool"
        }
      ],
      "stateMutability": "view",
      "type": "function",
      "constant": true
    },
    {
      "inputs": [],
      "name": "name",
      "outputs": [
        {
          "internalType": "string",
          "name": "",
          "type": "string"
        }
      ],
      "stateMutability": "view",
      "type": "function",
      "constant": true
    },
    {
      "inputs": [],
      "name": "owner",
      "outputs": [
        {
          "internalType": "address",
          "name": "",
          "type": "address"
        }
      ],
      "stateMutability": "view",
      "type": "function",
      "constant": true
    },
    {
      "inputs": [
        {
          "internalType": "uint256",
          "name": "tokenId",
          "type": "uint256"
        }
      ],
      "name": "ownerOf",
      "outputs": [
        {
          "internalType": "address",
          "name": "",
          "type": "address"
        }
      ],
      "stateMutability": "view",
      "type": "function",
      "constant": true
    },
    {
      "inputs": [],
      "name": "renounceOwnership",
      "outputs": [],
      "stateMutability": "nonpayable",
      "type": "function"
    },
    {
      "inputs": [
        {
          "internalType": "address",
          "name": "from",
          "type": "address"
        },
        {
          "internalType": "address",
          "name": "to",
          "type": "address"
        },
        {
          "internalType": "uint256",
          "name": "tokenId",
          "type": "uint256"
        }
      ],
      "name": "safeTransferFrom",
      "outputs": [],
      "stateMutability": "nonpayable",
      "type": "function"
    },
    {
      "inputs": [
        {
          "internalType": "address",
          "name": "from",
          "type": "address"
        },
        {
          "internalType": "address",
          "name": "to",
          "type": "address"
        },
        {
          "internalType": "uint256",
          "name": "tokenId",
          "type": "uint256"
        },
        {
          "internalType": "bytes",
          "name": "data",
          "type": "bytes"
        }
      ],
      "name": "safeTransferFrom",
      "outputs": [],
      "stateMutability": "nonpayable",
      "type": "function"
    },
    {
      "inputs": [
        {
          "internalType": "address",
          "name": "operator",
          "type": "address"
        },
        {
          "internalType": "bool",
          "name": "approved",
          "type": "bool"
        }
      ],
      "name": "setApprovalForAll",
      "outputs": [],
      "stateMutability": "nonpayable",
      "type": "function"
    },
    {
      "inputs": [
        {
          "internalType": "bytes4",
          "name": "interfaceId",
          "type": "bytes4"
        }
      ],
      "name": "supportsInterface",
      "outputs": [
        {
          "internalType": "bool",
          "name": "",
          "type": "bool"
        }
      ],
      "stateMutability": "view",
      "type": "function",
      "constant": true
    },
    {
      "inputs": [],
      "name": "symbol",
      "outputs": [
        {
          "internalType": "string",
          "name": "",
          "type": "string"
        }
      ],
      "stateMutability": "view",
      "type": "function",
      "constant": true
    },
    {
      "inputs": [
        {
          "internalType": "address",
          "name": "",
          "type": "address"
        },
        {
          "internalType": "uint256",
          "name": "",
          "type": "uint256"
        }
      ],
      "name": "tokenAddress",
      "outputs": [
        {
          "internalType": "uint256",
          "name": "tokenId",
          "type": "uint256"
        },
        {
          "internalType": "string",
          "name": "tokenName",
          "type": "string"
        },
        {
          "internalType": "address",
          "name": "owner",
          "type": "address"
        },
        {
          "internalType": "uint256",
          "name": "durability",
          "type": "uint256"
        }
      ],
      "stateMutability": "view",
      "type": "function",
      "constant": true
    },
    {
      "inputs": [
        {
          "internalType": "string",
          "name": "",
          "type": "string"
        }
      ],
      "name": "tokenExists",
      "outputs": [
        {
          "internalType": "bool",
          "name": "",
          "type": "bool"
        }
      ],
      "stateMutability": "view",
      "type": "function",
      "constant": true
    },
    {
      "inputs": [
        {
          "internalType": "address",
          "name": "from",
          "type": "address"
        },
        {
          "internalType": "address",
          "name": "to",
          "type": "address"
        },
        {
          "internalType": "uint256",
          "name": "tokenId",
          "type": "uint256"
        }
      ],
      "name": "transferFrom",
      "outputs": [],
      "stateMutability": "nonpayable",
      "type": "function"
    },
    {
      "inputs": [
        {
          "internalType": "address",
          "name": "newOwner",
          "type": "address"
        }
      ],
      "name": "transferOwnership",
      "outputs": [],
      "stateMutability": "nonpayable",
      "type": "function"
    },
    {
      "inputs": [
        {
          "internalType": "address",
          "name": "_to",
          "type": "address"
        },
        {
          "internalType": "string",
          "name": "_uri",
          "type": "string"
        },
        {
          "internalType": "string",
          "name": "_tokenName",
          "type": "string"
        },
        {
          "internalType": "uint256",
          "name": "_durability",
          "type": "uint256"
        }
      ],
      "name": "mint",
      "outputs": [],
      "stateMutability": "nonpayable",
      "type": "function"
    },
    {
      "inputs": [
        {
          "internalType": "address",
          "name": "_wallet",
          "type": "address"
        }
      ],
      "name": "getMyTokens",
      "outputs": [
        {
          "components": [
            {
              "internalType": "uint256",
              "name": "tokenId",
              "type": "uint256"
            },
            {
              "internalType": "string",
              "name": "tokenName",
              "type": "string"
            },
            {
              "internalType": "address",
              "name": "owner",
              "type": "address"
            },
            {
              "internalType": "uint256",
              "name": "durability",
              "type": "uint256"
            }
          ],
          "internalType": "struct PoseidonNFT.NFT[]",
          "name": "",
          "type": "tuple[]"
        }
      ],
      "stateMutability": "view",
      "type": "function",
      "constant": true
    },
    {
      "inputs": [
        {
          "internalType": "uint256",
          "name": "tokenId",
          "type": "uint256"
        }
      ],
      "name": "getDurability",
      "outputs": [
        {
          "internalType": "uint256",
          "name": "",
          "type": "uint256"
        }
      ],
      "stateMutability": "view",
      "type": "function",
      "constant": true
    },
    {
      "inputs": [
        {
          "internalType": "uint256",
          "name": "tokenId",
          "type": "uint256"
        },
        {
          "internalType": "uint256",
          "name": "_durability",
          "type": "uint256"
        }
      ],
      "name": "updateDurability",
      "outputs": [],
      "stateMutability": "nonpayable",
      "type": "function"
    },
    {
      "inputs": [
        {
          "internalType": "uint256",
          "name": "tokenId",
          "type": "uint256"
        }
      ],
      "name": "tokenURI",
      "outputs": [
        {
          "internalType": "string",
          "name": "",
          "type": "string"
        }
      ],
      "stateMutability": "view",
      "type": "function",
      "constant": true
    }
  ],
  "bytecode": "0x60806040523480156200001157600080fd5b5060405162004a6038038062004a60833981810160405281019062000037919062000269565b6040518060400160405280600b81526020017f506f736569646f6e4e46540000000000000000000000000000000000000000008152506040518060400160405280600481526020017f504e4654000000000000000000000000000000000000000000000000000000008152508160009081620000b4919062000515565b508060019081620000c6919062000515565b505050620000e9620000dd6200013160201b60201c565b6200013960201b60201c565b80600960006101000a81548173ffffffffffffffffffffffffffffffffffffffff021916908373ffffffffffffffffffffffffffffffffffffffff16021790555050620005fc565b600033905090565b6000600760009054906101000a900473ffffffffffffffffffffffffffffffffffffffff16905081600760006101000a81548173ffffffffffffffffffffffffffffffffffffffff021916908373ffffffffffffffffffffffffffffffffffffffff1602179055508173ffffffffffffffffffffffffffffffffffffffff168173ffffffffffffffffffffffffffffffffffffffff167f8be0079c531659141344cd1fd0a4f28419497f9722a3daafe3b4186f6b6457e060405160405180910390a35050565b600080fd5b600073ffffffffffffffffffffffffffffffffffffffff82169050919050565b6000620002318262000204565b9050919050565b620002438162000224565b81146200024f57600080fd5b50565b600081519050620002638162000238565b92915050565b600060208284031215620002825762000281620001ff565b5b6000620002928482850162000252565b91505092915050565b600081519050919050565b7f4e487b7100000000000000000000000000000000000000000000000000000000600052604160045260246000fd5b7f4e487b7100000000000000000000000000000000000000000000000000000000600052602260045260246000fd5b600060028204905060018216806200031d57607f821691505b602082108103620003335762000332620002d5565b5b50919050565b60008190508160005260206000209050919050565b60006020601f8301049050919050565b600082821b905092915050565b6000600883026200039d7fffffffffffffffffffffffffffffffffffffffffffffffffffffffffffffffff826200035e565b620003a986836200035e565b95508019841693508086168417925050509392505050565b6000819050919050565b6000819050919050565b6000620003f6620003f0620003ea84620003c1565b620003cb565b620003c1565b9050919050565b6000819050919050565b6200041283620003d5565b6200042a6200042182620003fd565b8484546200036b565b825550505050565b600090565b6200044162000432565b6200044e81848462000407565b505050565b5b8181101562000476576200046a60008262000437565b60018101905062000454565b5050565b601f821115620004c5576200048f8162000339565b6200049a846200034e565b81016020851015620004aa578190505b620004c2620004b9856200034e565b83018262000453565b50505b505050565b600082821c905092915050565b6000620004ea60001984600802620004ca565b1980831691505092915050565b6000620005058383620004d7565b9150826002028217905092915050565b62000520826200029b565b67ffffffffffffffff8111156200053c576200053b620002a6565b5b62000548825462000304565b620005558282856200047a565b600060209050601f8311600181146200058d576000841562000578578287015190505b620005848582620004f7565b865550620005f4565b601f1984166200059d8662000339565b60005b82811015620005c757848901518255600182019150602085019450602081019050620005a0565b86831015620005e75784890151620005e3601f891682620004d7565b8355505b6001600288020188555050505b505050505050565b614454806200060c6000396000f3fe608060405234801561001057600080fd5b506004361061014d5760003560e01c806370a08231116100c3578063b88d4fde1161007c578063b88d4fde146103ae578063c87b56dd146103ca578063e985e9c5146103fa578063e985ed211461042a578063f2fde38b1461045d578063fea609d2146104795761014d565b806370a0823114610300578063715018a614610330578063853d42ad1461033a5780638da5cb5b1461035657806395d89b4114610374578063a22cb465146103925761014d565b806323b872dd1161011557806323b872dd1461021c57806342842e0e1461023857806342966c6814610254578063509d2927146102705780636059eae1146102a05780636352211e146102d05761014d565b806301ffc9a71461015257806306fdde0314610182578063081812fc146101a0578063095ea7b3146101d057806317516592146101ec575b600080fd5b61016c60048036038101906101679190612b5c565b610495565b6040516101799190612ba4565b60405180910390f35b61018a610577565b6040516101979190612c4f565b60405180910390f35b6101ba60048036038101906101b59190612ca7565b610609565b6040516101c79190612d15565b60405180910390f35b6101ea60048036038101906101e59190612d5c565b61064f565b005b61020660048036038101906102019190612d9c565b610766565b6040516102139190612f56565b60405180910390f35b61023660048036038101906102319190612f78565b610900565b005b610252600480360381019061024d9190612f78565b610960565b005b61026e60048036038101906102699190612ca7565b610980565b005b61028a60048036038101906102859190612ca7565b6109dc565b6040516102979190612fda565b60405180910390f35b6102ba60048036038101906102b5919061312a565b610c70565b6040516102c79190612ba4565b60405180910390f35b6102ea60048036038101906102e59190612ca7565b610ca6565b6040516102f79190612d15565b60405180910390f35b61031a60048036038101906103159190612d9c565b610d2c565b6040516103279190612fda565b60405180910390f35b610338610de3565b005b610354600480360381019061034f91906131d3565b610df7565b005b61035e611093565b60405161036b9190612d15565b60405180910390f35b61037c6110bd565b6040516103899190612c4f565b60405180910390f35b6103ac60048036038101906103a791906132a3565b61114f565b005b6103c860048036038101906103c39190613384565b611165565b005b6103e460048036038101906103df9190612ca7565b6111c7565b6040516103f19190612c4f565b60405180910390f35b610414600480360381019061040f9190613407565b6111d9565b6040516104219190612ba4565b60405180910390f35b610444600480360381019061043f9190612d5c565b61126d565b6040516104549493929190613447565b60405180910390f35b61047760048036038101906104729190612d9c565b611362565b005b610493600480360381019061048e9190613493565b6113e5565b005b60007f80ac58cd000000000000000000000000000000000000000000000000000000007bffffffffffffffffffffffffffffffffffffffffffffffffffffffff1916827bffffffffffffffffffffffffffffffffffffffffffffffffffffffff1916148061056057507f5b5e139f000000000000000000000000000000000000000000000000000000007bffffffffffffffffffffffffffffffffffffffffffffffffffffffff1916827bffffffffffffffffffffffffffffffffffffffffffffffffffffffff1916145b80610570575061056f826116a9565b5b9050919050565b60606000805461058690613502565b80601f01602080910402602001604051908101604052809291908181526020018280546105b290613502565b80156105ff5780601f106105d4576101008083540402835291602001916105ff565b820191906000526020600020905b8154815290600101906020018083116105e257829003601f168201915b5050505050905090565b600061061482611713565b6004600083815260200190815260200160002060009054906101000a900473ffffffffffffffffffffffffffffffffffffffff169050919050565b600061065a82610ca6565b90508073ffffffffffffffffffffffffffffffffffffffff168373ffffffffffffffffffffffffffffffffffffffff16036106ca576040517f08c379a00000000000000000000000000000000000000000000000000000000081526004016106c1906135a5565b60405180910390fd5b8073ffffffffffffffffffffffffffffffffffffffff166106e961175e565b73ffffffffffffffffffffffffffffffffffffffff16148061071857506107178161071261175e565b6111d9565b5b610757576040517f08c379a000000000000000000000000000000000000000000000000000000000815260040161074e90613637565b60405180910390fd5b6107618383611766565b505050565b6060600a60008373ffffffffffffffffffffffffffffffffffffffff1673ffffffffffffffffffffffffffffffffffffffff168152602001908152602001600020805480602002602001604051908101604052809291908181526020016000905b828210156108f557838290600052602060002090600402016040518060800160405290816000820154815260200160018201805461080490613502565b80601f016020809104026020016040519081016040528092919081815260200182805461083090613502565b801561087d5780601f106108525761010080835404028352916020019161087d565b820191906000526020600020905b81548152906001019060200180831161086057829003601f168201915b505050505081526020016002820160009054906101000a900473ffffffffffffffffffffffffffffffffffffffff1673ffffffffffffffffffffffffffffffffffffffff1673ffffffffffffffffffffffffffffffffffffffff168152602001600382015481525050815260200190600101906107c7565b505050509050919050565b61091161090b61175e565b8261181f565b610950576040517f08c379a0000000000000000000000000000000000000000000000000000000008152600401610947906136c9565b60405180910390fd5b61095b8383836118b4565b505050565b61097b83838360405180602001604052806000815250611165565b505050565b61099161098b61175e565b8261181f565b6109d0576040517f08c379a00000000000000000000000000000000000000000000000000000000081526004016109c7906136c9565b60405180910390fd5b6109d981611bad565b50565b60006109e782611bb9565b610a26576040517f08c379a0000000000000000000000000000000000000000000000000000000008152600401610a1d90613735565b60405180910390fd5b6000600a6000610a3585610ca6565b73ffffffffffffffffffffffffffffffffffffffff1673ffffffffffffffffffffffffffffffffffffffff168152602001908152602001600020805480602002602001604051908101604052809291908181526020016000905b82821015610bbd578382906000526020600020906004020160405180608001604052908160008201548152602001600182018054610acc90613502565b80601f0160208091040260200160405190810160405280929190818152602001828054610af890613502565b8015610b455780601f10610b1a57610100808354040283529160200191610b45565b820191906000526020600020905b815481529060010190602001808311610b2857829003601f168201915b505050505081526020016002820160009054906101000a900473ffffffffffffffffffffffffffffffffffffffff1673ffffffffffffffffffffffffffffffffffffffff1673ffffffffffffffffffffffffffffffffffffffff16815260200160038201548152505081526020019060010190610a8f565b50505050905060005b8151811015610c2f5783828281518110610be357610be2613755565b5b60200260200101516000015103610c1c57818181518110610c0757610c06613755565b5b60200260200101516060015192505050610c6b565b8080610c27906137b3565b915050610bc6565b506040517f08c379a0000000000000000000000000000000000000000000000000000000008152600401610c6290613847565b60405180910390fd5b919050565b600b818051602081018201805184825260208301602085012081835280955050505050506000915054906101000a900460ff1681565b600080610cb283611bfa565b9050600073ffffffffffffffffffffffffffffffffffffffff168173ffffffffffffffffffffffffffffffffffffffff1603610d23576040517f08c379a0000000000000000000000000000000000000000000000000000000008152600401610d1a906138b3565b60405180910390fd5b80915050919050565b60008073ffffffffffffffffffffffffffffffffffffffff168273ffffffffffffffffffffffffffffffffffffffff1603610d9c576040517f08c379a0000000000000000000000000000000000000000000000000000000008152600401610d9390613945565b60405180910390fd5b600360008373ffffffffffffffffffffffffffffffffffffffff1673ffffffffffffffffffffffffffffffffffffffff168152602001908152602001600020549050919050565b610deb611c37565b610df56000611cb5565b565b610dff611c37565b600b8383604051610e11929190613995565b908152602001604051809103902060009054906101000a900460ff1615610e6d576040517f08c379a0000000000000000000000000000000000000000000000000000000008152600401610e64906139fa565b60405180910390fd5b610e776008611d7b565b6000610e836008611d91565b9050610e8f8682611d9f565b610e998186611dbd565b610ec5600960009054906101000a900473ffffffffffffffffffffffffffffffffffffffff1682611766565b600a60008773ffffffffffffffffffffffffffffffffffffffff1673ffffffffffffffffffffffffffffffffffffffff168152602001908152602001600020604051806080016040528083815260200186868080601f016020809104026020016040519081016040528093929190818152602001838380828437600081840152601f19601f8201169050808301925050505050505081526020018873ffffffffffffffffffffffffffffffffffffffff168152602001848152509080600181540180825580915050600190039060005260206000209060040201600090919091909150600082015181600001556020820151816001019081610fc79190613bc6565b5060408201518160020160006101000a81548173ffffffffffffffffffffffffffffffffffffffff021916908373ffffffffffffffffffffffffffffffffffffffff1602179055506060820151816003015550506001600b858560405161102f929190613995565b908152602001604051809103902060006101000a81548160ff0219169083151502179055507fd9dc24857f317ed9abbbb42e920ede0104231eb1d3d70236a74887ffaf159868816040516110839190612fda565b60405180910390a1505050505050565b6000600760009054906101000a900473ffffffffffffffffffffffffffffffffffffffff16905090565b6060600180546110cc90613502565b80601f01602080910402602001604051908101604052809291908181526020018280546110f890613502565b80156111455780601f1061111a57610100808354040283529160200191611145565b820191906000526020600020905b81548152906001019060200180831161112857829003601f168201915b5050505050905090565b61116161115a61175e565b8383611e2a565b5050565b61117661117061175e565b8361181f565b6111b5576040517f08c379a00000000000000000000000000000000000000000000000000000000081526004016111ac906136c9565b60405180910390fd5b6111c184848484611f96565b50505050565b60606111d282611ff2565b9050919050565b6000600560008473ffffffffffffffffffffffffffffffffffffffff1673ffffffffffffffffffffffffffffffffffffffff16815260200190815260200160002060008373ffffffffffffffffffffffffffffffffffffffff1673ffffffffffffffffffffffffffffffffffffffff16815260200190815260200160002060009054906101000a900460ff16905092915050565b600a602052816000526040600020818154811061128957600080fd5b9060005260206000209060040201600091509150508060000154908060010180546112b390613502565b80601f01602080910402602001604051908101604052809291908181526020018280546112df90613502565b801561132c5780601f106113015761010080835404028352916020019161132c565b820191906000526020600020905b81548152906001019060200180831161130f57829003601f168201915b5050505050908060020160009054906101000a900473ffffffffffffffffffffffffffffffffffffffff16908060030154905084565b61136a611c37565b600073ffffffffffffffffffffffffffffffffffffffff168173ffffffffffffffffffffffffffffffffffffffff16036113d9576040517f08c379a00000000000000000000000000000000000000000000000000000000081526004016113d090613d0a565b60405180910390fd5b6113e281611cb5565b50565b6113ee82611bb9565b61142d576040517f08c379a000000000000000000000000000000000000000000000000000000000815260040161142490613735565b60405180910390fd5b6000600a600061143c85610ca6565b73ffffffffffffffffffffffffffffffffffffffff1673ffffffffffffffffffffffffffffffffffffffff168152602001908152602001600020905060005b81805490508110156116a3578382828154811061149b5761149a613755565b5b9060005260206000209060040201600001540361169057828282815481106114c6576114c5613755565b5b90600052602060002090600402016003018190555060008282815481106114f0576114ef613755565b5b9060005260206000209060040201600301540361168f5761153482828154811061151d5761151c613755565b5b906000526020600020906004020160000154611bad565b81600183805490506115469190613d2a565b8154811061155757611556613755565b5b906000526020600020906004020182828154811061157857611577613755565b5b906000526020600020906004020160008201548160000155600182018160010190816115a49190613d74565b506002820160009054906101000a900473ffffffffffffffffffffffffffffffffffffffff168160020160006101000a81548173ffffffffffffffffffffffffffffffffffffffff021916908373ffffffffffffffffffffffffffffffffffffffff160217905550600382015481600301559050508180548061162a57611629613e5c565b5b60019003818190600052602060002090600402016000808201600090556001820160006116579190612a93565b6002820160006101000a81549073ffffffffffffffffffffffffffffffffffffffff02191690556003820160009055505090556116a3565b5b808061169b906137b3565b91505061147b565b50505050565b60007f01ffc9a7000000000000000000000000000000000000000000000000000000007bffffffffffffffffffffffffffffffffffffffffffffffffffffffff1916827bffffffffffffffffffffffffffffffffffffffffffffffffffffffff1916149050919050565b61171c81611bb9565b61175b576040517f08c379a0000000000000000000000000000000000000000000000000000000008152600401611752906138b3565b60405180910390fd5b50565b600033905090565b816004600083815260200190815260200160002060006101000a81548173ffffffffffffffffffffffffffffffffffffffff021916908373ffffffffffffffffffffffffffffffffffffffff160217905550808273ffffffffffffffffffffffffffffffffffffffff166117d983610ca6565b73ffffffffffffffffffffffffffffffffffffffff167f8c5be1e5ebec7d5bd14f71427d1e84f3dd0314c0f7b2291e5b200ac8c7c3b92560405160405180910390a45050565b60008061182b83610ca6565b90508073ffffffffffffffffffffffffffffffffffffffff168473ffffffffffffffffffffffffffffffffffffffff16148061186d575061186c81856111d9565b5b806118ab57508373ffffffffffffffffffffffffffffffffffffffff1661189384610609565b73ffffffffffffffffffffffffffffffffffffffff16145b91505092915050565b8273ffffffffffffffffffffffffffffffffffffffff166118d482610ca6565b73ffffffffffffffffffffffffffffffffffffffff161461192a576040517f08c379a000000000000000000000000000000000000000000000000000000000815260040161192190613efd565b60405180910390fd5b600073ffffffffffffffffffffffffffffffffffffffff168273ffffffffffffffffffffffffffffffffffffffff1603611999576040517f08c379a000000000000000000000000000000000000000000000000000000000815260040161199090613f8f565b60405180910390fd5b6119a68383836001612104565b8273ffffffffffffffffffffffffffffffffffffffff166119c682610ca6565b73ffffffffffffffffffffffffffffffffffffffff1614611a1c576040517f08c379a0000000000000000000000000000000000000000000000000000000008152600401611a1390613efd565b60405180910390fd5b6004600082815260200190815260200160002060006101000a81549073ffffffffffffffffffffffffffffffffffffffff02191690556001600360008573ffffffffffffffffffffffffffffffffffffffff1673ffffffffffffffffffffffffffffffffffffffff168152602001908152602001600020600082825403925050819055506001600360008473ffffffffffffffffffffffffffffffffffffffff1673ffffffffffffffffffffffffffffffffffffffff16815260200190815260200160002060008282540192505081905550816002600083815260200190815260200160002060006101000a81548173ffffffffffffffffffffffffffffffffffffffff021916908373ffffffffffffffffffffffffffffffffffffffff160217905550808273ffffffffffffffffffffffffffffffffffffffff168473ffffffffffffffffffffffffffffffffffffffff167fddf252ad1be2c89b69c2b068fc378daa952ba7f163c4a11628f55a4df523b3ef60405160405180910390a4611ba8838383600161222a565b505050565b611bb681612230565b50565b60008073ffffffffffffffffffffffffffffffffffffffff16611bdb83611bfa565b73ffffffffffffffffffffffffffffffffffffffff1614159050919050565b60006002600083815260200190815260200160002060009054906101000a900473ffffffffffffffffffffffffffffffffffffffff169050919050565b611c3f61175e565b73ffffffffffffffffffffffffffffffffffffffff16611c5d611093565b73ffffffffffffffffffffffffffffffffffffffff1614611cb3576040517f08c379a0000000000000000000000000000000000000000000000000000000008152600401611caa90613ffb565b60405180910390fd5b565b6000600760009054906101000a900473ffffffffffffffffffffffffffffffffffffffff16905081600760006101000a81548173ffffffffffffffffffffffffffffffffffffffff021916908373ffffffffffffffffffffffffffffffffffffffff1602179055508173ffffffffffffffffffffffffffffffffffffffff168173ffffffffffffffffffffffffffffffffffffffff167f8be0079c531659141344cd1fd0a4f28419497f9722a3daafe3b4186f6b6457e060405160405180910390a35050565b6001816000016000828254019250508190555050565b600081600001549050919050565b611db9828260405180602001604052806000815250612283565b5050565b611dc682611bb9565b611e05576040517f08c379a0000000000000000000000000000000000000000000000000000000008152600401611dfc9061408d565b60405180910390fd5b80600660008481526020019081526020016000209081611e259190613bc6565b505050565b8173ffffffffffffffffffffffffffffffffffffffff168373ffffffffffffffffffffffffffffffffffffffff1603611e98576040517f08c379a0000000000000000000000000000000000000000000000000000000008152600401611e8f906140f9565b60405180910390fd5b80600560008573ffffffffffffffffffffffffffffffffffffffff1673ffffffffffffffffffffffffffffffffffffffff16815260200190815260200160002060008473ffffffffffffffffffffffffffffffffffffffff1673ffffffffffffffffffffffffffffffffffffffff16815260200190815260200160002060006101000a81548160ff0219169083151502179055508173ffffffffffffffffffffffffffffffffffffffff168373ffffffffffffffffffffffffffffffffffffffff167f17307eab39ab6107e8899845ad3d59bd9653f200f220920489ca2b5937696c3183604051611f899190612ba4565b60405180910390a3505050565b611fa18484846118b4565b611fad848484846122de565b611fec576040517f08c379a0000000000000000000000000000000000000000000000000000000008152600401611fe39061418b565b60405180910390fd5b50505050565b6060611ffd82611713565b600060066000848152602001908152602001600020805461201d90613502565b80601f016020809104026020016040519081016040528092919081815260200182805461204990613502565b80156120965780601f1061206b57610100808354040283529160200191612096565b820191906000526020600020905b81548152906001019060200180831161207957829003601f168201915b5050505050905060006120a7612465565b905060008151036120bc5781925050506120ff565b6000825111156120f15780826040516020016120d99291906141dc565b604051602081830303815290604052925050506120ff565b6120fa8461247c565b925050505b919050565b600181111561222457600073ffffffffffffffffffffffffffffffffffffffff168473ffffffffffffffffffffffffffffffffffffffff16146121985780600360008673ffffffffffffffffffffffffffffffffffffffff1673ffffffffffffffffffffffffffffffffffffffff16815260200190815260200160002060008282546121909190613d2a565b925050819055505b600073ffffffffffffffffffffffffffffffffffffffff168373ffffffffffffffffffffffffffffffffffffffff16146122235780600360008573ffffffffffffffffffffffffffffffffffffffff1673ffffffffffffffffffffffffffffffffffffffff168152602001908152602001600020600082825461221b9190614200565b925050819055505b5b50505050565b50505050565b612239816124e4565b600060066000838152602001908152602001600020805461225990613502565b9050146122805760066000828152602001908152602001600020600061227f9190612a93565b5b50565b61228d8383612632565b61229a60008484846122de565b6122d9576040517f08c379a00000000000000000000000000000000000000000000000000000000081526004016122d09061418b565b60405180910390fd5b505050565b60006122ff8473ffffffffffffffffffffffffffffffffffffffff1661284f565b15612458578373ffffffffffffffffffffffffffffffffffffffff1663150b7a0261232861175e565b8786866040518563ffffffff1660e01b815260040161234a9493929190614289565b6020604051808303816000875af192505050801561238657506040513d601f19601f8201168201806040525081019061238391906142ea565b60015b612408573d80600081146123b6576040519150601f19603f3d011682016040523d82523d6000602084013e6123bb565b606091505b506000815103612400576040517f08c379a00000000000000000000000000000000000000000000000000000000081526004016123f79061418b565b60405180910390fd5b805181602001fd5b63150b7a0260e01b7bffffffffffffffffffffffffffffffffffffffffffffffffffffffff1916817bffffffffffffffffffffffffffffffffffffffffffffffffffffffff19161491505061245d565b600190505b949350505050565b606060405180602001604052806000815250905090565b606061248782611713565b6000612491612465565b905060008151116124b157604051806020016040528060008152506124dc565b806124bb84612872565b6040516020016124cc9291906141dc565b6040516020818303038152906040525b915050919050565b60006124ef82610ca6565b90506124ff816000846001612104565b61250882610ca6565b90506004600083815260200190815260200160002060006101000a81549073ffffffffffffffffffffffffffffffffffffffff02191690556001600360008373ffffffffffffffffffffffffffffffffffffffff1673ffffffffffffffffffffffffffffffffffffffff168152602001908152602001600020600082825403925050819055506002600083815260200190815260200160002060006101000a81549073ffffffffffffffffffffffffffffffffffffffff021916905581600073ffffffffffffffffffffffffffffffffffffffff168273ffffffffffffffffffffffffffffffffffffffff167fddf252ad1be2c89b69c2b068fc378daa952ba7f163c4a11628f55a4df523b3ef60405160405180910390a461262e81600084600161222a565b5050565b600073ffffffffffffffffffffffffffffffffffffffff168273ffffffffffffffffffffffffffffffffffffffff16036126a1576040517f08c379a000000000000000000000000000000000000000000000000000000000815260040161269890614363565b60405180910390fd5b6126aa81611bb9565b156126ea576040517f08c379a00000000000000000000000000000000000000000000000000000000081526004016126e1906143cf565b60405180910390fd5b6126f8600083836001612104565b61270181611bb9565b15612741576040517f08c379a0000000000000000000000000000000000000000000000000000000008152600401612738906143cf565b60405180910390fd5b6001600360008473ffffffffffffffffffffffffffffffffffffffff1673ffffffffffffffffffffffffffffffffffffffff16815260200190815260200160002060008282540192505081905550816002600083815260200190815260200160002060006101000a81548173ffffffffffffffffffffffffffffffffffffffff021916908373ffffffffffffffffffffffffffffffffffffffff160217905550808273ffffffffffffffffffffffffffffffffffffffff16600073ffffffffffffffffffffffffffffffffffffffff167fddf252ad1be2c89b69c2b068fc378daa952ba7f163c4a11628f55a4df523b3ef60405160405180910390a461284b60008383600161222a565b5050565b6000808273ffffffffffffffffffffffffffffffffffffffff163b119050919050565b60606000600161288184612940565b01905060008167ffffffffffffffff8111156128a05761289f612fff565b5b6040519080825280601f01601f1916602001820160405280156128d25781602001600182028036833780820191505090505b509050600082602001820190505b600115612935578080600190039150507f3031323334353637383961626364656600000000000000000000000000000000600a86061a8153600a8581612929576129286143ef565b5b049450600085036128e0575b819350505050919050565b600080600090507a184f03e93ff9f4daa797ed6e38ed64bf6a1f010000000000000000831061299e577a184f03e93ff9f4daa797ed6e38ed64bf6a1f0100000000000000008381612994576129936143ef565b5b0492506040810190505b6d04ee2d6d415b85acef810000000083106129db576d04ee2d6d415b85acef810000000083816129d1576129d06143ef565b5b0492506020810190505b662386f26fc100008310612a0a57662386f26fc100008381612a00576129ff6143ef565b5b0492506010810190505b6305f5e1008310612a33576305f5e1008381612a2957612a286143ef565b5b0492506008810190505b6127108310612a58576127108381612a4e57612a4d6143ef565b5b0492506004810190505b60648310612a7b5760648381612a7157612a706143ef565b5b0492506002810190505b600a8310612a8a576001810190505b80915050919050565b508054612a9f90613502565b6000825580601f10612ab15750612ad0565b601f016020900490600052602060002090810190612acf9190612ad3565b5b50565b5b80821115612aec576000816000905550600101612ad4565b5090565b6000604051905090565b600080fd5b600080fd5b60007fffffffff0000000000000000000000000000000000000000000000000000000082169050919050565b612b3981612b04565b8114612b4457600080fd5b50565b600081359050612b5681612b30565b92915050565b600060208284031215612b7257612b71612afa565b5b6000612b8084828501612b47565b91505092915050565b60008115159050919050565b612b9e81612b89565b82525050565b6000602082019050612bb96000830184612b95565b92915050565b600081519050919050565b600082825260208201905092915050565b60005b83811015612bf9578082015181840152602081019050612bde565b60008484015250505050565b6000601f19601f8301169050919050565b6000612c2182612bbf565b612c2b8185612bca565b9350612c3b818560208601612bdb565b612c4481612c05565b840191505092915050565b60006020820190508181036000830152612c698184612c16565b905092915050565b6000819050919050565b612c8481612c71565b8114612c8f57600080fd5b50565b600081359050612ca181612c7b565b92915050565b600060208284031215612cbd57612cbc612afa565b5b6000612ccb84828501612c92565b91505092915050565b600073ffffffffffffffffffffffffffffffffffffffff82169050919050565b6000612cff82612cd4565b9050919050565b612d0f81612cf4565b82525050565b6000602082019050612d2a6000830184612d06565b92915050565b612d3981612cf4565b8114612d4457600080fd5b50565b600081359050612d5681612d30565b92915050565b60008060408385031215612d7357612d72612afa565b5b6000612d8185828601612d47565b9250506020612d9285828601612c92565b9150509250929050565b600060208284031215612db257612db1612afa565b5b6000612dc084828501612d47565b91505092915050565b600081519050919050565b600082825260208201905092915050565b6000819050602082019050919050565b612dfe81612c71565b82525050565b600082825260208201905092915050565b6000612e2082612bbf565b612e2a8185612e04565b9350612e3a818560208601612bdb565b612e4381612c05565b840191505092915050565b612e5781612cf4565b82525050565b6000608083016000830151612e756000860182612df5565b5060208301518482036020860152612e8d8282612e15565b9150506040830151612ea26040860182612e4e565b506060830151612eb56060860182612df5565b508091505092915050565b6000612ecc8383612e5d565b905092915050565b6000602082019050919050565b6000612eec82612dc9565b612ef68185612dd4565b935083602082028501612f0885612de5565b8060005b85811015612f445784840389528151612f258582612ec0565b9450612f3083612ed4565b925060208a01995050600181019050612f0c565b50829750879550505050505092915050565b60006020820190508181036000830152612f708184612ee1565b905092915050565b600080600060608486031215612f9157612f90612afa565b5b6000612f9f86828701612d47565b9350506020612fb086828701612d47565b9250506040612fc186828701612c92565b9150509250925092565b612fd481612c71565b82525050565b6000602082019050612fef6000830184612fcb565b92915050565b600080fd5b600080fd5b7f4e487b7100000000000000000000000000000000000000000000000000000000600052604160045260246000fd5b61303782612c05565b810181811067ffffffffffffffff8211171561305657613055612fff565b5b80604052505050565b6000613069612af0565b9050613075828261302e565b919050565b600067ffffffffffffffff82111561309557613094612fff565b5b61309e82612c05565b9050602081019050919050565b82818337600083830152505050565b60006130cd6130c88461307a565b61305f565b9050828152602081018484840111156130e9576130e8612ffa565b5b6130f48482856130ab565b509392505050565b600082601f83011261311157613110612ff5565b5b81356131218482602086016130ba565b91505092915050565b6000602082840312156131405761313f612afa565b5b600082013567ffffffffffffffff81111561315e5761315d612aff565b5b61316a848285016130fc565b91505092915050565b600080fd5b600080fd5b60008083601f84011261319357613192612ff5565b5b8235905067ffffffffffffffff8111156131b0576131af613173565b5b6020830191508360018202830111156131cc576131cb613178565b5b9250929050565b6000806000806000608086880312156131ef576131ee612afa565b5b60006131fd88828901612d47565b955050602086013567ffffffffffffffff81111561321e5761321d612aff565b5b61322a888289016130fc565b945050604086013567ffffffffffffffff81111561324b5761324a612aff565b5b6132578882890161317d565b9350935050606061326a88828901612c92565b9150509295509295909350565b61328081612b89565b811461328b57600080fd5b50565b60008135905061329d81613277565b92915050565b600080604083850312156132ba576132b9612afa565b5b60006132c885828601612d47565b92505060206132d98582860161328e565b9150509250929050565b600067ffffffffffffffff8211156132fe576132fd612fff565b5b61330782612c05565b9050602081019050919050565b6000613327613322846132e3565b61305f565b90508281526020810184848401111561334357613342612ffa565b5b61334e8482856130ab565b509392505050565b600082601f83011261336b5761336a612ff5565b5b813561337b848260208601613314565b91505092915050565b6000806000806080858703121561339e5761339d612afa565b5b60006133ac87828801612d47565b94505060206133bd87828801612d47565b93505060406133ce87828801612c92565b925050606085013567ffffffffffffffff8111156133ef576133ee612aff565b5b6133fb87828801613356565b91505092959194509250565b6000806040838503121561341e5761341d612afa565b5b600061342c85828601612d47565b925050602061343d85828601612d47565b9150509250929050565b600060808201905061345c6000830187612fcb565b818103602083015261346e8186612c16565b905061347d6040830185612d06565b61348a6060830184612fcb565b95945050505050565b600080604083850312156134aa576134a9612afa565b5b60006134b885828601612c92565b92505060206134c985828601612c92565b9150509250929050565b7f4e487b7100000000000000000000000000000000000000000000000000000000600052602260045260246000fd5b6000600282049050600182168061351a57607f821691505b60208210810361352d5761352c6134d3565b5b50919050565b7f4552433732313a20617070726f76616c20746f2063757272656e74206f776e6560008201527f7200000000000000000000000000000000000000000000000000000000000000602082015250565b600061358f602183612bca565b915061359a82613533565b604082019050919050565b600060208201905081810360008301526135be81613582565b9050919050565b7f4552433732313a20617070726f76652063616c6c6572206973206e6f7420746f60008201527f6b656e206f776e6572206f7220617070726f76656420666f7220616c6c000000602082015250565b6000613621603d83612bca565b915061362c826135c5565b604082019050919050565b6000602082019050818103600083015261365081613614565b9050919050565b7f4552433732313a2063616c6c6572206973206e6f7420746f6b656e206f776e6560008201527f72206f7220617070726f76656400000000000000000000000000000000000000602082015250565b60006136b3602d83612bca565b91506136be82613657565b604082019050919050565b600060208201905081810360008301526136e2816136a6565b9050919050565b7f546f6b656e20646f6573206e6f74206578697374000000000000000000000000600082015250565b600061371f601483612bca565b915061372a826136e9565b602082019050919050565b6000602082019050818103600083015261374e81613712565b9050919050565b7f4e487b7100000000000000000000000000000000000000000000000000000000600052603260045260246000fd5b7f4e487b7100000000000000000000000000000000000000000000000000000000600052601160045260246000fd5b60006137be82612c71565b91507fffffffffffffffffffffffffffffffffffffffffffffffffffffffffffffffff82036137f0576137ef613784565b5b600182019050919050565b7f546f6b656e206e6f7420666f756e640000000000000000000000000000000000600082015250565b6000613831600f83612bca565b915061383c826137fb565b602082019050919050565b6000602082019050818103600083015261386081613824565b9050919050565b7f4552433732313a20696e76616c696420746f6b656e2049440000000000000000600082015250565b600061389d601883612bca565b91506138a882613867565b602082019050919050565b600060208201905081810360008301526138cc81613890565b9050919050565b7f4552433732313a2061646472657373207a65726f206973206e6f74206120766160008201527f6c6964206f776e65720000000000000000000000000000000000000000000000602082015250565b600061392f602983612bca565b915061393a826138d3565b604082019050919050565b6000602082019050818103600083015261395e81613922565b9050919050565b600081905092915050565b600061397c8385613965565b93506139898385846130ab565b82840190509392505050565b60006139a2828486613970565b91508190509392505050565b7f546f6b656e20616c726561647920657869737473210000000000000000000000600082015250565b60006139e4601583612bca565b91506139ef826139ae565b602082019050919050565b60006020820190508181036000830152613a13816139d7565b9050919050565b60008190508160005260206000209050919050565b60006020601f8301049050919050565b600082821b905092915050565b600060088302613a7c7fffffffffffffffffffffffffffffffffffffffffffffffffffffffffffffffff82613a3f565b613a868683613a3f565b95508019841693508086168417925050509392505050565b6000819050919050565b6000613ac3613abe613ab984612c71565b613a9e565b612c71565b9050919050565b6000819050919050565b613add83613aa8565b613af1613ae982613aca565b848454613a4c565b825550505050565b600090565b613b06613af9565b613b11818484613ad4565b505050565b5b81811015613b3557613b2a600082613afe565b600181019050613b17565b5050565b601f821115613b7a57613b4b81613a1a565b613b5484613a2f565b81016020851015613b63578190505b613b77613b6f85613a2f565b830182613b16565b50505b505050565b600082821c905092915050565b6000613b9d60001984600802613b7f565b1980831691505092915050565b6000613bb68383613b8c565b9150826002028217905092915050565b613bcf82612bbf565b67ffffffffffffffff811115613be857613be7612fff565b5b613bf28254613502565b613bfd828285613b39565b600060209050601f831160018114613c305760008415613c1e578287015190505b613c288582613baa565b865550613c90565b601f198416613c3e86613a1a565b60005b82811015613c6657848901518255600182019150602085019450602081019050613c41565b86831015613c835784890151613c7f601f891682613b8c565b8355505b6001600288020188555050505b505050505050565b7f4f776e61626c653a206e6577206f776e657220697320746865207a65726f206160008201527f6464726573730000000000000000000000000000000000000000000000000000602082015250565b6000613cf4602683612bca565b9150613cff82613c98565b604082019050919050565b60006020820190508181036000830152613d2381613ce7565b9050919050565b6000613d3582612c71565b9150613d4083612c71565b9250828203905081811115613d5857613d57613784565b5b92915050565b600081549050613d6d81613502565b9050919050565b818103613d82575050613e5a565b613d8b82613d5e565b67ffffffffffffffff811115613da457613da3612fff565b5b613dae8254613502565b613db9828285613b39565b6000601f831160018114613de85760008415613dd6578287015490505b613de08582613baa565b865550613e53565b601f198416613df687613a1a565b9650613e0186613a1a565b60005b82811015613e2957848901548255600182019150600185019450602081019050613e04565b86831015613e465784890154613e42601f891682613b8c565b8355505b6001600288020188555050505b5050505050505b565b7f4e487b7100000000000000000000000000000000000000000000000000000000600052603160045260246000fd5b7f4552433732313a207472616e736665722066726f6d20696e636f72726563742060008201527f6f776e6572000000000000000000000000000000000000000000000000000000602082015250565b6000613ee7602583612bca565b9150613ef282613e8b565b604082019050919050565b60006020820190508181036000830152613f1681613eda565b9050919050565b7f4552433732313a207472616e7366657220746f20746865207a65726f2061646460008201527f7265737300000000000000000000000000000000000000000000000000000000602082015250565b6000613f79602483612bca565b9150613f8482613f1d565b604082019050919050565b60006020820190508181036000830152613fa881613f6c565b9050919050565b7f4f776e61626c653a2063616c6c6572206973206e6f7420746865206f776e6572600082015250565b6000613fe5602083612bca565b9150613ff082613faf565b602082019050919050565b6000602082019050818103600083015261401481613fd8565b9050919050565b7f45524337323155524953746f726167653a2055524920736574206f66206e6f6e60008201527f6578697374656e7420746f6b656e000000000000000000000000000000000000602082015250565b6000614077602e83612bca565b91506140828261401b565b604082019050919050565b600060208201905081810360008301526140a68161406a565b9050919050565b7f4552433732313a20617070726f766520746f2063616c6c657200000000000000600082015250565b60006140e3601983612bca565b91506140ee826140ad565b602082019050919050565b60006020820190508181036000830152614112816140d6565b9050919050565b7f4552433732313a207472616e7366657220746f206e6f6e20455243373231526560008201527f63656976657220696d706c656d656e7465720000000000000000000000000000602082015250565b6000614175603283612bca565b915061418082614119565b604082019050919050565b600060208201905081810360008301526141a481614168565b9050919050565b60006141b682612bbf565b6141c08185613965565b93506141d0818560208601612bdb565b80840191505092915050565b60006141e882856141ab565b91506141f482846141ab565b91508190509392505050565b600061420b82612c71565b915061421683612c71565b925082820190508082111561422e5761422d613784565b5b92915050565b600081519050919050565b600082825260208201905092915050565b600061425b82614234565b614265818561423f565b9350614275818560208601612bdb565b61427e81612c05565b840191505092915050565b600060808201905061429e6000830187612d06565b6142ab6020830186612d06565b6142b86040830185612fcb565b81810360608301526142ca8184614250565b905095945050505050565b6000815190506142e481612b30565b92915050565b600060208284031215614300576142ff612afa565b5b600061430e848285016142d5565b91505092915050565b7f4552433732313a206d696e7420746f20746865207a65726f2061646472657373600082015250565b600061434d602083612bca565b915061435882614317565b602082019050919050565b6000602082019050818103600083015261437c81614340565b9050919050565b7f4552433732313a20746f6b656e20616c7265616479206d696e74656400000000600082015250565b60006143b9601c83612bca565b91506143c482614383565b602082019050919050565b600060208201905081810360008301526143e8816143ac565b9050919050565b7f4e487b7100000000000000000000000000000000000000000000000000000000600052601260045260246000fdfea26469706673582212209a18da2ec531f0a48e333e7d980173784c862a88ae1fc82b5aa0112bdba5cc9164736f6c63430008120033",
  "immutableReferences": {},
  "source": "// SPDX-License-Identifier: MIT\r\npragma solidity ^0.8.9;\r\n\r\nimport \"@openzeppelin/contracts/token/ERC721/ERC721.sol\";\r\nimport \"@openzeppelin/contracts/token/ERC721/extensions/ERC721URIStorage.sol\";\r\nimport \"@openzeppelin/contracts/token/ERC721/extensions/ERC721Burnable.sol\";\r\nimport \"@openzeppelin/contracts/access/Ownable.sol\";\r\nimport \"@openzeppelin/contracts/utils/Counters.sol\";\r\n\r\ncontract PoseidonNFT is ERC721, ERC721URIStorage, ERC721Burnable, Ownable {\r\n    using Counters for Counters.Counter;\r\n    Counters.Counter private _tokenIdCounter;\r\n    address marketContract;\r\n    event NFTMinted(uint256);\r\n\r\n    struct NFT {\r\n        uint tokenId;\r\n        string tokenName;\r\n        address owner;\r\n        uint256 durability;\r\n    }\r\n\r\n    mapping(address => NFT[]) public tokenAddress;\r\n    mapping(string => bool) public tokenExists;\r\n\r\n    constructor(address _marketContract) ERC721(\"PoseidonNFT\", \"PNFT\") {\r\n        marketContract = _marketContract;\r\n    }\r\n\r\n    function mint(\r\n        address _to,\r\n        string memory _uri,\r\n        string calldata _tokenName,\r\n        uint256 _durability\r\n    ) public onlyOwner {\r\n        require(!tokenExists[_tokenName], \"Token already exists!\");\r\n        _tokenIdCounter.increment();\r\n        uint256 tokenId = _tokenIdCounter.current();\r\n\r\n        _safeMint(_to, tokenId);\r\n        _setTokenURI(tokenId, _uri);\r\n        _approve(marketContract, tokenId);\r\n\r\n        tokenAddress[_to].push(NFT(tokenId, _tokenName, _to, _durability));\r\n        tokenExists[_tokenName] = true;\r\n        emit NFTMinted(tokenId);\r\n    }\r\n\r\n    function getMyTokens(address _wallet) public view returns (NFT[] memory) {\r\n        return tokenAddress[_wallet];\r\n    }\r\n\r\n    function getDurability(uint256 tokenId) public view returns (uint256) {\r\n        require(_exists(tokenId), \"Token does not exist\");\r\n        NFT[] memory tokens = tokenAddress[ownerOf(tokenId)];\r\n        for (uint i = 0; i < tokens.length; i++) {\r\n            if (tokens[i].tokenId == tokenId) {\r\n                return tokens[i].durability;\r\n            }\r\n        }\r\n        revert(\"Token not found\");\r\n    }\r\n\r\n    function updateDurability(uint256 tokenId, uint256 _durability) public {\r\n        require(_exists(tokenId), \"Token does not exist\");\r\n        NFT[] storage tokens = tokenAddress[ownerOf(tokenId)];\r\n        for (uint i = 0; i < tokens.length; i++) {\r\n            if (tokens[i].tokenId == tokenId) {\r\n                tokens[i].durability = _durability;\r\n                if (tokens[i].durability == 0) {\r\n                    _burn(tokens[i].tokenId);\r\n                    tokens[i] = tokens[tokens.length - 1];\r\n                    tokens.pop();\r\n                    break;\r\n                }\r\n            }\r\n        }\r\n    }\r\n\r\n    // The following functions are overrides required by Solidity.\r\n\r\n    function _burn(\r\n        uint256 tokenId\r\n    ) internal override(ERC721, ERC721URIStorage) {\r\n        super._burn(tokenId);\r\n    }\r\n\r\n    function tokenURI(\r\n        uint256 tokenId\r\n    ) public view override(ERC721, ERC721URIStorage) returns (string memory) {\r\n        return super.tokenURI(tokenId);\r\n    }\r\n}\r\n",
  "sourcePath": "C:\\Users\\muizy\\Desktop\\blockchain\\contracts\\PoseidonNFT.sol",
  "compiler": {
    "name": "solc",
    "version": "0.8.18+commit.87f61d96.Emscripten.clang"
  },
  "schemaVersion": "3.4.11",
  "updatedAt": "2023-04-03T02:13:04.417Z",
  "networkType": "ethereum",
  "devdoc": {
    "events": {
      "Approval(address,address,uint256)": {
        "details": "Emitted when `owner` enables `approved` to manage the `tokenId` token."
      },
      "ApprovalForAll(address,address,bool)": {
        "details": "Emitted when `owner` enables or disables (`approved`) `operator` to manage all of its assets."
      },
      "Transfer(address,address,uint256)": {
        "details": "Emitted when `tokenId` token is transferred from `from` to `to`."
      }
    },
    "kind": "dev",
    "methods": {
      "approve(address,uint256)": {
        "details": "See {IERC721-approve}."
      },
      "balanceOf(address)": {
        "details": "See {IERC721-balanceOf}."
      },
      "burn(uint256)": {
        "details": "Burns `tokenId`. See {ERC721-_burn}. Requirements: - The caller must own `tokenId` or be an approved operator."
      },
      "getApproved(uint256)": {
        "details": "See {IERC721-getApproved}."
      },
      "isApprovedForAll(address,address)": {
        "details": "See {IERC721-isApprovedForAll}."
      },
      "name()": {
        "details": "See {IERC721Metadata-name}."
      },
      "owner()": {
        "details": "Returns the address of the current owner."
      },
      "ownerOf(uint256)": {
        "details": "See {IERC721-ownerOf}."
      },
      "renounceOwnership()": {
        "details": "Leaves the contract without owner. It will not be possible to call `onlyOwner` functions anymore. Can only be called by the current owner. NOTE: Renouncing ownership will leave the contract without an owner, thereby removing any functionality that is only available to the owner."
      },
      "safeTransferFrom(address,address,uint256)": {
        "details": "See {IERC721-safeTransferFrom}."
      },
      "safeTransferFrom(address,address,uint256,bytes)": {
        "details": "See {IERC721-safeTransferFrom}."
      },
      "setApprovalForAll(address,bool)": {
        "details": "See {IERC721-setApprovalForAll}."
      },
      "supportsInterface(bytes4)": {
        "details": "See {IERC165-supportsInterface}."
      },
      "symbol()": {
        "details": "See {IERC721Metadata-symbol}."
      },
      "transferFrom(address,address,uint256)": {
        "details": "See {IERC721-transferFrom}."
      },
      "transferOwnership(address)": {
        "details": "Transfers ownership of the contract to a new account (`newOwner`). Can only be called by the current owner."
      }
    },
    "version": 1
  },
  "userdoc": {
    "kind": "user",
    "methods": {},
    "version": 1
  }
}