{
  "contractName": "PoseidonMarket",
  "abi": [
    {
      "inputs": [],
      "stateMutability": "nonpayable",
      "type": "constructor"
    },
    {
      "anonymous": false,
      "inputs": [
        {
          "indexed": true,
          "internalType": "address",
          "name": "account",
          "type": "address"
        },
        {
          "indexed": true,
          "internalType": "address",
          "name": "operator",
          "type": "address"
        },
        {
          "indexed": false,
          "internalType": "bool",
          "name": "approved",
          "type": "bool"
        }
      ],
      "name": "ApprovalForAll",
      "type": "event"
    },
    {
      "anonymous": false,
      "inputs": [
        {
          "indexed": false,
          "internalType": "uint256",
          "name": "listingId",
          "type": "uint256"
        }
      ],
      "name": "ListingCancelled",
      "type": "event"
    },
    {
      "anonymous": false,
      "inputs": [
        {
          "indexed": false,
          "internalType": "uint256",
          "name": "listingId",
          "type": "uint256"
        },
        {
          "indexed": false,
          "internalType": "address",
          "name": "seller",
          "type": "address"
        },
        {
          "indexed": false,
          "internalType": "address",
          "name": "tokenContract",
          "type": "address"
        },
        {
          "indexed": false,
          "internalType": "uint256",
          "name": "tokenId",
          "type": "uint256"
        },
        {
          "indexed": false,
          "internalType": "uint256",
          "name": "quantity",
          "type": "uint256"
        },
        {
          "indexed": false,
          "internalType": "uint256",
          "name": "price",
          "type": "uint256"
        }
      ],
      "name": "ListingCreated",
      "type": "event"
    },
    {
      "anonymous": false,
      "inputs": [
        {
          "indexed": false,
          "internalType": "uint256",
          "name": "listingId",
          "type": "uint256"
        },
        {
          "indexed": false,
          "internalType": "address",
          "name": "buyer",
          "type": "address"
        }
      ],
      "name": "ListingSold",
      "type": "event"
    },
    {
      "anonymous": false,
      "inputs": [
        {
          "indexed": false,
          "internalType": "uint256",
          "name": "listingId",
          "type": "uint256"
        },
        {
          "indexed": false,
          "internalType": "uint256",
          "name": "quantity",
          "type": "uint256"
        },
        {
          "indexed": false,
          "internalType": "uint256",
          "name": "price",
          "type": "uint256"
        }
      ],
      "name": "ListingUpdated",
      "type": "event"
    },
    {
      "anonymous": false,
      "inputs": [
        {
          "indexed": true,
          "internalType": "address",
          "name": "previousOwner",
          "type": "address"
        },
        {
          "indexed": true,
          "internalType": "address",
          "name": "newOwner",
          "type": "address"
        }
      ],
      "name": "OwnershipTransferred",
      "type": "event"
    },
    {
      "anonymous": false,
      "inputs": [
        {
          "indexed": true,
          "internalType": "address",
          "name": "operator",
          "type": "address"
        },
        {
          "indexed": true,
          "internalType": "address",
          "name": "from",
          "type": "address"
        },
        {
          "indexed": true,
          "internalType": "address",
          "name": "to",
          "type": "address"
        },
        {
          "indexed": false,
          "internalType": "uint256[]",
          "name": "ids",
          "type": "uint256[]"
        },
        {
          "indexed": false,
          "internalType": "uint256[]",
          "name": "values",
          "type": "uint256[]"
        }
      ],
      "name": "TransferBatch",
      "type": "event"
    },
    {
      "anonymous": false,
      "inputs": [
        {
          "indexed": true,
          "internalType": "address",
          "name": "operator",
          "type": "address"
        },
        {
          "indexed": true,
          "internalType": "address",
          "name": "from",
          "type": "address"
        },
        {
          "indexed": true,
          "internalType": "address",
          "name": "to",
          "type": "address"
        },
        {
          "indexed": false,
          "internalType": "uint256",
          "name": "id",
          "type": "uint256"
        },
        {
          "indexed": false,
          "internalType": "uint256",
          "name": "value",
          "type": "uint256"
        }
      ],
      "name": "TransferSingle",
      "type": "event"
    },
    {
      "anonymous": false,
      "inputs": [
        {
          "indexed": false,
          "internalType": "string",
          "name": "value",
          "type": "string"
        },
        {
          "indexed": true,
          "internalType": "uint256",
          "name": "id",
          "type": "uint256"
        }
      ],
      "name": "URI",
      "type": "event"
    },
    {
      "anonymous": false,
      "inputs": [
        {
          "indexed": false,
          "internalType": "uint256",
          "name": "amount",
          "type": "uint256"
        },
        {
          "indexed": false,
          "internalType": "uint256",
          "name": "timestamp",
          "type": "uint256"
        }
      ],
      "name": "Withdraw",
      "type": "event"
    },
    {
      "inputs": [
        {
          "internalType": "address",
          "name": "account",
          "type": "address"
        },
        {
          "internalType": "uint256",
          "name": "id",
          "type": "uint256"
        }
      ],
      "name": "balanceOf",
      "outputs": [
        {
          "internalType": "uint256",
          "name": "",
          "type": "uint256"
        }
      ],
      "stateMutability": "view",
      "type": "function"
    },
    {
      "inputs": [
        {
          "internalType": "address[]",
          "name": "accounts",
          "type": "address[]"
        },
        {
          "internalType": "uint256[]",
          "name": "ids",
          "type": "uint256[]"
        }
      ],
      "name": "balanceOfBatch",
      "outputs": [
        {
          "internalType": "uint256[]",
          "name": "",
          "type": "uint256[]"
        }
      ],
      "stateMutability": "view",
      "type": "function"
    },
    {
      "inputs": [
        {
          "internalType": "address",
          "name": "",
          "type": "address"
        }
      ],
      "name": "earnings",
      "outputs": [
        {
          "internalType": "uint256",
          "name": "",
          "type": "uint256"
        }
      ],
      "stateMutability": "view",
      "type": "function"
    },
    {
      "inputs": [
        {
          "internalType": "address",
          "name": "account",
          "type": "address"
        },
        {
          "internalType": "address",
          "name": "operator",
          "type": "address"
        }
      ],
      "name": "isApprovedForAll",
      "outputs": [
        {
          "internalType": "bool",
          "name": "",
          "type": "bool"
        }
      ],
      "stateMutability": "view",
      "type": "function"
    },
    {
      "inputs": [
        {
          "internalType": "uint256",
          "name": "",
          "type": "uint256"
        }
      ],
      "name": "listings",
      "outputs": [
        {
          "internalType": "uint256",
          "name": "listingId",
          "type": "uint256"
        },
        {
          "internalType": "address",
          "name": "seller",
          "type": "address"
        },
        {
          "internalType": "address",
          "name": "tokenContract",
          "type": "address"
        },
        {
          "internalType": "uint256",
          "name": "tokenId",
          "type": "uint256"
        },
        {
          "internalType": "uint256",
          "name": "quantity",
          "type": "uint256"
        },
        {
          "internalType": "uint256",
          "name": "price",
          "type": "uint256"
        }
      ],
      "stateMutability": "view",
      "type": "function"
    },
    {
      "inputs": [],
      "name": "owner",
      "outputs": [
        {
          "internalType": "address",
          "name": "",
          "type": "address"
        }
      ],
      "stateMutability": "view",
      "type": "function"
    },
    {
      "inputs": [],
      "name": "renounceOwnership",
      "outputs": [],
      "stateMutability": "nonpayable",
      "type": "function"
    },
    {
      "inputs": [
        {
          "internalType": "address",
          "name": "from",
          "type": "address"
        },
        {
          "internalType": "address",
          "name": "to",
          "type": "address"
        },
        {
          "internalType": "uint256[]",
          "name": "ids",
          "type": "uint256[]"
        },
        {
          "internalType": "uint256[]",
          "name": "amounts",
          "type": "uint256[]"
        },
        {
          "internalType": "bytes",
          "name": "data",
          "type": "bytes"
        }
      ],
      "name": "safeBatchTransferFrom",
      "outputs": [],
      "stateMutability": "nonpayable",
      "type": "function"
    },
    {
      "inputs": [
        {
          "internalType": "address",
          "name": "from",
          "type": "address"
        },
        {
          "internalType": "address",
          "name": "to",
          "type": "address"
        },
        {
          "internalType": "uint256",
          "name": "id",
          "type": "uint256"
        },
        {
          "internalType": "uint256",
          "name": "amount",
          "type": "uint256"
        },
        {
          "internalType": "bytes",
          "name": "data",
          "type": "bytes"
        }
      ],
      "name": "safeTransferFrom",
      "outputs": [],
      "stateMutability": "nonpayable",
      "type": "function"
    },
    {
      "inputs": [
        {
          "internalType": "address",
          "name": "operator",
          "type": "address"
        },
        {
          "internalType": "bool",
          "name": "approved",
          "type": "bool"
        }
      ],
      "name": "setApprovalForAll",
      "outputs": [],
      "stateMutability": "nonpayable",
      "type": "function"
    },
    {
      "inputs": [
        {
          "internalType": "bytes4",
          "name": "interfaceId",
          "type": "bytes4"
        }
      ],
      "name": "supportsInterface",
      "outputs": [
        {
          "internalType": "bool",
          "name": "",
          "type": "bool"
        }
      ],
      "stateMutability": "view",
      "type": "function"
    },
    {
      "inputs": [
        {
          "internalType": "address",
          "name": "newOwner",
          "type": "address"
        }
      ],
      "name": "transferOwnership",
      "outputs": [],
      "stateMutability": "nonpayable",
      "type": "function"
    },
    {
      "inputs": [
        {
          "internalType": "uint256",
          "name": "",
          "type": "uint256"
        }
      ],
      "name": "uri",
      "outputs": [
        {
          "internalType": "string",
          "name": "",
          "type": "string"
        }
      ],
      "stateMutability": "view",
      "type": "function"
    },
    {
      "inputs": [
        {
          "internalType": "address",
          "name": "",
          "type": "address"
        },
        {
          "internalType": "address",
          "name": "",
          "type": "address"
        },
        {
          "internalType": "uint256",
          "name": "",
          "type": "uint256"
        },
        {
          "internalType": "bytes",
          "name": "",
          "type": "bytes"
        }
      ],
      "name": "onERC721Received",
      "outputs": [
        {
          "internalType": "bytes4",
          "name": "",
          "type": "bytes4"
        }
      ],
      "stateMutability": "pure",
      "type": "function"
    },
    {
      "inputs": [
        {
          "internalType": "address",
          "name": "_wallet",
          "type": "address"
        },
        {
          "internalType": "address",
          "name": "_tokenContract",
          "type": "address"
        },
        {
          "internalType": "uint256",
          "name": "_tokenId",
          "type": "uint256"
        },
        {
          "internalType": "uint256",
          "name": "_quantity",
          "type": "uint256"
        },
        {
          "internalType": "uint256",
          "name": "_price",
          "type": "uint256"
        }
      ],
      "name": "createListing",
      "outputs": [],
      "stateMutability": "nonpayable",
      "type": "function"
    },
    {
      "inputs": [
        {
          "internalType": "address",
          "name": "_wallet",
          "type": "address"
        },
        {
          "internalType": "uint256",
          "name": "listingId",
          "type": "uint256"
        },
        {
          "internalType": "uint256",
          "name": "quantity",
          "type": "uint256"
        },
        {
          "internalType": "uint256",
          "name": "price",
          "type": "uint256"
        }
      ],
      "name": "updateListing",
      "outputs": [],
      "stateMutability": "nonpayable",
      "type": "function"
    },
    {
      "inputs": [
        {
          "internalType": "address",
          "name": "_wallet",
          "type": "address"
        },
        {
          "internalType": "uint256",
          "name": "listingId",
          "type": "uint256"
        }
      ],
      "name": "cancelListing",
      "outputs": [],
      "stateMutability": "nonpayable",
      "type": "function"
    },
    {
      "inputs": [
        {
          "internalType": "address",
          "name": "_wallet",
          "type": "address"
        },
        {
          "internalType": "uint256",
          "name": "listingId",
          "type": "uint256"
        },
        {
          "internalType": "uint256",
          "name": "quantity",
          "type": "uint256"
        }
      ],
      "name": "buy",
      "outputs": [],
      "stateMutability": "nonpayable",
      "type": "function"
    },
    {
      "inputs": [],
      "name": "get721Listings",
      "outputs": [
        {
          "components": [
            {
              "internalType": "uint256",
              "name": "listingId",
              "type": "uint256"
            },
            {
              "internalType": "address",
              "name": "seller",
              "type": "address"
            },
            {
              "internalType": "address",
              "name": "tokenContract",
              "type": "address"
            },
            {
              "internalType": "uint256",
              "name": "tokenId",
              "type": "uint256"
            },
            {
              "internalType": "uint256",
              "name": "quantity",
              "type": "uint256"
            },
            {
              "internalType": "uint256",
              "name": "price",
              "type": "uint256"
            }
          ],
          "internalType": "struct PoseidonMarket.Listing[]",
          "name": "",
          "type": "tuple[]"
        }
      ],
      "stateMutability": "view",
      "type": "function"
    },
    {
      "inputs": [],
      "name": "get1155Listings",
      "outputs": [
        {
          "components": [
            {
              "internalType": "uint256",
              "name": "listingId",
              "type": "uint256"
            },
            {
              "internalType": "address",
              "name": "seller",
              "type": "address"
            },
            {
              "internalType": "address",
              "name": "tokenContract",
              "type": "address"
            },
            {
              "internalType": "uint256",
              "name": "tokenId",
              "type": "uint256"
            },
            {
              "internalType": "uint256",
              "name": "quantity",
              "type": "uint256"
            },
            {
              "internalType": "uint256",
              "name": "price",
              "type": "uint256"
            }
          ],
          "internalType": "struct PoseidonMarket.Listing[]",
          "name": "",
          "type": "tuple[]"
        }
      ],
      "stateMutability": "view",
      "type": "function"
    },
    {
      "inputs": [
        {
          "internalType": "address",
          "name": "_wallet",
          "type": "address"
        }
      ],
      "name": "getEarnings",
      "outputs": [
        {
          "internalType": "uint256",
          "name": "",
          "type": "uint256"
        }
      ],
      "stateMutability": "view",
      "type": "function"
    },
    {
      "inputs": [
        {
          "internalType": "address",
          "name": "_wallet",
          "type": "address"
        }
      ],
      "name": "withdraw",
      "outputs": [],
      "stateMutability": "nonpayable",
      "type": "function"
    },
    {
      "inputs": [
        {
          "internalType": "address",
          "name": "_tokenContract",
          "type": "address"
        }
      ],
      "name": "setCurrency",
      "outputs": [],
      "stateMutability": "nonpayable",
      "type": "function"
    },
    {
      "inputs": [],
      "name": "getCollectedFees",
      "outputs": [
        {
          "internalType": "uint256",
          "name": "",
          "type": "uint256"
        }
      ],
      "stateMutability": "view",
      "type": "function"
    }
  ],
  "bytecode": "0x60806040523480156200001157600080fd5b506040518060200160405280600081525062000033816200006260201b60201c565b5062000054620000486200007760201b60201c565b6200007f60201b60201c565b6001600481905550620004a6565b8060029081620000739190620003bf565b5050565b600033905090565b6000600360009054906101000a900473ffffffffffffffffffffffffffffffffffffffff16905081600360006101000a81548173ffffffffffffffffffffffffffffffffffffffff021916908373ffffffffffffffffffffffffffffffffffffffff1602179055508173ffffffffffffffffffffffffffffffffffffffff168173ffffffffffffffffffffffffffffffffffffffff167f8be0079c531659141344cd1fd0a4f28419497f9722a3daafe3b4186f6b6457e060405160405180910390a35050565b600081519050919050565b7f4e487b7100000000000000000000000000000000000000000000000000000000600052604160045260246000fd5b7f4e487b7100000000000000000000000000000000000000000000000000000000600052602260045260246000fd5b60006002820490506001821680620001c757607f821691505b602082108103620001dd57620001dc6200017f565b5b50919050565b60008190508160005260206000209050919050565b60006020601f8301049050919050565b600082821b905092915050565b600060088302620002477fffffffffffffffffffffffffffffffffffffffffffffffffffffffffffffffff8262000208565b62000253868362000208565b95508019841693508086168417925050509392505050565b6000819050919050565b6000819050919050565b6000620002a06200029a62000294846200026b565b62000275565b6200026b565b9050919050565b6000819050919050565b620002bc836200027f565b620002d4620002cb82620002a7565b84845462000215565b825550505050565b600090565b620002eb620002dc565b620002f8818484620002b1565b505050565b5b81811015620003205762000314600082620002e1565b600181019050620002fe565b5050565b601f8211156200036f576200033981620001e3565b6200034484620001f8565b8101602085101562000354578190505b6200036c6200036385620001f8565b830182620002fd565b50505b505050565b600082821c905092915050565b6000620003946000198460080262000374565b1980831691505092915050565b6000620003af838362000381565b9150826002028217905092915050565b620003ca8262000145565b67ffffffffffffffff811115620003e657620003e562000150565b5b620003f28254620001ae565b620003ff82828562000324565b600060209050601f83116001811462000437576000841562000422578287015190505b6200042e8582620003a1565b8655506200049e565b601f1984166200044786620001e3565b60005b8281101562000471578489015182556001820191506020850194506020810190506200044a565b868310156200049157848901516200048d601f89168262000381565b8355505b6001600288020188555050505b505050505050565b6156dc80620004b66000396000f3fe608060405234801561001057600080fd5b50600436106101575760003560e01c8063a22cb465116100c3578063d99647571161007c578063d9964757146103d4578063de74e57b146103f0578063e985e9c514610425578063ebc9537614610455578063f242432a14610473578063f2fde38b1461048f57610157565b8063a22cb46514610328578063a59ac6dd14610344578063b2ddee0614610360578063bfb1e2041461037c578063c88118e71461039a578063d54a8d18146103b657610157565b80632f84c391116101155780632f84c391146102685780634e1273f41461028457806351cff8d9146102b4578063543fd313146102d0578063715018a6146103005780638da5cb5b1461030a57610157565b8062fdd58e1461015c57806301ffc9a71461018c5780630e89341c146101bc578063131b9c04146101ec578063150b7a021461021c5780632eb2c2d61461024c575b600080fd5b61017660048036038101906101719190613688565b6104ab565b60405161018391906136d7565b60405180910390f35b6101a660048036038101906101a1919061374a565b610573565b6040516101b39190613792565b60405180910390f35b6101d660048036038101906101d191906137ad565b610655565b6040516101e3919061386a565b60405180910390f35b6102066004803603810190610201919061388c565b6106e9565b60405161021391906136d7565b60405180910390f35b6102366004803603810190610231919061391e565b610732565b60405161024391906139b5565b60405180910390f35b61026660048036038101906102619190613bc3565b610747565b005b610282600480360381019061027d919061388c565b6107e8565b005b61029e60048036038101906102999190613d55565b61082c565b6040516102ab9190613e8b565b60405180910390f35b6102ce60048036038101906102c9919061388c565b610945565b005b6102ea60048036038101906102e5919061388c565b610b56565b6040516102f791906136d7565b60405180910390f35b610308610b6e565b005b610312610b82565b60405161031f9190613ebc565b60405180910390f35b610342600480360381019061033d9190613f03565b610bac565b005b61035e60048036038101906103599190613f43565b610bc2565b005b61037a60048036038101906103759190613688565b6112d1565b005b6103846116fc565b60405161039191906140cf565b60405180910390f35b6103b460048036038101906103af91906140f1565b61196d565b005b6103be611e33565b6040516103cb91906136d7565b60405180910390f35b6103ee60048036038101906103e9919061416c565b611edb565b005b61040a600480360381019061040591906137ad565b61208c565b60405161041c969594939291906141d3565b60405180910390f35b61043f600480360381019061043a9190614234565b612108565b60405161044c9190613792565b60405180910390f35b61045d61219c565b60405161046a91906140cf565b60405180910390f35b61048d60048036038101906104889190614274565b61240d565b005b6104a960048036038101906104a4919061388c565b6124ae565b005b60008073ffffffffffffffffffffffffffffffffffffffff168373ffffffffffffffffffffffffffffffffffffffff160361051b576040517f08c379a00000000000000000000000000000000000000000000000000000000081526004016105129061437d565b60405180910390fd5b60008083815260200190815260200160002060008473ffffffffffffffffffffffffffffffffffffffff1673ffffffffffffffffffffffffffffffffffffffff16815260200190815260200160002054905092915050565b60007fd9b67a26000000000000000000000000000000000000000000000000000000007bffffffffffffffffffffffffffffffffffffffffffffffffffffffff1916827bffffffffffffffffffffffffffffffffffffffffffffffffffffffff1916148061063e57507f0e89341c000000000000000000000000000000000000000000000000000000007bffffffffffffffffffffffffffffffffffffffffffffffffffffffff1916827bffffffffffffffffffffffffffffffffffffffffffffffffffffffff1916145b8061064e575061064d82612531565b5b9050919050565b606060028054610664906143cc565b80601f0160208091040260200160405190810160405280929190818152602001828054610690906143cc565b80156106dd5780601f106106b2576101008083540402835291602001916106dd565b820191906000526020600020905b8154815290600101906020018083116106c057829003601f168201915b50505050509050919050565b6000600660008373ffffffffffffffffffffffffffffffffffffffff1673ffffffffffffffffffffffffffffffffffffffff168152602001908152602001600020549050919050565b600063150b7a0260e01b905095945050505050565b61074f61259b565b73ffffffffffffffffffffffffffffffffffffffff168573ffffffffffffffffffffffffffffffffffffffff16148061079557506107948561078f61259b565b612108565b5b6107d4576040517f08c379a00000000000000000000000000000000000000000000000000000000081526004016107cb9061446f565b60405180910390fd5b6107e185858585856125a3565b5050505050565b80600760006101000a81548173ffffffffffffffffffffffffffffffffffffffff021916908373ffffffffffffffffffffffffffffffffffffffff16021790555050565b60608151835114610872576040517f08c379a000000000000000000000000000000000000000000000000000000000815260040161086990614501565b60405180910390fd5b6000835167ffffffffffffffff81111561088f5761088e6139d0565b5b6040519080825280602002602001820160405280156108bd5781602001602082028036833780820191505090505b50905060005b845181101561093a5761090a8582815181106108e2576108e1614521565b5b60200260200101518583815181106108fd576108fc614521565b5b60200260200101516104ab565b82828151811061091d5761091c614521565b5b602002602001018181525050806109339061457f565b90506108c3565b508091505092915050565b61094d6128c4565b6000600660008373ffffffffffffffffffffffffffffffffffffffff1673ffffffffffffffffffffffffffffffffffffffff16815260200190815260200160002054036109cf576040517f08c379a00000000000000000000000000000000000000000000000000000000081526004016109c690614613565b60405180910390fd5b6000600660008373ffffffffffffffffffffffffffffffffffffffff1673ffffffffffffffffffffffffffffffffffffffff168152602001908152602001600020549050600760009054906101000a900473ffffffffffffffffffffffffffffffffffffffff1673ffffffffffffffffffffffffffffffffffffffff1663a9059cbb836061606485610a619190614662565b610a6b9190614693565b6040518363ffffffff1660e01b8152600401610a889291906146d5565b6020604051808303816000875af1158015610aa7573d6000803e3d6000fd5b505050506040513d601f19601f82011682018060405250810190610acb9190614713565b506000600660008473ffffffffffffffffffffffffffffffffffffffff1673ffffffffffffffffffffffffffffffffffffffff168152602001908152602001600020819055507f56ca301a9219608c91e7bcee90e083c19671d2cdcc96752c7af291cee5f9c8c88142604051610b42929190614740565b60405180910390a150610b53612913565b50565b60066020528060005260406000206000915090505481565b610b7661291d565b610b80600061299b565b565b6000600360009054906101000a900473ffffffffffffffffffffffffffffffffffffffff16905090565b610bbe610bb761259b565b8383612a61565b5050565b610bca6128c4565b6000600560008481526020019081526020016000206040518060c0016040529081600082015481526020016001820160009054906101000a900473ffffffffffffffffffffffffffffffffffffffff1673ffffffffffffffffffffffffffffffffffffffff1673ffffffffffffffffffffffffffffffffffffffff1681526020016002820160009054906101000a900473ffffffffffffffffffffffffffffffffffffffff1673ffffffffffffffffffffffffffffffffffffffff1673ffffffffffffffffffffffffffffffffffffffff16815260200160038201548152602001600482015481526020016005820154815250509050600073ffffffffffffffffffffffffffffffffffffffff16816020015173ffffffffffffffffffffffffffffffffffffffff1603610d33576040517f08c379a0000000000000000000000000000000000000000000000000000000008152600401610d2a906147b5565b60405180910390fd5b600082118015610d47575080608001518211155b610d86576040517f08c379a0000000000000000000000000000000000000000000000000000000008152600401610d7d90614821565b60405180910390fd5b6102d1610d968260400151612bcd565b03610e9f57610dab3085836080015184612d61565b8373ffffffffffffffffffffffffffffffffffffffff16816040015173ffffffffffffffffffffffffffffffffffffffff16636352211e83606001516040518263ffffffff1660e01b8152600401610e0391906136d7565b602060405180830381865afa158015610e20573d6000803e3d6000fd5b505050506040513d601f19601f82011682018060405250810190610e449190614856565b73ffffffffffffffffffffffffffffffffffffffff1614610e9a576040517f08c379a0000000000000000000000000000000000000000000000000000000008152600401610e91906148cf565b60405180910390fd5b610f75565b610eaf3085836080015184612d61565b81816040015173ffffffffffffffffffffffffffffffffffffffff1662fdd58e8684606001516040518363ffffffff1660e01b8152600401610ef29291906146d5565b602060405180830381865afa158015610f0f573d6000803e3d6000fd5b505050506040513d601f19601f82011682018060405250810190610f339190614904565b1015610f74576040517f08c379a0000000000000000000000000000000000000000000000000000000008152600401610f6b906149a3565b60405180910390fd5b5b600760009054906101000a900473ffffffffffffffffffffffffffffffffffffffff1673ffffffffffffffffffffffffffffffffffffffff1663a1513e4c8530670de0b6b3a76400008560a00151610fcd9190614693565b6040518463ffffffff1660e01b8152600401610feb939291906149c3565b6020604051808303816000875af115801561100a573d6000803e3d6000fd5b505050506040513d601f19601f8201168201806040525081019061102e9190614713565b50600760009054906101000a900473ffffffffffffffffffffffffffffffffffffffff1673ffffffffffffffffffffffffffffffffffffffff166323b872dd8530670de0b6b3a76400008560a001516110879190614693565b6040518463ffffffff1660e01b81526004016110a5939291906149c3565b6020604051808303816000875af11580156110c4573d6000803e3d6000fd5b505050506040513d601f19601f820116820180604052508101906110e89190614713565b50670de0b6b3a76400008160a001516111019190614693565b60066000836020015173ffffffffffffffffffffffffffffffffffffffff1673ffffffffffffffffffffffffffffffffffffffff168152602001908152602001600020600082825461115391906149fa565b9250508190555080608001518210156111ed578160056000858152602001908152602001600020600401600082825461118c9190614a2e565b925050819055507ff7adc9a0380a940c6058d78194df6a9b9fa5bb431bbad15194913bb611f3f4f78360056000868152602001908152602001600020600401548360a001516040516111e093929190614a62565b60405180910390a16112c3565b600560008481526020019081526020016000206000808201600090556001820160006101000a81549073ffffffffffffffffffffffffffffffffffffffff02191690556002820160006101000a81549073ffffffffffffffffffffffffffffffffffffffff021916905560038201600090556004820160009055600582016000905550506008600081548092919061128490614a99565b91905055507f8f9d273ad6b9ef6936db5cd20a141ecb032af10f2a5fec60c106343670b2c87783856040516112ba929190614ac2565b60405180910390a15b506112cc612913565b505050565b6112d96128c4565b6000600560008381526020019081526020016000206040518060c0016040529081600082015481526020016001820160009054906101000a900473ffffffffffffffffffffffffffffffffffffffff1673ffffffffffffffffffffffffffffffffffffffff1673ffffffffffffffffffffffffffffffffffffffff1681526020016002820160009054906101000a900473ffffffffffffffffffffffffffffffffffffffff1673ffffffffffffffffffffffffffffffffffffffff1673ffffffffffffffffffffffffffffffffffffffff168152602001600382015481526020016004820154815260200160058201548152505090508273ffffffffffffffffffffffffffffffffffffffff16816020015173ffffffffffffffffffffffffffffffffffffffff1614611441576040517f08c379a000000000000000000000000000000000000000000000000000000000815260040161143890614b5d565b60405180910390fd5b6102d16114518260400151612bcd565b0361155a576114663084836080015184612d61565b8273ffffffffffffffffffffffffffffffffffffffff16816040015173ffffffffffffffffffffffffffffffffffffffff16636352211e83606001516040518263ffffffff1660e01b81526004016114be91906136d7565b602060405180830381865afa1580156114db573d6000803e3d6000fd5b505050506040513d601f19601f820116820180604052508101906114ff9190614856565b73ffffffffffffffffffffffffffffffffffffffff1614611555576040517f08c379a000000000000000000000000000000000000000000000000000000000815260040161154c90614bc9565b60405180910390fd5b611634565b61156a3084836080015184612d61565b8060800151816040015173ffffffffffffffffffffffffffffffffffffffff1662fdd58e8584606001516040518363ffffffff1660e01b81526004016115b19291906146d5565b602060405180830381865afa1580156115ce573d6000803e3d6000fd5b505050506040513d601f19601f820116820180604052508101906115f29190614904565b1015611633576040517f08c379a000000000000000000000000000000000000000000000000000000000815260040161162a90614c35565b60405180910390fd5b5b600560008381526020019081526020016000206000808201600090556001820160006101000a81549073ffffffffffffffffffffffffffffffffffffffff02191690556002820160006101000a81549073ffffffffffffffffffffffffffffffffffffffff021916905560038201600090556004820160009055600582016000905550507f411aee90354c51b1b04cd563fcab2617142a9d50da19232d888547c8a1b7fd8a826040516116e791906136d7565b60405180910390a1506116f8612913565b5050565b6060600060085467ffffffffffffffff81111561171c5761171b6139d0565b5b60405190808252806020026020018201604052801561175557816020015b61174261357e565b81526020019060019003908161173a5790505b5090506000805b6008548110156118b3576000600560008381526020019081526020016000206040518060c0016040529081600082015481526020016001820160009054906101000a900473ffffffffffffffffffffffffffffffffffffffff1673ffffffffffffffffffffffffffffffffffffffff1673ffffffffffffffffffffffffffffffffffffffff1681526020016002820160009054906101000a900473ffffffffffffffffffffffffffffffffffffffff1673ffffffffffffffffffffffffffffffffffffffff1673ffffffffffffffffffffffffffffffffffffffff168152602001600382015481526020016004820154815260200160058201548152505090506102d161186c8260400151612bcd565b0361189f578084848151811061188557611884614521565b5b6020026020010181905250828061189b9061457f565b9350505b5080806118ab9061457f565b91505061175c565b5060008167ffffffffffffffff8111156118d0576118cf6139d0565b5b60405190808252806020026020018201604052801561190957816020015b6118f661357e565b8152602001906001900390816118ee5790505b50905060005b828110156119635783818151811061192a57611929614521565b5b602002602001015182828151811061194557611944614521565b5b6020026020010181905250808061195b9061457f565b91505061190f565b5080935050505090565b6119756128c4565b6000600854905060016008600082825461198f91906149fa565b92505081905550600083116119d9576040517f08c379a00000000000000000000000000000000000000000000000000000000081526004016119d090614ca1565b60405180910390fd5b60008211611a1c576040517f08c379a0000000000000000000000000000000000000000000000000000000008152600401611a1390614d0d565b60405180910390fd5b6102d1611a2886612bcd565b03611b88578473ffffffffffffffffffffffffffffffffffffffff166342842e0e8730876040518463ffffffff1660e01b8152600401611a6a939291906149c3565b600060405180830381600087803b158015611a8457600080fd5b505af1158015611a98573d6000803e3d6000fd5b505050503073ffffffffffffffffffffffffffffffffffffffff168573ffffffffffffffffffffffffffffffffffffffff16636352211e866040518263ffffffff1660e01b8152600401611aec91906136d7565b602060405180830381865afa158015611b09573d6000803e3d6000fd5b505050506040513d601f19601f82011682018060405250810190611b2d9190614856565b73ffffffffffffffffffffffffffffffffffffffff1614611b83576040517f08c379a0000000000000000000000000000000000000000000000000000000008152600401611b7a90614d79565b60405180910390fd5b611cb7565b8473ffffffffffffffffffffffffffffffffffffffff1663f242432a873087876040518563ffffffff1660e01b8152600401611bc79493929190614dd0565b600060405180830381600087803b158015611be157600080fd5b505af1158015611bf5573d6000803e3d6000fd5b50505050828573ffffffffffffffffffffffffffffffffffffffff1662fdd58e30876040518363ffffffff1660e01b8152600401611c349291906146d5565b602060405180830381865afa158015611c51573d6000803e3d6000fd5b505050506040513d601f19601f82011682018060405250810190611c759190614904565b1015611cb6576040517f08c379a0000000000000000000000000000000000000000000000000000000008152600401611cad90614e74565b60405180910390fd5b5b60006040518060c001604052808381526020018873ffffffffffffffffffffffffffffffffffffffff1681526020018773ffffffffffffffffffffffffffffffffffffffff16815260200186815260200185815260200184815250905080600560008481526020019081526020016000206000820151816000015560208201518160010160006101000a81548173ffffffffffffffffffffffffffffffffffffffff021916908373ffffffffffffffffffffffffffffffffffffffff16021790555060408201518160020160006101000a81548173ffffffffffffffffffffffffffffffffffffffff021916908373ffffffffffffffffffffffffffffffffffffffff160217905550606082015181600301556080820151816004015560a082015181600501559050507fceefd288ffab0a6f307ce9214d4c1fc1acd67f807eaaf54806e3a1158128db14828888888888604051611e1a969594939291906141d3565b60405180910390a15050611e2c612913565b5050505050565b600080600760009054906101000a900473ffffffffffffffffffffffffffffffffffffffff1673ffffffffffffffffffffffffffffffffffffffff166370a08231306040518263ffffffff1660e01b8152600401611e919190613ebc565b602060405180830381865afa158015611eae573d6000803e3d6000fd5b505050506040513d601f19601f82011682018060405250810190611ed29190614904565b90508091505090565b611ee36128c4565b60008211611f26576040517f08c379a0000000000000000000000000000000000000000000000000000000008152600401611f1d90614ca1565b60405180910390fd5b60008111611f69576040517f08c379a0000000000000000000000000000000000000000000000000000000008152600401611f6090614d0d565b60405180910390fd5b8373ffffffffffffffffffffffffffffffffffffffff166005600085815260200190815260200160002060010160009054906101000a900473ffffffffffffffffffffffffffffffffffffffff1673ffffffffffffffffffffffffffffffffffffffff161461200d576040517f08c379a000000000000000000000000000000000000000000000000000000000815260040161200490614f06565b60405180910390fd5b8160056000858152602001908152602001600020600401819055508060056000858152602001908152602001600020600501819055507ff7adc9a0380a940c6058d78194df6a9b9fa5bb431bbad15194913bb611f3f4f783838360405161207693929190614a62565b60405180910390a1612086612913565b50505050565b60056020528060005260406000206000915090508060000154908060010160009054906101000a900473ffffffffffffffffffffffffffffffffffffffff16908060020160009054906101000a900473ffffffffffffffffffffffffffffffffffffffff16908060030154908060040154908060050154905086565b6000600160008473ffffffffffffffffffffffffffffffffffffffff1673ffffffffffffffffffffffffffffffffffffffff16815260200190815260200160002060008373ffffffffffffffffffffffffffffffffffffffff1673ffffffffffffffffffffffffffffffffffffffff16815260200190815260200160002060009054906101000a900460ff16905092915050565b6060600060085467ffffffffffffffff8111156121bc576121bb6139d0565b5b6040519080825280602002602001820160405280156121f557816020015b6121e261357e565b8152602001906001900390816121da5790505b5090506000805b600854811015612353576000600560008381526020019081526020016000206040518060c0016040529081600082015481526020016001820160009054906101000a900473ffffffffffffffffffffffffffffffffffffffff1673ffffffffffffffffffffffffffffffffffffffff1673ffffffffffffffffffffffffffffffffffffffff1681526020016002820160009054906101000a900473ffffffffffffffffffffffffffffffffffffffff1673ffffffffffffffffffffffffffffffffffffffff1673ffffffffffffffffffffffffffffffffffffffff1681526020016003820154815260200160048201548152602001600582015481525050905061048361230c8260400151612bcd565b0361233f578084848151811061232557612324614521565b5b6020026020010181905250828061233b9061457f565b9350505b50808061234b9061457f565b9150506121fc565b5060008167ffffffffffffffff8111156123705761236f6139d0565b5b6040519080825280602002602001820160405280156123a957816020015b61239661357e565b81526020019060019003908161238e5790505b50905060005b82811015612403578381815181106123ca576123c9614521565b5b60200260200101518282815181106123e5576123e4614521565b5b602002602001018190525080806123fb9061457f565b9150506123af565b5080935050505090565b61241561259b565b73ffffffffffffffffffffffffffffffffffffffff168573ffffffffffffffffffffffffffffffffffffffff16148061245b575061245a8561245561259b565b612108565b5b61249a576040517f08c379a00000000000000000000000000000000000000000000000000000000081526004016124919061446f565b60405180910390fd5b6124a78585858585612e88565b5050505050565b6124b661291d565b600073ffffffffffffffffffffffffffffffffffffffff168173ffffffffffffffffffffffffffffffffffffffff1603612525576040517f08c379a000000000000000000000000000000000000000000000000000000000815260040161251c90614f98565b60405180910390fd5b61252e8161299b565b50565b60007f01ffc9a7000000000000000000000000000000000000000000000000000000007bffffffffffffffffffffffffffffffffffffffffffffffffffffffff1916827bffffffffffffffffffffffffffffffffffffffffffffffffffffffff1916149050919050565b600033905090565b81518351146125e7576040517f08c379a00000000000000000000000000000000000000000000000000000000081526004016125de9061502a565b60405180910390fd5b600073ffffffffffffffffffffffffffffffffffffffff168473ffffffffffffffffffffffffffffffffffffffff1603612656576040517f08c379a000000000000000000000000000000000000000000000000000000000815260040161264d906150bc565b60405180910390fd5b600061266061259b565b9050612670818787878787613123565b60005b845181101561282157600085828151811061269157612690614521565b5b6020026020010151905060008583815181106126b0576126af614521565b5b60200260200101519050600080600084815260200190815260200160002060008b73ffffffffffffffffffffffffffffffffffffffff1673ffffffffffffffffffffffffffffffffffffffff16815260200190815260200160002054905081811015612751576040517f08c379a00000000000000000000000000000000000000000000000000000000081526004016127489061514e565b60405180910390fd5b81810360008085815260200190815260200160002060008c73ffffffffffffffffffffffffffffffffffffffff1673ffffffffffffffffffffffffffffffffffffffff168152602001908152602001600020819055508160008085815260200190815260200160002060008b73ffffffffffffffffffffffffffffffffffffffff1673ffffffffffffffffffffffffffffffffffffffff168152602001908152602001600020600082825461280691906149fa565b925050819055505050508061281a9061457f565b9050612673565b508473ffffffffffffffffffffffffffffffffffffffff168673ffffffffffffffffffffffffffffffffffffffff168273ffffffffffffffffffffffffffffffffffffffff167f4a39dc06d4c0dbc64b70af90fd698a233a518aa5d07e595d983b8c0526c8f7fb878760405161289892919061516e565b60405180910390a46128ae81878787878761312b565b6128bc818787878787613133565b505050505050565b600260045403612909576040517f08c379a0000000000000000000000000000000000000000000000000000000008152600401612900906151f1565b60405180910390fd5b6002600481905550565b6001600481905550565b61292561259b565b73ffffffffffffffffffffffffffffffffffffffff16612943610b82565b73ffffffffffffffffffffffffffffffffffffffff1614612999576040517f08c379a00000000000000000000000000000000000000000000000000000000081526004016129909061525d565b60405180910390fd5b565b6000600360009054906101000a900473ffffffffffffffffffffffffffffffffffffffff16905081600360006101000a81548173ffffffffffffffffffffffffffffffffffffffff021916908373ffffffffffffffffffffffffffffffffffffffff1602179055508173ffffffffffffffffffffffffffffffffffffffff168173ffffffffffffffffffffffffffffffffffffffff167f8be0079c531659141344cd1fd0a4f28419497f9722a3daafe3b4186f6b6457e060405160405180910390a35050565b8173ffffffffffffffffffffffffffffffffffffffff168373ffffffffffffffffffffffffffffffffffffffff1603612acf576040517f08c379a0000000000000000000000000000000000000000000000000000000008152600401612ac6906152ef565b60405180910390fd5b80600160008573ffffffffffffffffffffffffffffffffffffffff1673ffffffffffffffffffffffffffffffffffffffff16815260200190815260200160002060008473ffffffffffffffffffffffffffffffffffffffff1673ffffffffffffffffffffffffffffffffffffffff16815260200190815260200160002060006101000a81548160ff0219169083151502179055508173ffffffffffffffffffffffffffffffffffffffff168373ffffffffffffffffffffffffffffffffffffffff167f17307eab39ab6107e8899845ad3d59bd9653f200f220920489ca2b5937696c3183604051612bc09190613792565b60405180910390a3505050565b60008173ffffffffffffffffffffffffffffffffffffffff166301ffc9a77fd9b67a26000000000000000000000000000000000000000000000000000000006040518263ffffffff1660e01b8152600401612c2891906139b5565b602060405180830381865afa158015612c45573d6000803e3d6000fd5b505050506040513d601f19601f82011682018060405250810190612c699190614713565b15612c78576104839050612d5c565b8173ffffffffffffffffffffffffffffffffffffffff166301ffc9a77f80ac58cd000000000000000000000000000000000000000000000000000000006040518263ffffffff1660e01b8152600401612cd191906139b5565b602060405180830381865afa158015612cee573d6000803e3d6000fd5b505050506040513d601f19601f82011682018060405250810190612d129190614713565b15612d21576102d19050612d5c565b6040517f08c379a0000000000000000000000000000000000000000000000000000000008152600401612d539061535b565b60405180910390fd5b919050565b610483612d718260400151612bcd565b03612df457806040015173ffffffffffffffffffffffffffffffffffffffff1663f242432a85858460600151866040518563ffffffff1660e01b8152600401612dbd9493929190614dd0565b600060405180830381600087803b158015612dd757600080fd5b505af1158015612deb573d6000803e3d6000fd5b50505050612e82565b6102d1612e048260400151612bcd565b03612e8157806040015173ffffffffffffffffffffffffffffffffffffffff166342842e0e858584606001516040518463ffffffff1660e01b8152600401612e4e939291906149c3565b600060405180830381600087803b158015612e6857600080fd5b505af1158015612e7c573d6000803e3d6000fd5b505050505b5b50505050565b600073ffffffffffffffffffffffffffffffffffffffff168473ffffffffffffffffffffffffffffffffffffffff1603612ef7576040517f08c379a0000000000000000000000000000000000000000000000000000000008152600401612eee906150bc565b60405180910390fd5b6000612f0161259b565b90506000612f0e8561330a565b90506000612f1b8561330a565b9050612f2b838989858589613123565b600080600088815260200190815260200160002060008a73ffffffffffffffffffffffffffffffffffffffff1673ffffffffffffffffffffffffffffffffffffffff16815260200190815260200160002054905085811015612fc2576040517f08c379a0000000000000000000000000000000000000000000000000000000008152600401612fb99061514e565b60405180910390fd5b85810360008089815260200190815260200160002060008b73ffffffffffffffffffffffffffffffffffffffff1673ffffffffffffffffffffffffffffffffffffffff168152602001908152602001600020819055508560008089815260200190815260200160002060008a73ffffffffffffffffffffffffffffffffffffffff1673ffffffffffffffffffffffffffffffffffffffff168152602001908152602001600020600082825461307791906149fa565b925050819055508773ffffffffffffffffffffffffffffffffffffffff168973ffffffffffffffffffffffffffffffffffffffff168573ffffffffffffffffffffffffffffffffffffffff167fc3d58168c5ae7397731d063d5bbf3d657854427343f4c083240f7aacaa2d0f628a8a6040516130f4929190614740565b60405180910390a461310a848a8a86868a61312b565b613118848a8a8a8a8a613384565b505050505050505050565b505050505050565b505050505050565b6131528473ffffffffffffffffffffffffffffffffffffffff1661355b565b15613302578373ffffffffffffffffffffffffffffffffffffffff1663bc197c8187878686866040518663ffffffff1660e01b81526004016131989594939291906153bf565b6020604051808303816000875af19250505080156131d457506040513d601f19601f820116820180604052508101906131d1919061543c565b60015b613279576131e0615476565b806308c379a00361323c57506131f4615498565b806131ff575061323e565b806040517f08c379a0000000000000000000000000000000000000000000000000000000008152600401613233919061386a565b60405180910390fd5b505b6040517f08c379a00000000000000000000000000000000000000000000000000000000081526004016132709061559a565b60405180910390fd5b63bc197c8160e01b7bffffffffffffffffffffffffffffffffffffffffffffffffffffffff1916817bffffffffffffffffffffffffffffffffffffffffffffffffffffffff191614613300576040517f08c379a00000000000000000000000000000000000000000000000000000000081526004016132f79061562c565b60405180910390fd5b505b505050505050565b60606000600167ffffffffffffffff811115613329576133286139d0565b5b6040519080825280602002602001820160405280156133575781602001602082028036833780820191505090505b509050828160008151811061336f5761336e614521565b5b60200260200101818152505080915050919050565b6133a38473ffffffffffffffffffffffffffffffffffffffff1661355b565b15613553578373ffffffffffffffffffffffffffffffffffffffff1663f23a6e6187878686866040518663ffffffff1660e01b81526004016133e995949392919061564c565b6020604051808303816000875af192505050801561342557506040513d601f19601f82011682018060405250810190613422919061543c565b60015b6134ca57613431615476565b806308c379a00361348d5750613445615498565b80613450575061348f565b806040517f08c379a0000000000000000000000000000000000000000000000000000000008152600401613484919061386a565b60405180910390fd5b505b6040517f08c379a00000000000000000000000000000000000000000000000000000000081526004016134c19061559a565b60405180910390fd5b63f23a6e6160e01b7bffffffffffffffffffffffffffffffffffffffffffffffffffffffff1916817bffffffffffffffffffffffffffffffffffffffffffffffffffffffff191614613551576040517f08c379a00000000000000000000000000000000000000000000000000000000081526004016135489061562c565b60405180910390fd5b505b505050505050565b6000808273ffffffffffffffffffffffffffffffffffffffff163b119050919050565b6040518060c0016040528060008152602001600073ffffffffffffffffffffffffffffffffffffffff168152602001600073ffffffffffffffffffffffffffffffffffffffff1681526020016000815260200160008152602001600081525090565b6000604051905090565b600080fd5b600080fd5b600073ffffffffffffffffffffffffffffffffffffffff82169050919050565b600061361f826135f4565b9050919050565b61362f81613614565b811461363a57600080fd5b50565b60008135905061364c81613626565b92915050565b6000819050919050565b61366581613652565b811461367057600080fd5b50565b6000813590506136828161365c565b92915050565b6000806040838503121561369f5761369e6135ea565b5b60006136ad8582860161363d565b92505060206136be85828601613673565b9150509250929050565b6136d181613652565b82525050565b60006020820190506136ec60008301846136c8565b92915050565b60007fffffffff0000000000000000000000000000000000000000000000000000000082169050919050565b613727816136f2565b811461373257600080fd5b50565b6000813590506137448161371e565b92915050565b6000602082840312156137605761375f6135ea565b5b600061376e84828501613735565b91505092915050565b60008115159050919050565b61378c81613777565b82525050565b60006020820190506137a76000830184613783565b92915050565b6000602082840312156137c3576137c26135ea565b5b60006137d184828501613673565b91505092915050565b600081519050919050565b600082825260208201905092915050565b60005b838110156138145780820151818401526020810190506137f9565b60008484015250505050565b6000601f19601f8301169050919050565b600061383c826137da565b61384681856137e5565b93506138568185602086016137f6565b61385f81613820565b840191505092915050565b600060208201905081810360008301526138848184613831565b905092915050565b6000602082840312156138a2576138a16135ea565b5b60006138b08482850161363d565b91505092915050565b600080fd5b600080fd5b600080fd5b60008083601f8401126138de576138dd6138b9565b5b8235905067ffffffffffffffff8111156138fb576138fa6138be565b5b602083019150836001820283011115613917576139166138c3565b5b9250929050565b60008060008060006080868803121561393a576139396135ea565b5b60006139488882890161363d565b95505060206139598882890161363d565b945050604061396a88828901613673565b935050606086013567ffffffffffffffff81111561398b5761398a6135ef565b5b613997888289016138c8565b92509250509295509295909350565b6139af816136f2565b82525050565b60006020820190506139ca60008301846139a6565b92915050565b7f4e487b7100000000000000000000000000000000000000000000000000000000600052604160045260246000fd5b613a0882613820565b810181811067ffffffffffffffff82111715613a2757613a266139d0565b5b80604052505050565b6000613a3a6135e0565b9050613a4682826139ff565b919050565b600067ffffffffffffffff821115613a6657613a656139d0565b5b602082029050602081019050919050565b6000613a8a613a8584613a4b565b613a30565b90508083825260208201905060208402830185811115613aad57613aac6138c3565b5b835b81811015613ad65780613ac28882613673565b845260208401935050602081019050613aaf565b5050509392505050565b600082601f830112613af557613af46138b9565b5b8135613b05848260208601613a77565b91505092915050565b600080fd5b600067ffffffffffffffff821115613b2e57613b2d6139d0565b5b613b3782613820565b9050602081019050919050565b82818337600083830152505050565b6000613b66613b6184613b13565b613a30565b905082815260208101848484011115613b8257613b81613b0e565b5b613b8d848285613b44565b509392505050565b600082601f830112613baa57613ba96138b9565b5b8135613bba848260208601613b53565b91505092915050565b600080600080600060a08688031215613bdf57613bde6135ea565b5b6000613bed8882890161363d565b9550506020613bfe8882890161363d565b945050604086013567ffffffffffffffff811115613c1f57613c1e6135ef565b5b613c2b88828901613ae0565b935050606086013567ffffffffffffffff811115613c4c57613c4b6135ef565b5b613c5888828901613ae0565b925050608086013567ffffffffffffffff811115613c7957613c786135ef565b5b613c8588828901613b95565b9150509295509295909350565b600067ffffffffffffffff821115613cad57613cac6139d0565b5b602082029050602081019050919050565b6000613cd1613ccc84613c92565b613a30565b90508083825260208201905060208402830185811115613cf457613cf36138c3565b5b835b81811015613d1d5780613d09888261363d565b845260208401935050602081019050613cf6565b5050509392505050565b600082601f830112613d3c57613d3b6138b9565b5b8135613d4c848260208601613cbe565b91505092915050565b60008060408385031215613d6c57613d6b6135ea565b5b600083013567ffffffffffffffff811115613d8a57613d896135ef565b5b613d9685828601613d27565b925050602083013567ffffffffffffffff811115613db757613db66135ef565b5b613dc385828601613ae0565b9150509250929050565b600081519050919050565b600082825260208201905092915050565b6000819050602082019050919050565b613e0281613652565b82525050565b6000613e148383613df9565b60208301905092915050565b6000602082019050919050565b6000613e3882613dcd565b613e428185613dd8565b9350613e4d83613de9565b8060005b83811015613e7e578151613e658882613e08565b9750613e7083613e20565b925050600181019050613e51565b5085935050505092915050565b60006020820190508181036000830152613ea58184613e2d565b905092915050565b613eb681613614565b82525050565b6000602082019050613ed16000830184613ead565b92915050565b613ee081613777565b8114613eeb57600080fd5b50565b600081359050613efd81613ed7565b92915050565b60008060408385031215613f1a57613f196135ea565b5b6000613f288582860161363d565b9250506020613f3985828601613eee565b9150509250929050565b600080600060608486031215613f5c57613f5b6135ea565b5b6000613f6a8682870161363d565b9350506020613f7b86828701613673565b9250506040613f8c86828701613673565b9150509250925092565b600081519050919050565b600082825260208201905092915050565b6000819050602082019050919050565b613fcb81613614565b82525050565b60c082016000820151613fe76000850182613df9565b506020820151613ffa6020850182613fc2565b50604082015161400d6040850182613fc2565b5060608201516140206060850182613df9565b5060808201516140336080850182613df9565b5060a082015161404660a0850182613df9565b50505050565b60006140588383613fd1565b60c08301905092915050565b6000602082019050919050565b600061407c82613f96565b6140868185613fa1565b935061409183613fb2565b8060005b838110156140c25781516140a9888261404c565b97506140b483614064565b925050600181019050614095565b5085935050505092915050565b600060208201905081810360008301526140e98184614071565b905092915050565b600080600080600060a0868803121561410d5761410c6135ea565b5b600061411b8882890161363d565b955050602061412c8882890161363d565b945050604061413d88828901613673565b935050606061414e88828901613673565b925050608061415f88828901613673565b9150509295509295909350565b60008060008060808587031215614186576141856135ea565b5b60006141948782880161363d565b94505060206141a587828801613673565b93505060406141b687828801613673565b92505060606141c787828801613673565b91505092959194509250565b600060c0820190506141e860008301896136c8565b6141f56020830188613ead565b6142026040830187613ead565b61420f60608301866136c8565b61421c60808301856136c8565b61422960a08301846136c8565b979650505050505050565b6000806040838503121561424b5761424a6135ea565b5b60006142598582860161363d565b925050602061426a8582860161363d565b9150509250929050565b600080600080600060a086880312156142905761428f6135ea565b5b600061429e8882890161363d565b95505060206142af8882890161363d565b94505060406142c088828901613673565b93505060606142d188828901613673565b925050608086013567ffffffffffffffff8111156142f2576142f16135ef565b5b6142fe88828901613b95565b9150509295509295909350565b7f455243313135353a2061646472657373207a65726f206973206e6f742061207660008201527f616c6964206f776e657200000000000000000000000000000000000000000000602082015250565b6000614367602a836137e5565b91506143728261430b565b604082019050919050565b600060208201905081810360008301526143968161435a565b9050919050565b7f4e487b7100000000000000000000000000000000000000000000000000000000600052602260045260246000fd5b600060028204905060018216806143e457607f821691505b6020821081036143f7576143f661439d565b5b50919050565b7f455243313135353a2063616c6c6572206973206e6f7420746f6b656e206f776e60008201527f6572206f7220617070726f766564000000000000000000000000000000000000602082015250565b6000614459602e836137e5565b9150614464826143fd565b604082019050919050565b600060208201905081810360008301526144888161444c565b9050919050565b7f455243313135353a206163636f756e747320616e6420696473206c656e67746860008201527f206d69736d617463680000000000000000000000000000000000000000000000602082015250565b60006144eb6029836137e5565b91506144f68261448f565b604082019050919050565b6000602082019050818103600083015261451a816144de565b9050919050565b7f4e487b7100000000000000000000000000000000000000000000000000000000600052603260045260246000fd5b7f4e487b7100000000000000000000000000000000000000000000000000000000600052601160045260246000fd5b600061458a82613652565b91507fffffffffffffffffffffffffffffffffffffffffffffffffffffffffffffffff82036145bc576145bb614550565b5b600182019050919050565b7f4e6f7468696e6720746f20776974686472617700000000000000000000000000600082015250565b60006145fd6013836137e5565b9150614608826145c7565b602082019050919050565b6000602082019050818103600083015261462c816145f0565b9050919050565b7f4e487b7100000000000000000000000000000000000000000000000000000000600052601260045260246000fd5b600061466d82613652565b915061467883613652565b92508261468857614687614633565b5b828204905092915050565b600061469e82613652565b91506146a983613652565b92508282026146b781613652565b915082820484148315176146ce576146cd614550565b5b5092915050565b60006040820190506146ea6000830185613ead565b6146f760208301846136c8565b9392505050565b60008151905061470d81613ed7565b92915050565b600060208284031215614729576147286135ea565b5b6000614737848285016146fe565b91505092915050565b600060408201905061475560008301856136c8565b61476260208301846136c8565b9392505050565b7f53616c6520646f6573206e6f7420657869737400000000000000000000000000600082015250565b600061479f6013836137e5565b91506147aa82614769565b602082019050919050565b600060208201905081810360008301526147ce81614792565b9050919050565b7f496e76616c6964207175616e7469747900000000000000000000000000000000600082015250565b600061480b6010836137e5565b9150614816826147d5565b602082019050919050565b6000602082019050818103600083015261483a816147fe565b9050919050565b60008151905061485081613626565b92915050565b60006020828403121561486c5761486b6135ea565b5b600061487a84828501614841565b91505092915050565b7f4661696c656420746f207472616e736665722045524337323120746f6b656e00600082015250565b60006148b9601f836137e5565b91506148c482614883565b602082019050919050565b600060208201905081810360008301526148e8816148ac565b9050919050565b6000815190506148fe8161365c565b92915050565b60006020828403121561491a576149196135ea565b5b6000614928848285016148ef565b91505092915050565b7f4661696c656420746f207472616e73666572204552433131353520746f6b656e60008201527f7300000000000000000000000000000000000000000000000000000000000000602082015250565b600061498d6021836137e5565b915061499882614931565b604082019050919050565b600060208201905081810360008301526149bc81614980565b9050919050565b60006060820190506149d86000830186613ead565b6149e56020830185613ead565b6149f260408301846136c8565b949350505050565b6000614a0582613652565b9150614a1083613652565b9250828201905080821115614a2857614a27614550565b5b92915050565b6000614a3982613652565b9150614a4483613652565b9250828203905081811115614a5c57614a5b614550565b5b92915050565b6000606082019050614a7760008301866136c8565b614a8460208301856136c8565b614a9160408301846136c8565b949350505050565b6000614aa482613652565b915060008203614ab757614ab6614550565b5b600182039050919050565b6000604082019050614ad760008301856136c8565b614ae46020830184613ead565b9392505050565b7f4f6e6c79207468652073656c6c65722063616e2063616e63656c20746865207360008201527f616c650000000000000000000000000000000000000000000000000000000000602082015250565b6000614b476023836137e5565b9150614b5282614aeb565b604082019050919050565b60006020820190508181036000830152614b7681614b3a565b9050919050565b7f4661696c656420746f2072657475726e2045524337323120746f6b656e000000600082015250565b6000614bb3601d836137e5565b9150614bbe82614b7d565b602082019050919050565b60006020820190508181036000830152614be281614ba6565b9050919050565b7f4661696c656420746f2072657475726e204552433131353520746f6b656e7300600082015250565b6000614c1f601f836137e5565b9150614c2a82614be9565b602082019050919050565b60006020820190508181036000830152614c4e81614c12565b9050919050565b7f5175616e74697479206d7573742062652067726561746572207468616e203000600082015250565b6000614c8b601f836137e5565b9150614c9682614c55565b602082019050919050565b60006020820190508181036000830152614cba81614c7e565b9050919050565b7f5072696365206d7573742062652067726561746572207468616e203000000000600082015250565b6000614cf7601c836137e5565b9150614d0282614cc1565b602082019050919050565b60006020820190508181036000830152614d2681614cea565b9050919050565b7f4661696c656420746f20726563656976652045524337323120746f6b656e0000600082015250565b6000614d63601e836137e5565b9150614d6e82614d2d565b602082019050919050565b60006020820190508181036000830152614d9281614d56565b9050919050565b600082825260208201905092915050565b50565b6000614dba600083614d99565b9150614dc582614daa565b600082019050919050565b600060a082019050614de56000830187613ead565b614df26020830186613ead565b614dff60408301856136c8565b614e0c60608301846136c8565b8181036080830152614e1d81614dad565b905095945050505050565b7f4661696c656420746f2072656365697665204552433131353520746f6b656e73600082015250565b6000614e5e6020836137e5565b9150614e6982614e28565b602082019050919050565b60006020820190508181036000830152614e8d81614e51565b9050919050565b7f4f6e6c79207468652073656c6c65722063616e2075706461746520746865207360008201527f616c650000000000000000000000000000000000000000000000000000000000602082015250565b6000614ef06023836137e5565b9150614efb82614e94565b604082019050919050565b60006020820190508181036000830152614f1f81614ee3565b9050919050565b7f4f776e61626c653a206e6577206f776e657220697320746865207a65726f206160008201527f6464726573730000000000000000000000000000000000000000000000000000602082015250565b6000614f826026836137e5565b9150614f8d82614f26565b604082019050919050565b60006020820190508181036000830152614fb181614f75565b9050919050565b7f455243313135353a2069647320616e6420616d6f756e7473206c656e6774682060008201527f6d69736d61746368000000000000000000000000000000000000000000000000602082015250565b60006150146028836137e5565b915061501f82614fb8565b604082019050919050565b6000602082019050818103600083015261504381615007565b9050919050565b7f455243313135353a207472616e7366657220746f20746865207a65726f20616460008201527f6472657373000000000000000000000000000000000000000000000000000000602082015250565b60006150a66025836137e5565b91506150b18261504a565b604082019050919050565b600060208201905081810360008301526150d581615099565b9050919050565b7f455243313135353a20696e73756666696369656e742062616c616e636520666f60008201527f72207472616e7366657200000000000000000000000000000000000000000000602082015250565b6000615138602a836137e5565b9150615143826150dc565b604082019050919050565b600060208201905081810360008301526151678161512b565b9050919050565b600060408201905081810360008301526151888185613e2d565b9050818103602083015261519c8184613e2d565b90509392505050565b7f5265656e7472616e637947756172643a207265656e7472616e742063616c6c00600082015250565b60006151db601f836137e5565b91506151e6826151a5565b602082019050919050565b6000602082019050818103600083015261520a816151ce565b9050919050565b7f4f776e61626c653a2063616c6c6572206973206e6f7420746865206f776e6572600082015250565b60006152476020836137e5565b915061525282615211565b602082019050919050565b600060208201905081810360008301526152768161523a565b9050919050565b7f455243313135353a2073657474696e6720617070726f76616c2073746174757360008201527f20666f722073656c660000000000000000000000000000000000000000000000602082015250565b60006152d96029836137e5565b91506152e48261527d565b604082019050919050565b60006020820190508181036000830152615308816152cc565b9050919050565b7f746f6b656e206d7573742062652045524331313535206f72204552433732312e600082015250565b60006153456020836137e5565b91506153508261530f565b602082019050919050565b6000602082019050818103600083015261537481615338565b9050919050565b600081519050919050565b60006153918261537b565b61539b8185614d99565b93506153ab8185602086016137f6565b6153b481613820565b840191505092915050565b600060a0820190506153d46000830188613ead565b6153e16020830187613ead565b81810360408301526153f38186613e2d565b905081810360608301526154078185613e2d565b9050818103608083015261541b8184615386565b90509695505050505050565b6000815190506154368161371e565b92915050565b600060208284031215615452576154516135ea565b5b600061546084828501615427565b91505092915050565b60008160e01c9050919050565b600060033d11156154955760046000803e615492600051615469565b90505b90565b600060443d10615525576154aa6135e0565b60043d036004823e80513d602482011167ffffffffffffffff821117156154d2575050615525565b808201805167ffffffffffffffff8111156154f05750505050615525565b80602083010160043d03850181111561550d575050505050615525565b61551c826020018501866139ff565b82955050505050505b90565b7f455243313135353a207472616e7366657220746f206e6f6e2d4552433131353560008201527f526563656976657220696d706c656d656e746572000000000000000000000000602082015250565b60006155846034836137e5565b915061558f82615528565b604082019050919050565b600060208201905081810360008301526155b381615577565b9050919050565b7f455243313135353a204552433131353552656365697665722072656a6563746560008201527f6420746f6b656e73000000000000000000000000000000000000000000000000602082015250565b60006156166028836137e5565b9150615621826155ba565b604082019050919050565b6000602082019050818103600083015261564581615609565b9050919050565b600060a0820190506156616000830188613ead565b61566e6020830187613ead565b61567b60408301866136c8565b61568860608301856136c8565b818103608083015261569a8184615386565b9050969550505050505056fea2646970667358221220f563a29efcda7c429a77753136371a8801cf6e4cbd887674dc7df18ae7fdd82364736f6c63430008120033",
  "immutableReferences": {},
  "source": "// SPDX-License-Identifier: MIT\r\npragma solidity ^0.8.9;\r\n\r\nimport \"@openzeppelin/contracts/token/ERC1155/ERC1155.sol\";\r\nimport \"@openzeppelin/contracts/token/ERC721/IERC721.sol\";\r\nimport \"@openzeppelin/contracts/token/ERC20/IERC20.sol\";\r\n\r\nimport \"@openzeppelin/contracts/token/ERC721/IERC721Receiver.sol\";\r\nimport \"@openzeppelin/contracts/token/ERC1155/IERC1155Receiver.sol\";\r\n\r\nimport \"@openzeppelin/contracts/access/Ownable.sol\";\r\nimport \"@openzeppelin/contracts/security/ReentrancyGuard.sol\";\r\nimport \"./IPSD.sol\";\r\n\r\ncontract PoseidonMarket is ERC1155, Ownable, IERC721Receiver, ReentrancyGuard {\r\n    \r\n    function onERC721Received(\r\n        address,\r\n        address,\r\n        uint256,\r\n        bytes calldata\r\n    ) public pure override returns (bytes4) {\r\n        return this.onERC721Received.selector;\r\n    }\r\n\r\n    struct Listing {\r\n        uint256 listingId;\r\n        address seller;\r\n        address tokenContract;\r\n        uint256 tokenId;\r\n        uint256 quantity;\r\n        uint256 price;\r\n    }\r\n\r\n    mapping(uint256 => Listing) public listings;\r\n    mapping(address => uint256) public earnings;\r\n\r\n    address coinContract;\r\n    uint256 totalListings;\r\n\r\n    event ListingCreated(\r\n        uint256 listingId,\r\n        address seller,\r\n        address tokenContract,\r\n        uint256 tokenId,\r\n        uint256 quantity,\r\n        uint256 price\r\n    );\r\n    event ListingUpdated(uint256 listingId, uint256 quantity, uint256 price);\r\n    event ListingCancelled(uint256 listingId);\r\n    event ListingSold(uint256 listingId, address buyer);\r\n    event Withdraw(uint256 amount, uint256 timestamp);\r\n\r\n    constructor() ERC1155(\"\") {}\r\n\r\n    function createListing(\r\n        address _wallet,\r\n        address _tokenContract,\r\n        uint256 _tokenId,\r\n        uint256 _quantity,\r\n        uint256 _price\r\n    ) public nonReentrant {\r\n        uint256 listingId = totalListings;\r\n        totalListings += 1;\r\n\r\n        require(_quantity > 0, \"Quantity must be greater than 0\");\r\n        require(_price > 0, \"Price must be greater than 0\");\r\n\r\n        if (getTokenType(_tokenContract) == 721) {\r\n            IERC721(_tokenContract).safeTransferFrom(\r\n                _wallet,\r\n                address(this),\r\n                _tokenId\r\n            );\r\n            require(\r\n                IERC721(_tokenContract).ownerOf(_tokenId) == address(this),\r\n                \"Failed to receive ERC721 token\"\r\n            );\r\n        } else {\r\n            ERC1155(_tokenContract).safeTransferFrom(\r\n                _wallet,\r\n                address(this),\r\n                _tokenId,\r\n                _quantity,\r\n                \"\"\r\n            );\r\n            require(\r\n                ERC1155(_tokenContract).balanceOf(address(this), _tokenId) >=\r\n                    _quantity,\r\n                \"Failed to receive ERC1155 tokens\"\r\n            );\r\n        }\r\n\r\n        Listing memory newListing = Listing(\r\n            listingId,\r\n            _wallet,\r\n            _tokenContract,\r\n            _tokenId,\r\n            _quantity,\r\n            _price\r\n        );\r\n        listings[listingId] = newListing;\r\n\r\n        emit ListingCreated(\r\n            listingId,\r\n            _wallet,\r\n            _tokenContract,\r\n            _tokenId,\r\n            _quantity,\r\n            _price\r\n        );\r\n    }\r\n\r\n    function updateListing(\r\n        address _wallet,\r\n        uint256 listingId,\r\n        uint256 quantity,\r\n        uint256 price\r\n    ) public nonReentrant {\r\n        require(quantity > 0, \"Quantity must be greater than 0\");\r\n        require(price > 0, \"Price must be greater than 0\");\r\n        require(\r\n            listings[listingId].seller == _wallet,\r\n            \"Only the seller can update the sale\"\r\n        );\r\n\r\n        listings[listingId].quantity = quantity;\r\n        listings[listingId].price = price;\r\n\r\n        emit ListingUpdated(listingId, quantity, price);\r\n    }\r\n\r\n    function cancelListing(address _wallet, uint256 listingId) public nonReentrant {\r\n        Listing memory targetListing = listings[listingId];\r\n        require(\r\n            targetListing.seller == _wallet,\r\n            \"Only the seller can cancel the sale\"\r\n        );\r\n\r\n        if (getTokenType(targetListing.tokenContract) == 721) {\r\n            transferListingTokens(\r\n                address(this),\r\n                _wallet,\r\n                targetListing.quantity,\r\n                targetListing\r\n            );\r\n            require(\r\n                IERC721(targetListing.tokenContract).ownerOf(\r\n                    targetListing.tokenId\r\n                ) == _wallet,\r\n                \"Failed to return ERC721 token\"\r\n            );\r\n        } else {\r\n            transferListingTokens(\r\n                address(this),\r\n                _wallet,\r\n                targetListing.quantity,\r\n                targetListing\r\n            );\r\n            require(\r\n                ERC1155(targetListing.tokenContract).balanceOf(\r\n                    _wallet,\r\n                    targetListing.tokenId\r\n                ) >= targetListing.quantity,\r\n                \"Failed to return ERC1155 tokens\"\r\n            );\r\n        }\r\n        delete listings[listingId];\r\n\r\n        emit ListingCancelled(listingId);\r\n    }\r\n\r\n    function buy(address _wallet, uint256 listingId, uint256 quantity) public nonReentrant {\r\n        Listing memory targetListing = listings[listingId];\r\n\r\n        require(targetListing.seller != address(0), \"Sale does not exist\");\r\n        require(\r\n            quantity > 0 && quantity <= targetListing.quantity,\r\n            \"Invalid quantity\"\r\n        );\r\n\r\n        if (getTokenType(targetListing.tokenContract) == 721) {\r\n            transferListingTokens(\r\n                address(this),\r\n                _wallet,\r\n                targetListing.quantity,\r\n                targetListing\r\n            );\r\n            require(\r\n                IERC721(targetListing.tokenContract).ownerOf(\r\n                    targetListing.tokenId\r\n                ) == _wallet,\r\n                \"Failed to transfer ERC721 token\"\r\n            );\r\n        } else {\r\n            transferListingTokens(\r\n                address(this),\r\n                _wallet,\r\n                targetListing.quantity,\r\n                targetListing\r\n            );\r\n            require(\r\n                ERC1155(targetListing.tokenContract).balanceOf(\r\n                    _wallet,\r\n                    targetListing.tokenId\r\n                ) >= quantity,\r\n                \"Failed to transfer ERC1155 tokens\"\r\n            );\r\n        }\r\n\r\n        IPSD(coinContract).approveMarket(_wallet, address(this), targetListing.price * 10 ** 18);\r\n        IERC20(coinContract).transferFrom(\r\n            _wallet,\r\n            address(this),\r\n            targetListing.price * 10 ** 18\r\n        );\r\n        earnings[targetListing.seller] += targetListing.price * 10 ** 18;\r\n\r\n        if (quantity < targetListing.quantity) {\r\n            listings[listingId].quantity -= quantity;\r\n            emit ListingUpdated(\r\n                listingId,\r\n                listings[listingId].quantity,\r\n                targetListing.price\r\n            );\r\n        } else {\r\n            delete listings[listingId];\r\n            totalListings--;\r\n            emit ListingSold(listingId, _wallet);\r\n        }\r\n    }\r\n\r\n    function get721Listings() public view returns (Listing[] memory) {\r\n        Listing[] memory _listings = new Listing[](totalListings);\r\n        uint256 count = 0;\r\n\r\n        for (uint256 i = 0; i < totalListings; i++) {\r\n            Listing memory listing = listings[i];\r\n            if (getTokenType(listing.tokenContract) == 721) {\r\n                _listings[count] = listing;\r\n                count++;\r\n            }\r\n        }\r\n\r\n        Listing[] memory result = new Listing[](count);\r\n        for (uint256 i = 0; i < count; i++) {\r\n            result[i] = _listings[i];\r\n        }\r\n\r\n        return result;\r\n    }\r\n\r\n        function get1155Listings() public view returns (Listing[] memory) {\r\n        Listing[] memory _listings = new Listing[](totalListings);\r\n        uint256 count = 0;\r\n\r\n        for (uint256 i = 0; i < totalListings; i++) {\r\n            Listing memory listing = listings[i];\r\n            if (getTokenType(listing.tokenContract) == 1155) {\r\n                _listings[count] = listing;\r\n                count++;\r\n            }\r\n        }\r\n\r\n        Listing[] memory result = new Listing[](count);\r\n        for (uint256 i = 0; i < count; i++) {\r\n            result[i] = _listings[i];\r\n        }\r\n\r\n        return result;\r\n    }\r\n\r\n    function transferListingTokens(\r\n        address _from,\r\n        address _to,\r\n        uint256 _quantity,\r\n        Listing memory _listing\r\n    ) internal {\r\n        if (getTokenType(_listing.tokenContract) == 1155) {\r\n            IERC1155(_listing.tokenContract).safeTransferFrom(\r\n                _from,\r\n                _to,\r\n                _listing.tokenId,\r\n                _quantity,\r\n                \"\"\r\n            );\r\n        } else if (getTokenType(_listing.tokenContract) == 721) {\r\n            IERC721(_listing.tokenContract).safeTransferFrom(\r\n                _from,\r\n                _to,\r\n                _listing.tokenId\r\n            );\r\n        }\r\n    }\r\n\r\n    function getEarnings(address _wallet) public view returns (uint256) {\r\n        return earnings[_wallet];\r\n    }\r\n\r\n    function withdraw(address _wallet) public nonReentrant {\r\n        require(earnings[_wallet] != 0, \"Nothing to withdraw\");\r\n        uint256 amount = earnings[_wallet];\r\n        IERC20(coinContract).transfer(_wallet, (amount / 100) * 97);\r\n        earnings[_wallet] = 0;\r\n        emit Withdraw(amount, block.timestamp);\r\n    }\r\n\r\n    function getTokenType(\r\n        address _tokenContract\r\n    ) internal view returns (uint256) {\r\n        if (\r\n            IERC165(_tokenContract).supportsInterface(\r\n                type(IERC1155).interfaceId\r\n            )\r\n        ) {\r\n            return 1155;\r\n        } else if (\r\n            IERC165(_tokenContract).supportsInterface(type(IERC721).interfaceId)\r\n        ) {\r\n            return 721;\r\n        } else {\r\n            revert(\"token must be ERC1155 or ERC721.\");\r\n        }\r\n    }\r\n\r\n    function setCurrency(address _tokenContract) public {\r\n        coinContract = _tokenContract;\r\n    }\r\n\r\n    function getCollectedFees() public view returns (uint256) {\r\n        uint256 result = IERC20(coinContract).balanceOf(address(this));\r\n        return result;\r\n    }\r\n}\r\n",
  "sourcePath": "C:\\Users\\muizy\\Desktop\\blockchain\\contracts\\PoseidonMarket.sol",
  "compiler": {
    "name": "solc",
    "version": "0.8.18+commit.87f61d96.Emscripten.clang"
  },
  "schemaVersion": "3.4.11",
  "updatedAt": "2023-05-24T12:12:50.198Z",
  "devdoc": {
    "events": {
      "ApprovalForAll(address,address,bool)": {
        "details": "Emitted when `account` grants or revokes permission to `operator` to transfer their tokens, according to `approved`."
      },
      "TransferBatch(address,address,address,uint256[],uint256[])": {
        "details": "Equivalent to multiple {TransferSingle} events, where `operator`, `from` and `to` are the same for all transfers."
      },
      "TransferSingle(address,address,address,uint256,uint256)": {
        "details": "Emitted when `value` tokens of token type `id` are transferred from `from` to `to` by `operator`."
      },
      "URI(string,uint256)": {
        "details": "Emitted when the URI for token type `id` changes to `value`, if it is a non-programmatic URI. If an {URI} event was emitted for `id`, the standard https://eips.ethereum.org/EIPS/eip-1155#metadata-extensions[guarantees] that `value` will equal the value returned by {IERC1155MetadataURI-uri}."
      }
    },
    "kind": "dev",
    "methods": {
      "balanceOf(address,uint256)": {
        "details": "See {IERC1155-balanceOf}. Requirements: - `account` cannot be the zero address."
      },
      "balanceOfBatch(address[],uint256[])": {
        "details": "See {IERC1155-balanceOfBatch}. Requirements: - `accounts` and `ids` must have the same length."
      },
      "isApprovedForAll(address,address)": {
        "details": "See {IERC1155-isApprovedForAll}."
      },
      "owner()": {
        "details": "Returns the address of the current owner."
      },
      "renounceOwnership()": {
        "details": "Leaves the contract without owner. It will not be possible to call `onlyOwner` functions anymore. Can only be called by the current owner. NOTE: Renouncing ownership will leave the contract without an owner, thereby removing any functionality that is only available to the owner."
      },
      "safeBatchTransferFrom(address,address,uint256[],uint256[],bytes)": {
        "details": "See {IERC1155-safeBatchTransferFrom}."
      },
      "safeTransferFrom(address,address,uint256,uint256,bytes)": {
        "details": "See {IERC1155-safeTransferFrom}."
      },
      "setApprovalForAll(address,bool)": {
        "details": "See {IERC1155-setApprovalForAll}."
      },
      "supportsInterface(bytes4)": {
        "details": "See {IERC165-supportsInterface}."
      },
      "transferOwnership(address)": {
        "details": "Transfers ownership of the contract to a new account (`newOwner`). Can only be called by the current owner."
      },
      "uri(uint256)": {
        "details": "See {IERC1155MetadataURI-uri}. This implementation returns the same URI for *all* token types. It relies on the token type ID substitution mechanism https://eips.ethereum.org/EIPS/eip-1155#metadata[defined in the EIP]. Clients calling this function must replace the `\\{id\\}` substring with the actual token type ID."
      }
    },
    "version": 1
  },
  "userdoc": {
    "kind": "user",
    "methods": {},
    "version": 1
  }
}