{
  "contractName": "PoseidonNFT",
  "abi": [
    {
      "inputs": [
        {
          "internalType": "address",
          "name": "_marketContract",
          "type": "address"
        }
      ],
      "stateMutability": "nonpayable",
      "type": "constructor"
    },
    {
      "anonymous": false,
      "inputs": [
        {
          "indexed": true,
          "internalType": "address",
          "name": "owner",
          "type": "address"
        },
        {
          "indexed": true,
          "internalType": "address",
          "name": "approved",
          "type": "address"
        },
        {
          "indexed": true,
          "internalType": "uint256",
          "name": "tokenId",
          "type": "uint256"
        }
      ],
      "name": "Approval",
      "type": "event"
    },
    {
      "anonymous": false,
      "inputs": [
        {
          "indexed": true,
          "internalType": "address",
          "name": "owner",
          "type": "address"
        },
        {
          "indexed": true,
          "internalType": "address",
          "name": "operator",
          "type": "address"
        },
        {
          "indexed": false,
          "internalType": "bool",
          "name": "approved",
          "type": "bool"
        }
      ],
      "name": "ApprovalForAll",
      "type": "event"
    },
    {
      "anonymous": false,
      "inputs": [
        {
          "indexed": false,
          "internalType": "uint256",
          "name": "",
          "type": "uint256"
        }
      ],
      "name": "NFTMinted",
      "type": "event"
    },
    {
      "anonymous": false,
      "inputs": [
        {
          "indexed": true,
          "internalType": "address",
          "name": "previousOwner",
          "type": "address"
        },
        {
          "indexed": true,
          "internalType": "address",
          "name": "newOwner",
          "type": "address"
        }
      ],
      "name": "OwnershipTransferred",
      "type": "event"
    },
    {
      "anonymous": false,
      "inputs": [
        {
          "indexed": true,
          "internalType": "address",
          "name": "from",
          "type": "address"
        },
        {
          "indexed": true,
          "internalType": "address",
          "name": "to",
          "type": "address"
        },
        {
          "indexed": true,
          "internalType": "uint256",
          "name": "tokenId",
          "type": "uint256"
        }
      ],
      "name": "Transfer",
      "type": "event"
    },
    {
      "inputs": [
        {
          "internalType": "address",
          "name": "to",
          "type": "address"
        },
        {
          "internalType": "uint256",
          "name": "tokenId",
          "type": "uint256"
        }
      ],
      "name": "approve",
      "outputs": [],
      "stateMutability": "nonpayable",
      "type": "function"
    },
    {
      "inputs": [
        {
          "internalType": "address",
          "name": "owner",
          "type": "address"
        }
      ],
      "name": "balanceOf",
      "outputs": [
        {
          "internalType": "uint256",
          "name": "",
          "type": "uint256"
        }
      ],
      "stateMutability": "view",
      "type": "function"
    },
    {
      "inputs": [
        {
          "internalType": "uint256",
          "name": "tokenId",
          "type": "uint256"
        }
      ],
      "name": "burn",
      "outputs": [],
      "stateMutability": "nonpayable",
      "type": "function"
    },
    {
      "inputs": [
        {
          "internalType": "uint256",
          "name": "tokenId",
          "type": "uint256"
        }
      ],
      "name": "getApproved",
      "outputs": [
        {
          "internalType": "address",
          "name": "",
          "type": "address"
        }
      ],
      "stateMutability": "view",
      "type": "function"
    },
    {
      "inputs": [
        {
          "internalType": "address",
          "name": "owner",
          "type": "address"
        },
        {
          "internalType": "address",
          "name": "operator",
          "type": "address"
        }
      ],
      "name": "isApprovedForAll",
      "outputs": [
        {
          "internalType": "bool",
          "name": "",
          "type": "bool"
        }
      ],
      "stateMutability": "view",
      "type": "function"
    },
    {
      "inputs": [],
      "name": "name",
      "outputs": [
        {
          "internalType": "string",
          "name": "",
          "type": "string"
        }
      ],
      "stateMutability": "view",
      "type": "function"
    },
    {
      "inputs": [],
      "name": "owner",
      "outputs": [
        {
          "internalType": "address",
          "name": "",
          "type": "address"
        }
      ],
      "stateMutability": "view",
      "type": "function"
    },
    {
      "inputs": [
        {
          "internalType": "uint256",
          "name": "tokenId",
          "type": "uint256"
        }
      ],
      "name": "ownerOf",
      "outputs": [
        {
          "internalType": "address",
          "name": "",
          "type": "address"
        }
      ],
      "stateMutability": "view",
      "type": "function"
    },
    {
      "inputs": [],
      "name": "renounceOwnership",
      "outputs": [],
      "stateMutability": "nonpayable",
      "type": "function"
    },
    {
      "inputs": [
        {
          "internalType": "address",
          "name": "from",
          "type": "address"
        },
        {
          "internalType": "address",
          "name": "to",
          "type": "address"
        },
        {
          "internalType": "uint256",
          "name": "tokenId",
          "type": "uint256"
        }
      ],
      "name": "safeTransferFrom",
      "outputs": [],
      "stateMutability": "nonpayable",
      "type": "function"
    },
    {
      "inputs": [
        {
          "internalType": "address",
          "name": "from",
          "type": "address"
        },
        {
          "internalType": "address",
          "name": "to",
          "type": "address"
        },
        {
          "internalType": "uint256",
          "name": "tokenId",
          "type": "uint256"
        },
        {
          "internalType": "bytes",
          "name": "data",
          "type": "bytes"
        }
      ],
      "name": "safeTransferFrom",
      "outputs": [],
      "stateMutability": "nonpayable",
      "type": "function"
    },
    {
      "inputs": [
        {
          "internalType": "address",
          "name": "operator",
          "type": "address"
        },
        {
          "internalType": "bool",
          "name": "approved",
          "type": "bool"
        }
      ],
      "name": "setApprovalForAll",
      "outputs": [],
      "stateMutability": "nonpayable",
      "type": "function"
    },
    {
      "inputs": [],
      "name": "symbol",
      "outputs": [
        {
          "internalType": "string",
          "name": "",
          "type": "string"
        }
      ],
      "stateMutability": "view",
      "type": "function"
    },
    {
      "inputs": [
        {
          "internalType": "address",
          "name": "",
          "type": "address"
        },
        {
          "internalType": "uint256",
          "name": "",
          "type": "uint256"
        }
      ],
      "name": "tokenAddress",
      "outputs": [
        {
          "internalType": "uint256",
          "name": "tokenId",
          "type": "uint256"
        },
        {
          "internalType": "string",
          "name": "tokenName",
          "type": "string"
        },
        {
          "internalType": "address",
          "name": "owner",
          "type": "address"
        },
        {
          "internalType": "uint256",
          "name": "durability",
          "type": "uint256"
        }
      ],
      "stateMutability": "view",
      "type": "function"
    },
    {
      "inputs": [
        {
          "internalType": "uint256",
          "name": "index",
          "type": "uint256"
        }
      ],
      "name": "tokenByIndex",
      "outputs": [
        {
          "internalType": "uint256",
          "name": "",
          "type": "uint256"
        }
      ],
      "stateMutability": "view",
      "type": "function"
    },
    {
      "inputs": [
        {
          "internalType": "string",
          "name": "",
          "type": "string"
        }
      ],
      "name": "tokenExists",
      "outputs": [
        {
          "internalType": "bool",
          "name": "",
          "type": "bool"
        }
      ],
      "stateMutability": "view",
      "type": "function"
    },
    {
      "inputs": [
        {
          "internalType": "address",
          "name": "owner",
          "type": "address"
        },
        {
          "internalType": "uint256",
          "name": "index",
          "type": "uint256"
        }
      ],
      "name": "tokenOfOwnerByIndex",
      "outputs": [
        {
          "internalType": "uint256",
          "name": "",
          "type": "uint256"
        }
      ],
      "stateMutability": "view",
      "type": "function"
    },
    {
      "inputs": [],
      "name": "totalSupply",
      "outputs": [
        {
          "internalType": "uint256",
          "name": "",
          "type": "uint256"
        }
      ],
      "stateMutability": "view",
      "type": "function"
    },
    {
      "inputs": [
        {
          "internalType": "address",
          "name": "from",
          "type": "address"
        },
        {
          "internalType": "address",
          "name": "to",
          "type": "address"
        },
        {
          "internalType": "uint256",
          "name": "tokenId",
          "type": "uint256"
        }
      ],
      "name": "transferFrom",
      "outputs": [],
      "stateMutability": "nonpayable",
      "type": "function"
    },
    {
      "inputs": [
        {
          "internalType": "address",
          "name": "newOwner",
          "type": "address"
        }
      ],
      "name": "transferOwnership",
      "outputs": [],
      "stateMutability": "nonpayable",
      "type": "function"
    },
    {
      "inputs": [
        {
          "internalType": "address",
          "name": "_to",
          "type": "address"
        },
        {
          "internalType": "string",
          "name": "_uri",
          "type": "string"
        },
        {
          "internalType": "string",
          "name": "_tokenName",
          "type": "string"
        },
        {
          "internalType": "uint256",
          "name": "_durability",
          "type": "uint256"
        }
      ],
      "name": "mint",
      "outputs": [],
      "stateMutability": "nonpayable",
      "type": "function"
    },
    {
      "inputs": [
        {
          "internalType": "address",
          "name": "_operator",
          "type": "address"
        },
        {
          "internalType": "uint256",
          "name": "_tokenId",
          "type": "uint256"
        }
      ],
      "name": "approveMarket",
      "outputs": [
        {
          "internalType": "bool",
          "name": "",
          "type": "bool"
        }
      ],
      "stateMutability": "nonpayable",
      "type": "function"
    },
    {
      "inputs": [
        {
          "internalType": "address",
          "name": "_owner",
          "type": "address"
        }
      ],
      "name": "getTokenIds",
      "outputs": [
        {
          "internalType": "uint256[]",
          "name": "",
          "type": "uint256[]"
        }
      ],
      "stateMutability": "view",
      "type": "function"
    },
    {
      "inputs": [
        {
          "internalType": "uint256",
          "name": "tokenId",
          "type": "uint256"
        }
      ],
      "name": "getDurability",
      "outputs": [
        {
          "internalType": "uint256",
          "name": "",
          "type": "uint256"
        }
      ],
      "stateMutability": "view",
      "type": "function"
    },
    {
      "inputs": [
        {
          "internalType": "uint256",
          "name": "tokenId",
          "type": "uint256"
        },
        {
          "internalType": "uint256",
          "name": "_durability",
          "type": "uint256"
        }
      ],
      "name": "updateDurability",
      "outputs": [],
      "stateMutability": "nonpayable",
      "type": "function"
    },
    {
      "inputs": [
        {
          "internalType": "uint256",
          "name": "tokenId",
          "type": "uint256"
        }
      ],
      "name": "tokenURI",
      "outputs": [
        {
          "internalType": "string",
          "name": "",
          "type": "string"
        }
      ],
      "stateMutability": "view",
      "type": "function"
    },
    {
      "inputs": [
        {
          "internalType": "bytes4",
          "name": "interfaceId",
          "type": "bytes4"
        }
      ],
      "name": "supportsInterface",
      "outputs": [
        {
          "internalType": "bool",
          "name": "",
          "type": "bool"
        }
      ],
      "stateMutability": "view",
      "type": "function"
    }
  ],
  "bytecode": "0x60806040523480156200001157600080fd5b50604051620050d6380380620050d6833981810160405281019062000037919062000269565b6040518060400160405280600b81526020017f506f736569646f6e4e46540000000000000000000000000000000000000000008152506040518060400160405280600481526020017f504e4654000000000000000000000000000000000000000000000000000000008152508160009081620000b4919062000515565b508060019081620000c6919062000515565b505050620000e9620000dd6200013160201b60201c565b6200013960201b60201c565b80600d60006101000a81548173ffffffffffffffffffffffffffffffffffffffff021916908373ffffffffffffffffffffffffffffffffffffffff16021790555050620005fc565b600033905090565b6000600760009054906101000a900473ffffffffffffffffffffffffffffffffffffffff16905081600760006101000a81548173ffffffffffffffffffffffffffffffffffffffff021916908373ffffffffffffffffffffffffffffffffffffffff1602179055508173ffffffffffffffffffffffffffffffffffffffff168173ffffffffffffffffffffffffffffffffffffffff167f8be0079c531659141344cd1fd0a4f28419497f9722a3daafe3b4186f6b6457e060405160405180910390a35050565b600080fd5b600073ffffffffffffffffffffffffffffffffffffffff82169050919050565b6000620002318262000204565b9050919050565b620002438162000224565b81146200024f57600080fd5b50565b600081519050620002638162000238565b92915050565b600060208284031215620002825762000281620001ff565b5b6000620002928482850162000252565b91505092915050565b600081519050919050565b7f4e487b7100000000000000000000000000000000000000000000000000000000600052604160045260246000fd5b7f4e487b7100000000000000000000000000000000000000000000000000000000600052602260045260246000fd5b600060028204905060018216806200031d57607f821691505b602082108103620003335762000332620002d5565b5b50919050565b60008190508160005260206000209050919050565b60006020601f8301049050919050565b600082821b905092915050565b6000600883026200039d7fffffffffffffffffffffffffffffffffffffffffffffffffffffffffffffffff826200035e565b620003a986836200035e565b95508019841693508086168417925050509392505050565b6000819050919050565b6000819050919050565b6000620003f6620003f0620003ea84620003c1565b620003cb565b620003c1565b9050919050565b6000819050919050565b6200041283620003d5565b6200042a6200042182620003fd565b8484546200036b565b825550505050565b600090565b6200044162000432565b6200044e81848462000407565b505050565b5b8181101562000476576200046a60008262000437565b60018101905062000454565b5050565b601f821115620004c5576200048f8162000339565b6200049a846200034e565b81016020851015620004aa578190505b620004c2620004b9856200034e565b83018262000453565b50505b505050565b600082821c905092915050565b6000620004ea60001984600802620004ca565b1980831691505092915050565b6000620005058383620004d7565b9150826002028217905092915050565b62000520826200029b565b67ffffffffffffffff8111156200053c576200053b620002a6565b5b62000548825462000304565b620005558282856200047a565b600060209050601f8311600181146200058d576000841562000578578287015190505b620005848582620004f7565b865550620005f4565b601f1984166200059d8662000339565b60005b82811015620005c757848901518255600182019150602085019450602081019050620005a0565b86831015620005e75784890151620005e3601f891682620004d7565b8355505b6001600288020188555050505b505050505050565b614aca806200060c6000396000f3fe608060405234801561001057600080fd5b50600436106101a95760003560e01c80636352211e116100f9578063b88d4fde11610097578063e985e9c511610071578063e985e9c514610504578063e985ed2114610534578063f2fde38b14610567578063fea609d214610583576101a9565b8063b88d4fde14610488578063c87b56dd146104a4578063d004b036146104d4576101a9565b8063853d42ad116100d3578063853d42ad146104145780638da5cb5b1461043057806395d89b411461044e578063a22cb4651461046c576101a9565b80636352211e146103aa57806370a08231146103da578063715018a61461040a576101a9565b80632f745c59116101665780634ed8676f116101405780634ed8676f146102ea5780634f6ccce71461031a578063509d29271461034a5780636059eae11461037a576101a9565b80632f745c591461028257806342842e0e146102b257806342966c68146102ce576101a9565b806301ffc9a7146101ae57806306fdde03146101de578063081812fc146101fc578063095ea7b31461022c57806318160ddd1461024857806323b872dd14610266575b600080fd5b6101c860048036038101906101c39190613157565b61059f565b6040516101d5919061319f565b60405180910390f35b6101e66105b1565b6040516101f3919061324a565b60405180910390f35b610216600480360381019061021191906132a2565b610643565b6040516102239190613310565b60405180910390f35b61024660048036038101906102419190613357565b610689565b005b6102506107a0565b60405161025d91906133a6565b60405180910390f35b610280600480360381019061027b91906133c1565b6107ad565b005b61029c60048036038101906102979190613357565b61080d565b6040516102a991906133a6565b60405180910390f35b6102cc60048036038101906102c791906133c1565b6108b2565b005b6102e860048036038101906102e391906132a2565b6108d2565b005b61030460048036038101906102ff9190613357565b61092e565b604051610311919061319f565b60405180910390f35b610334600480360381019061032f91906132a2565b610944565b60405161034191906133a6565b60405180910390f35b610364600480360381019061035f91906132a2565b6109b5565b60405161037191906133a6565b60405180910390f35b610394600480360381019061038f9190613549565b610c49565b6040516103a1919061319f565b60405180910390f35b6103c460048036038101906103bf91906132a2565b610c7f565b6040516103d19190613310565b60405180910390f35b6103f460048036038101906103ef9190613592565b610d05565b60405161040191906133a6565b60405180910390f35b610412610dbc565b005b61042e6004803603810190610429919061361f565b610dd0565b005b610438610ffe565b6040516104459190613310565b60405180910390f35b610456611028565b604051610463919061324a565b60405180910390f35b610486600480360381019061048191906136ef565b6110ba565b005b6104a2600480360381019061049d91906137d0565b6110d0565b005b6104be60048036038101906104b991906132a2565b611132565b6040516104cb919061324a565b60405180910390f35b6104ee60048036038101906104e99190613592565b611144565b6040516104fb9190613911565b60405180910390f35b61051e60048036038101906105199190613933565b6111f4565b60405161052b919061319f565b60405180910390f35b61054e60048036038101906105499190613357565b611288565b60405161055e9493929190613973565b60405180910390f35b610581600480360381019061057c9190613592565b61137d565b005b61059d600480360381019061059891906139bf565b611400565b005b60006105aa826116c4565b9050919050565b6060600080546105c090613a2e565b80601f01602080910402602001604051908101604052809291908181526020018280546105ec90613a2e565b80156106395780601f1061060e57610100808354040283529160200191610639565b820191906000526020600020905b81548152906001019060200180831161061c57829003601f168201915b5050505050905090565b600061064e8261173e565b6004600083815260200190815260200160002060009054906101000a900473ffffffffffffffffffffffffffffffffffffffff169050919050565b600061069482610c7f565b90508073ffffffffffffffffffffffffffffffffffffffff168373ffffffffffffffffffffffffffffffffffffffff1603610704576040517f08c379a00000000000000000000000000000000000000000000000000000000081526004016106fb90613ad1565b60405180910390fd5b8073ffffffffffffffffffffffffffffffffffffffff16610723611789565b73ffffffffffffffffffffffffffffffffffffffff16148061075257506107518161074c611789565b6111f4565b5b610791576040517f08c379a000000000000000000000000000000000000000000000000000000000815260040161078890613b63565b60405180910390fd5b61079b8383611791565b505050565b6000600a80549050905090565b6107be6107b8611789565b8261184a565b6107fd576040517f08c379a00000000000000000000000000000000000000000000000000000000081526004016107f490613bf5565b60405180910390fd5b6108088383836118df565b505050565b600061081883610d05565b8210610859576040517f08c379a000000000000000000000000000000000000000000000000000000000815260040161085090613c87565b60405180910390fd5b600860008473ffffffffffffffffffffffffffffffffffffffff1673ffffffffffffffffffffffffffffffffffffffff168152602001908152602001600020600083815260200190815260200160002054905092915050565b6108cd838383604051806020016040528060008152506110d0565b505050565b6108e36108dd611789565b8261184a565b610922576040517f08c379a000000000000000000000000000000000000000000000000000000000815260040161091990613bf5565b60405180910390fd5b61092b81611bd8565b50565b600061093a8383611be4565b6001905092915050565b600061094e6107a0565b821061098f576040517f08c379a000000000000000000000000000000000000000000000000000000000815260040161098690613d19565b60405180910390fd5b600a82815481106109a3576109a2613d39565b5b90600052602060002001549050919050565b60006109c082611bf2565b6109ff576040517f08c379a00000000000000000000000000000000000000000000000000000000081526004016109f690613db4565b60405180910390fd5b6000600e6000610a0e85610c7f565b73ffffffffffffffffffffffffffffffffffffffff1673ffffffffffffffffffffffffffffffffffffffff168152602001908152602001600020805480602002602001604051908101604052809291908181526020016000905b82821015610b96578382906000526020600020906004020160405180608001604052908160008201548152602001600182018054610aa590613a2e565b80601f0160208091040260200160405190810160405280929190818152602001828054610ad190613a2e565b8015610b1e5780601f10610af357610100808354040283529160200191610b1e565b820191906000526020600020905b815481529060010190602001808311610b0157829003601f168201915b505050505081526020016002820160009054906101000a900473ffffffffffffffffffffffffffffffffffffffff1673ffffffffffffffffffffffffffffffffffffffff1673ffffffffffffffffffffffffffffffffffffffff16815260200160038201548152505081526020019060010190610a68565b50505050905060005b8151811015610c085783828281518110610bbc57610bbb613d39565b5b60200260200101516000015103610bf557818181518110610be057610bdf613d39565b5b60200260200101516060015192505050610c44565b8080610c0090613e03565b915050610b9f565b506040517f08c379a0000000000000000000000000000000000000000000000000000000008152600401610c3b90613e97565b60405180910390fd5b919050565b600f818051602081018201805184825260208301602085012081835280955050505050506000915054906101000a900460ff1681565b600080610c8b83611c33565b9050600073ffffffffffffffffffffffffffffffffffffffff168173ffffffffffffffffffffffffffffffffffffffff1603610cfc576040517f08c379a0000000000000000000000000000000000000000000000000000000008152600401610cf390613f03565b60405180910390fd5b80915050919050565b60008073ffffffffffffffffffffffffffffffffffffffff168273ffffffffffffffffffffffffffffffffffffffff1603610d75576040517f08c379a0000000000000000000000000000000000000000000000000000000008152600401610d6c90613f95565b60405180910390fd5b600360008373ffffffffffffffffffffffffffffffffffffffff1673ffffffffffffffffffffffffffffffffffffffff168152602001908152602001600020549050919050565b610dc4611c70565b610dce6000611cee565b565b610dd8611c70565b610de2600c611db4565b6000610dee600c611dca565b9050610dfa8682611dd8565b610e048186611df6565b610e30600d60009054906101000a900473ffffffffffffffffffffffffffffffffffffffff1682611791565b600e60008773ffffffffffffffffffffffffffffffffffffffff1673ffffffffffffffffffffffffffffffffffffffff168152602001908152602001600020604051806080016040528083815260200186868080601f016020809104026020016040519081016040528093929190818152602001838380828437600081840152601f19601f8201169050808301925050505050505081526020018873ffffffffffffffffffffffffffffffffffffffff168152602001848152509080600181540180825580915050600190039060005260206000209060040201600090919091909150600082015181600001556020820151816001019081610f329190614161565b5060408201518160020160006101000a81548173ffffffffffffffffffffffffffffffffffffffff021916908373ffffffffffffffffffffffffffffffffffffffff1602179055506060820151816003015550506001600f8585604051610f9a929190614263565b908152602001604051809103902060006101000a81548160ff0219169083151502179055507fd9dc24857f317ed9abbbb42e920ede0104231eb1d3d70236a74887ffaf15986881604051610fee91906133a6565b60405180910390a1505050505050565b6000600760009054906101000a900473ffffffffffffffffffffffffffffffffffffffff16905090565b60606001805461103790613a2e565b80601f016020809104026020016040519081016040528092919081815260200182805461106390613a2e565b80156110b05780601f10611085576101008083540402835291602001916110b0565b820191906000526020600020905b81548152906001019060200180831161109357829003601f168201915b5050505050905090565b6110cc6110c5611789565b8383611e63565b5050565b6110e16110db611789565b8361184a565b611120576040517f08c379a000000000000000000000000000000000000000000000000000000000815260040161111790613bf5565b60405180910390fd5b61112c84848484611fcf565b50505050565b606061113d8261202b565b9050919050565b6060600061115183610d05565b67ffffffffffffffff81111561116a5761116961341e565b5b6040519080825280602002602001820160405280156111985781602001602082028036833780820191505090505b50905060005b6111a784610d05565b8110156111ea576111b8848261080d565b8282815181106111cb576111ca613d39565b5b60200260200101818152505080806111e290613e03565b91505061119e565b5080915050919050565b6000600560008473ffffffffffffffffffffffffffffffffffffffff1673ffffffffffffffffffffffffffffffffffffffff16815260200190815260200160002060008373ffffffffffffffffffffffffffffffffffffffff1673ffffffffffffffffffffffffffffffffffffffff16815260200190815260200160002060009054906101000a900460ff16905092915050565b600e60205281600052604060002081815481106112a457600080fd5b9060005260206000209060040201600091509150508060000154908060010180546112ce90613a2e565b80601f01602080910402602001604051908101604052809291908181526020018280546112fa90613a2e565b80156113475780601f1061131c57610100808354040283529160200191611347565b820191906000526020600020905b81548152906001019060200180831161132a57829003601f168201915b5050505050908060020160009054906101000a900473ffffffffffffffffffffffffffffffffffffffff16908060030154905084565b611385611c70565b600073ffffffffffffffffffffffffffffffffffffffff168173ffffffffffffffffffffffffffffffffffffffff16036113f4576040517f08c379a00000000000000000000000000000000000000000000000000000000081526004016113eb906142ee565b60405180910390fd5b6113fd81611cee565b50565b61140982611bf2565b611448576040517f08c379a000000000000000000000000000000000000000000000000000000000815260040161143f90613db4565b60405180910390fd5b6000600e600061145785610c7f565b73ffffffffffffffffffffffffffffffffffffffff1673ffffffffffffffffffffffffffffffffffffffff168152602001908152602001600020905060005b81805490508110156116be57838282815481106114b6576114b5613d39565b5b906000526020600020906004020160000154036116ab57828282815481106114e1576114e0613d39565b5b906000526020600020906004020160030181905550600082828154811061150b5761150a613d39565b5b906000526020600020906004020160030154036116aa5761154f82828154811061153857611537613d39565b5b906000526020600020906004020160000154611bd8565b8160018380549050611561919061430e565b8154811061157257611571613d39565b5b906000526020600020906004020182828154811061159357611592613d39565b5b906000526020600020906004020160008201548160000155600182018160010190816115bf9190614358565b506002820160009054906101000a900473ffffffffffffffffffffffffffffffffffffffff168160020160006101000a81548173ffffffffffffffffffffffffffffffffffffffff021916908373ffffffffffffffffffffffffffffffffffffffff160217905550600382015481600301559050508180548061164557611644614440565b5b6001900381819060005260206000209060040201600080820160009055600182016000611672919061308e565b6002820160006101000a81549073ffffffffffffffffffffffffffffffffffffffff02191690556003820160009055505090556116be565b5b80806116b690613e03565b915050611496565b50505050565b60007f780e9d63000000000000000000000000000000000000000000000000000000007bffffffffffffffffffffffffffffffffffffffffffffffffffffffff1916827bffffffffffffffffffffffffffffffffffffffffffffffffffffffff1916148061173757506117368261213d565b5b9050919050565b61174781611bf2565b611786576040517f08c379a000000000000000000000000000000000000000000000000000000000815260040161177d90613f03565b60405180910390fd5b50565b600033905090565b816004600083815260200190815260200160002060006101000a81548173ffffffffffffffffffffffffffffffffffffffff021916908373ffffffffffffffffffffffffffffffffffffffff160217905550808273ffffffffffffffffffffffffffffffffffffffff1661180483610c7f565b73ffffffffffffffffffffffffffffffffffffffff167f8c5be1e5ebec7d5bd14f71427d1e84f3dd0314c0f7b2291e5b200ac8c7c3b92560405160405180910390a45050565b60008061185683610c7f565b90508073ffffffffffffffffffffffffffffffffffffffff168473ffffffffffffffffffffffffffffffffffffffff161480611898575061189781856111f4565b5b806118d657508373ffffffffffffffffffffffffffffffffffffffff166118be84610643565b73ffffffffffffffffffffffffffffffffffffffff16145b91505092915050565b8273ffffffffffffffffffffffffffffffffffffffff166118ff82610c7f565b73ffffffffffffffffffffffffffffffffffffffff1614611955576040517f08c379a000000000000000000000000000000000000000000000000000000000815260040161194c906144e1565b60405180910390fd5b600073ffffffffffffffffffffffffffffffffffffffff168273ffffffffffffffffffffffffffffffffffffffff16036119c4576040517f08c379a00000000000000000000000000000000000000000000000000000000081526004016119bb90614573565b60405180910390fd5b6119d1838383600161221f565b8273ffffffffffffffffffffffffffffffffffffffff166119f182610c7f565b73ffffffffffffffffffffffffffffffffffffffff1614611a47576040517f08c379a0000000000000000000000000000000000000000000000000000000008152600401611a3e906144e1565b60405180910390fd5b6004600082815260200190815260200160002060006101000a81549073ffffffffffffffffffffffffffffffffffffffff02191690556001600360008573ffffffffffffffffffffffffffffffffffffffff1673ffffffffffffffffffffffffffffffffffffffff168152602001908152602001600020600082825403925050819055506001600360008473ffffffffffffffffffffffffffffffffffffffff1673ffffffffffffffffffffffffffffffffffffffff16815260200190815260200160002060008282540192505081905550816002600083815260200190815260200160002060006101000a81548173ffffffffffffffffffffffffffffffffffffffff021916908373ffffffffffffffffffffffffffffffffffffffff160217905550808273ffffffffffffffffffffffffffffffffffffffff168473ffffffffffffffffffffffffffffffffffffffff167fddf252ad1be2c89b69c2b068fc378daa952ba7f163c4a11628f55a4df523b3ef60405160405180910390a4611bd38383836001612231565b505050565b611be181612237565b50565b611bee8282611791565b5050565b60008073ffffffffffffffffffffffffffffffffffffffff16611c1483611c33565b73ffffffffffffffffffffffffffffffffffffffff1614159050919050565b60006002600083815260200190815260200160002060009054906101000a900473ffffffffffffffffffffffffffffffffffffffff169050919050565b611c78611789565b73ffffffffffffffffffffffffffffffffffffffff16611c96610ffe565b73ffffffffffffffffffffffffffffffffffffffff1614611cec576040517f08c379a0000000000000000000000000000000000000000000000000000000008152600401611ce3906145df565b60405180910390fd5b565b6000600760009054906101000a900473ffffffffffffffffffffffffffffffffffffffff16905081600760006101000a81548173ffffffffffffffffffffffffffffffffffffffff021916908373ffffffffffffffffffffffffffffffffffffffff1602179055508173ffffffffffffffffffffffffffffffffffffffff168173ffffffffffffffffffffffffffffffffffffffff167f8be0079c531659141344cd1fd0a4f28419497f9722a3daafe3b4186f6b6457e060405160405180910390a35050565b6001816000016000828254019250508190555050565b600081600001549050919050565b611df282826040518060200160405280600081525061228a565b5050565b611dff82611bf2565b611e3e576040517f08c379a0000000000000000000000000000000000000000000000000000000008152600401611e3590614671565b60405180910390fd5b80600660008481526020019081526020016000209081611e5e9190614161565b505050565b8173ffffffffffffffffffffffffffffffffffffffff168373ffffffffffffffffffffffffffffffffffffffff1603611ed1576040517f08c379a0000000000000000000000000000000000000000000000000000000008152600401611ec8906146dd565b60405180910390fd5b80600560008573ffffffffffffffffffffffffffffffffffffffff1673ffffffffffffffffffffffffffffffffffffffff16815260200190815260200160002060008473ffffffffffffffffffffffffffffffffffffffff1673ffffffffffffffffffffffffffffffffffffffff16815260200190815260200160002060006101000a81548160ff0219169083151502179055508173ffffffffffffffffffffffffffffffffffffffff168373ffffffffffffffffffffffffffffffffffffffff167f17307eab39ab6107e8899845ad3d59bd9653f200f220920489ca2b5937696c3183604051611fc2919061319f565b60405180910390a3505050565b611fda8484846118df565b611fe6848484846122e5565b612025576040517f08c379a000000000000000000000000000000000000000000000000000000000815260040161201c9061476f565b60405180910390fd5b50505050565b60606120368261173e565b600060066000848152602001908152602001600020805461205690613a2e565b80601f016020809104026020016040519081016040528092919081815260200182805461208290613a2e565b80156120cf5780601f106120a4576101008083540402835291602001916120cf565b820191906000526020600020905b8154815290600101906020018083116120b257829003601f168201915b5050505050905060006120e061246c565b905060008151036120f5578192505050612138565b60008251111561212a5780826040516020016121129291906147c0565b60405160208183030381529060405292505050612138565b61213384612483565b925050505b919050565b60007f80ac58cd000000000000000000000000000000000000000000000000000000007bffffffffffffffffffffffffffffffffffffffffffffffffffffffff1916827bffffffffffffffffffffffffffffffffffffffffffffffffffffffff1916148061220857507f5b5e139f000000000000000000000000000000000000000000000000000000007bffffffffffffffffffffffffffffffffffffffffffffffffffffffff1916827bffffffffffffffffffffffffffffffffffffffffffffffffffffffff1916145b806122185750612217826124eb565b5b9050919050565b61222b84848484612555565b50505050565b50505050565b612240816126b3565b600060066000838152602001908152602001600020805461226090613a2e565b90501461228757600660008281526020019081526020016000206000612286919061308e565b5b50565b6122948383612801565b6122a160008484846122e5565b6122e0576040517f08c379a00000000000000000000000000000000000000000000000000000000081526004016122d79061476f565b60405180910390fd5b505050565b60006123068473ffffffffffffffffffffffffffffffffffffffff16612a1e565b1561245f578373ffffffffffffffffffffffffffffffffffffffff1663150b7a0261232f611789565b8786866040518563ffffffff1660e01b81526004016123519493929190614839565b6020604051808303816000875af192505050801561238d57506040513d601f19601f8201168201806040525081019061238a919061489a565b60015b61240f573d80600081146123bd576040519150601f19603f3d011682016040523d82523d6000602084013e6123c2565b606091505b506000815103612407576040517f08c379a00000000000000000000000000000000000000000000000000000000081526004016123fe9061476f565b60405180910390fd5b805181602001fd5b63150b7a0260e01b7bffffffffffffffffffffffffffffffffffffffffffffffffffffffff1916817bffffffffffffffffffffffffffffffffffffffffffffffffffffffff191614915050612464565b600190505b949350505050565b606060405180602001604052806000815250905090565b606061248e8261173e565b600061249861246c565b905060008151116124b857604051806020016040528060008152506124e3565b806124c284612a41565b6040516020016124d39291906147c0565b6040516020818303038152906040525b915050919050565b60007f01ffc9a7000000000000000000000000000000000000000000000000000000007bffffffffffffffffffffffffffffffffffffffffffffffffffffffff1916827bffffffffffffffffffffffffffffffffffffffffffffffffffffffff1916149050919050565b61256184848484612b0f565b60018111156125a5576040517f08c379a000000000000000000000000000000000000000000000000000000000815260040161259c90614939565b60405180910390fd5b6000829050600073ffffffffffffffffffffffffffffffffffffffff168573ffffffffffffffffffffffffffffffffffffffff16036125ec576125e781612c35565b61262b565b8373ffffffffffffffffffffffffffffffffffffffff168573ffffffffffffffffffffffffffffffffffffffff161461262a576126298582612c7e565b5b5b600073ffffffffffffffffffffffffffffffffffffffff168473ffffffffffffffffffffffffffffffffffffffff160361266d5761266881612deb565b6126ac565b8473ffffffffffffffffffffffffffffffffffffffff168473ffffffffffffffffffffffffffffffffffffffff16146126ab576126aa8482612ebc565b5b5b5050505050565b60006126be82610c7f565b90506126ce81600084600161221f565b6126d782610c7f565b90506004600083815260200190815260200160002060006101000a81549073ffffffffffffffffffffffffffffffffffffffff02191690556001600360008373ffffffffffffffffffffffffffffffffffffffff1673ffffffffffffffffffffffffffffffffffffffff168152602001908152602001600020600082825403925050819055506002600083815260200190815260200160002060006101000a81549073ffffffffffffffffffffffffffffffffffffffff021916905581600073ffffffffffffffffffffffffffffffffffffffff168273ffffffffffffffffffffffffffffffffffffffff167fddf252ad1be2c89b69c2b068fc378daa952ba7f163c4a11628f55a4df523b3ef60405160405180910390a46127fd816000846001612231565b5050565b600073ffffffffffffffffffffffffffffffffffffffff168273ffffffffffffffffffffffffffffffffffffffff1603612870576040517f08c379a0000000000000000000000000000000000000000000000000000000008152600401612867906149a5565b60405180910390fd5b61287981611bf2565b156128b9576040517f08c379a00000000000000000000000000000000000000000000000000000000081526004016128b090614a11565b60405180910390fd5b6128c760008383600161221f565b6128d081611bf2565b15612910576040517f08c379a000000000000000000000000000000000000000000000000000000000815260040161290790614a11565b60405180910390fd5b6001600360008473ffffffffffffffffffffffffffffffffffffffff1673ffffffffffffffffffffffffffffffffffffffff16815260200190815260200160002060008282540192505081905550816002600083815260200190815260200160002060006101000a81548173ffffffffffffffffffffffffffffffffffffffff021916908373ffffffffffffffffffffffffffffffffffffffff160217905550808273ffffffffffffffffffffffffffffffffffffffff16600073ffffffffffffffffffffffffffffffffffffffff167fddf252ad1be2c89b69c2b068fc378daa952ba7f163c4a11628f55a4df523b3ef60405160405180910390a4612a1a600083836001612231565b5050565b6000808273ffffffffffffffffffffffffffffffffffffffff163b119050919050565b606060006001612a5084612f3b565b01905060008167ffffffffffffffff811115612a6f57612a6e61341e565b5b6040519080825280601f01601f191660200182016040528015612aa15781602001600182028036833780820191505090505b509050600082602001820190505b600115612b04578080600190039150507f3031323334353637383961626364656600000000000000000000000000000000600a86061a8153600a8581612af857612af7614a31565b5b04945060008503612aaf575b819350505050919050565b6001811115612c2f57600073ffffffffffffffffffffffffffffffffffffffff168473ffffffffffffffffffffffffffffffffffffffff1614612ba35780600360008673ffffffffffffffffffffffffffffffffffffffff1673ffffffffffffffffffffffffffffffffffffffff1681526020019081526020016000206000828254612b9b919061430e565b925050819055505b600073ffffffffffffffffffffffffffffffffffffffff168373ffffffffffffffffffffffffffffffffffffffff1614612c2e5780600360008573ffffffffffffffffffffffffffffffffffffffff1673ffffffffffffffffffffffffffffffffffffffff1681526020019081526020016000206000828254612c269190614a60565b925050819055505b5b50505050565b600a80549050600b600083815260200190815260200160002081905550600a81908060018154018082558091505060019003906000526020600020016000909190919091505550565b60006001612c8b84610d05565b612c95919061430e565b9050600060096000848152602001908152602001600020549050818114612d7a576000600860008673ffffffffffffffffffffffffffffffffffffffff1673ffffffffffffffffffffffffffffffffffffffff168152602001908152602001600020600084815260200190815260200160002054905080600860008773ffffffffffffffffffffffffffffffffffffffff1673ffffffffffffffffffffffffffffffffffffffff168152602001908152602001600020600084815260200190815260200160002081905550816009600083815260200190815260200160002081905550505b6009600084815260200190815260200160002060009055600860008573ffffffffffffffffffffffffffffffffffffffff1673ffffffffffffffffffffffffffffffffffffffff16815260200190815260200160002060008381526020019081526020016000206000905550505050565b60006001600a80549050612dff919061430e565b90506000600b60008481526020019081526020016000205490506000600a8381548110612e2f57612e2e613d39565b5b9060005260206000200154905080600a8381548110612e5157612e50613d39565b5b906000526020600020018190555081600b600083815260200190815260200160002081905550600b600085815260200190815260200160002060009055600a805480612ea057612e9f614440565b5b6001900381819060005260206000200160009055905550505050565b6000612ec783610d05565b905081600860008573ffffffffffffffffffffffffffffffffffffffff1673ffffffffffffffffffffffffffffffffffffffff168152602001908152602001600020600083815260200190815260200160002081905550806009600084815260200190815260200160002081905550505050565b600080600090507a184f03e93ff9f4daa797ed6e38ed64bf6a1f0100000000000000008310612f99577a184f03e93ff9f4daa797ed6e38ed64bf6a1f0100000000000000008381612f8f57612f8e614a31565b5b0492506040810190505b6d04ee2d6d415b85acef81000000008310612fd6576d04ee2d6d415b85acef81000000008381612fcc57612fcb614a31565b5b0492506020810190505b662386f26fc10000831061300557662386f26fc100008381612ffb57612ffa614a31565b5b0492506010810190505b6305f5e100831061302e576305f5e100838161302457613023614a31565b5b0492506008810190505b612710831061305357612710838161304957613048614a31565b5b0492506004810190505b60648310613076576064838161306c5761306b614a31565b5b0492506002810190505b600a8310613085576001810190505b80915050919050565b50805461309a90613a2e565b6000825580601f106130ac57506130cb565b601f0160209004906000526020600020908101906130ca91906130ce565b5b50565b5b808211156130e75760008160009055506001016130cf565b5090565b6000604051905090565b600080fd5b600080fd5b60007fffffffff0000000000000000000000000000000000000000000000000000000082169050919050565b613134816130ff565b811461313f57600080fd5b50565b6000813590506131518161312b565b92915050565b60006020828403121561316d5761316c6130f5565b5b600061317b84828501613142565b91505092915050565b60008115159050919050565b61319981613184565b82525050565b60006020820190506131b46000830184613190565b92915050565b600081519050919050565b600082825260208201905092915050565b60005b838110156131f45780820151818401526020810190506131d9565b60008484015250505050565b6000601f19601f8301169050919050565b600061321c826131ba565b61322681856131c5565b93506132368185602086016131d6565b61323f81613200565b840191505092915050565b600060208201905081810360008301526132648184613211565b905092915050565b6000819050919050565b61327f8161326c565b811461328a57600080fd5b50565b60008135905061329c81613276565b92915050565b6000602082840312156132b8576132b76130f5565b5b60006132c68482850161328d565b91505092915050565b600073ffffffffffffffffffffffffffffffffffffffff82169050919050565b60006132fa826132cf565b9050919050565b61330a816132ef565b82525050565b60006020820190506133256000830184613301565b92915050565b613334816132ef565b811461333f57600080fd5b50565b6000813590506133518161332b565b92915050565b6000806040838503121561336e5761336d6130f5565b5b600061337c85828601613342565b925050602061338d8582860161328d565b9150509250929050565b6133a08161326c565b82525050565b60006020820190506133bb6000830184613397565b92915050565b6000806000606084860312156133da576133d96130f5565b5b60006133e886828701613342565b93505060206133f986828701613342565b925050604061340a8682870161328d565b9150509250925092565b600080fd5b600080fd5b7f4e487b7100000000000000000000000000000000000000000000000000000000600052604160045260246000fd5b61345682613200565b810181811067ffffffffffffffff821117156134755761347461341e565b5b80604052505050565b60006134886130eb565b9050613494828261344d565b919050565b600067ffffffffffffffff8211156134b4576134b361341e565b5b6134bd82613200565b9050602081019050919050565b82818337600083830152505050565b60006134ec6134e784613499565b61347e565b90508281526020810184848401111561350857613507613419565b5b6135138482856134ca565b509392505050565b600082601f8301126135305761352f613414565b5b81356135408482602086016134d9565b91505092915050565b60006020828403121561355f5761355e6130f5565b5b600082013567ffffffffffffffff81111561357d5761357c6130fa565b5b6135898482850161351b565b91505092915050565b6000602082840312156135a8576135a76130f5565b5b60006135b684828501613342565b91505092915050565b600080fd5b600080fd5b60008083601f8401126135df576135de613414565b5b8235905067ffffffffffffffff8111156135fc576135fb6135bf565b5b602083019150836001820283011115613618576136176135c4565b5b9250929050565b60008060008060006080868803121561363b5761363a6130f5565b5b600061364988828901613342565b955050602086013567ffffffffffffffff81111561366a576136696130fa565b5b6136768882890161351b565b945050604086013567ffffffffffffffff811115613697576136966130fa565b5b6136a3888289016135c9565b935093505060606136b68882890161328d565b9150509295509295909350565b6136cc81613184565b81146136d757600080fd5b50565b6000813590506136e9816136c3565b92915050565b60008060408385031215613706576137056130f5565b5b600061371485828601613342565b9250506020613725858286016136da565b9150509250929050565b600067ffffffffffffffff82111561374a5761374961341e565b5b61375382613200565b9050602081019050919050565b600061377361376e8461372f565b61347e565b90508281526020810184848401111561378f5761378e613419565b5b61379a8482856134ca565b509392505050565b600082601f8301126137b7576137b6613414565b5b81356137c7848260208601613760565b91505092915050565b600080600080608085870312156137ea576137e96130f5565b5b60006137f887828801613342565b945050602061380987828801613342565b935050604061381a8782880161328d565b925050606085013567ffffffffffffffff81111561383b5761383a6130fa565b5b613847878288016137a2565b91505092959194509250565b600081519050919050565b600082825260208201905092915050565b6000819050602082019050919050565b6138888161326c565b82525050565b600061389a838361387f565b60208301905092915050565b6000602082019050919050565b60006138be82613853565b6138c8818561385e565b93506138d38361386f565b8060005b838110156139045781516138eb888261388e565b97506138f6836138a6565b9250506001810190506138d7565b5085935050505092915050565b6000602082019050818103600083015261392b81846138b3565b905092915050565b6000806040838503121561394a576139496130f5565b5b600061395885828601613342565b925050602061396985828601613342565b9150509250929050565b60006080820190506139886000830187613397565b818103602083015261399a8186613211565b90506139a96040830185613301565b6139b66060830184613397565b95945050505050565b600080604083850312156139d6576139d56130f5565b5b60006139e48582860161328d565b92505060206139f58582860161328d565b9150509250929050565b7f4e487b7100000000000000000000000000000000000000000000000000000000600052602260045260246000fd5b60006002820490506001821680613a4657607f821691505b602082108103613a5957613a586139ff565b5b50919050565b7f4552433732313a20617070726f76616c20746f2063757272656e74206f776e6560008201527f7200000000000000000000000000000000000000000000000000000000000000602082015250565b6000613abb6021836131c5565b9150613ac682613a5f565b604082019050919050565b60006020820190508181036000830152613aea81613aae565b9050919050565b7f4552433732313a20617070726f76652063616c6c6572206973206e6f7420746f60008201527f6b656e206f776e6572206f7220617070726f76656420666f7220616c6c000000602082015250565b6000613b4d603d836131c5565b9150613b5882613af1565b604082019050919050565b60006020820190508181036000830152613b7c81613b40565b9050919050565b7f4552433732313a2063616c6c6572206973206e6f7420746f6b656e206f776e6560008201527f72206f7220617070726f76656400000000000000000000000000000000000000602082015250565b6000613bdf602d836131c5565b9150613bea82613b83565b604082019050919050565b60006020820190508181036000830152613c0e81613bd2565b9050919050565b7f455243373231456e756d657261626c653a206f776e657220696e646578206f7560008201527f74206f6620626f756e6473000000000000000000000000000000000000000000602082015250565b6000613c71602b836131c5565b9150613c7c82613c15565b604082019050919050565b60006020820190508181036000830152613ca081613c64565b9050919050565b7f455243373231456e756d657261626c653a20676c6f62616c20696e646578206f60008201527f7574206f6620626f756e64730000000000000000000000000000000000000000602082015250565b6000613d03602c836131c5565b9150613d0e82613ca7565b604082019050919050565b60006020820190508181036000830152613d3281613cf6565b9050919050565b7f4e487b7100000000000000000000000000000000000000000000000000000000600052603260045260246000fd5b7f546f6b656e20646f6573206e6f74206578697374000000000000000000000000600082015250565b6000613d9e6014836131c5565b9150613da982613d68565b602082019050919050565b60006020820190508181036000830152613dcd81613d91565b9050919050565b7f4e487b7100000000000000000000000000000000000000000000000000000000600052601160045260246000fd5b6000613e0e8261326c565b91507fffffffffffffffffffffffffffffffffffffffffffffffffffffffffffffffff8203613e4057613e3f613dd4565b5b600182019050919050565b7f546f6b656e206e6f7420666f756e640000000000000000000000000000000000600082015250565b6000613e81600f836131c5565b9150613e8c82613e4b565b602082019050919050565b60006020820190508181036000830152613eb081613e74565b9050919050565b7f4552433732313a20696e76616c696420746f6b656e2049440000000000000000600082015250565b6000613eed6018836131c5565b9150613ef882613eb7565b602082019050919050565b60006020820190508181036000830152613f1c81613ee0565b9050919050565b7f4552433732313a2061646472657373207a65726f206973206e6f74206120766160008201527f6c6964206f776e65720000000000000000000000000000000000000000000000602082015250565b6000613f7f6029836131c5565b9150613f8a82613f23565b604082019050919050565b60006020820190508181036000830152613fae81613f72565b9050919050565b60008190508160005260206000209050919050565b60006020601f8301049050919050565b600082821b905092915050565b6000600883026140177fffffffffffffffffffffffffffffffffffffffffffffffffffffffffffffffff82613fda565b6140218683613fda565b95508019841693508086168417925050509392505050565b6000819050919050565b600061405e6140596140548461326c565b614039565b61326c565b9050919050565b6000819050919050565b61407883614043565b61408c61408482614065565b848454613fe7565b825550505050565b600090565b6140a1614094565b6140ac81848461406f565b505050565b5b818110156140d0576140c5600082614099565b6001810190506140b2565b5050565b601f821115614115576140e681613fb5565b6140ef84613fca565b810160208510156140fe578190505b61411261410a85613fca565b8301826140b1565b50505b505050565b600082821c905092915050565b60006141386000198460080261411a565b1980831691505092915050565b60006141518383614127565b9150826002028217905092915050565b61416a826131ba565b67ffffffffffffffff8111156141835761418261341e565b5b61418d8254613a2e565b6141988282856140d4565b600060209050601f8311600181146141cb57600084156141b9578287015190505b6141c38582614145565b86555061422b565b601f1984166141d986613fb5565b60005b82811015614201578489015182556001820191506020850194506020810190506141dc565b8683101561421e578489015161421a601f891682614127565b8355505b6001600288020188555050505b505050505050565b600081905092915050565b600061424a8385614233565b93506142578385846134ca565b82840190509392505050565b600061427082848661423e565b91508190509392505050565b7f4f776e61626c653a206e6577206f776e657220697320746865207a65726f206160008201527f6464726573730000000000000000000000000000000000000000000000000000602082015250565b60006142d86026836131c5565b91506142e38261427c565b604082019050919050565b60006020820190508181036000830152614307816142cb565b9050919050565b60006143198261326c565b91506143248361326c565b925082820390508181111561433c5761433b613dd4565b5b92915050565b60008154905061435181613a2e565b9050919050565b81810361436657505061443e565b61436f82614342565b67ffffffffffffffff8111156143885761438761341e565b5b6143928254613a2e565b61439d8282856140d4565b6000601f8311600181146143cc57600084156143ba578287015490505b6143c48582614145565b865550614437565b601f1984166143da87613fb5565b96506143e586613fb5565b60005b8281101561440d578489015482556001820191506001850194506020810190506143e8565b8683101561442a5784890154614426601f891682614127565b8355505b6001600288020188555050505b5050505050505b565b7f4e487b7100000000000000000000000000000000000000000000000000000000600052603160045260246000fd5b7f4552433732313a207472616e736665722066726f6d20696e636f72726563742060008201527f6f776e6572000000000000000000000000000000000000000000000000000000602082015250565b60006144cb6025836131c5565b91506144d68261446f565b604082019050919050565b600060208201905081810360008301526144fa816144be565b9050919050565b7f4552433732313a207472616e7366657220746f20746865207a65726f2061646460008201527f7265737300000000000000000000000000000000000000000000000000000000602082015250565b600061455d6024836131c5565b915061456882614501565b604082019050919050565b6000602082019050818103600083015261458c81614550565b9050919050565b7f4f776e61626c653a2063616c6c6572206973206e6f7420746865206f776e6572600082015250565b60006145c96020836131c5565b91506145d482614593565b602082019050919050565b600060208201905081810360008301526145f8816145bc565b9050919050565b7f45524337323155524953746f726167653a2055524920736574206f66206e6f6e60008201527f6578697374656e7420746f6b656e000000000000000000000000000000000000602082015250565b600061465b602e836131c5565b9150614666826145ff565b604082019050919050565b6000602082019050818103600083015261468a8161464e565b9050919050565b7f4552433732313a20617070726f766520746f2063616c6c657200000000000000600082015250565b60006146c76019836131c5565b91506146d282614691565b602082019050919050565b600060208201905081810360008301526146f6816146ba565b9050919050565b7f4552433732313a207472616e7366657220746f206e6f6e20455243373231526560008201527f63656976657220696d706c656d656e7465720000000000000000000000000000602082015250565b60006147596032836131c5565b9150614764826146fd565b604082019050919050565b600060208201905081810360008301526147888161474c565b9050919050565b600061479a826131ba565b6147a48185614233565b93506147b48185602086016131d6565b80840191505092915050565b60006147cc828561478f565b91506147d8828461478f565b91508190509392505050565b600081519050919050565b600082825260208201905092915050565b600061480b826147e4565b61481581856147ef565b93506148258185602086016131d6565b61482e81613200565b840191505092915050565b600060808201905061484e6000830187613301565b61485b6020830186613301565b6148686040830185613397565b818103606083015261487a8184614800565b905095945050505050565b6000815190506148948161312b565b92915050565b6000602082840312156148b0576148af6130f5565b5b60006148be84828501614885565b91505092915050565b7f455243373231456e756d657261626c653a20636f6e736563757469766520747260008201527f616e7366657273206e6f7420737570706f727465640000000000000000000000602082015250565b60006149236035836131c5565b915061492e826148c7565b604082019050919050565b6000602082019050818103600083015261495281614916565b9050919050565b7f4552433732313a206d696e7420746f20746865207a65726f2061646472657373600082015250565b600061498f6020836131c5565b915061499a82614959565b602082019050919050565b600060208201905081810360008301526149be81614982565b9050919050565b7f4552433732313a20746f6b656e20616c7265616479206d696e74656400000000600082015250565b60006149fb601c836131c5565b9150614a06826149c5565b602082019050919050565b60006020820190508181036000830152614a2a816149ee565b9050919050565b7f4e487b7100000000000000000000000000000000000000000000000000000000600052601260045260246000fd5b6000614a6b8261326c565b9150614a768361326c565b9250828201905080821115614a8e57614a8d613dd4565b5b9291505056fea2646970667358221220909b46850f67669752ccd650cbc4f8222aa3c4eaff0e975272e9296f3749deb764736f6c63430008120033",
  "immutableReferences": {},
  "source": "// SPDX-License-Identifier: MIT\r\npragma solidity ^0.8.9;\r\n\r\nimport \"@openzeppelin/contracts/token/ERC721/ERC721.sol\";\r\nimport \"@openzeppelin/contracts/token/ERC721/extensions/ERC721URIStorage.sol\";\r\nimport \"@openzeppelin/contracts/token/ERC721/extensions/ERC721Burnable.sol\";\r\nimport \"@openzeppelin/contracts/access/Ownable.sol\";\r\nimport \"@openzeppelin/contracts/utils/Counters.sol\";\r\nimport \"@openzeppelin/contracts/token/ERC721/extensions/ERC721Enumerable.sol\";\r\nimport \"./IPNFT.sol\";\r\n\r\ncontract PoseidonNFT is\r\n    ERC721,\r\n    ERC721URIStorage,\r\n    ERC721Burnable,\r\n    Ownable,\r\n    ERC721Enumerable,\r\n    IPNFT\r\n{\r\n    using Counters for Counters.Counter;\r\n    Counters.Counter private _tokenIdCounter;\r\n    address marketContract;\r\n    event NFTMinted(uint256);\r\n\r\n    struct NFT {\r\n        uint tokenId;\r\n        string tokenName;\r\n        address owner;\r\n        uint256 durability;\r\n    }\r\n\r\n    mapping(address => NFT[]) public tokenAddress;\r\n    mapping(string => bool) public tokenExists;\r\n\r\n    constructor(address _marketContract) ERC721(\"PoseidonNFT\", \"PNFT\") {\r\n        marketContract = _marketContract;\r\n    }\r\n\r\n    function mint(\r\n        address _to,\r\n        string memory _uri,\r\n        string calldata _tokenName,\r\n        uint256 _durability\r\n    ) public onlyOwner {\r\n        //require(!tokenExists[_tokenName], \"Token already exists!\");\r\n        _tokenIdCounter.increment();\r\n        uint256 tokenId = _tokenIdCounter.current();\r\n\r\n        _safeMint(_to, tokenId);\r\n        _setTokenURI(tokenId, _uri);\r\n        _approve(marketContract, tokenId);\r\n\r\n        tokenAddress[_to].push(NFT(tokenId, _tokenName, _to, _durability));\r\n        tokenExists[_tokenName] = true;\r\n        emit NFTMinted(tokenId);\r\n    }\r\n\r\n    function approveMarket(\r\n        address _operator,\r\n        uint256 _tokenId\r\n    ) public virtual override returns (bool) {\r\n        _approveMarket(_operator, _tokenId);\r\n        return true;\r\n    }\r\n\r\n    function _approveMarket(\r\n        address _operator,\r\n        uint256 _tokenId\r\n    ) internal virtual {\r\n        _approve(_operator, _tokenId);\r\n    }\r\n\r\n    function getTokenIds(address _owner) public view returns (uint[] memory) {\r\n        uint[] memory _tokensOfOwner = new uint[](ERC721.balanceOf(_owner));\r\n\r\n        for (uint i = 0; i < ERC721.balanceOf(_owner); i++) {\r\n            _tokensOfOwner[i] = ERC721Enumerable.tokenOfOwnerByIndex(_owner, i);\r\n        }\r\n        return (_tokensOfOwner);\r\n    }\r\n\r\n    function getDurability(uint256 tokenId) public view returns (uint256) {\r\n        require(_exists(tokenId), \"Token does not exist\");\r\n        NFT[] memory tokens = tokenAddress[ownerOf(tokenId)];\r\n        for (uint i = 0; i < tokens.length; i++) {\r\n            if (tokens[i].tokenId == tokenId) {\r\n                return tokens[i].durability;\r\n            }\r\n        }\r\n        revert(\"Token not found\");\r\n    }\r\n\r\n    function updateDurability(uint256 tokenId, uint256 _durability) public {\r\n        require(_exists(tokenId), \"Token does not exist\");\r\n        NFT[] storage tokens = tokenAddress[ownerOf(tokenId)];\r\n        for (uint i = 0; i < tokens.length; i++) {\r\n            if (tokens[i].tokenId == tokenId) {\r\n                tokens[i].durability = _durability;\r\n                if (tokens[i].durability == 0) {\r\n                    _burn(tokens[i].tokenId);\r\n                    tokens[i] = tokens[tokens.length - 1];\r\n                    tokens.pop();\r\n                    break;\r\n                }\r\n            }\r\n        }\r\n    }\r\n\r\n    // The following functions are overrides required by Solidity.\r\n\r\n    function _burn(\r\n        uint256 tokenId\r\n    ) internal override(ERC721, ERC721URIStorage) {\r\n        super._burn(tokenId);\r\n    }\r\n\r\n    function tokenURI(\r\n        uint256 tokenId\r\n    ) public view override(ERC721, ERC721URIStorage) returns (string memory) {\r\n        return super.tokenURI(tokenId);\r\n    }\r\n\r\n    function _beforeTokenTransfer(\r\n        address from,\r\n        address to,\r\n        uint256 tokenId,\r\n        uint256 batchSize\r\n    ) internal override(ERC721, ERC721Enumerable) {\r\n        super._beforeTokenTransfer(from, to, tokenId, batchSize);\r\n    }\r\n\r\n    function supportsInterface(\r\n        bytes4 interfaceId\r\n    ) public view override(ERC721, ERC721Enumerable) returns (bool) {\r\n        return super.supportsInterface(interfaceId);\r\n    }\r\n}\r\n",
  "sourcePath": "C:\\Users\\muizy\\Documents\\GitHub\\blockchaingame\\blockchain\\contracts\\PoseidonNFT.sol",
  "compiler": {
    "name": "solc",
    "version": "0.8.18+commit.87f61d96.Emscripten.clang"
  },
  "schemaVersion": "3.4.11",
  "updatedAt": "2023-06-03T15:13:33.450Z",
  "devdoc": {
    "events": {
      "Approval(address,address,uint256)": {
        "details": "Emitted when `owner` enables `approved` to manage the `tokenId` token."
      },
      "ApprovalForAll(address,address,bool)": {
        "details": "Emitted when `owner` enables or disables (`approved`) `operator` to manage all of its assets."
      },
      "Transfer(address,address,uint256)": {
        "details": "Emitted when `tokenId` token is transferred from `from` to `to`."
      }
    },
    "kind": "dev",
    "methods": {
      "approve(address,uint256)": {
        "details": "See {IERC721-approve}."
      },
      "balanceOf(address)": {
        "details": "See {IERC721-balanceOf}."
      },
      "burn(uint256)": {
        "details": "Burns `tokenId`. See {ERC721-_burn}. Requirements: - The caller must own `tokenId` or be an approved operator."
      },
      "getApproved(uint256)": {
        "details": "See {IERC721-getApproved}."
      },
      "isApprovedForAll(address,address)": {
        "details": "See {IERC721-isApprovedForAll}."
      },
      "name()": {
        "details": "See {IERC721Metadata-name}."
      },
      "owner()": {
        "details": "Returns the address of the current owner."
      },
      "ownerOf(uint256)": {
        "details": "See {IERC721-ownerOf}."
      },
      "renounceOwnership()": {
        "details": "Leaves the contract without owner. It will not be possible to call `onlyOwner` functions anymore. Can only be called by the current owner. NOTE: Renouncing ownership will leave the contract without an owner, thereby removing any functionality that is only available to the owner."
      },
      "safeTransferFrom(address,address,uint256)": {
        "details": "See {IERC721-safeTransferFrom}."
      },
      "safeTransferFrom(address,address,uint256,bytes)": {
        "details": "See {IERC721-safeTransferFrom}."
      },
      "setApprovalForAll(address,bool)": {
        "details": "See {IERC721-setApprovalForAll}."
      },
      "symbol()": {
        "details": "See {IERC721Metadata-symbol}."
      },
      "tokenByIndex(uint256)": {
        "details": "See {IERC721Enumerable-tokenByIndex}."
      },
      "tokenOfOwnerByIndex(address,uint256)": {
        "details": "See {IERC721Enumerable-tokenOfOwnerByIndex}."
      },
      "totalSupply()": {
        "details": "See {IERC721Enumerable-totalSupply}."
      },
      "transferFrom(address,address,uint256)": {
        "details": "See {IERC721-transferFrom}."
      },
      "transferOwnership(address)": {
        "details": "Transfers ownership of the contract to a new account (`newOwner`). Can only be called by the current owner."
      }
    },
    "version": 1
  },
  "userdoc": {
    "kind": "user",
    "methods": {},
    "version": 1
  }
}