{
  "contractName": "PoseidonNFT",
  "abi": [
    {
      "inputs": [
        {
          "internalType": "address",
          "name": "_marketContract",
          "type": "address"
        }
      ],
      "stateMutability": "nonpayable",
      "type": "constructor"
    },
    {
      "anonymous": false,
      "inputs": [
        {
          "indexed": true,
          "internalType": "address",
          "name": "owner",
          "type": "address"
        },
        {
          "indexed": true,
          "internalType": "address",
          "name": "approved",
          "type": "address"
        },
        {
          "indexed": true,
          "internalType": "uint256",
          "name": "tokenId",
          "type": "uint256"
        }
      ],
      "name": "Approval",
      "type": "event"
    },
    {
      "anonymous": false,
      "inputs": [
        {
          "indexed": true,
          "internalType": "address",
          "name": "owner",
          "type": "address"
        },
        {
          "indexed": true,
          "internalType": "address",
          "name": "operator",
          "type": "address"
        },
        {
          "indexed": false,
          "internalType": "bool",
          "name": "approved",
          "type": "bool"
        }
      ],
      "name": "ApprovalForAll",
      "type": "event"
    },
    {
      "anonymous": false,
      "inputs": [
        {
          "indexed": false,
          "internalType": "uint256",
          "name": "",
          "type": "uint256"
        }
      ],
      "name": "NFTMinted",
      "type": "event"
    },
    {
      "anonymous": false,
      "inputs": [
        {
          "indexed": true,
          "internalType": "address",
          "name": "previousOwner",
          "type": "address"
        },
        {
          "indexed": true,
          "internalType": "address",
          "name": "newOwner",
          "type": "address"
        }
      ],
      "name": "OwnershipTransferred",
      "type": "event"
    },
    {
      "anonymous": false,
      "inputs": [
        {
          "indexed": true,
          "internalType": "address",
          "name": "from",
          "type": "address"
        },
        {
          "indexed": true,
          "internalType": "address",
          "name": "to",
          "type": "address"
        },
        {
          "indexed": true,
          "internalType": "uint256",
          "name": "tokenId",
          "type": "uint256"
        }
      ],
      "name": "Transfer",
      "type": "event"
    },
    {
      "inputs": [
        {
          "internalType": "address",
          "name": "to",
          "type": "address"
        },
        {
          "internalType": "uint256",
          "name": "tokenId",
          "type": "uint256"
        }
      ],
      "name": "approve",
      "outputs": [],
      "stateMutability": "nonpayable",
      "type": "function"
    },
    {
      "inputs": [
        {
          "internalType": "address",
          "name": "owner",
          "type": "address"
        }
      ],
      "name": "balanceOf",
      "outputs": [
        {
          "internalType": "uint256",
          "name": "",
          "type": "uint256"
        }
      ],
      "stateMutability": "view",
      "type": "function",
      "constant": true
    },
    {
      "inputs": [
        {
          "internalType": "uint256",
          "name": "tokenId",
          "type": "uint256"
        }
      ],
      "name": "burn",
      "outputs": [],
      "stateMutability": "nonpayable",
      "type": "function"
    },
    {
      "inputs": [
        {
          "internalType": "uint256",
          "name": "tokenId",
          "type": "uint256"
        }
      ],
      "name": "getApproved",
      "outputs": [
        {
          "internalType": "address",
          "name": "",
          "type": "address"
        }
      ],
      "stateMutability": "view",
      "type": "function",
      "constant": true
    },
    {
      "inputs": [
        {
          "internalType": "address",
          "name": "owner",
          "type": "address"
        },
        {
          "internalType": "address",
          "name": "operator",
          "type": "address"
        }
      ],
      "name": "isApprovedForAll",
      "outputs": [
        {
          "internalType": "bool",
          "name": "",
          "type": "bool"
        }
      ],
      "stateMutability": "view",
      "type": "function",
      "constant": true
    },
    {
      "inputs": [],
      "name": "name",
      "outputs": [
        {
          "internalType": "string",
          "name": "",
          "type": "string"
        }
      ],
      "stateMutability": "view",
      "type": "function",
      "constant": true
    },
    {
      "inputs": [],
      "name": "owner",
      "outputs": [
        {
          "internalType": "address",
          "name": "",
          "type": "address"
        }
      ],
      "stateMutability": "view",
      "type": "function",
      "constant": true
    },
    {
      "inputs": [
        {
          "internalType": "uint256",
          "name": "tokenId",
          "type": "uint256"
        }
      ],
      "name": "ownerOf",
      "outputs": [
        {
          "internalType": "address",
          "name": "",
          "type": "address"
        }
      ],
      "stateMutability": "view",
      "type": "function",
      "constant": true
    },
    {
      "inputs": [],
      "name": "renounceOwnership",
      "outputs": [],
      "stateMutability": "nonpayable",
      "type": "function"
    },
    {
      "inputs": [
        {
          "internalType": "address",
          "name": "from",
          "type": "address"
        },
        {
          "internalType": "address",
          "name": "to",
          "type": "address"
        },
        {
          "internalType": "uint256",
          "name": "tokenId",
          "type": "uint256"
        }
      ],
      "name": "safeTransferFrom",
      "outputs": [],
      "stateMutability": "nonpayable",
      "type": "function"
    },
    {
      "inputs": [
        {
          "internalType": "address",
          "name": "from",
          "type": "address"
        },
        {
          "internalType": "address",
          "name": "to",
          "type": "address"
        },
        {
          "internalType": "uint256",
          "name": "tokenId",
          "type": "uint256"
        },
        {
          "internalType": "bytes",
          "name": "data",
          "type": "bytes"
        }
      ],
      "name": "safeTransferFrom",
      "outputs": [],
      "stateMutability": "nonpayable",
      "type": "function"
    },
    {
      "inputs": [
        {
          "internalType": "address",
          "name": "operator",
          "type": "address"
        },
        {
          "internalType": "bool",
          "name": "approved",
          "type": "bool"
        }
      ],
      "name": "setApprovalForAll",
      "outputs": [],
      "stateMutability": "nonpayable",
      "type": "function"
    },
    {
      "inputs": [
        {
          "internalType": "bytes4",
          "name": "interfaceId",
          "type": "bytes4"
        }
      ],
      "name": "supportsInterface",
      "outputs": [
        {
          "internalType": "bool",
          "name": "",
          "type": "bool"
        }
      ],
      "stateMutability": "view",
      "type": "function",
      "constant": true
    },
    {
      "inputs": [],
      "name": "symbol",
      "outputs": [
        {
          "internalType": "string",
          "name": "",
          "type": "string"
        }
      ],
      "stateMutability": "view",
      "type": "function",
      "constant": true
    },
    {
      "inputs": [
        {
          "internalType": "address",
          "name": "",
          "type": "address"
        },
        {
          "internalType": "uint256",
          "name": "",
          "type": "uint256"
        }
      ],
      "name": "tokenAddress",
      "outputs": [
        {
          "internalType": "uint256",
          "name": "tokenId",
          "type": "uint256"
        },
        {
          "internalType": "string",
          "name": "tokenName",
          "type": "string"
        },
        {
          "internalType": "address",
          "name": "owner",
          "type": "address"
        },
        {
          "internalType": "uint256",
          "name": "durability",
          "type": "uint256"
        }
      ],
      "stateMutability": "view",
      "type": "function",
      "constant": true
    },
    {
      "inputs": [
        {
          "internalType": "string",
          "name": "",
          "type": "string"
        }
      ],
      "name": "tokenExists",
      "outputs": [
        {
          "internalType": "bool",
          "name": "",
          "type": "bool"
        }
      ],
      "stateMutability": "view",
      "type": "function",
      "constant": true
    },
    {
      "inputs": [
        {
          "internalType": "address",
          "name": "from",
          "type": "address"
        },
        {
          "internalType": "address",
          "name": "to",
          "type": "address"
        },
        {
          "internalType": "uint256",
          "name": "tokenId",
          "type": "uint256"
        }
      ],
      "name": "transferFrom",
      "outputs": [],
      "stateMutability": "nonpayable",
      "type": "function"
    },
    {
      "inputs": [
        {
          "internalType": "address",
          "name": "newOwner",
          "type": "address"
        }
      ],
      "name": "transferOwnership",
      "outputs": [],
      "stateMutability": "nonpayable",
      "type": "function"
    },
    {
      "inputs": [
        {
          "internalType": "string",
          "name": "uri",
          "type": "string"
        },
        {
          "internalType": "string",
          "name": "_tokenName",
          "type": "string"
        },
        {
          "internalType": "uint256",
          "name": "_durability",
          "type": "uint256"
        }
      ],
      "name": "mint",
      "outputs": [],
      "stateMutability": "nonpayable",
      "type": "function"
    },
    {
      "inputs": [],
      "name": "getMyTokens",
      "outputs": [
        {
          "components": [
            {
              "internalType": "uint256",
              "name": "tokenId",
              "type": "uint256"
            },
            {
              "internalType": "string",
              "name": "tokenName",
              "type": "string"
            },
            {
              "internalType": "address",
              "name": "owner",
              "type": "address"
            },
            {
              "internalType": "uint256",
              "name": "durability",
              "type": "uint256"
            }
          ],
          "internalType": "struct PoseidonNFT.NFT[]",
          "name": "",
          "type": "tuple[]"
        }
      ],
      "stateMutability": "view",
      "type": "function",
      "constant": true
    },
    {
      "inputs": [
        {
          "internalType": "uint256",
          "name": "tokenId",
          "type": "uint256"
        }
      ],
      "name": "getDurability",
      "outputs": [
        {
          "internalType": "uint256",
          "name": "",
          "type": "uint256"
        }
      ],
      "stateMutability": "view",
      "type": "function",
      "constant": true
    },
    {
      "inputs": [
        {
          "internalType": "uint256",
          "name": "tokenId",
          "type": "uint256"
        },
        {
          "internalType": "uint256",
          "name": "_durability",
          "type": "uint256"
        }
      ],
      "name": "updateDurability",
      "outputs": [],
      "stateMutability": "nonpayable",
      "type": "function"
    },
    {
      "inputs": [
        {
          "internalType": "uint256",
          "name": "tokenId",
          "type": "uint256"
        }
      ],
      "name": "tokenURI",
      "outputs": [
        {
          "internalType": "string",
          "name": "",
          "type": "string"
        }
      ],
      "stateMutability": "view",
      "type": "function",
      "constant": true
    }
  ],
  "bytecode": "0x60806040523480156200001157600080fd5b5060405162004a3038038062004a30833981810160405281019062000037919062000269565b6040518060400160405280600b81526020017f506f736569646f6e4e46540000000000000000000000000000000000000000008152506040518060400160405280600481526020017f504e4654000000000000000000000000000000000000000000000000000000008152508160009081620000b4919062000515565b508060019081620000c6919062000515565b505050620000e9620000dd6200013160201b60201c565b6200013960201b60201c565b80600960006101000a81548173ffffffffffffffffffffffffffffffffffffffff021916908373ffffffffffffffffffffffffffffffffffffffff16021790555050620005fc565b600033905090565b6000600760009054906101000a900473ffffffffffffffffffffffffffffffffffffffff16905081600760006101000a81548173ffffffffffffffffffffffffffffffffffffffff021916908373ffffffffffffffffffffffffffffffffffffffff1602179055508173ffffffffffffffffffffffffffffffffffffffff168173ffffffffffffffffffffffffffffffffffffffff167f8be0079c531659141344cd1fd0a4f28419497f9722a3daafe3b4186f6b6457e060405160405180910390a35050565b600080fd5b600073ffffffffffffffffffffffffffffffffffffffff82169050919050565b6000620002318262000204565b9050919050565b620002438162000224565b81146200024f57600080fd5b50565b600081519050620002638162000238565b92915050565b600060208284031215620002825762000281620001ff565b5b6000620002928482850162000252565b91505092915050565b600081519050919050565b7f4e487b7100000000000000000000000000000000000000000000000000000000600052604160045260246000fd5b7f4e487b7100000000000000000000000000000000000000000000000000000000600052602260045260246000fd5b600060028204905060018216806200031d57607f821691505b602082108103620003335762000332620002d5565b5b50919050565b60008190508160005260206000209050919050565b60006020601f8301049050919050565b600082821b905092915050565b6000600883026200039d7fffffffffffffffffffffffffffffffffffffffffffffffffffffffffffffffff826200035e565b620003a986836200035e565b95508019841693508086168417925050509392505050565b6000819050919050565b6000819050919050565b6000620003f6620003f0620003ea84620003c1565b620003cb565b620003c1565b9050919050565b6000819050919050565b6200041283620003d5565b6200042a6200042182620003fd565b8484546200036b565b825550505050565b600090565b6200044162000432565b6200044e81848462000407565b505050565b5b8181101562000476576200046a60008262000437565b60018101905062000454565b5050565b601f821115620004c5576200048f8162000339565b6200049a846200034e565b81016020851015620004aa578190505b620004c2620004b9856200034e565b83018262000453565b50505b505050565b600082821c905092915050565b6000620004ea60001984600802620004ca565b1980831691505092915050565b6000620005058383620004d7565b9150826002028217905092915050565b62000520826200029b565b67ffffffffffffffff8111156200053c576200053b620002a6565b5b62000548825462000304565b620005558282856200047a565b600060209050601f8311600181146200058d576000841562000578578287015190505b620005848582620004f7565b865550620005f4565b601f1984166200059d8662000339565b60005b82811015620005c757848901518255600182019150602085019450602081019050620005a0565b86831015620005e75784890151620005e3601f891682620004d7565b8355505b6001600288020188555050505b505050505050565b614424806200060c6000396000f3fe608060405234801561001057600080fd5b506004361061014d5760003560e01c806370a08231116100c3578063c87b56dd1161007c578063c87b56dd1461039c578063d41d9a27146103cc578063e985e9c5146103e8578063e985ed2114610418578063f2fde38b1461044b578063fea609d2146104675761014d565b806370a08231146102ee578063715018a61461031e5780638da5cb5b1461032857806395d89b4114610346578063a22cb46514610364578063b88d4fde146103805761014d565b806342842e0e1161011557806342842e0e1461020857806342966c6814610224578063509d2927146102405780635b3b136a146102705780636059eae11461028e5780636352211e146102be5761014d565b806301ffc9a71461015257806306fdde0314610182578063081812fc146101a0578063095ea7b3146101d057806323b872dd146101ec575b600080fd5b61016c60048036038101906101679190612b40565b610483565b6040516101799190612b88565b60405180910390f35b61018a610565565b6040516101979190612c33565b60405180910390f35b6101ba60048036038101906101b59190612c8b565b6105f7565b6040516101c79190612cf9565b60405180910390f35b6101ea60048036038101906101e59190612d40565b61063d565b005b61020660048036038101906102019190612d80565b610754565b005b610222600480360381019061021d9190612d80565b6107b4565b005b61023e60048036038101906102399190612c8b565b6107d4565b005b61025a60048036038101906102559190612c8b565b610830565b6040516102679190612de2565b60405180910390f35b610278610ac4565b6040516102859190612f8a565b60405180910390f35b6102a860048036038101906102a391906130e1565b610c5c565b6040516102b59190612b88565b60405180910390f35b6102d860048036038101906102d39190612c8b565b610c92565b6040516102e59190612cf9565b60405180910390f35b6103086004803603810190610303919061312a565b610d18565b6040516103159190612de2565b60405180910390f35b610326610dcf565b005b610330610de3565b60405161033d9190612cf9565b60405180910390f35b61034e610e0d565b60405161035b9190612c33565b60405180910390f35b61037e60048036038101906103799190613183565b610e9f565b005b61039a60048036038101906103959190613264565b610eb5565b005b6103b660048036038101906103b19190612c8b565b610f17565b6040516103c39190612c33565b60405180910390f35b6103e660048036038101906103e19190613347565b610f29565b005b61040260048036038101906103fd91906133d7565b6111bd565b60405161040f9190612b88565b60405180910390f35b610432600480360381019061042d9190612d40565b611251565b6040516104429493929190613417565b60405180910390f35b6104656004803603810190610460919061312a565b611346565b005b610481600480360381019061047c9190613463565b6113c9565b005b60007f80ac58cd000000000000000000000000000000000000000000000000000000007bffffffffffffffffffffffffffffffffffffffffffffffffffffffff1916827bffffffffffffffffffffffffffffffffffffffffffffffffffffffff1916148061054e57507f5b5e139f000000000000000000000000000000000000000000000000000000007bffffffffffffffffffffffffffffffffffffffffffffffffffffffff1916827bffffffffffffffffffffffffffffffffffffffffffffffffffffffff1916145b8061055e575061055d8261168d565b5b9050919050565b606060008054610574906134d2565b80601f01602080910402602001604051908101604052809291908181526020018280546105a0906134d2565b80156105ed5780601f106105c2576101008083540402835291602001916105ed565b820191906000526020600020905b8154815290600101906020018083116105d057829003601f168201915b5050505050905090565b6000610602826116f7565b6004600083815260200190815260200160002060009054906101000a900473ffffffffffffffffffffffffffffffffffffffff169050919050565b600061064882610c92565b90508073ffffffffffffffffffffffffffffffffffffffff168373ffffffffffffffffffffffffffffffffffffffff16036106b8576040517f08c379a00000000000000000000000000000000000000000000000000000000081526004016106af90613575565b60405180910390fd5b8073ffffffffffffffffffffffffffffffffffffffff166106d7611742565b73ffffffffffffffffffffffffffffffffffffffff161480610706575061070581610700611742565b6111bd565b5b610745576040517f08c379a000000000000000000000000000000000000000000000000000000000815260040161073c90613607565b60405180910390fd5b61074f838361174a565b505050565b61076561075f611742565b82611803565b6107a4576040517f08c379a000000000000000000000000000000000000000000000000000000000815260040161079b90613699565b60405180910390fd5b6107af838383611898565b505050565b6107cf83838360405180602001604052806000815250610eb5565b505050565b6107e56107df611742565b82611803565b610824576040517f08c379a000000000000000000000000000000000000000000000000000000000815260040161081b90613699565b60405180910390fd5b61082d81611b91565b50565b600061083b82611b9d565b61087a576040517f08c379a000000000000000000000000000000000000000000000000000000000815260040161087190613705565b60405180910390fd5b6000600a600061088985610c92565b73ffffffffffffffffffffffffffffffffffffffff1673ffffffffffffffffffffffffffffffffffffffff168152602001908152602001600020805480602002602001604051908101604052809291908181526020016000905b82821015610a11578382906000526020600020906004020160405180608001604052908160008201548152602001600182018054610920906134d2565b80601f016020809104026020016040519081016040528092919081815260200182805461094c906134d2565b80156109995780601f1061096e57610100808354040283529160200191610999565b820191906000526020600020905b81548152906001019060200180831161097c57829003601f168201915b505050505081526020016002820160009054906101000a900473ffffffffffffffffffffffffffffffffffffffff1673ffffffffffffffffffffffffffffffffffffffff1673ffffffffffffffffffffffffffffffffffffffff168152602001600382015481525050815260200190600101906108e3565b50505050905060005b8151811015610a835783828281518110610a3757610a36613725565b5b60200260200101516000015103610a7057818181518110610a5b57610a5a613725565b5b60200260200101516060015192505050610abf565b8080610a7b90613783565b915050610a1a565b506040517f08c379a0000000000000000000000000000000000000000000000000000000008152600401610ab690613817565b60405180910390fd5b919050565b6060600a60003373ffffffffffffffffffffffffffffffffffffffff1673ffffffffffffffffffffffffffffffffffffffff168152602001908152602001600020805480602002602001604051908101604052809291908181526020016000905b82821015610c53578382906000526020600020906004020160405180608001604052908160008201548152602001600182018054610b62906134d2565b80601f0160208091040260200160405190810160405280929190818152602001828054610b8e906134d2565b8015610bdb5780601f10610bb057610100808354040283529160200191610bdb565b820191906000526020600020905b815481529060010190602001808311610bbe57829003601f168201915b505050505081526020016002820160009054906101000a900473ffffffffffffffffffffffffffffffffffffffff1673ffffffffffffffffffffffffffffffffffffffff1673ffffffffffffffffffffffffffffffffffffffff16815260200160038201548152505081526020019060010190610b25565b50505050905090565b600b818051602081018201805184825260208301602085012081835280955050505050506000915054906101000a900460ff1681565b600080610c9e83611bde565b9050600073ffffffffffffffffffffffffffffffffffffffff168173ffffffffffffffffffffffffffffffffffffffff1603610d0f576040517f08c379a0000000000000000000000000000000000000000000000000000000008152600401610d0690613883565b60405180910390fd5b80915050919050565b60008073ffffffffffffffffffffffffffffffffffffffff168273ffffffffffffffffffffffffffffffffffffffff1603610d88576040517f08c379a0000000000000000000000000000000000000000000000000000000008152600401610d7f90613915565b60405180910390fd5b600360008373ffffffffffffffffffffffffffffffffffffffff1673ffffffffffffffffffffffffffffffffffffffff168152602001908152602001600020549050919050565b610dd7611c1b565b610de16000611c99565b565b6000600760009054906101000a900473ffffffffffffffffffffffffffffffffffffffff16905090565b606060018054610e1c906134d2565b80601f0160208091040260200160405190810160405280929190818152602001828054610e48906134d2565b8015610e955780601f10610e6a57610100808354040283529160200191610e95565b820191906000526020600020905b815481529060010190602001808311610e7857829003601f168201915b5050505050905090565b610eb1610eaa611742565b8383611d5f565b5050565b610ec6610ec0611742565b83611803565b610f05576040517f08c379a0000000000000000000000000000000000000000000000000000000008152600401610efc90613699565b60405180910390fd5b610f1184848484611ecb565b50505050565b6060610f2282611f27565b9050919050565b600b8383604051610f3b929190613965565b908152602001604051809103902060009054906101000a900460ff1615610f97576040517f08c379a0000000000000000000000000000000000000000000000000000000008152600401610f8e906139ca565b60405180910390fd5b610fa16008612039565b6000610fad600861204f565b9050610fb9338261205d565b610fc3818661207b565b610ff0600960009054906101000a900473ffffffffffffffffffffffffffffffffffffffff166001610e9f565b600a60003373ffffffffffffffffffffffffffffffffffffffff1673ffffffffffffffffffffffffffffffffffffffff168152602001908152602001600020604051806080016040528083815260200186868080601f016020809104026020016040519081016040528093929190818152602001838380828437600081840152601f19601f8201169050808301925050505050505081526020013373ffffffffffffffffffffffffffffffffffffffff1681526020018481525090806001815401808255809150506001900390600052602060002090600402016000909190919091506000820151816000015560208201518160010190816110f29190613b96565b5060408201518160020160006101000a81548173ffffffffffffffffffffffffffffffffffffffff021916908373ffffffffffffffffffffffffffffffffffffffff1602179055506060820151816003015550506001600b858560405161115a929190613965565b908152602001604051809103902060006101000a81548160ff0219169083151502179055507fd9dc24857f317ed9abbbb42e920ede0104231eb1d3d70236a74887ffaf159868816040516111ae9190612de2565b60405180910390a15050505050565b6000600560008473ffffffffffffffffffffffffffffffffffffffff1673ffffffffffffffffffffffffffffffffffffffff16815260200190815260200160002060008373ffffffffffffffffffffffffffffffffffffffff1673ffffffffffffffffffffffffffffffffffffffff16815260200190815260200160002060009054906101000a900460ff16905092915050565b600a602052816000526040600020818154811061126d57600080fd5b906000526020600020906004020160009150915050806000015490806001018054611297906134d2565b80601f01602080910402602001604051908101604052809291908181526020018280546112c3906134d2565b80156113105780601f106112e557610100808354040283529160200191611310565b820191906000526020600020905b8154815290600101906020018083116112f357829003601f168201915b5050505050908060020160009054906101000a900473ffffffffffffffffffffffffffffffffffffffff16908060030154905084565b61134e611c1b565b600073ffffffffffffffffffffffffffffffffffffffff168173ffffffffffffffffffffffffffffffffffffffff16036113bd576040517f08c379a00000000000000000000000000000000000000000000000000000000081526004016113b490613cda565b60405180910390fd5b6113c681611c99565b50565b6113d282611b9d565b611411576040517f08c379a000000000000000000000000000000000000000000000000000000000815260040161140890613705565b60405180910390fd5b6000600a600061142085610c92565b73ffffffffffffffffffffffffffffffffffffffff1673ffffffffffffffffffffffffffffffffffffffff168152602001908152602001600020905060005b8180549050811015611687578382828154811061147f5761147e613725565b5b9060005260206000209060040201600001540361167457828282815481106114aa576114a9613725565b5b90600052602060002090600402016003018190555060008282815481106114d4576114d3613725565b5b906000526020600020906004020160030154036116735761151882828154811061150157611500613725565b5b906000526020600020906004020160000154611b91565b816001838054905061152a9190613cfa565b8154811061153b5761153a613725565b5b906000526020600020906004020182828154811061155c5761155b613725565b5b906000526020600020906004020160008201548160000155600182018160010190816115889190613d44565b506002820160009054906101000a900473ffffffffffffffffffffffffffffffffffffffff168160020160006101000a81548173ffffffffffffffffffffffffffffffffffffffff021916908373ffffffffffffffffffffffffffffffffffffffff160217905550600382015481600301559050508180548061160e5761160d613e2c565b5b600190038181906000526020600020906004020160008082016000905560018201600061163b9190612a77565b6002820160006101000a81549073ffffffffffffffffffffffffffffffffffffffff0219169055600382016000905550509055611687565b5b808061167f90613783565b91505061145f565b50505050565b60007f01ffc9a7000000000000000000000000000000000000000000000000000000007bffffffffffffffffffffffffffffffffffffffffffffffffffffffff1916827bffffffffffffffffffffffffffffffffffffffffffffffffffffffff1916149050919050565b61170081611b9d565b61173f576040517f08c379a000000000000000000000000000000000000000000000000000000000815260040161173690613883565b60405180910390fd5b50565b600033905090565b816004600083815260200190815260200160002060006101000a81548173ffffffffffffffffffffffffffffffffffffffff021916908373ffffffffffffffffffffffffffffffffffffffff160217905550808273ffffffffffffffffffffffffffffffffffffffff166117bd83610c92565b73ffffffffffffffffffffffffffffffffffffffff167f8c5be1e5ebec7d5bd14f71427d1e84f3dd0314c0f7b2291e5b200ac8c7c3b92560405160405180910390a45050565b60008061180f83610c92565b90508073ffffffffffffffffffffffffffffffffffffffff168473ffffffffffffffffffffffffffffffffffffffff161480611851575061185081856111bd565b5b8061188f57508373ffffffffffffffffffffffffffffffffffffffff16611877846105f7565b73ffffffffffffffffffffffffffffffffffffffff16145b91505092915050565b8273ffffffffffffffffffffffffffffffffffffffff166118b882610c92565b73ffffffffffffffffffffffffffffffffffffffff161461190e576040517f08c379a000000000000000000000000000000000000000000000000000000000815260040161190590613ecd565b60405180910390fd5b600073ffffffffffffffffffffffffffffffffffffffff168273ffffffffffffffffffffffffffffffffffffffff160361197d576040517f08c379a000000000000000000000000000000000000000000000000000000000815260040161197490613f5f565b60405180910390fd5b61198a83838360016120e8565b8273ffffffffffffffffffffffffffffffffffffffff166119aa82610c92565b73ffffffffffffffffffffffffffffffffffffffff1614611a00576040517f08c379a00000000000000000000000000000000000000000000000000000000081526004016119f790613ecd565b60405180910390fd5b6004600082815260200190815260200160002060006101000a81549073ffffffffffffffffffffffffffffffffffffffff02191690556001600360008573ffffffffffffffffffffffffffffffffffffffff1673ffffffffffffffffffffffffffffffffffffffff168152602001908152602001600020600082825403925050819055506001600360008473ffffffffffffffffffffffffffffffffffffffff1673ffffffffffffffffffffffffffffffffffffffff16815260200190815260200160002060008282540192505081905550816002600083815260200190815260200160002060006101000a81548173ffffffffffffffffffffffffffffffffffffffff021916908373ffffffffffffffffffffffffffffffffffffffff160217905550808273ffffffffffffffffffffffffffffffffffffffff168473ffffffffffffffffffffffffffffffffffffffff167fddf252ad1be2c89b69c2b068fc378daa952ba7f163c4a11628f55a4df523b3ef60405160405180910390a4611b8c838383600161220e565b505050565b611b9a81612214565b50565b60008073ffffffffffffffffffffffffffffffffffffffff16611bbf83611bde565b73ffffffffffffffffffffffffffffffffffffffff1614159050919050565b60006002600083815260200190815260200160002060009054906101000a900473ffffffffffffffffffffffffffffffffffffffff169050919050565b611c23611742565b73ffffffffffffffffffffffffffffffffffffffff16611c41610de3565b73ffffffffffffffffffffffffffffffffffffffff1614611c97576040517f08c379a0000000000000000000000000000000000000000000000000000000008152600401611c8e90613fcb565b60405180910390fd5b565b6000600760009054906101000a900473ffffffffffffffffffffffffffffffffffffffff16905081600760006101000a81548173ffffffffffffffffffffffffffffffffffffffff021916908373ffffffffffffffffffffffffffffffffffffffff1602179055508173ffffffffffffffffffffffffffffffffffffffff168173ffffffffffffffffffffffffffffffffffffffff167f8be0079c531659141344cd1fd0a4f28419497f9722a3daafe3b4186f6b6457e060405160405180910390a35050565b8173ffffffffffffffffffffffffffffffffffffffff168373ffffffffffffffffffffffffffffffffffffffff1603611dcd576040517f08c379a0000000000000000000000000000000000000000000000000000000008152600401611dc490614037565b60405180910390fd5b80600560008573ffffffffffffffffffffffffffffffffffffffff1673ffffffffffffffffffffffffffffffffffffffff16815260200190815260200160002060008473ffffffffffffffffffffffffffffffffffffffff1673ffffffffffffffffffffffffffffffffffffffff16815260200190815260200160002060006101000a81548160ff0219169083151502179055508173ffffffffffffffffffffffffffffffffffffffff168373ffffffffffffffffffffffffffffffffffffffff167f17307eab39ab6107e8899845ad3d59bd9653f200f220920489ca2b5937696c3183604051611ebe9190612b88565b60405180910390a3505050565b611ed6848484611898565b611ee284848484612267565b611f21576040517f08c379a0000000000000000000000000000000000000000000000000000000008152600401611f18906140c9565b60405180910390fd5b50505050565b6060611f32826116f7565b6000600660008481526020019081526020016000208054611f52906134d2565b80601f0160208091040260200160405190810160405280929190818152602001828054611f7e906134d2565b8015611fcb5780601f10611fa057610100808354040283529160200191611fcb565b820191906000526020600020905b815481529060010190602001808311611fae57829003601f168201915b505050505090506000611fdc6123ee565b90506000815103611ff1578192505050612034565b60008251111561202657808260405160200161200e92919061411a565b60405160208183030381529060405292505050612034565b61202f84612405565b925050505b919050565b6001816000016000828254019250508190555050565b600081600001549050919050565b61207782826040518060200160405280600081525061246d565b5050565b61208482611b9d565b6120c3576040517f08c379a00000000000000000000000000000000000000000000000000000000081526004016120ba906141b0565b60405180910390fd5b806006600084815260200190815260200160002090816120e39190613b96565b505050565b600181111561220857600073ffffffffffffffffffffffffffffffffffffffff168473ffffffffffffffffffffffffffffffffffffffff161461217c5780600360008673ffffffffffffffffffffffffffffffffffffffff1673ffffffffffffffffffffffffffffffffffffffff16815260200190815260200160002060008282546121749190613cfa565b925050819055505b600073ffffffffffffffffffffffffffffffffffffffff168373ffffffffffffffffffffffffffffffffffffffff16146122075780600360008573ffffffffffffffffffffffffffffffffffffffff1673ffffffffffffffffffffffffffffffffffffffff16815260200190815260200160002060008282546121ff91906141d0565b925050819055505b5b50505050565b50505050565b61221d816124c8565b600060066000838152602001908152602001600020805461223d906134d2565b905014612264576006600082815260200190815260200160002060006122639190612a77565b5b50565b60006122888473ffffffffffffffffffffffffffffffffffffffff16612616565b156123e1578373ffffffffffffffffffffffffffffffffffffffff1663150b7a026122b1611742565b8786866040518563ffffffff1660e01b81526004016122d39493929190614259565b6020604051808303816000875af192505050801561230f57506040513d601f19601f8201168201806040525081019061230c91906142ba565b60015b612391573d806000811461233f576040519150601f19603f3d011682016040523d82523d6000602084013e612344565b606091505b506000815103612389576040517f08c379a0000000000000000000000000000000000000000000000000000000008152600401612380906140c9565b60405180910390fd5b805181602001fd5b63150b7a0260e01b7bffffffffffffffffffffffffffffffffffffffffffffffffffffffff1916817bffffffffffffffffffffffffffffffffffffffffffffffffffffffff1916149150506123e6565b600190505b949350505050565b606060405180602001604052806000815250905090565b6060612410826116f7565b600061241a6123ee565b9050600081511161243a5760405180602001604052806000815250612465565b8061244484612639565b60405160200161245592919061411a565b6040516020818303038152906040525b915050919050565b6124778383612707565b6124846000848484612267565b6124c3576040517f08c379a00000000000000000000000000000000000000000000000000000000081526004016124ba906140c9565b60405180910390fd5b505050565b60006124d382610c92565b90506124e38160008460016120e8565b6124ec82610c92565b90506004600083815260200190815260200160002060006101000a81549073ffffffffffffffffffffffffffffffffffffffff02191690556001600360008373ffffffffffffffffffffffffffffffffffffffff1673ffffffffffffffffffffffffffffffffffffffff168152602001908152602001600020600082825403925050819055506002600083815260200190815260200160002060006101000a81549073ffffffffffffffffffffffffffffffffffffffff021916905581600073ffffffffffffffffffffffffffffffffffffffff168273ffffffffffffffffffffffffffffffffffffffff167fddf252ad1be2c89b69c2b068fc378daa952ba7f163c4a11628f55a4df523b3ef60405160405180910390a461261281600084600161220e565b5050565b6000808273ffffffffffffffffffffffffffffffffffffffff163b119050919050565b60606000600161264884612924565b01905060008167ffffffffffffffff81111561266757612666612fb6565b5b6040519080825280601f01601f1916602001820160405280156126995781602001600182028036833780820191505090505b509050600082602001820190505b6001156126fc578080600190039150507f3031323334353637383961626364656600000000000000000000000000000000600a86061a8153600a85816126f0576126ef6142e7565b5b049450600085036126a7575b819350505050919050565b600073ffffffffffffffffffffffffffffffffffffffff168273ffffffffffffffffffffffffffffffffffffffff1603612776576040517f08c379a000000000000000000000000000000000000000000000000000000000815260040161276d90614362565b60405180910390fd5b61277f81611b9d565b156127bf576040517f08c379a00000000000000000000000000000000000000000000000000000000081526004016127b6906143ce565b60405180910390fd5b6127cd6000838360016120e8565b6127d681611b9d565b15612816576040517f08c379a000000000000000000000000000000000000000000000000000000000815260040161280d906143ce565b60405180910390fd5b6001600360008473ffffffffffffffffffffffffffffffffffffffff1673ffffffffffffffffffffffffffffffffffffffff16815260200190815260200160002060008282540192505081905550816002600083815260200190815260200160002060006101000a81548173ffffffffffffffffffffffffffffffffffffffff021916908373ffffffffffffffffffffffffffffffffffffffff160217905550808273ffffffffffffffffffffffffffffffffffffffff16600073ffffffffffffffffffffffffffffffffffffffff167fddf252ad1be2c89b69c2b068fc378daa952ba7f163c4a11628f55a4df523b3ef60405160405180910390a461292060008383600161220e565b5050565b600080600090507a184f03e93ff9f4daa797ed6e38ed64bf6a1f0100000000000000008310612982577a184f03e93ff9f4daa797ed6e38ed64bf6a1f0100000000000000008381612978576129776142e7565b5b0492506040810190505b6d04ee2d6d415b85acef810000000083106129bf576d04ee2d6d415b85acef810000000083816129b5576129b46142e7565b5b0492506020810190505b662386f26fc1000083106129ee57662386f26fc1000083816129e4576129e36142e7565b5b0492506010810190505b6305f5e1008310612a17576305f5e1008381612a0d57612a0c6142e7565b5b0492506008810190505b6127108310612a3c576127108381612a3257612a316142e7565b5b0492506004810190505b60648310612a5f5760648381612a5557612a546142e7565b5b0492506002810190505b600a8310612a6e576001810190505b80915050919050565b508054612a83906134d2565b6000825580601f10612a955750612ab4565b601f016020900490600052602060002090810190612ab39190612ab7565b5b50565b5b80821115612ad0576000816000905550600101612ab8565b5090565b6000604051905090565b600080fd5b600080fd5b60007fffffffff0000000000000000000000000000000000000000000000000000000082169050919050565b612b1d81612ae8565b8114612b2857600080fd5b50565b600081359050612b3a81612b14565b92915050565b600060208284031215612b5657612b55612ade565b5b6000612b6484828501612b2b565b91505092915050565b60008115159050919050565b612b8281612b6d565b82525050565b6000602082019050612b9d6000830184612b79565b92915050565b600081519050919050565b600082825260208201905092915050565b60005b83811015612bdd578082015181840152602081019050612bc2565b60008484015250505050565b6000601f19601f8301169050919050565b6000612c0582612ba3565b612c0f8185612bae565b9350612c1f818560208601612bbf565b612c2881612be9565b840191505092915050565b60006020820190508181036000830152612c4d8184612bfa565b905092915050565b6000819050919050565b612c6881612c55565b8114612c7357600080fd5b50565b600081359050612c8581612c5f565b92915050565b600060208284031215612ca157612ca0612ade565b5b6000612caf84828501612c76565b91505092915050565b600073ffffffffffffffffffffffffffffffffffffffff82169050919050565b6000612ce382612cb8565b9050919050565b612cf381612cd8565b82525050565b6000602082019050612d0e6000830184612cea565b92915050565b612d1d81612cd8565b8114612d2857600080fd5b50565b600081359050612d3a81612d14565b92915050565b60008060408385031215612d5757612d56612ade565b5b6000612d6585828601612d2b565b9250506020612d7685828601612c76565b9150509250929050565b600080600060608486031215612d9957612d98612ade565b5b6000612da786828701612d2b565b9350506020612db886828701612d2b565b9250506040612dc986828701612c76565b9150509250925092565b612ddc81612c55565b82525050565b6000602082019050612df76000830184612dd3565b92915050565b600081519050919050565b600082825260208201905092915050565b6000819050602082019050919050565b612e3281612c55565b82525050565b600082825260208201905092915050565b6000612e5482612ba3565b612e5e8185612e38565b9350612e6e818560208601612bbf565b612e7781612be9565b840191505092915050565b612e8b81612cd8565b82525050565b6000608083016000830151612ea96000860182612e29565b5060208301518482036020860152612ec18282612e49565b9150506040830151612ed66040860182612e82565b506060830151612ee96060860182612e29565b508091505092915050565b6000612f008383612e91565b905092915050565b6000602082019050919050565b6000612f2082612dfd565b612f2a8185612e08565b935083602082028501612f3c85612e19565b8060005b85811015612f785784840389528151612f598582612ef4565b9450612f6483612f08565b925060208a01995050600181019050612f40565b50829750879550505050505092915050565b60006020820190508181036000830152612fa48184612f15565b905092915050565b600080fd5b600080fd5b7f4e487b7100000000000000000000000000000000000000000000000000000000600052604160045260246000fd5b612fee82612be9565b810181811067ffffffffffffffff8211171561300d5761300c612fb6565b5b80604052505050565b6000613020612ad4565b905061302c8282612fe5565b919050565b600067ffffffffffffffff82111561304c5761304b612fb6565b5b61305582612be9565b9050602081019050919050565b82818337600083830152505050565b600061308461307f84613031565b613016565b9050828152602081018484840111156130a05761309f612fb1565b5b6130ab848285613062565b509392505050565b600082601f8301126130c8576130c7612fac565b5b81356130d8848260208601613071565b91505092915050565b6000602082840312156130f7576130f6612ade565b5b600082013567ffffffffffffffff81111561311557613114612ae3565b5b613121848285016130b3565b91505092915050565b6000602082840312156131405761313f612ade565b5b600061314e84828501612d2b565b91505092915050565b61316081612b6d565b811461316b57600080fd5b50565b60008135905061317d81613157565b92915050565b6000806040838503121561319a57613199612ade565b5b60006131a885828601612d2b565b92505060206131b98582860161316e565b9150509250929050565b600067ffffffffffffffff8211156131de576131dd612fb6565b5b6131e782612be9565b9050602081019050919050565b6000613207613202846131c3565b613016565b90508281526020810184848401111561322357613222612fb1565b5b61322e848285613062565b509392505050565b600082601f83011261324b5761324a612fac565b5b813561325b8482602086016131f4565b91505092915050565b6000806000806080858703121561327e5761327d612ade565b5b600061328c87828801612d2b565b945050602061329d87828801612d2b565b93505060406132ae87828801612c76565b925050606085013567ffffffffffffffff8111156132cf576132ce612ae3565b5b6132db87828801613236565b91505092959194509250565b600080fd5b600080fd5b60008083601f84011261330757613306612fac565b5b8235905067ffffffffffffffff811115613324576133236132e7565b5b6020830191508360018202830111156133405761333f6132ec565b5b9250929050565b6000806000806060858703121561336157613360612ade565b5b600085013567ffffffffffffffff81111561337f5761337e612ae3565b5b61338b878288016130b3565b945050602085013567ffffffffffffffff8111156133ac576133ab612ae3565b5b6133b8878288016132f1565b935093505060406133cb87828801612c76565b91505092959194509250565b600080604083850312156133ee576133ed612ade565b5b60006133fc85828601612d2b565b925050602061340d85828601612d2b565b9150509250929050565b600060808201905061342c6000830187612dd3565b818103602083015261343e8186612bfa565b905061344d6040830185612cea565b61345a6060830184612dd3565b95945050505050565b6000806040838503121561347a57613479612ade565b5b600061348885828601612c76565b925050602061349985828601612c76565b9150509250929050565b7f4e487b7100000000000000000000000000000000000000000000000000000000600052602260045260246000fd5b600060028204905060018216806134ea57607f821691505b6020821081036134fd576134fc6134a3565b5b50919050565b7f4552433732313a20617070726f76616c20746f2063757272656e74206f776e6560008201527f7200000000000000000000000000000000000000000000000000000000000000602082015250565b600061355f602183612bae565b915061356a82613503565b604082019050919050565b6000602082019050818103600083015261358e81613552565b9050919050565b7f4552433732313a20617070726f76652063616c6c6572206973206e6f7420746f60008201527f6b656e206f776e6572206f7220617070726f76656420666f7220616c6c000000602082015250565b60006135f1603d83612bae565b91506135fc82613595565b604082019050919050565b60006020820190508181036000830152613620816135e4565b9050919050565b7f4552433732313a2063616c6c6572206973206e6f7420746f6b656e206f776e6560008201527f72206f7220617070726f76656400000000000000000000000000000000000000602082015250565b6000613683602d83612bae565b915061368e82613627565b604082019050919050565b600060208201905081810360008301526136b281613676565b9050919050565b7f546f6b656e20646f6573206e6f74206578697374000000000000000000000000600082015250565b60006136ef601483612bae565b91506136fa826136b9565b602082019050919050565b6000602082019050818103600083015261371e816136e2565b9050919050565b7f4e487b7100000000000000000000000000000000000000000000000000000000600052603260045260246000fd5b7f4e487b7100000000000000000000000000000000000000000000000000000000600052601160045260246000fd5b600061378e82612c55565b91507fffffffffffffffffffffffffffffffffffffffffffffffffffffffffffffffff82036137c0576137bf613754565b5b600182019050919050565b7f546f6b656e206e6f7420666f756e640000000000000000000000000000000000600082015250565b6000613801600f83612bae565b915061380c826137cb565b602082019050919050565b60006020820190508181036000830152613830816137f4565b9050919050565b7f4552433732313a20696e76616c696420746f6b656e2049440000000000000000600082015250565b600061386d601883612bae565b915061387882613837565b602082019050919050565b6000602082019050818103600083015261389c81613860565b9050919050565b7f4552433732313a2061646472657373207a65726f206973206e6f74206120766160008201527f6c6964206f776e65720000000000000000000000000000000000000000000000602082015250565b60006138ff602983612bae565b915061390a826138a3565b604082019050919050565b6000602082019050818103600083015261392e816138f2565b9050919050565b600081905092915050565b600061394c8385613935565b9350613959838584613062565b82840190509392505050565b6000613972828486613940565b91508190509392505050565b7f546f6b656e20616c726561647920657869737473210000000000000000000000600082015250565b60006139b4601583612bae565b91506139bf8261397e565b602082019050919050565b600060208201905081810360008301526139e3816139a7565b9050919050565b60008190508160005260206000209050919050565b60006020601f8301049050919050565b600082821b905092915050565b600060088302613a4c7fffffffffffffffffffffffffffffffffffffffffffffffffffffffffffffffff82613a0f565b613a568683613a0f565b95508019841693508086168417925050509392505050565b6000819050919050565b6000613a93613a8e613a8984612c55565b613a6e565b612c55565b9050919050565b6000819050919050565b613aad83613a78565b613ac1613ab982613a9a565b848454613a1c565b825550505050565b600090565b613ad6613ac9565b613ae1818484613aa4565b505050565b5b81811015613b0557613afa600082613ace565b600181019050613ae7565b5050565b601f821115613b4a57613b1b816139ea565b613b24846139ff565b81016020851015613b33578190505b613b47613b3f856139ff565b830182613ae6565b50505b505050565b600082821c905092915050565b6000613b6d60001984600802613b4f565b1980831691505092915050565b6000613b868383613b5c565b9150826002028217905092915050565b613b9f82612ba3565b67ffffffffffffffff811115613bb857613bb7612fb6565b5b613bc282546134d2565b613bcd828285613b09565b600060209050601f831160018114613c005760008415613bee578287015190505b613bf88582613b7a565b865550613c60565b601f198416613c0e866139ea565b60005b82811015613c3657848901518255600182019150602085019450602081019050613c11565b86831015613c535784890151613c4f601f891682613b5c565b8355505b6001600288020188555050505b505050505050565b7f4f776e61626c653a206e6577206f776e657220697320746865207a65726f206160008201527f6464726573730000000000000000000000000000000000000000000000000000602082015250565b6000613cc4602683612bae565b9150613ccf82613c68565b604082019050919050565b60006020820190508181036000830152613cf381613cb7565b9050919050565b6000613d0582612c55565b9150613d1083612c55565b9250828203905081811115613d2857613d27613754565b5b92915050565b600081549050613d3d816134d2565b9050919050565b818103613d52575050613e2a565b613d5b82613d2e565b67ffffffffffffffff811115613d7457613d73612fb6565b5b613d7e82546134d2565b613d89828285613b09565b6000601f831160018114613db85760008415613da6578287015490505b613db08582613b7a565b865550613e23565b601f198416613dc6876139ea565b9650613dd1866139ea565b60005b82811015613df957848901548255600182019150600185019450602081019050613dd4565b86831015613e165784890154613e12601f891682613b5c565b8355505b6001600288020188555050505b5050505050505b565b7f4e487b7100000000000000000000000000000000000000000000000000000000600052603160045260246000fd5b7f4552433732313a207472616e736665722066726f6d20696e636f72726563742060008201527f6f776e6572000000000000000000000000000000000000000000000000000000602082015250565b6000613eb7602583612bae565b9150613ec282613e5b565b604082019050919050565b60006020820190508181036000830152613ee681613eaa565b9050919050565b7f4552433732313a207472616e7366657220746f20746865207a65726f2061646460008201527f7265737300000000000000000000000000000000000000000000000000000000602082015250565b6000613f49602483612bae565b9150613f5482613eed565b604082019050919050565b60006020820190508181036000830152613f7881613f3c565b9050919050565b7f4f776e61626c653a2063616c6c6572206973206e6f7420746865206f776e6572600082015250565b6000613fb5602083612bae565b9150613fc082613f7f565b602082019050919050565b60006020820190508181036000830152613fe481613fa8565b9050919050565b7f4552433732313a20617070726f766520746f2063616c6c657200000000000000600082015250565b6000614021601983612bae565b915061402c82613feb565b602082019050919050565b6000602082019050818103600083015261405081614014565b9050919050565b7f4552433732313a207472616e7366657220746f206e6f6e20455243373231526560008201527f63656976657220696d706c656d656e7465720000000000000000000000000000602082015250565b60006140b3603283612bae565b91506140be82614057565b604082019050919050565b600060208201905081810360008301526140e2816140a6565b9050919050565b60006140f482612ba3565b6140fe8185613935565b935061410e818560208601612bbf565b80840191505092915050565b600061412682856140e9565b915061413282846140e9565b91508190509392505050565b7f45524337323155524953746f726167653a2055524920736574206f66206e6f6e60008201527f6578697374656e7420746f6b656e000000000000000000000000000000000000602082015250565b600061419a602e83612bae565b91506141a58261413e565b604082019050919050565b600060208201905081810360008301526141c98161418d565b9050919050565b60006141db82612c55565b91506141e683612c55565b92508282019050808211156141fe576141fd613754565b5b92915050565b600081519050919050565b600082825260208201905092915050565b600061422b82614204565b614235818561420f565b9350614245818560208601612bbf565b61424e81612be9565b840191505092915050565b600060808201905061426e6000830187612cea565b61427b6020830186612cea565b6142886040830185612dd3565b818103606083015261429a8184614220565b905095945050505050565b6000815190506142b481612b14565b92915050565b6000602082840312156142d0576142cf612ade565b5b60006142de848285016142a5565b91505092915050565b7f4e487b7100000000000000000000000000000000000000000000000000000000600052601260045260246000fd5b7f4552433732313a206d696e7420746f20746865207a65726f2061646472657373600082015250565b600061434c602083612bae565b915061435782614316565b602082019050919050565b6000602082019050818103600083015261437b8161433f565b9050919050565b7f4552433732313a20746f6b656e20616c7265616479206d696e74656400000000600082015250565b60006143b8601c83612bae565b91506143c382614382565b602082019050919050565b600060208201905081810360008301526143e7816143ab565b905091905056fea2646970667358221220f5ba4c1652be57f528d278f7e3feaf0376c083d38bc59078c187d109cc39b1a164736f6c63430008120033",
  "immutableReferences": {},
  "source": "// SPDX-License-Identifier: MIT\r\npragma solidity ^0.8.9;\r\n\r\nimport \"@openzeppelin/contracts/token/ERC721/ERC721.sol\";\r\nimport \"@openzeppelin/contracts/token/ERC721/extensions/ERC721URIStorage.sol\";\r\nimport \"@openzeppelin/contracts/token/ERC721/extensions/ERC721Burnable.sol\";\r\nimport \"@openzeppelin/contracts/access/Ownable.sol\";\r\nimport \"@openzeppelin/contracts/utils/Counters.sol\";\r\n\r\ncontract PoseidonNFT is ERC721, ERC721URIStorage, ERC721Burnable, Ownable {\r\n    using Counters for Counters.Counter;\r\n    Counters.Counter private _tokenIdCounter;\r\n    address marketContract;\r\n    event NFTMinted(uint256);\r\n\r\n    struct NFT {\r\n        uint tokenId;\r\n        string tokenName;\r\n        address owner;\r\n        uint256 durability;\r\n    }\r\n\r\n    mapping(address => NFT[]) public tokenAddress;\r\n    mapping(string => bool) public tokenExists;\r\n\r\n    constructor(address _marketContract) ERC721(\"PoseidonNFT\", \"PNFT\") {\r\n        marketContract = _marketContract;\r\n    }\r\n\r\n    function mint(\r\n        string memory uri,\r\n        string calldata _tokenName,\r\n        uint256 _durability\r\n    ) public {\r\n        require(!tokenExists[_tokenName], \"Token already exists!\");\r\n        _tokenIdCounter.increment();\r\n        uint256 tokenId = _tokenIdCounter.current();\r\n\r\n        _safeMint(msg.sender, tokenId);\r\n        _setTokenURI(tokenId, uri);\r\n        setApprovalForAll(marketContract, true);\r\n\r\n        tokenAddress[msg.sender].push(NFT(tokenId, _tokenName, msg.sender, _durability));\r\n        tokenExists[_tokenName] = true;\r\n        emit NFTMinted(tokenId);\r\n    }\r\n\r\n    function getMyTokens() public view returns (NFT[] memory) {\r\n        return tokenAddress[msg.sender];\r\n    }\r\n\r\n    function getDurability(uint256 tokenId) public view returns (uint256) {\r\n        require(_exists(tokenId), \"Token does not exist\");\r\n        NFT[] memory tokens = tokenAddress[ownerOf(tokenId)];\r\n        for (uint i = 0; i < tokens.length; i++) {\r\n            if (tokens[i].tokenId == tokenId) {\r\n                return tokens[i].durability;\r\n            }\r\n        }\r\n        revert(\"Token not found\");\r\n    }\r\n\r\n    function updateDurability(uint256 tokenId, uint256 _durability) public {\r\n        require(_exists(tokenId), \"Token does not exist\");\r\n        NFT[] storage tokens = tokenAddress[ownerOf(tokenId)];\r\n        for (uint i = 0; i < tokens.length; i++) {\r\n            if (tokens[i].tokenId == tokenId) {\r\n                tokens[i].durability = _durability;\r\n                if (tokens[i].durability == 0) {\r\n                    _burn(tokens[i].tokenId);\r\n                    tokens[i] = tokens[tokens.length - 1];\r\n                    tokens.pop();\r\n                    break;\r\n                }\r\n            }\r\n        }\r\n    }\r\n\r\n    // The following functions are overrides required by Solidity.\r\n\r\n    function _burn(\r\n        uint256 tokenId\r\n    ) internal override(ERC721, ERC721URIStorage) {\r\n        super._burn(tokenId);\r\n    }\r\n\r\n    function tokenURI(\r\n        uint256 tokenId\r\n    ) public view override(ERC721, ERC721URIStorage) returns (string memory) {\r\n        return super.tokenURI(tokenId);\r\n    }\r\n}\r\n",
  "sourcePath": "C:\\Users\\muizy\\Desktop\\blockchain\\contracts\\PoseidonNFT.sol",
  "compiler": {
    "name": "solc",
    "version": "0.8.18+commit.87f61d96.Emscripten.clang"
  },
  "schemaVersion": "3.4.11",
  "updatedAt": "2023-04-01T00:37:17.305Z",
  "networkType": "ethereum",
  "devdoc": {
    "events": {
      "Approval(address,address,uint256)": {
        "details": "Emitted when `owner` enables `approved` to manage the `tokenId` token."
      },
      "ApprovalForAll(address,address,bool)": {
        "details": "Emitted when `owner` enables or disables (`approved`) `operator` to manage all of its assets."
      },
      "Transfer(address,address,uint256)": {
        "details": "Emitted when `tokenId` token is transferred from `from` to `to`."
      }
    },
    "kind": "dev",
    "methods": {
      "approve(address,uint256)": {
        "details": "See {IERC721-approve}."
      },
      "balanceOf(address)": {
        "details": "See {IERC721-balanceOf}."
      },
      "burn(uint256)": {
        "details": "Burns `tokenId`. See {ERC721-_burn}. Requirements: - The caller must own `tokenId` or be an approved operator."
      },
      "getApproved(uint256)": {
        "details": "See {IERC721-getApproved}."
      },
      "isApprovedForAll(address,address)": {
        "details": "See {IERC721-isApprovedForAll}."
      },
      "name()": {
        "details": "See {IERC721Metadata-name}."
      },
      "owner()": {
        "details": "Returns the address of the current owner."
      },
      "ownerOf(uint256)": {
        "details": "See {IERC721-ownerOf}."
      },
      "renounceOwnership()": {
        "details": "Leaves the contract without owner. It will not be possible to call `onlyOwner` functions anymore. Can only be called by the current owner. NOTE: Renouncing ownership will leave the contract without an owner, thereby removing any functionality that is only available to the owner."
      },
      "safeTransferFrom(address,address,uint256)": {
        "details": "See {IERC721-safeTransferFrom}."
      },
      "safeTransferFrom(address,address,uint256,bytes)": {
        "details": "See {IERC721-safeTransferFrom}."
      },
      "setApprovalForAll(address,bool)": {
        "details": "See {IERC721-setApprovalForAll}."
      },
      "supportsInterface(bytes4)": {
        "details": "See {IERC165-supportsInterface}."
      },
      "symbol()": {
        "details": "See {IERC721Metadata-symbol}."
      },
      "transferFrom(address,address,uint256)": {
        "details": "See {IERC721-transferFrom}."
      },
      "transferOwnership(address)": {
        "details": "Transfers ownership of the contract to a new account (`newOwner`). Can only be called by the current owner."
      }
    },
    "version": 1
  },
  "userdoc": {
    "kind": "user",
    "methods": {},
    "version": 1
  }
}