{
  "contractName": "PoseidonMarket",
  "abi": [
    {
      "inputs": [],
      "stateMutability": "nonpayable",
      "type": "constructor"
    },
    {
      "anonymous": false,
      "inputs": [
        {
          "indexed": true,
          "internalType": "address",
          "name": "account",
          "type": "address"
        },
        {
          "indexed": true,
          "internalType": "address",
          "name": "operator",
          "type": "address"
        },
        {
          "indexed": false,
          "internalType": "bool",
          "name": "approved",
          "type": "bool"
        }
      ],
      "name": "ApprovalForAll",
      "type": "event"
    },
    {
      "anonymous": false,
      "inputs": [
        {
          "indexed": false,
          "internalType": "uint256",
          "name": "listingId",
          "type": "uint256"
        }
      ],
      "name": "ListingCancelled",
      "type": "event"
    },
    {
      "anonymous": false,
      "inputs": [
        {
          "indexed": false,
          "internalType": "uint256",
          "name": "listingId",
          "type": "uint256"
        },
        {
          "indexed": false,
          "internalType": "address",
          "name": "seller",
          "type": "address"
        },
        {
          "indexed": false,
          "internalType": "address",
          "name": "tokenContract",
          "type": "address"
        },
        {
          "indexed": false,
          "internalType": "uint256",
          "name": "tokenId",
          "type": "uint256"
        },
        {
          "indexed": false,
          "internalType": "uint256",
          "name": "quantity",
          "type": "uint256"
        },
        {
          "indexed": false,
          "internalType": "uint256",
          "name": "price",
          "type": "uint256"
        }
      ],
      "name": "ListingCreated",
      "type": "event"
    },
    {
      "anonymous": false,
      "inputs": [
        {
          "indexed": false,
          "internalType": "uint256",
          "name": "listingId",
          "type": "uint256"
        },
        {
          "indexed": false,
          "internalType": "address",
          "name": "buyer",
          "type": "address"
        }
      ],
      "name": "ListingSold",
      "type": "event"
    },
    {
      "anonymous": false,
      "inputs": [
        {
          "indexed": false,
          "internalType": "uint256",
          "name": "listingId",
          "type": "uint256"
        },
        {
          "indexed": false,
          "internalType": "uint256",
          "name": "quantity",
          "type": "uint256"
        },
        {
          "indexed": false,
          "internalType": "uint256",
          "name": "price",
          "type": "uint256"
        }
      ],
      "name": "ListingUpdated",
      "type": "event"
    },
    {
      "anonymous": false,
      "inputs": [
        {
          "indexed": true,
          "internalType": "address",
          "name": "previousOwner",
          "type": "address"
        },
        {
          "indexed": true,
          "internalType": "address",
          "name": "newOwner",
          "type": "address"
        }
      ],
      "name": "OwnershipTransferred",
      "type": "event"
    },
    {
      "anonymous": false,
      "inputs": [
        {
          "indexed": true,
          "internalType": "address",
          "name": "operator",
          "type": "address"
        },
        {
          "indexed": true,
          "internalType": "address",
          "name": "from",
          "type": "address"
        },
        {
          "indexed": true,
          "internalType": "address",
          "name": "to",
          "type": "address"
        },
        {
          "indexed": false,
          "internalType": "uint256[]",
          "name": "ids",
          "type": "uint256[]"
        },
        {
          "indexed": false,
          "internalType": "uint256[]",
          "name": "values",
          "type": "uint256[]"
        }
      ],
      "name": "TransferBatch",
      "type": "event"
    },
    {
      "anonymous": false,
      "inputs": [
        {
          "indexed": true,
          "internalType": "address",
          "name": "operator",
          "type": "address"
        },
        {
          "indexed": true,
          "internalType": "address",
          "name": "from",
          "type": "address"
        },
        {
          "indexed": true,
          "internalType": "address",
          "name": "to",
          "type": "address"
        },
        {
          "indexed": false,
          "internalType": "uint256",
          "name": "id",
          "type": "uint256"
        },
        {
          "indexed": false,
          "internalType": "uint256",
          "name": "value",
          "type": "uint256"
        }
      ],
      "name": "TransferSingle",
      "type": "event"
    },
    {
      "anonymous": false,
      "inputs": [
        {
          "indexed": false,
          "internalType": "string",
          "name": "value",
          "type": "string"
        },
        {
          "indexed": true,
          "internalType": "uint256",
          "name": "id",
          "type": "uint256"
        }
      ],
      "name": "URI",
      "type": "event"
    },
    {
      "anonymous": false,
      "inputs": [
        {
          "indexed": false,
          "internalType": "uint256",
          "name": "amount",
          "type": "uint256"
        },
        {
          "indexed": false,
          "internalType": "uint256",
          "name": "timestamp",
          "type": "uint256"
        }
      ],
      "name": "Withdraw",
      "type": "event"
    },
    {
      "inputs": [
        {
          "internalType": "address",
          "name": "account",
          "type": "address"
        },
        {
          "internalType": "uint256",
          "name": "id",
          "type": "uint256"
        }
      ],
      "name": "balanceOf",
      "outputs": [
        {
          "internalType": "uint256",
          "name": "",
          "type": "uint256"
        }
      ],
      "stateMutability": "view",
      "type": "function",
      "constant": true
    },
    {
      "inputs": [
        {
          "internalType": "address[]",
          "name": "accounts",
          "type": "address[]"
        },
        {
          "internalType": "uint256[]",
          "name": "ids",
          "type": "uint256[]"
        }
      ],
      "name": "balanceOfBatch",
      "outputs": [
        {
          "internalType": "uint256[]",
          "name": "",
          "type": "uint256[]"
        }
      ],
      "stateMutability": "view",
      "type": "function",
      "constant": true
    },
    {
      "inputs": [
        {
          "internalType": "address",
          "name": "",
          "type": "address"
        }
      ],
      "name": "earnings",
      "outputs": [
        {
          "internalType": "uint256",
          "name": "",
          "type": "uint256"
        }
      ],
      "stateMutability": "view",
      "type": "function",
      "constant": true
    },
    {
      "inputs": [
        {
          "internalType": "address",
          "name": "account",
          "type": "address"
        },
        {
          "internalType": "address",
          "name": "operator",
          "type": "address"
        }
      ],
      "name": "isApprovedForAll",
      "outputs": [
        {
          "internalType": "bool",
          "name": "",
          "type": "bool"
        }
      ],
      "stateMutability": "view",
      "type": "function",
      "constant": true
    },
    {
      "inputs": [
        {
          "internalType": "uint256",
          "name": "",
          "type": "uint256"
        }
      ],
      "name": "listings",
      "outputs": [
        {
          "internalType": "uint256",
          "name": "listingId",
          "type": "uint256"
        },
        {
          "internalType": "address",
          "name": "seller",
          "type": "address"
        },
        {
          "internalType": "address",
          "name": "tokenContract",
          "type": "address"
        },
        {
          "internalType": "uint256",
          "name": "tokenId",
          "type": "uint256"
        },
        {
          "internalType": "uint256",
          "name": "quantity",
          "type": "uint256"
        },
        {
          "internalType": "uint256",
          "name": "price",
          "type": "uint256"
        }
      ],
      "stateMutability": "view",
      "type": "function",
      "constant": true
    },
    {
      "inputs": [],
      "name": "owner",
      "outputs": [
        {
          "internalType": "address",
          "name": "",
          "type": "address"
        }
      ],
      "stateMutability": "view",
      "type": "function",
      "constant": true
    },
    {
      "inputs": [],
      "name": "renounceOwnership",
      "outputs": [],
      "stateMutability": "nonpayable",
      "type": "function"
    },
    {
      "inputs": [
        {
          "internalType": "address",
          "name": "from",
          "type": "address"
        },
        {
          "internalType": "address",
          "name": "to",
          "type": "address"
        },
        {
          "internalType": "uint256[]",
          "name": "ids",
          "type": "uint256[]"
        },
        {
          "internalType": "uint256[]",
          "name": "amounts",
          "type": "uint256[]"
        },
        {
          "internalType": "bytes",
          "name": "data",
          "type": "bytes"
        }
      ],
      "name": "safeBatchTransferFrom",
      "outputs": [],
      "stateMutability": "nonpayable",
      "type": "function"
    },
    {
      "inputs": [
        {
          "internalType": "address",
          "name": "from",
          "type": "address"
        },
        {
          "internalType": "address",
          "name": "to",
          "type": "address"
        },
        {
          "internalType": "uint256",
          "name": "id",
          "type": "uint256"
        },
        {
          "internalType": "uint256",
          "name": "amount",
          "type": "uint256"
        },
        {
          "internalType": "bytes",
          "name": "data",
          "type": "bytes"
        }
      ],
      "name": "safeTransferFrom",
      "outputs": [],
      "stateMutability": "nonpayable",
      "type": "function"
    },
    {
      "inputs": [
        {
          "internalType": "address",
          "name": "operator",
          "type": "address"
        },
        {
          "internalType": "bool",
          "name": "approved",
          "type": "bool"
        }
      ],
      "name": "setApprovalForAll",
      "outputs": [],
      "stateMutability": "nonpayable",
      "type": "function"
    },
    {
      "inputs": [
        {
          "internalType": "bytes4",
          "name": "interfaceId",
          "type": "bytes4"
        }
      ],
      "name": "supportsInterface",
      "outputs": [
        {
          "internalType": "bool",
          "name": "",
          "type": "bool"
        }
      ],
      "stateMutability": "view",
      "type": "function",
      "constant": true
    },
    {
      "inputs": [
        {
          "internalType": "address",
          "name": "newOwner",
          "type": "address"
        }
      ],
      "name": "transferOwnership",
      "outputs": [],
      "stateMutability": "nonpayable",
      "type": "function"
    },
    {
      "inputs": [
        {
          "internalType": "uint256",
          "name": "",
          "type": "uint256"
        }
      ],
      "name": "uri",
      "outputs": [
        {
          "internalType": "string",
          "name": "",
          "type": "string"
        }
      ],
      "stateMutability": "view",
      "type": "function",
      "constant": true
    },
    {
      "inputs": [
        {
          "internalType": "address",
          "name": "",
          "type": "address"
        },
        {
          "internalType": "address",
          "name": "",
          "type": "address"
        },
        {
          "internalType": "uint256",
          "name": "",
          "type": "uint256"
        },
        {
          "internalType": "bytes",
          "name": "",
          "type": "bytes"
        }
      ],
      "name": "onERC721Received",
      "outputs": [
        {
          "internalType": "bytes4",
          "name": "",
          "type": "bytes4"
        }
      ],
      "stateMutability": "pure",
      "type": "function",
      "constant": true
    },
    {
      "inputs": [
        {
          "internalType": "address",
          "name": "tokenContract",
          "type": "address"
        },
        {
          "internalType": "uint256",
          "name": "tokenId",
          "type": "uint256"
        },
        {
          "internalType": "uint256",
          "name": "quantity",
          "type": "uint256"
        },
        {
          "internalType": "uint256",
          "name": "price",
          "type": "uint256"
        }
      ],
      "name": "createListing",
      "outputs": [],
      "stateMutability": "nonpayable",
      "type": "function"
    },
    {
      "inputs": [
        {
          "internalType": "uint256",
          "name": "listingId",
          "type": "uint256"
        },
        {
          "internalType": "uint256",
          "name": "quantity",
          "type": "uint256"
        },
        {
          "internalType": "uint256",
          "name": "price",
          "type": "uint256"
        }
      ],
      "name": "updateListing",
      "outputs": [],
      "stateMutability": "nonpayable",
      "type": "function"
    },
    {
      "inputs": [
        {
          "internalType": "uint256",
          "name": "listingId",
          "type": "uint256"
        }
      ],
      "name": "cancelListing",
      "outputs": [],
      "stateMutability": "nonpayable",
      "type": "function"
    },
    {
      "inputs": [
        {
          "internalType": "uint256",
          "name": "listingId",
          "type": "uint256"
        },
        {
          "internalType": "uint256",
          "name": "quantity",
          "type": "uint256"
        }
      ],
      "name": "buy",
      "outputs": [],
      "stateMutability": "nonpayable",
      "type": "function"
    },
    {
      "inputs": [],
      "name": "get721Listings",
      "outputs": [
        {
          "components": [
            {
              "internalType": "uint256",
              "name": "listingId",
              "type": "uint256"
            },
            {
              "internalType": "address",
              "name": "seller",
              "type": "address"
            },
            {
              "internalType": "address",
              "name": "tokenContract",
              "type": "address"
            },
            {
              "internalType": "uint256",
              "name": "tokenId",
              "type": "uint256"
            },
            {
              "internalType": "uint256",
              "name": "quantity",
              "type": "uint256"
            },
            {
              "internalType": "uint256",
              "name": "price",
              "type": "uint256"
            }
          ],
          "internalType": "struct PoseidonMarket.Listing[]",
          "name": "",
          "type": "tuple[]"
        }
      ],
      "stateMutability": "view",
      "type": "function",
      "constant": true
    },
    {
      "inputs": [],
      "name": "get1155Listings",
      "outputs": [
        {
          "components": [
            {
              "internalType": "uint256",
              "name": "listingId",
              "type": "uint256"
            },
            {
              "internalType": "address",
              "name": "seller",
              "type": "address"
            },
            {
              "internalType": "address",
              "name": "tokenContract",
              "type": "address"
            },
            {
              "internalType": "uint256",
              "name": "tokenId",
              "type": "uint256"
            },
            {
              "internalType": "uint256",
              "name": "quantity",
              "type": "uint256"
            },
            {
              "internalType": "uint256",
              "name": "price",
              "type": "uint256"
            }
          ],
          "internalType": "struct PoseidonMarket.Listing[]",
          "name": "",
          "type": "tuple[]"
        }
      ],
      "stateMutability": "view",
      "type": "function",
      "constant": true
    },
    {
      "inputs": [],
      "name": "getEarnings",
      "outputs": [
        {
          "internalType": "uint256",
          "name": "",
          "type": "uint256"
        }
      ],
      "stateMutability": "view",
      "type": "function",
      "constant": true
    },
    {
      "inputs": [],
      "name": "withdraw",
      "outputs": [],
      "stateMutability": "nonpayable",
      "type": "function"
    },
    {
      "inputs": [
        {
          "internalType": "address",
          "name": "_tokenContract",
          "type": "address"
        }
      ],
      "name": "setCurrency",
      "outputs": [],
      "stateMutability": "nonpayable",
      "type": "function"
    },
    {
      "inputs": [],
      "name": "getCollectedFees",
      "outputs": [
        {
          "internalType": "uint256",
          "name": "",
          "type": "uint256"
        }
      ],
      "stateMutability": "view",
      "type": "function",
      "constant": true
    }
  ],
  "bytecode": "0x60806040523480156200001157600080fd5b506040518060200160405280600081525062000033816200006260201b60201c565b5062000054620000486200007760201b60201c565b6200007f60201b60201c565b6001600481905550620004a6565b8060029081620000739190620003bf565b5050565b600033905090565b6000600360009054906101000a900473ffffffffffffffffffffffffffffffffffffffff16905081600360006101000a81548173ffffffffffffffffffffffffffffffffffffffff021916908373ffffffffffffffffffffffffffffffffffffffff1602179055508173ffffffffffffffffffffffffffffffffffffffff168173ffffffffffffffffffffffffffffffffffffffff167f8be0079c531659141344cd1fd0a4f28419497f9722a3daafe3b4186f6b6457e060405160405180910390a35050565b600081519050919050565b7f4e487b7100000000000000000000000000000000000000000000000000000000600052604160045260246000fd5b7f4e487b7100000000000000000000000000000000000000000000000000000000600052602260045260246000fd5b60006002820490506001821680620001c757607f821691505b602082108103620001dd57620001dc6200017f565b5b50919050565b60008190508160005260206000209050919050565b60006020601f8301049050919050565b600082821b905092915050565b600060088302620002477fffffffffffffffffffffffffffffffffffffffffffffffffffffffffffffffff8262000208565b62000253868362000208565b95508019841693508086168417925050509392505050565b6000819050919050565b6000819050919050565b6000620002a06200029a62000294846200026b565b62000275565b6200026b565b9050919050565b6000819050919050565b620002bc836200027f565b620002d4620002cb82620002a7565b84845462000215565b825550505050565b600090565b620002eb620002dc565b620002f8818484620002b1565b505050565b5b81811015620003205762000314600082620002e1565b600181019050620002fe565b5050565b601f8211156200036f576200033981620001e3565b6200034484620001f8565b8101602085101562000354578190505b6200036c6200036385620001f8565b830182620002fd565b50505b505050565b600082821c905092915050565b6000620003946000198460080262000374565b1980831691505092915050565b6000620003af838362000381565b9150826002028217905092915050565b620003ca8262000145565b67ffffffffffffffff811115620003e657620003e562000150565b5b620003f28254620001ae565b620003ff82828562000324565b600060209050601f83116001811462000437576000841562000422578287015190505b6200042e8582620003a1565b8655506200049e565b601f1984166200044786620001e3565b60005b8281101562000471578489015182556001820191506020850194506020810190506200044a565b868310156200049157848901516200048d601f89168262000381565b8355505b6001600288020188555050505b505050505050565b61565280620004b66000396000f3fe608060405234801561001057600080fd5b50600436106101575760003560e01c80638da5cb5b116100c3578063de74e57b1161007c578063de74e57b146103b0578063e985e9c5146103e5578063ebc9537614610415578063f242432a14610433578063f2fde38b1461044f578063f6cf2a161461046b57610157565b80638da5cb5b14610300578063906662321461031e578063a22cb4651461033c578063bfb1e20414610358578063d54a8d1814610376578063d6febde81461039457610157565b8063305a67a811610115578063305a67a8146102545780633ccfd60b146102705780634e1273f41461027a578063543fd313146102aa57806370cdec3d146102da578063715018a6146102f657610157565b8062fdd58e1461015c57806301ffc9a71461018c5780630e89341c146101bc578063150b7a02146101ec5780632eb2c2d61461021c5780632f84c39114610238575b600080fd5b61017660048036038101906101719190613639565b610487565b6040516101839190613688565b60405180910390f35b6101a660048036038101906101a191906136fb565b61054f565b6040516101b39190613743565b60405180910390f35b6101d660048036038101906101d1919061375e565b610631565b6040516101e3919061381b565b60405180910390f35b610206600480360381019061020191906138a2565b6106c5565b6040516102139190613939565b60405180910390f35b61023660048036038101906102319190613b47565b6106da565b005b610252600480360381019061024d9190613c16565b61077b565b005b61026e6004803603810190610269919061375e565b6107bf565b005b610278610be9565b005b610294600480360381019061028f9190613d06565b610de9565b6040516102a19190613e3c565b60405180910390f35b6102c460048036038101906102bf9190613c16565b610f02565b6040516102d19190613688565b60405180910390f35b6102f460048036038101906102ef9190613e5e565b610f1a565b005b6102fe6113df565b005b6103086113f3565b6040516103159190613ed4565b60405180910390f35b61032661141d565b6040516103339190613688565b60405180910390f35b61035660048036038101906103519190613f1b565b611464565b005b61036061147a565b60405161036d9190614094565b60405180910390f35b61037e6116eb565b60405161038b9190613688565b60405180910390f35b6103ae60048036038101906103a991906140b6565b611793565b005b6103ca60048036038101906103c5919061375e565b611e8d565b6040516103dc969594939291906140f6565b60405180910390f35b6103ff60048036038101906103fa9190614157565b611f09565b60405161040c9190613743565b60405180910390f35b61041d611f9d565b60405161042a9190614094565b60405180910390f35b61044d60048036038101906104489190614197565b61220e565b005b61046960048036038101906104649190613c16565b6122af565b005b6104856004803603810190610480919061422e565b612332565b005b60008073ffffffffffffffffffffffffffffffffffffffff168373ffffffffffffffffffffffffffffffffffffffff16036104f7576040517f08c379a00000000000000000000000000000000000000000000000000000000081526004016104ee906142f3565b60405180910390fd5b60008083815260200190815260200160002060008473ffffffffffffffffffffffffffffffffffffffff1673ffffffffffffffffffffffffffffffffffffffff16815260200190815260200160002054905092915050565b60007fd9b67a26000000000000000000000000000000000000000000000000000000007bffffffffffffffffffffffffffffffffffffffffffffffffffffffff1916827bffffffffffffffffffffffffffffffffffffffffffffffffffffffff1916148061061a57507f0e89341c000000000000000000000000000000000000000000000000000000007bffffffffffffffffffffffffffffffffffffffffffffffffffffffff1916827bffffffffffffffffffffffffffffffffffffffffffffffffffffffff1916145b8061062a5750610629826124e2565b5b9050919050565b60606002805461064090614342565b80601f016020809104026020016040519081016040528092919081815260200182805461066c90614342565b80156106b95780601f1061068e576101008083540402835291602001916106b9565b820191906000526020600020905b81548152906001019060200180831161069c57829003601f168201915b50505050509050919050565b600063150b7a0260e01b905095945050505050565b6106e261254c565b73ffffffffffffffffffffffffffffffffffffffff168573ffffffffffffffffffffffffffffffffffffffff16148061072857506107278561072261254c565b611f09565b5b610767576040517f08c379a000000000000000000000000000000000000000000000000000000000815260040161075e906143e5565b60405180910390fd5b6107748585858585612554565b5050505050565b80600760006101000a81548173ffffffffffffffffffffffffffffffffffffffff021916908373ffffffffffffffffffffffffffffffffffffffff16021790555050565b6107c7612875565b6000600560008381526020019081526020016000206040518060c0016040529081600082015481526020016001820160009054906101000a900473ffffffffffffffffffffffffffffffffffffffff1673ffffffffffffffffffffffffffffffffffffffff1673ffffffffffffffffffffffffffffffffffffffff1681526020016002820160009054906101000a900473ffffffffffffffffffffffffffffffffffffffff1673ffffffffffffffffffffffffffffffffffffffff1673ffffffffffffffffffffffffffffffffffffffff168152602001600382015481526020016004820154815260200160058201548152505090503373ffffffffffffffffffffffffffffffffffffffff16816020015173ffffffffffffffffffffffffffffffffffffffff161461092f576040517f08c379a000000000000000000000000000000000000000000000000000000000815260040161092690614477565b60405180910390fd5b6102d161093f82604001516128c4565b03610a48576109543033836080015184612a58565b3373ffffffffffffffffffffffffffffffffffffffff16816040015173ffffffffffffffffffffffffffffffffffffffff16636352211e83606001516040518263ffffffff1660e01b81526004016109ac9190613688565b602060405180830381865afa1580156109c9573d6000803e3d6000fd5b505050506040513d601f19601f820116820180604052508101906109ed91906144ac565b73ffffffffffffffffffffffffffffffffffffffff1614610a43576040517f08c379a0000000000000000000000000000000000000000000000000000000008152600401610a3a90614525565b60405180910390fd5b610b22565b610a583033836080015184612a58565b8060800151816040015173ffffffffffffffffffffffffffffffffffffffff1662fdd58e3384606001516040518363ffffffff1660e01b8152600401610a9f929190614545565b602060405180830381865afa158015610abc573d6000803e3d6000fd5b505050506040513d601f19601f82011682018060405250810190610ae09190614583565b1015610b21576040517f08c379a0000000000000000000000000000000000000000000000000000000008152600401610b18906145fc565b60405180910390fd5b5b600560008381526020019081526020016000206000808201600090556001820160006101000a81549073ffffffffffffffffffffffffffffffffffffffff02191690556002820160006101000a81549073ffffffffffffffffffffffffffffffffffffffff021916905560038201600090556004820160009055600582016000905550507f411aee90354c51b1b04cd563fcab2617142a9d50da19232d888547c8a1b7fd8a82604051610bd59190613688565b60405180910390a150610be6612b7f565b50565b6000600660003373ffffffffffffffffffffffffffffffffffffffff1673ffffffffffffffffffffffffffffffffffffffff1681526020019081526020016000205403610c6b576040517f08c379a0000000000000000000000000000000000000000000000000000000008152600401610c6290614668565b60405180910390fd5b6000600660003373ffffffffffffffffffffffffffffffffffffffff1673ffffffffffffffffffffffffffffffffffffffff168152602001908152602001600020549050600760009054906101000a900473ffffffffffffffffffffffffffffffffffffffff1673ffffffffffffffffffffffffffffffffffffffff1663a9059cbb336061606485610cfd91906146e6565b610d079190614717565b6040518363ffffffff1660e01b8152600401610d24929190614545565b6020604051808303816000875af1158015610d43573d6000803e3d6000fd5b505050506040513d601f19601f82011682018060405250810190610d67919061476e565b506000600660003373ffffffffffffffffffffffffffffffffffffffff1673ffffffffffffffffffffffffffffffffffffffff168152602001908152602001600020819055507f56ca301a9219608c91e7bcee90e083c19671d2cdcc96752c7af291cee5f9c8c88142604051610dde92919061479b565b60405180910390a150565b60608151835114610e2f576040517f08c379a0000000000000000000000000000000000000000000000000000000008152600401610e2690614836565b60405180910390fd5b6000835167ffffffffffffffff811115610e4c57610e4b613954565b5b604051908082528060200260200182016040528015610e7a5781602001602082028036833780820191505090505b50905060005b8451811015610ef757610ec7858281518110610e9f57610e9e614856565b5b6020026020010151858381518110610eba57610eb9614856565b5b6020026020010151610487565b828281518110610eda57610ed9614856565b5b60200260200101818152505080610ef090614885565b9050610e80565b508091505092915050565b60066020528060005260406000206000915090505481565b610f22612875565b60006008549050600160086000828254610f3c91906148cd565b9250508190555060008311610f86576040517f08c379a0000000000000000000000000000000000000000000000000000000008152600401610f7d9061494d565b60405180910390fd5b60008211610fc9576040517f08c379a0000000000000000000000000000000000000000000000000000000008152600401610fc0906149b9565b60405180910390fd5b6102d1610fd5866128c4565b03611135578473ffffffffffffffffffffffffffffffffffffffff166342842e0e3330876040518463ffffffff1660e01b8152600401611017939291906149d9565b600060405180830381600087803b15801561103157600080fd5b505af1158015611045573d6000803e3d6000fd5b505050503073ffffffffffffffffffffffffffffffffffffffff168573ffffffffffffffffffffffffffffffffffffffff16636352211e866040518263ffffffff1660e01b81526004016110999190613688565b602060405180830381865afa1580156110b6573d6000803e3d6000fd5b505050506040513d601f19601f820116820180604052508101906110da91906144ac565b73ffffffffffffffffffffffffffffffffffffffff1614611130576040517f08c379a000000000000000000000000000000000000000000000000000000000815260040161112790614a5c565b60405180910390fd5b611264565b8473ffffffffffffffffffffffffffffffffffffffff1663f242432a333087876040518563ffffffff1660e01b81526004016111749493929190614ab3565b600060405180830381600087803b15801561118e57600080fd5b505af11580156111a2573d6000803e3d6000fd5b50505050828573ffffffffffffffffffffffffffffffffffffffff1662fdd58e30876040518363ffffffff1660e01b81526004016111e1929190614545565b602060405180830381865afa1580156111fe573d6000803e3d6000fd5b505050506040513d601f19601f820116820180604052508101906112229190614583565b1015611263576040517f08c379a000000000000000000000000000000000000000000000000000000000815260040161125a90614b57565b60405180910390fd5b5b60006040518060c001604052808381526020013373ffffffffffffffffffffffffffffffffffffffff1681526020018773ffffffffffffffffffffffffffffffffffffffff16815260200186815260200185815260200184815250905080600560008481526020019081526020016000206000820151816000015560208201518160010160006101000a81548173ffffffffffffffffffffffffffffffffffffffff021916908373ffffffffffffffffffffffffffffffffffffffff16021790555060408201518160020160006101000a81548173ffffffffffffffffffffffffffffffffffffffff021916908373ffffffffffffffffffffffffffffffffffffffff160217905550606082015181600301556080820151816004015560a082015181600501559050507fceefd288ffab0a6f307ce9214d4c1fc1acd67f807eaaf54806e3a1158128db148233888888886040516113c7969594939291906140f6565b60405180910390a150506113d9612b7f565b50505050565b6113e7612b89565b6113f16000612c07565b565b6000600360009054906101000a900473ffffffffffffffffffffffffffffffffffffffff16905090565b6000600660003373ffffffffffffffffffffffffffffffffffffffff1673ffffffffffffffffffffffffffffffffffffffff16815260200190815260200160002054905090565b61147661146f61254c565b8383612ccd565b5050565b6060600060085467ffffffffffffffff81111561149a57611499613954565b5b6040519080825280602002602001820160405280156114d357816020015b6114c061352f565b8152602001906001900390816114b85790505b5090506000805b600854811015611631576000600560008381526020019081526020016000206040518060c0016040529081600082015481526020016001820160009054906101000a900473ffffffffffffffffffffffffffffffffffffffff1673ffffffffffffffffffffffffffffffffffffffff1673ffffffffffffffffffffffffffffffffffffffff1681526020016002820160009054906101000a900473ffffffffffffffffffffffffffffffffffffffff1673ffffffffffffffffffffffffffffffffffffffff1673ffffffffffffffffffffffffffffffffffffffff168152602001600382015481526020016004820154815260200160058201548152505090506102d16115ea82604001516128c4565b0361161d578084848151811061160357611602614856565b5b6020026020010181905250828061161990614885565b9350505b50808061162990614885565b9150506114da565b5060008167ffffffffffffffff81111561164e5761164d613954565b5b60405190808252806020026020018201604052801561168757816020015b61167461352f565b81526020019060019003908161166c5790505b50905060005b828110156116e1578381815181106116a8576116a7614856565b5b60200260200101518282815181106116c3576116c2614856565b5b602002602001018190525080806116d990614885565b91505061168d565b5080935050505090565b600080600760009054906101000a900473ffffffffffffffffffffffffffffffffffffffff1673ffffffffffffffffffffffffffffffffffffffff166370a08231306040518263ffffffff1660e01b81526004016117499190613ed4565b602060405180830381865afa158015611766573d6000803e3d6000fd5b505050506040513d601f19601f8201168201806040525081019061178a9190614583565b90508091505090565b6000600560008481526020019081526020016000206040518060c0016040529081600082015481526020016001820160009054906101000a900473ffffffffffffffffffffffffffffffffffffffff1673ffffffffffffffffffffffffffffffffffffffff1673ffffffffffffffffffffffffffffffffffffffff1681526020016002820160009054906101000a900473ffffffffffffffffffffffffffffffffffffffff1673ffffffffffffffffffffffffffffffffffffffff1673ffffffffffffffffffffffffffffffffffffffff16815260200160038201548152602001600482015481526020016005820154815250509050600073ffffffffffffffffffffffffffffffffffffffff16816020015173ffffffffffffffffffffffffffffffffffffffff16036118fc576040517f08c379a00000000000000000000000000000000000000000000000000000000081526004016118f390614bc3565b60405180910390fd5b600082118015611910575080608001518211155b61194f576040517f08c379a000000000000000000000000000000000000000000000000000000000815260040161194690614c2f565b60405180910390fd5b6102d161195f82604001516128c4565b03611a68576119743033836080015184612a58565b3373ffffffffffffffffffffffffffffffffffffffff16816040015173ffffffffffffffffffffffffffffffffffffffff16636352211e83606001516040518263ffffffff1660e01b81526004016119cc9190613688565b602060405180830381865afa1580156119e9573d6000803e3d6000fd5b505050506040513d601f19601f82011682018060405250810190611a0d91906144ac565b73ffffffffffffffffffffffffffffffffffffffff1614611a63576040517f08c379a0000000000000000000000000000000000000000000000000000000008152600401611a5a90614c9b565b60405180910390fd5b611b3e565b611a783033836080015184612a58565b81816040015173ffffffffffffffffffffffffffffffffffffffff1662fdd58e3384606001516040518363ffffffff1660e01b8152600401611abb929190614545565b602060405180830381865afa158015611ad8573d6000803e3d6000fd5b505050506040513d601f19601f82011682018060405250810190611afc9190614583565b1015611b3d576040517f08c379a0000000000000000000000000000000000000000000000000000000008152600401611b3490614d2d565b60405180910390fd5b5b600760009054906101000a900473ffffffffffffffffffffffffffffffffffffffff1673ffffffffffffffffffffffffffffffffffffffff1663a1513e4c3330670de0b6b3a76400008560a00151611b969190614717565b6040518463ffffffff1660e01b8152600401611bb4939291906149d9565b6020604051808303816000875af1158015611bd3573d6000803e3d6000fd5b505050506040513d601f19601f82011682018060405250810190611bf7919061476e565b50600760009054906101000a900473ffffffffffffffffffffffffffffffffffffffff1673ffffffffffffffffffffffffffffffffffffffff166323b872dd3330670de0b6b3a76400008560a00151611c509190614717565b6040518463ffffffff1660e01b8152600401611c6e939291906149d9565b6020604051808303816000875af1158015611c8d573d6000803e3d6000fd5b505050506040513d601f19601f82011682018060405250810190611cb1919061476e565b50670de0b6b3a76400008160a00151611cca9190614717565b600660003373ffffffffffffffffffffffffffffffffffffffff1673ffffffffffffffffffffffffffffffffffffffff1681526020019081526020016000206000828254611d1891906148cd565b925050819055508060800151821015611db25781600560008581526020019081526020016000206004016000828254611d519190614d4d565b925050819055507ff7adc9a0380a940c6058d78194df6a9b9fa5bb431bbad15194913bb611f3f4f78360056000868152602001908152602001600020600401548360a00151604051611da593929190614d81565b60405180910390a1611e88565b600560008481526020019081526020016000206000808201600090556001820160006101000a81549073ffffffffffffffffffffffffffffffffffffffff02191690556002820160006101000a81549073ffffffffffffffffffffffffffffffffffffffff0219169055600382016000905560048201600090556005820160009055505060086000815480929190611e4990614db8565b91905055507f8f9d273ad6b9ef6936db5cd20a141ecb032af10f2a5fec60c106343670b2c8778333604051611e7f929190614de1565b60405180910390a15b505050565b60056020528060005260406000206000915090508060000154908060010160009054906101000a900473ffffffffffffffffffffffffffffffffffffffff16908060020160009054906101000a900473ffffffffffffffffffffffffffffffffffffffff16908060030154908060040154908060050154905086565b6000600160008473ffffffffffffffffffffffffffffffffffffffff1673ffffffffffffffffffffffffffffffffffffffff16815260200190815260200160002060008373ffffffffffffffffffffffffffffffffffffffff1673ffffffffffffffffffffffffffffffffffffffff16815260200190815260200160002060009054906101000a900460ff16905092915050565b6060600060085467ffffffffffffffff811115611fbd57611fbc613954565b5b604051908082528060200260200182016040528015611ff657816020015b611fe361352f565b815260200190600190039081611fdb5790505b5090506000805b600854811015612154576000600560008381526020019081526020016000206040518060c0016040529081600082015481526020016001820160009054906101000a900473ffffffffffffffffffffffffffffffffffffffff1673ffffffffffffffffffffffffffffffffffffffff1673ffffffffffffffffffffffffffffffffffffffff1681526020016002820160009054906101000a900473ffffffffffffffffffffffffffffffffffffffff1673ffffffffffffffffffffffffffffffffffffffff1673ffffffffffffffffffffffffffffffffffffffff1681526020016003820154815260200160048201548152602001600582015481525050905061048361210d82604001516128c4565b03612140578084848151811061212657612125614856565b5b6020026020010181905250828061213c90614885565b9350505b50808061214c90614885565b915050611ffd565b5060008167ffffffffffffffff81111561217157612170613954565b5b6040519080825280602002602001820160405280156121aa57816020015b61219761352f565b81526020019060019003908161218f5790505b50905060005b82811015612204578381815181106121cb576121ca614856565b5b60200260200101518282815181106121e6576121e5614856565b5b602002602001018190525080806121fc90614885565b9150506121b0565b5080935050505090565b61221661254c565b73ffffffffffffffffffffffffffffffffffffffff168573ffffffffffffffffffffffffffffffffffffffff16148061225c575061225b8561225661254c565b611f09565b5b61229b576040517f08c379a0000000000000000000000000000000000000000000000000000000008152600401612292906143e5565b60405180910390fd5b6122a88585858585612e39565b5050505050565b6122b7612b89565b600073ffffffffffffffffffffffffffffffffffffffff168173ffffffffffffffffffffffffffffffffffffffff1603612326576040517f08c379a000000000000000000000000000000000000000000000000000000000815260040161231d90614e7c565b60405180910390fd5b61232f81612c07565b50565b61233a612875565b6000821161237d576040517f08c379a00000000000000000000000000000000000000000000000000000000081526004016123749061494d565b60405180910390fd5b600081116123c0576040517f08c379a00000000000000000000000000000000000000000000000000000000081526004016123b7906149b9565b60405180910390fd5b3373ffffffffffffffffffffffffffffffffffffffff166005600085815260200190815260200160002060010160009054906101000a900473ffffffffffffffffffffffffffffffffffffffff1673ffffffffffffffffffffffffffffffffffffffff1614612464576040517f08c379a000000000000000000000000000000000000000000000000000000000815260040161245b90614f0e565b60405180910390fd5b8160056000858152602001908152602001600020600401819055508060056000858152602001908152602001600020600501819055507ff7adc9a0380a940c6058d78194df6a9b9fa5bb431bbad15194913bb611f3f4f78383836040516124cd93929190614d81565b60405180910390a16124dd612b7f565b505050565b60007f01ffc9a7000000000000000000000000000000000000000000000000000000007bffffffffffffffffffffffffffffffffffffffffffffffffffffffff1916827bffffffffffffffffffffffffffffffffffffffffffffffffffffffff1916149050919050565b600033905090565b8151835114612598576040517f08c379a000000000000000000000000000000000000000000000000000000000815260040161258f90614fa0565b60405180910390fd5b600073ffffffffffffffffffffffffffffffffffffffff168473ffffffffffffffffffffffffffffffffffffffff1603612607576040517f08c379a00000000000000000000000000000000000000000000000000000000081526004016125fe90615032565b60405180910390fd5b600061261161254c565b90506126218187878787876130d4565b60005b84518110156127d257600085828151811061264257612641614856565b5b60200260200101519050600085838151811061266157612660614856565b5b60200260200101519050600080600084815260200190815260200160002060008b73ffffffffffffffffffffffffffffffffffffffff1673ffffffffffffffffffffffffffffffffffffffff16815260200190815260200160002054905081811015612702576040517f08c379a00000000000000000000000000000000000000000000000000000000081526004016126f9906150c4565b60405180910390fd5b81810360008085815260200190815260200160002060008c73ffffffffffffffffffffffffffffffffffffffff1673ffffffffffffffffffffffffffffffffffffffff168152602001908152602001600020819055508160008085815260200190815260200160002060008b73ffffffffffffffffffffffffffffffffffffffff1673ffffffffffffffffffffffffffffffffffffffff16815260200190815260200160002060008282546127b791906148cd565b92505081905550505050806127cb90614885565b9050612624565b508473ffffffffffffffffffffffffffffffffffffffff168673ffffffffffffffffffffffffffffffffffffffff168273ffffffffffffffffffffffffffffffffffffffff167f4a39dc06d4c0dbc64b70af90fd698a233a518aa5d07e595d983b8c0526c8f7fb87876040516128499291906150e4565b60405180910390a461285f8187878787876130dc565b61286d8187878787876130e4565b505050505050565b6002600454036128ba576040517f08c379a00000000000000000000000000000000000000000000000000000000081526004016128b190615167565b60405180910390fd5b6002600481905550565b60008173ffffffffffffffffffffffffffffffffffffffff166301ffc9a77fd9b67a26000000000000000000000000000000000000000000000000000000006040518263ffffffff1660e01b815260040161291f9190613939565b602060405180830381865afa15801561293c573d6000803e3d6000fd5b505050506040513d601f19601f82011682018060405250810190612960919061476e565b1561296f576104839050612a53565b8173ffffffffffffffffffffffffffffffffffffffff166301ffc9a77f80ac58cd000000000000000000000000000000000000000000000000000000006040518263ffffffff1660e01b81526004016129c89190613939565b602060405180830381865afa1580156129e5573d6000803e3d6000fd5b505050506040513d601f19601f82011682018060405250810190612a09919061476e565b15612a18576102d19050612a53565b6040517f08c379a0000000000000000000000000000000000000000000000000000000008152600401612a4a906151d3565b60405180910390fd5b919050565b610483612a6882604001516128c4565b03612aeb57806040015173ffffffffffffffffffffffffffffffffffffffff1663f242432a85858460600151866040518563ffffffff1660e01b8152600401612ab49493929190614ab3565b600060405180830381600087803b158015612ace57600080fd5b505af1158015612ae2573d6000803e3d6000fd5b50505050612b79565b6102d1612afb82604001516128c4565b03612b7857806040015173ffffffffffffffffffffffffffffffffffffffff166342842e0e858584606001516040518463ffffffff1660e01b8152600401612b45939291906149d9565b600060405180830381600087803b158015612b5f57600080fd5b505af1158015612b73573d6000803e3d6000fd5b505050505b5b50505050565b6001600481905550565b612b9161254c565b73ffffffffffffffffffffffffffffffffffffffff16612baf6113f3565b73ffffffffffffffffffffffffffffffffffffffff1614612c05576040517f08c379a0000000000000000000000000000000000000000000000000000000008152600401612bfc9061523f565b60405180910390fd5b565b6000600360009054906101000a900473ffffffffffffffffffffffffffffffffffffffff16905081600360006101000a81548173ffffffffffffffffffffffffffffffffffffffff021916908373ffffffffffffffffffffffffffffffffffffffff1602179055508173ffffffffffffffffffffffffffffffffffffffff168173ffffffffffffffffffffffffffffffffffffffff167f8be0079c531659141344cd1fd0a4f28419497f9722a3daafe3b4186f6b6457e060405160405180910390a35050565b8173ffffffffffffffffffffffffffffffffffffffff168373ffffffffffffffffffffffffffffffffffffffff1603612d3b576040517f08c379a0000000000000000000000000000000000000000000000000000000008152600401612d32906152d1565b60405180910390fd5b80600160008573ffffffffffffffffffffffffffffffffffffffff1673ffffffffffffffffffffffffffffffffffffffff16815260200190815260200160002060008473ffffffffffffffffffffffffffffffffffffffff1673ffffffffffffffffffffffffffffffffffffffff16815260200190815260200160002060006101000a81548160ff0219169083151502179055508173ffffffffffffffffffffffffffffffffffffffff168373ffffffffffffffffffffffffffffffffffffffff167f17307eab39ab6107e8899845ad3d59bd9653f200f220920489ca2b5937696c3183604051612e2c9190613743565b60405180910390a3505050565b600073ffffffffffffffffffffffffffffffffffffffff168473ffffffffffffffffffffffffffffffffffffffff1603612ea8576040517f08c379a0000000000000000000000000000000000000000000000000000000008152600401612e9f90615032565b60405180910390fd5b6000612eb261254c565b90506000612ebf856132bb565b90506000612ecc856132bb565b9050612edc8389898585896130d4565b600080600088815260200190815260200160002060008a73ffffffffffffffffffffffffffffffffffffffff1673ffffffffffffffffffffffffffffffffffffffff16815260200190815260200160002054905085811015612f73576040517f08c379a0000000000000000000000000000000000000000000000000000000008152600401612f6a906150c4565b60405180910390fd5b85810360008089815260200190815260200160002060008b73ffffffffffffffffffffffffffffffffffffffff1673ffffffffffffffffffffffffffffffffffffffff168152602001908152602001600020819055508560008089815260200190815260200160002060008a73ffffffffffffffffffffffffffffffffffffffff1673ffffffffffffffffffffffffffffffffffffffff168152602001908152602001600020600082825461302891906148cd565b925050819055508773ffffffffffffffffffffffffffffffffffffffff168973ffffffffffffffffffffffffffffffffffffffff168573ffffffffffffffffffffffffffffffffffffffff167fc3d58168c5ae7397731d063d5bbf3d657854427343f4c083240f7aacaa2d0f628a8a6040516130a592919061479b565b60405180910390a46130bb848a8a86868a6130dc565b6130c9848a8a8a8a8a613335565b505050505050505050565b505050505050565b505050505050565b6131038473ffffffffffffffffffffffffffffffffffffffff1661350c565b156132b3578373ffffffffffffffffffffffffffffffffffffffff1663bc197c8187878686866040518663ffffffff1660e01b8152600401613149959493929190615335565b6020604051808303816000875af192505050801561318557506040513d601f19601f8201168201806040525081019061318291906153b2565b60015b61322a576131916153ec565b806308c379a0036131ed57506131a561540e565b806131b057506131ef565b806040517f08c379a00000000000000000000000000000000000000000000000000000000081526004016131e4919061381b565b60405180910390fd5b505b6040517f08c379a000000000000000000000000000000000000000000000000000000000815260040161322190615510565b60405180910390fd5b63bc197c8160e01b7bffffffffffffffffffffffffffffffffffffffffffffffffffffffff1916817bffffffffffffffffffffffffffffffffffffffffffffffffffffffff1916146132b1576040517f08c379a00000000000000000000000000000000000000000000000000000000081526004016132a8906155a2565b60405180910390fd5b505b505050505050565b60606000600167ffffffffffffffff8111156132da576132d9613954565b5b6040519080825280602002602001820160405280156133085781602001602082028036833780820191505090505b50905082816000815181106133205761331f614856565b5b60200260200101818152505080915050919050565b6133548473ffffffffffffffffffffffffffffffffffffffff1661350c565b15613504578373ffffffffffffffffffffffffffffffffffffffff1663f23a6e6187878686866040518663ffffffff1660e01b815260040161339a9594939291906155c2565b6020604051808303816000875af19250505080156133d657506040513d601f19601f820116820180604052508101906133d391906153b2565b60015b61347b576133e26153ec565b806308c379a00361343e57506133f661540e565b806134015750613440565b806040517f08c379a0000000000000000000000000000000000000000000000000000000008152600401613435919061381b565b60405180910390fd5b505b6040517f08c379a000000000000000000000000000000000000000000000000000000000815260040161347290615510565b60405180910390fd5b63f23a6e6160e01b7bffffffffffffffffffffffffffffffffffffffffffffffffffffffff1916817bffffffffffffffffffffffffffffffffffffffffffffffffffffffff191614613502576040517f08c379a00000000000000000000000000000000000000000000000000000000081526004016134f9906155a2565b60405180910390fd5b505b505050505050565b6000808273ffffffffffffffffffffffffffffffffffffffff163b119050919050565b6040518060c0016040528060008152602001600073ffffffffffffffffffffffffffffffffffffffff168152602001600073ffffffffffffffffffffffffffffffffffffffff1681526020016000815260200160008152602001600081525090565b6000604051905090565b600080fd5b600080fd5b600073ffffffffffffffffffffffffffffffffffffffff82169050919050565b60006135d0826135a5565b9050919050565b6135e0816135c5565b81146135eb57600080fd5b50565b6000813590506135fd816135d7565b92915050565b6000819050919050565b61361681613603565b811461362157600080fd5b50565b6000813590506136338161360d565b92915050565b600080604083850312156136505761364f61359b565b5b600061365e858286016135ee565b925050602061366f85828601613624565b9150509250929050565b61368281613603565b82525050565b600060208201905061369d6000830184613679565b92915050565b60007fffffffff0000000000000000000000000000000000000000000000000000000082169050919050565b6136d8816136a3565b81146136e357600080fd5b50565b6000813590506136f5816136cf565b92915050565b6000602082840312156137115761371061359b565b5b600061371f848285016136e6565b91505092915050565b60008115159050919050565b61373d81613728565b82525050565b60006020820190506137586000830184613734565b92915050565b6000602082840312156137745761377361359b565b5b600061378284828501613624565b91505092915050565b600081519050919050565b600082825260208201905092915050565b60005b838110156137c55780820151818401526020810190506137aa565b60008484015250505050565b6000601f19601f8301169050919050565b60006137ed8261378b565b6137f78185613796565b93506138078185602086016137a7565b613810816137d1565b840191505092915050565b6000602082019050818103600083015261383581846137e2565b905092915050565b600080fd5b600080fd5b600080fd5b60008083601f8401126138625761386161383d565b5b8235905067ffffffffffffffff81111561387f5761387e613842565b5b60208301915083600182028301111561389b5761389a613847565b5b9250929050565b6000806000806000608086880312156138be576138bd61359b565b5b60006138cc888289016135ee565b95505060206138dd888289016135ee565b94505060406138ee88828901613624565b935050606086013567ffffffffffffffff81111561390f5761390e6135a0565b5b61391b8882890161384c565b92509250509295509295909350565b613933816136a3565b82525050565b600060208201905061394e600083018461392a565b92915050565b7f4e487b7100000000000000000000000000000000000000000000000000000000600052604160045260246000fd5b61398c826137d1565b810181811067ffffffffffffffff821117156139ab576139aa613954565b5b80604052505050565b60006139be613591565b90506139ca8282613983565b919050565b600067ffffffffffffffff8211156139ea576139e9613954565b5b602082029050602081019050919050565b6000613a0e613a09846139cf565b6139b4565b90508083825260208201905060208402830185811115613a3157613a30613847565b5b835b81811015613a5a5780613a468882613624565b845260208401935050602081019050613a33565b5050509392505050565b600082601f830112613a7957613a7861383d565b5b8135613a898482602086016139fb565b91505092915050565b600080fd5b600067ffffffffffffffff821115613ab257613ab1613954565b5b613abb826137d1565b9050602081019050919050565b82818337600083830152505050565b6000613aea613ae584613a97565b6139b4565b905082815260208101848484011115613b0657613b05613a92565b5b613b11848285613ac8565b509392505050565b600082601f830112613b2e57613b2d61383d565b5b8135613b3e848260208601613ad7565b91505092915050565b600080600080600060a08688031215613b6357613b6261359b565b5b6000613b71888289016135ee565b9550506020613b82888289016135ee565b945050604086013567ffffffffffffffff811115613ba357613ba26135a0565b5b613baf88828901613a64565b935050606086013567ffffffffffffffff811115613bd057613bcf6135a0565b5b613bdc88828901613a64565b925050608086013567ffffffffffffffff811115613bfd57613bfc6135a0565b5b613c0988828901613b19565b9150509295509295909350565b600060208284031215613c2c57613c2b61359b565b5b6000613c3a848285016135ee565b91505092915050565b600067ffffffffffffffff821115613c5e57613c5d613954565b5b602082029050602081019050919050565b6000613c82613c7d84613c43565b6139b4565b90508083825260208201905060208402830185811115613ca557613ca4613847565b5b835b81811015613cce5780613cba88826135ee565b845260208401935050602081019050613ca7565b5050509392505050565b600082601f830112613ced57613cec61383d565b5b8135613cfd848260208601613c6f565b91505092915050565b60008060408385031215613d1d57613d1c61359b565b5b600083013567ffffffffffffffff811115613d3b57613d3a6135a0565b5b613d4785828601613cd8565b925050602083013567ffffffffffffffff811115613d6857613d676135a0565b5b613d7485828601613a64565b9150509250929050565b600081519050919050565b600082825260208201905092915050565b6000819050602082019050919050565b613db381613603565b82525050565b6000613dc58383613daa565b60208301905092915050565b6000602082019050919050565b6000613de982613d7e565b613df38185613d89565b9350613dfe83613d9a565b8060005b83811015613e2f578151613e168882613db9565b9750613e2183613dd1565b925050600181019050613e02565b5085935050505092915050565b60006020820190508181036000830152613e568184613dde565b905092915050565b60008060008060808587031215613e7857613e7761359b565b5b6000613e86878288016135ee565b9450506020613e9787828801613624565b9350506040613ea887828801613624565b9250506060613eb987828801613624565b91505092959194509250565b613ece816135c5565b82525050565b6000602082019050613ee96000830184613ec5565b92915050565b613ef881613728565b8114613f0357600080fd5b50565b600081359050613f1581613eef565b92915050565b60008060408385031215613f3257613f3161359b565b5b6000613f40858286016135ee565b9250506020613f5185828601613f06565b9150509250929050565b600081519050919050565b600082825260208201905092915050565b6000819050602082019050919050565b613f90816135c5565b82525050565b60c082016000820151613fac6000850182613daa565b506020820151613fbf6020850182613f87565b506040820151613fd26040850182613f87565b506060820151613fe56060850182613daa565b506080820151613ff86080850182613daa565b5060a082015161400b60a0850182613daa565b50505050565b600061401d8383613f96565b60c08301905092915050565b6000602082019050919050565b600061404182613f5b565b61404b8185613f66565b935061405683613f77565b8060005b8381101561408757815161406e8882614011565b975061407983614029565b92505060018101905061405a565b5085935050505092915050565b600060208201905081810360008301526140ae8184614036565b905092915050565b600080604083850312156140cd576140cc61359b565b5b60006140db85828601613624565b92505060206140ec85828601613624565b9150509250929050565b600060c08201905061410b6000830189613679565b6141186020830188613ec5565b6141256040830187613ec5565b6141326060830186613679565b61413f6080830185613679565b61414c60a0830184613679565b979650505050505050565b6000806040838503121561416e5761416d61359b565b5b600061417c858286016135ee565b925050602061418d858286016135ee565b9150509250929050565b600080600080600060a086880312156141b3576141b261359b565b5b60006141c1888289016135ee565b95505060206141d2888289016135ee565b94505060406141e388828901613624565b93505060606141f488828901613624565b925050608086013567ffffffffffffffff811115614215576142146135a0565b5b61422188828901613b19565b9150509295509295909350565b6000806000606084860312156142475761424661359b565b5b600061425586828701613624565b935050602061426686828701613624565b925050604061427786828701613624565b9150509250925092565b7f455243313135353a2061646472657373207a65726f206973206e6f742061207660008201527f616c6964206f776e657200000000000000000000000000000000000000000000602082015250565b60006142dd602a83613796565b91506142e882614281565b604082019050919050565b6000602082019050818103600083015261430c816142d0565b9050919050565b7f4e487b7100000000000000000000000000000000000000000000000000000000600052602260045260246000fd5b6000600282049050600182168061435a57607f821691505b60208210810361436d5761436c614313565b5b50919050565b7f455243313135353a2063616c6c6572206973206e6f7420746f6b656e206f776e60008201527f6572206f7220617070726f766564000000000000000000000000000000000000602082015250565b60006143cf602e83613796565b91506143da82614373565b604082019050919050565b600060208201905081810360008301526143fe816143c2565b9050919050565b7f4f6e6c79207468652073656c6c65722063616e2063616e63656c20746865207360008201527f616c650000000000000000000000000000000000000000000000000000000000602082015250565b6000614461602383613796565b915061446c82614405565b604082019050919050565b6000602082019050818103600083015261449081614454565b9050919050565b6000815190506144a6816135d7565b92915050565b6000602082840312156144c2576144c161359b565b5b60006144d084828501614497565b91505092915050565b7f4661696c656420746f2072657475726e2045524337323120746f6b656e000000600082015250565b600061450f601d83613796565b915061451a826144d9565b602082019050919050565b6000602082019050818103600083015261453e81614502565b9050919050565b600060408201905061455a6000830185613ec5565b6145676020830184613679565b9392505050565b60008151905061457d8161360d565b92915050565b6000602082840312156145995761459861359b565b5b60006145a78482850161456e565b91505092915050565b7f4661696c656420746f2072657475726e204552433131353520746f6b656e7300600082015250565b60006145e6601f83613796565b91506145f1826145b0565b602082019050919050565b60006020820190508181036000830152614615816145d9565b9050919050565b7f4e6f7468696e6720746f20776974686472617700000000000000000000000000600082015250565b6000614652601383613796565b915061465d8261461c565b602082019050919050565b6000602082019050818103600083015261468181614645565b9050919050565b7f4e487b7100000000000000000000000000000000000000000000000000000000600052601260045260246000fd5b7f4e487b7100000000000000000000000000000000000000000000000000000000600052601160045260246000fd5b60006146f182613603565b91506146fc83613603565b92508261470c5761470b614688565b5b828204905092915050565b600061472282613603565b915061472d83613603565b925082820261473b81613603565b91508282048414831517614752576147516146b7565b5b5092915050565b60008151905061476881613eef565b92915050565b6000602082840312156147845761478361359b565b5b600061479284828501614759565b91505092915050565b60006040820190506147b06000830185613679565b6147bd6020830184613679565b9392505050565b7f455243313135353a206163636f756e747320616e6420696473206c656e67746860008201527f206d69736d617463680000000000000000000000000000000000000000000000602082015250565b6000614820602983613796565b915061482b826147c4565b604082019050919050565b6000602082019050818103600083015261484f81614813565b9050919050565b7f4e487b7100000000000000000000000000000000000000000000000000000000600052603260045260246000fd5b600061489082613603565b91507fffffffffffffffffffffffffffffffffffffffffffffffffffffffffffffffff82036148c2576148c16146b7565b5b600182019050919050565b60006148d882613603565b91506148e383613603565b92508282019050808211156148fb576148fa6146b7565b5b92915050565b7f5175616e74697479206d7573742062652067726561746572207468616e203000600082015250565b6000614937601f83613796565b915061494282614901565b602082019050919050565b600060208201905081810360008301526149668161492a565b9050919050565b7f5072696365206d7573742062652067726561746572207468616e203000000000600082015250565b60006149a3601c83613796565b91506149ae8261496d565b602082019050919050565b600060208201905081810360008301526149d281614996565b9050919050565b60006060820190506149ee6000830186613ec5565b6149fb6020830185613ec5565b614a086040830184613679565b949350505050565b7f4661696c656420746f20726563656976652045524337323120746f6b656e0000600082015250565b6000614a46601e83613796565b9150614a5182614a10565b602082019050919050565b60006020820190508181036000830152614a7581614a39565b9050919050565b600082825260208201905092915050565b50565b6000614a9d600083614a7c565b9150614aa882614a8d565b600082019050919050565b600060a082019050614ac86000830187613ec5565b614ad56020830186613ec5565b614ae26040830185613679565b614aef6060830184613679565b8181036080830152614b0081614a90565b905095945050505050565b7f4661696c656420746f2072656365697665204552433131353520746f6b656e73600082015250565b6000614b41602083613796565b9150614b4c82614b0b565b602082019050919050565b60006020820190508181036000830152614b7081614b34565b9050919050565b7f53616c6520646f6573206e6f7420657869737400000000000000000000000000600082015250565b6000614bad601383613796565b9150614bb882614b77565b602082019050919050565b60006020820190508181036000830152614bdc81614ba0565b9050919050565b7f496e76616c6964207175616e7469747900000000000000000000000000000000600082015250565b6000614c19601083613796565b9150614c2482614be3565b602082019050919050565b60006020820190508181036000830152614c4881614c0c565b9050919050565b7f4661696c656420746f207472616e736665722045524337323120746f6b656e00600082015250565b6000614c85601f83613796565b9150614c9082614c4f565b602082019050919050565b60006020820190508181036000830152614cb481614c78565b9050919050565b7f4661696c656420746f207472616e73666572204552433131353520746f6b656e60008201527f7300000000000000000000000000000000000000000000000000000000000000602082015250565b6000614d17602183613796565b9150614d2282614cbb565b604082019050919050565b60006020820190508181036000830152614d4681614d0a565b9050919050565b6000614d5882613603565b9150614d6383613603565b9250828203905081811115614d7b57614d7a6146b7565b5b92915050565b6000606082019050614d966000830186613679565b614da36020830185613679565b614db06040830184613679565b949350505050565b6000614dc382613603565b915060008203614dd657614dd56146b7565b5b600182039050919050565b6000604082019050614df66000830185613679565b614e036020830184613ec5565b9392505050565b7f4f776e61626c653a206e6577206f776e657220697320746865207a65726f206160008201527f6464726573730000000000000000000000000000000000000000000000000000602082015250565b6000614e66602683613796565b9150614e7182614e0a565b604082019050919050565b60006020820190508181036000830152614e9581614e59565b9050919050565b7f4f6e6c79207468652073656c6c65722063616e2075706461746520746865207360008201527f616c650000000000000000000000000000000000000000000000000000000000602082015250565b6000614ef8602383613796565b9150614f0382614e9c565b604082019050919050565b60006020820190508181036000830152614f2781614eeb565b9050919050565b7f455243313135353a2069647320616e6420616d6f756e7473206c656e6774682060008201527f6d69736d61746368000000000000000000000000000000000000000000000000602082015250565b6000614f8a602883613796565b9150614f9582614f2e565b604082019050919050565b60006020820190508181036000830152614fb981614f7d565b9050919050565b7f455243313135353a207472616e7366657220746f20746865207a65726f20616460008201527f6472657373000000000000000000000000000000000000000000000000000000602082015250565b600061501c602583613796565b915061502782614fc0565b604082019050919050565b6000602082019050818103600083015261504b8161500f565b9050919050565b7f455243313135353a20696e73756666696369656e742062616c616e636520666f60008201527f72207472616e7366657200000000000000000000000000000000000000000000602082015250565b60006150ae602a83613796565b91506150b982615052565b604082019050919050565b600060208201905081810360008301526150dd816150a1565b9050919050565b600060408201905081810360008301526150fe8185613dde565b905081810360208301526151128184613dde565b90509392505050565b7f5265656e7472616e637947756172643a207265656e7472616e742063616c6c00600082015250565b6000615151601f83613796565b915061515c8261511b565b602082019050919050565b6000602082019050818103600083015261518081615144565b9050919050565b7f746f6b656e206d7573742062652045524331313535206f72204552433732312e600082015250565b60006151bd602083613796565b91506151c882615187565b602082019050919050565b600060208201905081810360008301526151ec816151b0565b9050919050565b7f4f776e61626c653a2063616c6c6572206973206e6f7420746865206f776e6572600082015250565b6000615229602083613796565b9150615234826151f3565b602082019050919050565b600060208201905081810360008301526152588161521c565b9050919050565b7f455243313135353a2073657474696e6720617070726f76616c2073746174757360008201527f20666f722073656c660000000000000000000000000000000000000000000000602082015250565b60006152bb602983613796565b91506152c68261525f565b604082019050919050565b600060208201905081810360008301526152ea816152ae565b9050919050565b600081519050919050565b6000615307826152f1565b6153118185614a7c565b93506153218185602086016137a7565b61532a816137d1565b840191505092915050565b600060a08201905061534a6000830188613ec5565b6153576020830187613ec5565b81810360408301526153698186613dde565b9050818103606083015261537d8185613dde565b9050818103608083015261539181846152fc565b90509695505050505050565b6000815190506153ac816136cf565b92915050565b6000602082840312156153c8576153c761359b565b5b60006153d68482850161539d565b91505092915050565b60008160e01c9050919050565b600060033d111561540b5760046000803e6154086000516153df565b90505b90565b600060443d1061549b57615420613591565b60043d036004823e80513d602482011167ffffffffffffffff8211171561544857505061549b565b808201805167ffffffffffffffff811115615466575050505061549b565b80602083010160043d03850181111561548357505050505061549b565b61549282602001850186613983565b82955050505050505b90565b7f455243313135353a207472616e7366657220746f206e6f6e2d4552433131353560008201527f526563656976657220696d706c656d656e746572000000000000000000000000602082015250565b60006154fa603483613796565b91506155058261549e565b604082019050919050565b60006020820190508181036000830152615529816154ed565b9050919050565b7f455243313135353a204552433131353552656365697665722072656a6563746560008201527f6420746f6b656e73000000000000000000000000000000000000000000000000602082015250565b600061558c602883613796565b915061559782615530565b604082019050919050565b600060208201905081810360008301526155bb8161557f565b9050919050565b600060a0820190506155d76000830188613ec5565b6155e46020830187613ec5565b6155f16040830186613679565b6155fe6060830185613679565b818103608083015261561081846152fc565b9050969550505050505056fea26469706673582212203e157e31fad86f23683fb259470c4627e76f55e91f9b9af9d8c358376be5e64164736f6c63430008120033",
  "immutableReferences": {},
  "source": "// SPDX-License-Identifier: MIT\r\npragma solidity ^0.8.9;\r\n\r\nimport \"@openzeppelin/contracts/token/ERC1155/ERC1155.sol\";\r\nimport \"@openzeppelin/contracts/token/ERC721/IERC721.sol\";\r\nimport \"@openzeppelin/contracts/token/ERC20/IERC20.sol\";\r\n\r\nimport \"@openzeppelin/contracts/token/ERC721/IERC721Receiver.sol\";\r\nimport \"@openzeppelin/contracts/token/ERC1155/IERC1155Receiver.sol\";\r\n\r\nimport \"@openzeppelin/contracts/access/Ownable.sol\";\r\nimport \"@openzeppelin/contracts/security/ReentrancyGuard.sol\";\r\nimport \"./IPSD.sol\";\r\n\r\ncontract PoseidonMarket is ERC1155, Ownable, IERC721Receiver, ReentrancyGuard {\r\n    \r\n    function onERC721Received(\r\n        address,\r\n        address,\r\n        uint256,\r\n        bytes calldata\r\n    ) public pure override returns (bytes4) {\r\n        return this.onERC721Received.selector;\r\n    }\r\n\r\n    struct Listing {\r\n        uint256 listingId;\r\n        address seller;\r\n        address tokenContract;\r\n        uint256 tokenId;\r\n        uint256 quantity;\r\n        uint256 price;\r\n    }\r\n\r\n    mapping(uint256 => Listing) public listings;\r\n    mapping(address => uint256) public earnings;\r\n\r\n    address coinContract;\r\n    uint256 totalListings;\r\n\r\n    event ListingCreated(\r\n        uint256 listingId,\r\n        address seller,\r\n        address tokenContract,\r\n        uint256 tokenId,\r\n        uint256 quantity,\r\n        uint256 price\r\n    );\r\n    event ListingUpdated(uint256 listingId, uint256 quantity, uint256 price);\r\n    event ListingCancelled(uint256 listingId);\r\n    event ListingSold(uint256 listingId, address buyer);\r\n    event Withdraw(uint256 amount, uint256 timestamp);\r\n\r\n    constructor() ERC1155(\"\") {}\r\n\r\n    function createListing(\r\n        address tokenContract,\r\n        uint256 tokenId,\r\n        uint256 quantity,\r\n        uint256 price\r\n    ) public nonReentrant {\r\n        uint256 listingId = totalListings;\r\n        totalListings += 1;\r\n\r\n        require(quantity > 0, \"Quantity must be greater than 0\");\r\n        require(price > 0, \"Price must be greater than 0\");\r\n\r\n        if (getTokenType(tokenContract) == 721) {\r\n            IERC721(tokenContract).safeTransferFrom(\r\n                msg.sender,\r\n                address(this),\r\n                tokenId\r\n            );\r\n            require(\r\n                IERC721(tokenContract).ownerOf(tokenId) == address(this),\r\n                \"Failed to receive ERC721 token\"\r\n            );\r\n        } else {\r\n            ERC1155(tokenContract).safeTransferFrom(\r\n                msg.sender,\r\n                address(this),\r\n                tokenId,\r\n                quantity,\r\n                \"\"\r\n            );\r\n            require(\r\n                ERC1155(tokenContract).balanceOf(address(this), tokenId) >=\r\n                    quantity,\r\n                \"Failed to receive ERC1155 tokens\"\r\n            );\r\n        }\r\n\r\n        Listing memory newListing = Listing(\r\n            listingId,\r\n            msg.sender,\r\n            tokenContract,\r\n            tokenId,\r\n            quantity,\r\n            price\r\n        );\r\n        listings[listingId] = newListing;\r\n\r\n        emit ListingCreated(\r\n            listingId,\r\n            msg.sender,\r\n            tokenContract,\r\n            tokenId,\r\n            quantity,\r\n            price\r\n        );\r\n    }\r\n\r\n    function updateListing(\r\n        uint256 listingId,\r\n        uint256 quantity,\r\n        uint256 price\r\n    ) public nonReentrant {\r\n        require(quantity > 0, \"Quantity must be greater than 0\");\r\n        require(price > 0, \"Price must be greater than 0\");\r\n        require(\r\n            listings[listingId].seller == msg.sender,\r\n            \"Only the seller can update the sale\"\r\n        );\r\n\r\n        listings[listingId].quantity = quantity;\r\n        listings[listingId].price = price;\r\n\r\n        emit ListingUpdated(listingId, quantity, price);\r\n    }\r\n\r\n    function cancelListing(uint256 listingId) public nonReentrant {\r\n        Listing memory targetListing = listings[listingId];\r\n        require(\r\n            targetListing.seller == msg.sender,\r\n            \"Only the seller can cancel the sale\"\r\n        );\r\n\r\n        if (getTokenType(targetListing.tokenContract) == 721) {\r\n            transferListingTokens(\r\n                address(this),\r\n                msg.sender,\r\n                targetListing.quantity,\r\n                targetListing\r\n            );\r\n            require(\r\n                IERC721(targetListing.tokenContract).ownerOf(\r\n                    targetListing.tokenId\r\n                ) == msg.sender,\r\n                \"Failed to return ERC721 token\"\r\n            );\r\n        } else {\r\n            transferListingTokens(\r\n                address(this),\r\n                msg.sender,\r\n                targetListing.quantity,\r\n                targetListing\r\n            );\r\n            require(\r\n                ERC1155(targetListing.tokenContract).balanceOf(\r\n                    msg.sender,\r\n                    targetListing.tokenId\r\n                ) >= targetListing.quantity,\r\n                \"Failed to return ERC1155 tokens\"\r\n            );\r\n        }\r\n        delete listings[listingId];\r\n\r\n        emit ListingCancelled(listingId);\r\n    }\r\n\r\n    function buy(uint256 listingId, uint256 quantity) public {\r\n        Listing memory targetListing = listings[listingId];\r\n\r\n        require(targetListing.seller != address(0), \"Sale does not exist\");\r\n        require(\r\n            quantity > 0 && quantity <= targetListing.quantity,\r\n            \"Invalid quantity\"\r\n        );\r\n\r\n        if (getTokenType(targetListing.tokenContract) == 721) {\r\n            transferListingTokens(\r\n                address(this),\r\n                msg.sender,\r\n                targetListing.quantity,\r\n                targetListing\r\n            );\r\n            require(\r\n                IERC721(targetListing.tokenContract).ownerOf(\r\n                    targetListing.tokenId\r\n                ) == msg.sender,\r\n                \"Failed to transfer ERC721 token\"\r\n            );\r\n        } else {\r\n            transferListingTokens(\r\n                address(this),\r\n                msg.sender,\r\n                targetListing.quantity,\r\n                targetListing\r\n            );\r\n            require(\r\n                ERC1155(targetListing.tokenContract).balanceOf(\r\n                    msg.sender,\r\n                    targetListing.tokenId\r\n                ) >= quantity,\r\n                \"Failed to transfer ERC1155 tokens\"\r\n            );\r\n        }\r\n\r\n        IPSD(coinContract).approveMarket(msg.sender, address(this), targetListing.price * 10 ** 18);\r\n        IERC20(coinContract).transferFrom(\r\n            msg.sender,\r\n            address(this),\r\n            targetListing.price * 10 ** 18\r\n        );\r\n        earnings[msg.sender] += targetListing.price * 10 ** 18;\r\n\r\n        if (quantity < targetListing.quantity) {\r\n            listings[listingId].quantity -= quantity;\r\n            emit ListingUpdated(\r\n                listingId,\r\n                listings[listingId].quantity,\r\n                targetListing.price\r\n            );\r\n        } else {\r\n            delete listings[listingId];\r\n            totalListings--;\r\n            emit ListingSold(listingId, msg.sender);\r\n        }\r\n    }\r\n\r\n    function get721Listings() public view returns (Listing[] memory) {\r\n        Listing[] memory _listings = new Listing[](totalListings);\r\n        uint256 count = 0;\r\n\r\n        for (uint256 i = 0; i < totalListings; i++) {\r\n            Listing memory listing = listings[i];\r\n            if (getTokenType(listing.tokenContract) == 721) {\r\n                _listings[count] = listing;\r\n                count++;\r\n            }\r\n        }\r\n\r\n        Listing[] memory result = new Listing[](count);\r\n        for (uint256 i = 0; i < count; i++) {\r\n            result[i] = _listings[i];\r\n        }\r\n\r\n        return result;\r\n    }\r\n\r\n        function get1155Listings() public view returns (Listing[] memory) {\r\n        Listing[] memory _listings = new Listing[](totalListings);\r\n        uint256 count = 0;\r\n\r\n        for (uint256 i = 0; i < totalListings; i++) {\r\n            Listing memory listing = listings[i];\r\n            if (getTokenType(listing.tokenContract) == 1155) {\r\n                _listings[count] = listing;\r\n                count++;\r\n            }\r\n        }\r\n\r\n        Listing[] memory result = new Listing[](count);\r\n        for (uint256 i = 0; i < count; i++) {\r\n            result[i] = _listings[i];\r\n        }\r\n\r\n        return result;\r\n    }\r\n\r\n    function transferListingTokens(\r\n        address _from,\r\n        address _to,\r\n        uint256 _quantity,\r\n        Listing memory _listing\r\n    ) internal {\r\n        if (getTokenType(_listing.tokenContract) == 1155) {\r\n            IERC1155(_listing.tokenContract).safeTransferFrom(\r\n                _from,\r\n                _to,\r\n                _listing.tokenId,\r\n                _quantity,\r\n                \"\"\r\n            );\r\n        } else if (getTokenType(_listing.tokenContract) == 721) {\r\n            IERC721(_listing.tokenContract).safeTransferFrom(\r\n                _from,\r\n                _to,\r\n                _listing.tokenId\r\n            );\r\n        }\r\n    }\r\n\r\n    function getEarnings() public view returns (uint256) {\r\n        return earnings[msg.sender];\r\n    }\r\n\r\n    function withdraw() public {\r\n        require(earnings[msg.sender] != 0, \"Nothing to withdraw\");\r\n        uint256 amount = earnings[msg.sender];\r\n        IERC20(coinContract).transfer(msg.sender, (amount / 100) * 97);\r\n        earnings[msg.sender] = 0;\r\n        emit Withdraw(amount, block.timestamp);\r\n    }\r\n\r\n    function getTokenType(\r\n        address _tokenContract\r\n    ) internal view returns (uint256) {\r\n        if (\r\n            IERC165(_tokenContract).supportsInterface(\r\n                type(IERC1155).interfaceId\r\n            )\r\n        ) {\r\n            return 1155;\r\n        } else if (\r\n            IERC165(_tokenContract).supportsInterface(type(IERC721).interfaceId)\r\n        ) {\r\n            return 721;\r\n        } else {\r\n            revert(\"token must be ERC1155 or ERC721.\");\r\n        }\r\n    }\r\n\r\n    function setCurrency(address _tokenContract) public {\r\n        coinContract = _tokenContract;\r\n    }\r\n\r\n    function getCollectedFees() public view returns (uint256) {\r\n        uint256 result = IERC20(coinContract).balanceOf(address(this));\r\n        return result;\r\n    }\r\n}\r\n",
  "sourcePath": "C:\\Users\\muizy\\Desktop\\blockchain\\contracts\\PoseidonMarket.sol",
  "compiler": {
    "name": "solc",
    "version": "0.8.18+commit.87f61d96.Emscripten.clang"
  },
  "schemaVersion": "3.4.11",
  "updatedAt": "2023-04-01T00:37:17.349Z",
  "networkType": "ethereum",
  "devdoc": {
    "events": {
      "ApprovalForAll(address,address,bool)": {
        "details": "Emitted when `account` grants or revokes permission to `operator` to transfer their tokens, according to `approved`."
      },
      "TransferBatch(address,address,address,uint256[],uint256[])": {
        "details": "Equivalent to multiple {TransferSingle} events, where `operator`, `from` and `to` are the same for all transfers."
      },
      "TransferSingle(address,address,address,uint256,uint256)": {
        "details": "Emitted when `value` tokens of token type `id` are transferred from `from` to `to` by `operator`."
      },
      "URI(string,uint256)": {
        "details": "Emitted when the URI for token type `id` changes to `value`, if it is a non-programmatic URI. If an {URI} event was emitted for `id`, the standard https://eips.ethereum.org/EIPS/eip-1155#metadata-extensions[guarantees] that `value` will equal the value returned by {IERC1155MetadataURI-uri}."
      }
    },
    "kind": "dev",
    "methods": {
      "balanceOf(address,uint256)": {
        "details": "See {IERC1155-balanceOf}. Requirements: - `account` cannot be the zero address."
      },
      "balanceOfBatch(address[],uint256[])": {
        "details": "See {IERC1155-balanceOfBatch}. Requirements: - `accounts` and `ids` must have the same length."
      },
      "isApprovedForAll(address,address)": {
        "details": "See {IERC1155-isApprovedForAll}."
      },
      "owner()": {
        "details": "Returns the address of the current owner."
      },
      "renounceOwnership()": {
        "details": "Leaves the contract without owner. It will not be possible to call `onlyOwner` functions anymore. Can only be called by the current owner. NOTE: Renouncing ownership will leave the contract without an owner, thereby removing any functionality that is only available to the owner."
      },
      "safeBatchTransferFrom(address,address,uint256[],uint256[],bytes)": {
        "details": "See {IERC1155-safeBatchTransferFrom}."
      },
      "safeTransferFrom(address,address,uint256,uint256,bytes)": {
        "details": "See {IERC1155-safeTransferFrom}."
      },
      "setApprovalForAll(address,bool)": {
        "details": "See {IERC1155-setApprovalForAll}."
      },
      "supportsInterface(bytes4)": {
        "details": "See {IERC165-supportsInterface}."
      },
      "transferOwnership(address)": {
        "details": "Transfers ownership of the contract to a new account (`newOwner`). Can only be called by the current owner."
      },
      "uri(uint256)": {
        "details": "See {IERC1155MetadataURI-uri}. This implementation returns the same URI for *all* token types. It relies on the token type ID substitution mechanism https://eips.ethereum.org/EIPS/eip-1155#metadata[defined in the EIP]. Clients calling this function must replace the `\\{id\\}` substring with the actual token type ID."
      }
    },
    "version": 1
  },
  "userdoc": {
    "kind": "user",
    "methods": {},
    "version": 1
  }
}